{
  "address": "0x6AF71FdedfE3E45e0F7c996e707223460cC8f1Da",
  "abi": [
    {
      "inputs": [
        {
          "internalType": "uint256",
          "name": "value",
          "type": "uint256"
        },
        {
          "internalType": "uint256",
          "name": "length",
          "type": "uint256"
        }
      ],
      "name": "StringsInsufficientHexLength",
      "type": "error"
    },
    {
      "anonymous": false,
      "inputs": [
        {
          "indexed": true,
          "internalType": "enum UserType",
          "name": "_type",
          "type": "uint8"
        },
        {
          "indexed": true,
          "internalType": "string",
          "name": "userId",
          "type": "string"
        },
        {
          "indexed": true,
          "internalType": "uint256",
          "name": "userIndex",
          "type": "uint256"
        }
      ],
      "name": "RegisterUser",
      "type": "event"
    },
    {
      "inputs": [
        {
          "internalType": "enum UserType",
          "name": "_type",
          "type": "uint8"
        },
        {
          "internalType": "string",
          "name": "_userId",
          "type": "string"
        },
        {
          "internalType": "address",
          "name": "_delegateEOA",
          "type": "address"
        }
      ],
      "name": "admin_registerMessengerUser",
      "outputs": [],
      "stateMutability": "nonpayable",
      "type": "function"
    },
    {
      "inputs": [
        {
          "internalType": "address",
          "name": "_delegateEOA",
          "type": "address"
        }
      ],
      "name": "admin_registerWalletUser",
      "outputs": [],
      "stateMutability": "nonpayable",
      "type": "function"
    },
    {
      "inputs": [
        {
          "internalType": "uint256",
          "name": "_index",
          "type": "uint256"
        }
      ],
      "name": "admin_setGlobalUserIndex",
      "outputs": [],
      "stateMutability": "nonpayable",
      "type": "function"
    },
    {
      "inputs": [
        {
          "internalType": "string",
          "name": "_name",
          "type": "string"
        }
      ],
      "name": "getContract",
      "outputs": [
        {
          "internalType": "address",
          "name": "",
          "type": "address"
        }
      ],
      "stateMutability": "view",
      "type": "function"
    },
    {
      "inputs": [
        {
          "internalType": "string",
          "name": "_name",
          "type": "string"
        },
        {
          "internalType": "address",
          "name": "_address",
          "type": "address"
        }
      ],
      "name": "setContract",
      "outputs": [],
      "stateMutability": "nonpayable",
      "type": "function"
    }
  ],
  "transactionHash": "0x687f2dddceaac87e9cf8ee94651a518f44a6d082bac5dd2ff5e4df99c5406834",
  "args": [],
  "numDeployments": 7,
  "solcInputHash": "c086df09a65a289de34dd0b5ed9dc7ac",
  "bytecode": "0x608060405234801561001057600080fd5b50610b95806100206000396000f3fe608060405234801561001057600080fd5b50600436106100575760003560e01c8063358177731461005c5780633e7ad4701461008b5780633ef290b5146100a05780633f0ed0df146100b35780637fcf85b4146100c6575b600080fd5b61006f61006a3660046107f2565b6100d9565b6040516001600160a01b03909116815260200160405180910390f35b61009e610099366004610843565b61010c565b005b61009e6100ae3660046108a7565b610290565b61009e6100c13660046108c9565b61040b565b61009e6100d4366004610917565b610459565b600080600001826040516100ed9190610930565b908152604051908190036020019020546001600160a01b031692915050565b610114610466565b600061011f836104f4565b9050806000600101826040516101359190610930565b9081526040519081900360200190209061014f90826109ea565b50836000600101826040516101649190610930565b908152604051908190036020019020600301805460ff60a01b1916600160a01b83600281111561019657610196610aaa565b0217905550816000600101826040516101af9190610930565b908152604051908190036020018120600390810180546001600160a01b03949094166001600160a01b03199094169390931790925560025491906101f4908490610930565b90815260405190819003602001812091909155600390610215908390610930565b908152602001604051809103902054816040516102329190610930565b604051809103902085600281111561024c5761024c610aaa565b6040517fd0cb6b6a3ec896a28c9cbdc1c1d8bd5974bffca7bc1e7d79d23f8077dd03a1b290600090a46002805490600061028583610ad6565b919050555050505050565b610298610466565b60006102ab6102a633610564565b6104f4565b9050806000600101826040516102c19190610930565b908152604051908190036020019020906102db90826109ea565b50600080600101826040516102f09190610930565b908152604051908190036020019020600301805460ff60a01b1916600160a01b83600281111561032257610322610aaa565b02179055508160006001018260405161033b9190610930565b908152604051908190036020018120600390810180546001600160a01b03949094166001600160a01b0319909416939093179092556002549190610380908490610930565b908152604051908190036020018120919091556003906103a1908390610930565b908152602001604051809103902054816040516103be9190610930565b60405190819003902060006040517fd0cb6b6a3ec896a28c9cbdc1c1d8bd5974bffca7bc1e7d79d23f8077dd03a1b290600090a46002805490600061040283610ad6565b91905055505050565b610413610466565b8060008001836040516104269190610930565b90815260405190819003602001902080546001600160a01b03929092166001600160a01b03199092169190911790555050565b610461610466565b600255565b7fc8fcad8db84d3cc18b4c41d551ea0ee66dd599cde068d998e57d5e09332c131c600401546001600160a01b031633146104f25760405162461bcd60e51b815260206004820152602260248201527f4c69624469616d6f6e643a204d75737420626520636f6e7472616374206f776e60448201526132b960f11b60648201526084015b60405180910390fd5b565b60608160005b815181101561055d5761052c82828151811061051857610518610aef565b01602001516001600160f81b031916610580565b82828151811061053e5761053e610aef565b60200101906001600160f81b031916908160001a9053506001016104fa565b5092915050565b606061057a6001600160a01b03831660146105cf565b92915050565b6000604160f81b6001600160f81b03198316108015906105ae5750602d60f91b6001600160f81b0319831611155b156105cb576105c260f883901c6020610b05565b60f81b92915050565b5090565b60608260006105df846002610b1e565b6105ea906002610b35565b67ffffffffffffffff8111156106025761060261074f565b6040519080825280601f01601f19166020018201604052801561062c576020820181803683370190505b509050600360fc1b8160008151811061064757610647610aef565b60200101906001600160f81b031916908160001a905350600f60fb1b8160018151811061067657610676610aef565b60200101906001600160f81b031916908160001a905350600061069a856002610b1e565b6106a5906001610b35565b90505b600181111561071d576f181899199a1a9b1b9c1cb0b131b232b360811b83600f16601081106106d9576106d9610aef565b1a60f81b8282815181106106ef576106ef610aef565b60200101906001600160f81b031916908160001a90535060049290921c9161071681610b48565b90506106a8565b5081156107475760405163e22e27eb60e01b815260048101869052602481018590526044016104e9565b949350505050565b634e487b7160e01b600052604160045260246000fd5b600082601f83011261077657600080fd5b813567ffffffffffffffff808211156107915761079161074f565b604051601f8301601f19908116603f011681019082821181831017156107b9576107b961074f565b816040528381528660208588010111156107d257600080fd5b836020870160208301376000602085830101528094505050505092915050565b60006020828403121561080457600080fd5b813567ffffffffffffffff81111561081b57600080fd5b61074784828501610765565b80356001600160a01b038116811461083e57600080fd5b919050565b60008060006060848603121561085857600080fd5b83356003811061086757600080fd5b9250602084013567ffffffffffffffff81111561088357600080fd5b61088f86828701610765565b92505061089e60408501610827565b90509250925092565b6000602082840312156108b957600080fd5b6108c282610827565b9392505050565b600080604083850312156108dc57600080fd5b823567ffffffffffffffff8111156108f357600080fd5b6108ff85828601610765565b92505061090e60208401610827565b90509250929050565b60006020828403121561092957600080fd5b5035919050565b6000825160005b818110156109515760208186018101518583015201610937565b506000920191825250919050565b600181811c9082168061097357607f821691505b60208210810361099357634e487b7160e01b600052602260045260246000fd5b50919050565b601f8211156109e5576000816000526020600020601f850160051c810160208610156109c25750805b601f850160051c820191505b818110156109e1578281556001016109ce565b5050505b505050565b815167ffffffffffffffff811115610a0457610a0461074f565b610a1881610a12845461095f565b84610999565b602080601f831160018114610a4d5760008415610a355750858301515b600019600386901b1c1916600185901b1785556109e1565b600085815260208120601f198616915b82811015610a7c57888601518255948401946001909101908401610a5d565b5085821015610a9a5787850151600019600388901b60f8161c191681555b5050505050600190811b01905550565b634e487b7160e01b600052602160045260246000fd5b634e487b7160e01b600052601160045260246000fd5b600060018201610ae857610ae8610ac0565b5060010190565b634e487b7160e01b600052603260045260246000fd5b60ff818116838216019081111561057a5761057a610ac0565b808202811582820484141761057a5761057a610ac0565b8082018082111561057a5761057a610ac0565b600081610b5757610b57610ac0565b50600019019056fea264697066735822122001514b38731a071079d5655cc4b8e83e0cfbfe2ffb5e377aa2ad54125af7827e64736f6c63430008180033",
  "devdoc": {
    "errors": {
      "StringsInsufficientHexLength(uint256,uint256)": [
        {
          "details": "The `value` string doesn't fit in the specified `length`."
        }
      ]
    },
    "kind": "dev",
    "methods": {},
    "version": 1
  },
  "userdoc": {
    "kind": "user",
    "methods": {},
    "version": 1
  },
  "storageLayout": {
    "storage": [
      {
        "astId": 3920,
        "contract": "contracts/elementa/adminFacet.sol:adminFacet",
        "label": "s",
        "offset": 0,
        "slot": "0",
        "type": "t_struct(AppStorage)3910_storage"
      }
    ],
    "types": {
      "t_address": {
        "encoding": "inplace",
        "label": "address",
        "numberOfBytes": "20"
      },
      "t_bool": {
        "encoding": "inplace",
        "label": "bool",
        "numberOfBytes": "1"
      },
      "t_enum(UserType)3861": {
        "encoding": "inplace",
        "label": "enum UserType",
        "numberOfBytes": "1"
      },
      "t_mapping(t_address,t_struct(DelegateEOA)3882_storage)": {
        "encoding": "mapping",
        "key": "t_address",
        "label": "mapping(address => struct DelegateEOA)",
        "numberOfBytes": "32",
        "value": "t_struct(DelegateEOA)3882_storage"
      },
      "t_mapping(t_string_memory_ptr,t_address)": {
        "encoding": "mapping",
        "key": "t_string_memory_ptr",
        "label": "mapping(string => address)",
        "numberOfBytes": "32",
        "value": "t_address"
      },
      "t_mapping(t_string_memory_ptr,t_struct(User)3873_storage)": {
        "encoding": "mapping",
        "key": "t_string_memory_ptr",
        "label": "mapping(string => struct User)",
        "numberOfBytes": "32",
        "value": "t_struct(User)3873_storage"
      },
      "t_mapping(t_string_memory_ptr,t_uint256)": {
        "encoding": "mapping",
        "key": "t_string_memory_ptr",
        "label": "mapping(string => uint256)",
        "numberOfBytes": "32",
        "value": "t_uint256"
      },
      "t_string_memory_ptr": {
        "encoding": "bytes",
        "label": "string",
        "numberOfBytes": "32"
      },
      "t_string_storage": {
        "encoding": "bytes",
        "label": "string",
        "numberOfBytes": "32"
      },
      "t_struct(AppStorage)3910_storage": {
        "encoding": "inplace",
        "label": "struct AppStorage",
        "members": [
          {
            "astId": 3893,
            "contract": "contracts/elementa/adminFacet.sol:adminFacet",
            "label": "contracts",
            "offset": 0,
            "slot": "0",
            "type": "t_mapping(t_string_memory_ptr,t_address)"
          },
          {
            "astId": 3898,
            "contract": "contracts/elementa/adminFacet.sol:adminFacet",
            "label": "users",
            "offset": 0,
            "slot": "1",
            "type": "t_mapping(t_string_memory_ptr,t_struct(User)3873_storage)"
          },
          {
            "astId": 3900,
            "contract": "contracts/elementa/adminFacet.sol:adminFacet",
            "label": "globalUserIndex",
            "offset": 0,
            "slot": "2",
            "type": "t_uint256"
          },
          {
            "astId": 3904,
            "contract": "contracts/elementa/adminFacet.sol:adminFacet",
            "label": "userIndex",
            "offset": 0,
            "slot": "3",
            "type": "t_mapping(t_string_memory_ptr,t_uint256)"
          },
          {
            "astId": 3909,
            "contract": "contracts/elementa/adminFacet.sol:adminFacet",
            "label": "delegateEOAs",
            "offset": 0,
            "slot": "4",
            "type": "t_mapping(t_address,t_struct(DelegateEOA)3882_storage)"
          }
        ],
        "numberOfBytes": "160"
      },
      "t_struct(DelegateEOA)3882_storage": {
        "encoding": "inplace",
        "label": "struct DelegateEOA",
        "members": [
          {
            "astId": 3875,
            "contract": "contracts/elementa/adminFacet.sol:adminFacet",
            "label": "userIndex",
            "offset": 0,
            "slot": "0",
            "type": "t_uint256"
          },
          {
            "astId": 3877,
            "contract": "contracts/elementa/adminFacet.sol:adminFacet",
            "label": "userId",
            "offset": 0,
            "slot": "1",
            "type": "t_string_storage"
          },
          {
            "astId": 3879,
            "contract": "contracts/elementa/adminFacet.sol:adminFacet",
            "label": "connectAddress",
            "offset": 0,
            "slot": "2",
            "type": "t_address"
          },
          {
            "astId": 3881,
            "contract": "contracts/elementa/adminFacet.sol:adminFacet",
            "label": "isOwnNFT",
            "offset": 20,
            "slot": "2",
            "type": "t_bool"
          }
        ],
        "numberOfBytes": "96"
      },
      "t_struct(User)3873_storage": {
        "encoding": "inplace",
        "label": "struct User",
        "members": [
          {
            "astId": 3863,
            "contract": "contracts/elementa/adminFacet.sol:adminFacet",
            "label": "userId",
            "offset": 0,
            "slot": "0",
            "type": "t_string_storage"
          },
          {
            "astId": 3865,
            "contract": "contracts/elementa/adminFacet.sol:adminFacet",
            "label": "nftId",
            "offset": 0,
            "slot": "1",
            "type": "t_uint256"
          },
          {
            "astId": 3867,
            "contract": "contracts/elementa/adminFacet.sol:adminFacet",
            "label": "reciveAddress",
            "offset": 0,
            "slot": "2",
            "type": "t_address"
          },
          {
            "astId": 3869,
            "contract": "contracts/elementa/adminFacet.sol:adminFacet",
            "label": "delegateEOA",
            "offset": 0,
            "slot": "3",
            "type": "t_address"
          },
          {
            "astId": 3872,
            "contract": "contracts/elementa/adminFacet.sol:adminFacet",
            "label": "userType",
            "offset": 20,
            "slot": "3",
            "type": "t_enum(UserType)3861"
          }
        ],
        "numberOfBytes": "128"
      },
      "t_uint256": {
        "encoding": "inplace",
        "label": "uint256",
        "numberOfBytes": "32"
      }
    }
  }
}