{
  "address": "0xB7e7D0D46D2C8D574b8aF5A0b3759e26C208E29a",
  "abi": [
    {
      "anonymous": false,
      "inputs": [
        {
          "indexed": true,
          "internalType": "enum UserType",
          "name": "_type",
          "type": "uint8"
        },
        {
          "indexed": true,
          "internalType": "string",
          "name": "userId",
          "type": "string"
        },
        {
          "indexed": true,
          "internalType": "uint256",
          "name": "userIndex",
          "type": "uint256"
        }
      ],
      "name": "RegisterUser",
      "type": "event"
    },
    {
      "inputs": [
        {
          "internalType": "enum EquipmentType",
          "name": "_itemType",
          "type": "uint8"
        },
        {
          "internalType": "uint256",
          "name": "_itemId",
          "type": "uint256"
        }
      ],
      "name": "admin_getEquipment",
      "outputs": [
        {
          "components": [
            {
              "internalType": "enum EquipmentType",
              "name": "equipmentType",
              "type": "uint8"
            },
            {
              "internalType": "uint256",
              "name": "itemId",
              "type": "uint256"
            },
            {
              "internalType": "string",
              "name": "name",
              "type": "string"
            },
            {
              "internalType": "bytes",
              "name": "svgUri",
              "type": "bytes"
            }
          ],
          "internalType": "struct ElementaItem",
          "name": "",
          "type": "tuple"
        }
      ],
      "stateMutability": "view",
      "type": "function"
    },
    {
      "inputs": [
        {
          "internalType": "enum UserType",
          "name": "_type",
          "type": "uint8"
        },
        {
          "internalType": "string",
          "name": "_userId",
          "type": "string"
        },
        {
          "internalType": "address",
          "name": "_delegateEOA",
          "type": "address"
        },
        {
          "internalType": "string",
          "name": "_refferalId",
          "type": "string"
        }
      ],
      "name": "admin_registerMessengerUser",
      "outputs": [],
      "stateMutability": "nonpayable",
      "type": "function"
    },
    {
      "inputs": [
        {
          "internalType": "enum EquipmentType",
          "name": "_itemType",
          "type": "uint8"
        },
        {
          "internalType": "uint256",
          "name": "_itemId",
          "type": "uint256"
        },
        {
          "internalType": "string",
          "name": "_name",
          "type": "string"
        },
        {
          "internalType": "bytes",
          "name": "_svgUri",
          "type": "bytes"
        }
      ],
      "name": "admin_setEquipment",
      "outputs": [],
      "stateMutability": "nonpayable",
      "type": "function"
    },
    {
      "inputs": [
        {
          "internalType": "uint256",
          "name": "_index",
          "type": "uint256"
        }
      ],
      "name": "admin_setGlobalUserIndex",
      "outputs": [],
      "stateMutability": "nonpayable",
      "type": "function"
    },
    {
      "inputs": [
        {
          "internalType": "string",
          "name": "_name",
          "type": "string"
        }
      ],
      "name": "getContract",
      "outputs": [
        {
          "internalType": "address",
          "name": "",
          "type": "address"
        }
      ],
      "stateMutability": "view",
      "type": "function"
    },
    {
      "inputs": [
        {
          "internalType": "string",
          "name": "_name",
          "type": "string"
        },
        {
          "internalType": "address",
          "name": "_address",
          "type": "address"
        }
      ],
      "name": "setContract",
      "outputs": [],
      "stateMutability": "nonpayable",
      "type": "function"
    }
  ],
  "transactionHash": "0x333d8011092393688a8ff75c9ff514bce75ebfa4ba39624e94ef878053f684b9",
  "args": [],
  "numDeployments": 12,
  "solcInputHash": "e4d676a7937a04f2aa46e85e8572b57c",
  "bytecode": "0x6080806040523461001657610e5e908161001c8239f35b600080fdfe6080604052600436101561001257600080fd5b60003560e01c80633581777314610a7c5780633f0ed0df14610a0857806345bca7b81461042f5780637fcf85b41461040e578063a552ce591461018e5763ffcf6bec1461005e57600080fd5b34610189576040366003190112610189576004356009811015610189576100a69060608060405161008e81610ae5565b60008152600060208201528160408201520152610c85565b6024356000526020526040600020604051906100c182610ae5565b60ff8154166009811015610173578252600181015460208301908152600361011c604051936100fe856100f78160028501610c9e565b0386610b01565b604086019485526101156040518094819301610c9e565b0382610b01565b60608401908152604051936020855251600981101561017357849361016f9361015c926020870152516040860152516080606086015260a0850190610bab565b9051838203601f19016080850152610bab565b0390f35b634e487b7160e01b600052602160045260246000fd5b600080fd5b346101895760803660031901126101895760043560098110156101895760243567ffffffffffffffff604435818111610189576101cf903690600401610b6a565b926064358281116101895736602382011215610189576101f9903690602481600401359101610b23565b92610202610d34565b61020b82610c85565b91816000526020928352604060002060ff1981541660ff831617905561023081610c85565b82600052835260019582876040600020015561024b82610c85565b83600052845260026040600020019080519086821161038457610278826102728554610bd0565b85610c0a565b8590601f83116001146103a55791806102ae926102b596959460009261039a575b50508160011b916000199060031b1c19161790565b9055610c85565b9060005281526003604060002001938351928311610384576102e1836102db8754610bd0565b87610c0a565b81601f84116001146103205750508190610311936000926103155750508160011b916000199060031b1c19161790565b9055005b015190508480610299565b91909383601f1981168760005284600020946000905b8883831061036a5750505010610351575b505050811b019055005b015160001960f88460031b161c19169055838080610347565b858701518855909601959485019487935090810190610336565b634e487b7160e01b600052604160045260246000fd5b015190508b80610299565b9392918991601f1982169084600052886000209160005b8a8282106103f857505096836102b598106103df575b505050811b019055610c85565b015160001960f88460031b161c191690558a80806103d2565b838a015185558e969094019392830192016103bc565b3461018957602036600319011261018957610427610d34565b600435600255005b3461018957608036600319011261018957600360043510156101895767ffffffffffffffff6024358181116101895761046c903690600401610b6a565b906001600160a01b0360443581811681036101895760643583811161018957610499903690600401610b6a565b926104a2610d34565b60005b85518110156104e2576001906104ce6001600160f81b03196104c7838a610db7565b5116610dde565b60001a6104db8289610db7565b53016104a5565b508493836003604051602081816104ff8b83815193849201610b88565b810160018152030190200154166109a65760405160208187516105258183858c01610b88565b8101600181520301902085518381116103845761054c816105468454610bd0565b84610c0a565b6020601f821160011461093f57908061057b92600091610934575b508160011b916000199060031b1c19161790565b90555b600360405160208188516105958183858d01610b88565b8101600181520301902001805460ff60a01b60043560a01b169060ff60a01b1916179055600360405160208188516105d08183858d01610b88565b81016001815203019020018484166bffffffffffffffffffffffff60a01b8254161790556004604051602081885161060b8183858d01610b88565b810160018152030190200181518381116103845761062d816105468454610bd0565b6020601f82116001146108c4579261067a92610664836020946005976000916108b957508160011b916000199060031b1c19161790565b90555b8160405193828580945193849201610b88565b810160018152030190200161068f8154610c60565b90556002548060405160208188516106aa8183858d01610b88565b810160038152030190205560005260056020526001600460406000200155600254600052600560066040600020015560025460005260056007604060002001556002546000524260096040600020015560025460005260016040600020018383166bffffffffffffffffffffffff60a01b8254161790556001600254848416600052600460205260406000209081550190845190811161038457610752816105468454610bd0565b6020601f82116001146108545790806107809260009161084957508160011b916000199060031b1c19161790565b90555b600160005260066020527f3e5fec24aa4dc4e5aee2e025e51e1392c72a2500577559fae9665c6d52bd6a3380546107b990610c60565b90551660005260076020526040600020600160ff1982541617905561080c60405160208184516107ec8183858901610b88565b810160038152030190205491602060405192828480945193849201610b88565b81010390206004357fd0cb6b6a3ec896a28c9cbdc1c1d8bd5974bffca7bc1e7d79d23f8077dd03a1b2600080a4610844600254610c60565b600255005b905086015187610567565b601f198216908360005260206000209160005b8181106108a157509083600194939210610888575b5050811b019055610783565b87015160001960f88460031b161c19169055868061087c565b9192602060018192868c015181550194019201610867565b90508401518c610567565b8260005260206000209060005b601f198416811061091c5750926001836005969361067a96602096601f19811610610903575b5050811b019055610667565b85015160001960f88460031b161c191690558b806108f7565b909160206001819285890151815501930191016108d1565b905088015189610567565b601f198216908360005260206000209160005b8a82821061098e5750509083600194939210610975575b5050811b01905561057e565b89015160001960f88460031b161c191690558880610969565b60018495602093958493015181550194019201610952565b60405162461bcd60e51b815260206004820152603460248201527f61646d696e5f72656769737465724d657373656e676572557365723a207573656044820152731c88185b1c9958591e481c9959da5cdd195c995960621b6064820152608490fd5b346101895760403660031901126101895760043567ffffffffffffffff811161018957610a39903690600401610b6a565b6024356001600160a01b0381169190829003610189576020610a5d91610667610d34565b60009082019081520301902080546001600160a01b0319169091179055005b346101895760203660031901126101895760043567ffffffffffffffff811161018957610aaf6020913690600401610b6a565b81610ac36040519283815193849201610b88565b600090820190815281900382019020546040516001600160a01b039091168152f35b6080810190811067ffffffffffffffff82111761038457604052565b90601f8019910116810190811067ffffffffffffffff82111761038457604052565b92919267ffffffffffffffff82116103845760405191610b4d601f8201601f191660200184610b01565b829481845281830111610189578281602093846000960137010152565b9080601f8301121561018957816020610b8593359101610b23565b90565b60005b838110610b9b5750506000910152565b8181015183820152602001610b8b565b90602091610bc481518092818552858086019101610b88565b601f01601f1916010190565b90600182811c92168015610c00575b6020831014610bea57565b634e487b7160e01b600052602260045260246000fd5b91607f1691610bdf565b90601f8111610c1857505050565b6000916000526020600020906020601f850160051c83019410610c56575b601f0160051c01915b828110610c4b57505050565b818155600101610c3f565b9092508290610c36565b6000198114610c6f5760010190565b634e487b7160e01b600052601160045260246000fd5b6009811015610173576000526008602052604060002090565b805460009392610cad82610bd0565b91828252602093600191600181169081600014610d155750600114610cd4575b5050505050565b90939495506000929192528360002092846000945b838610610d0157505050500101903880808080610ccd565b805485870183015294019385908201610ce9565b60ff19168685015250505090151560051b010191503880808080610ccd565b7fc8fcad8db84d3cc18b4c41d551ea0ee66dd599cde068d998e57d5e09332c1320546001600160a01b03163303610d6757565b60405162461bcd60e51b815260206004820152602260248201527f4c69624469616d6f6e643a204d75737420626520636f6e7472616374206f776e60448201526132b960f11b6064820152608490fd5b908151811015610dc8570160200190565b634e487b7160e01b600052603260045260246000fd5b6001600160f81b0319604160f81b828216908110159081610e19575b50610e03575090565b9060f81c60200160ff8111610c6f5760f81b1690565b602d60f91b1015905038610dfa56fea26469706673582212204dafc0cb648c57f13991e828ac45fc49c3ee0c826ed0011f333747d106281c1364736f6c63430008180033",
  "devdoc": {
    "kind": "dev",
    "methods": {},
    "version": 1
  },
  "userdoc": {
    "kind": "user",
    "methods": {},
    "version": 1
  },
  "storageLayout": {
    "storage": [
      {
        "astId": 4599,
        "contract": "contracts/elementa/adminFacet.sol:adminFacet",
        "label": "s",
        "offset": 0,
        "slot": "0",
        "type": "t_struct(AppStorage)4553_storage"
      }
    ],
    "types": {
      "t_address": {
        "encoding": "inplace",
        "label": "address",
        "numberOfBytes": "20"
      },
      "t_bool": {
        "encoding": "inplace",
        "label": "bool",
        "numberOfBytes": "1"
      },
      "t_bytes_storage": {
        "encoding": "bytes",
        "label": "bytes",
        "numberOfBytes": "32"
      },
      "t_enum(EquipmentType)4564": {
        "encoding": "inplace",
        "label": "enum EquipmentType",
        "numberOfBytes": "1"
      },
      "t_enum(UserType)4570": {
        "encoding": "inplace",
        "label": "enum UserType",
        "numberOfBytes": "1"
      },
      "t_mapping(t_address,t_bool)": {
        "encoding": "mapping",
        "key": "t_address",
        "label": "mapping(address => bool)",
        "numberOfBytes": "32",
        "value": "t_bool"
      },
      "t_mapping(t_address,t_struct(DelegateEOA)4468_storage)": {
        "encoding": "mapping",
        "key": "t_address",
        "label": "mapping(address => struct DelegateEOA)",
        "numberOfBytes": "32",
        "value": "t_struct(DelegateEOA)4468_storage"
      },
      "t_mapping(t_enum(EquipmentType)4564,t_mapping(t_uint256,t_struct(ElementaItem)4510_storage))": {
        "encoding": "mapping",
        "key": "t_enum(EquipmentType)4564",
        "label": "mapping(enum EquipmentType => mapping(uint256 => struct ElementaItem))",
        "numberOfBytes": "32",
        "value": "t_mapping(t_uint256,t_struct(ElementaItem)4510_storage)"
      },
      "t_mapping(t_string_memory_ptr,t_address)": {
        "encoding": "mapping",
        "key": "t_string_memory_ptr",
        "label": "mapping(string => address)",
        "numberOfBytes": "32",
        "value": "t_address"
      },
      "t_mapping(t_string_memory_ptr,t_struct(User)4459_storage)": {
        "encoding": "mapping",
        "key": "t_string_memory_ptr",
        "label": "mapping(string => struct User)",
        "numberOfBytes": "32",
        "value": "t_struct(User)4459_storage"
      },
      "t_mapping(t_string_memory_ptr,t_uint256)": {
        "encoding": "mapping",
        "key": "t_string_memory_ptr",
        "label": "mapping(string => uint256)",
        "numberOfBytes": "32",
        "value": "t_uint256"
      },
      "t_mapping(t_uint256,t_struct(ElementaItem)4510_storage)": {
        "encoding": "mapping",
        "key": "t_uint256",
        "label": "mapping(uint256 => struct ElementaItem)",
        "numberOfBytes": "32",
        "value": "t_struct(ElementaItem)4510_storage"
      },
      "t_mapping(t_uint256,t_struct(ElementaNFT)4500_storage)": {
        "encoding": "mapping",
        "key": "t_uint256",
        "label": "mapping(uint256 => struct ElementaNFT)",
        "numberOfBytes": "32",
        "value": "t_struct(ElementaNFT)4500_storage"
      },
      "t_mapping(t_uint256,t_struct(levelInfo)4477_storage)": {
        "encoding": "mapping",
        "key": "t_uint256",
        "label": "mapping(uint256 => struct levelInfo)",
        "numberOfBytes": "32",
        "value": "t_struct(levelInfo)4477_storage"
      },
      "t_string_memory_ptr": {
        "encoding": "bytes",
        "label": "string",
        "numberOfBytes": "32"
      },
      "t_string_storage": {
        "encoding": "bytes",
        "label": "string",
        "numberOfBytes": "32"
      },
      "t_struct(AppStorage)4553_storage": {
        "encoding": "inplace",
        "label": "struct AppStorage",
        "members": [
          {
            "astId": 4514,
            "contract": "contracts/elementa/adminFacet.sol:adminFacet",
            "label": "contracts",
            "offset": 0,
            "slot": "0",
            "type": "t_mapping(t_string_memory_ptr,t_address)"
          },
          {
            "astId": 4519,
            "contract": "contracts/elementa/adminFacet.sol:adminFacet",
            "label": "users",
            "offset": 0,
            "slot": "1",
            "type": "t_mapping(t_string_memory_ptr,t_struct(User)4459_storage)"
          },
          {
            "astId": 4521,
            "contract": "contracts/elementa/adminFacet.sol:adminFacet",
            "label": "globalUserIndex",
            "offset": 0,
            "slot": "2",
            "type": "t_uint256"
          },
          {
            "astId": 4525,
            "contract": "contracts/elementa/adminFacet.sol:adminFacet",
            "label": "userIndex",
            "offset": 0,
            "slot": "3",
            "type": "t_mapping(t_string_memory_ptr,t_uint256)"
          },
          {
            "astId": 4530,
            "contract": "contracts/elementa/adminFacet.sol:adminFacet",
            "label": "delegateEOAs",
            "offset": 0,
            "slot": "4",
            "type": "t_mapping(t_address,t_struct(DelegateEOA)4468_storage)"
          },
          {
            "astId": 4535,
            "contract": "contracts/elementa/adminFacet.sol:adminFacet",
            "label": "elementaNFTs",
            "offset": 0,
            "slot": "5",
            "type": "t_mapping(t_uint256,t_struct(ElementaNFT)4500_storage)"
          },
          {
            "astId": 4540,
            "contract": "contracts/elementa/adminFacet.sol:adminFacet",
            "label": "levelInfos",
            "offset": 0,
            "slot": "6",
            "type": "t_mapping(t_uint256,t_struct(levelInfo)4477_storage)"
          },
          {
            "astId": 4544,
            "contract": "contracts/elementa/adminFacet.sol:adminFacet",
            "label": "isDelegateEOA",
            "offset": 0,
            "slot": "7",
            "type": "t_mapping(t_address,t_bool)"
          },
          {
            "astId": 4552,
            "contract": "contracts/elementa/adminFacet.sol:adminFacet",
            "label": "elementaItems",
            "offset": 0,
            "slot": "8",
            "type": "t_mapping(t_enum(EquipmentType)4564,t_mapping(t_uint256,t_struct(ElementaItem)4510_storage))"
          }
        ],
        "numberOfBytes": "288"
      },
      "t_struct(DelegateEOA)4468_storage": {
        "encoding": "inplace",
        "label": "struct DelegateEOA",
        "members": [
          {
            "astId": 4461,
            "contract": "contracts/elementa/adminFacet.sol:adminFacet",
            "label": "userIndex",
            "offset": 0,
            "slot": "0",
            "type": "t_uint256"
          },
          {
            "astId": 4463,
            "contract": "contracts/elementa/adminFacet.sol:adminFacet",
            "label": "userId",
            "offset": 0,
            "slot": "1",
            "type": "t_string_storage"
          },
          {
            "astId": 4465,
            "contract": "contracts/elementa/adminFacet.sol:adminFacet",
            "label": "connectAddress",
            "offset": 0,
            "slot": "2",
            "type": "t_address"
          },
          {
            "astId": 4467,
            "contract": "contracts/elementa/adminFacet.sol:adminFacet",
            "label": "isOwnNFT",
            "offset": 20,
            "slot": "2",
            "type": "t_bool"
          }
        ],
        "numberOfBytes": "96"
      },
      "t_struct(ElementaItem)4510_storage": {
        "encoding": "inplace",
        "label": "struct ElementaItem",
        "members": [
          {
            "astId": 4503,
            "contract": "contracts/elementa/adminFacet.sol:adminFacet",
            "label": "equipmentType",
            "offset": 0,
            "slot": "0",
            "type": "t_enum(EquipmentType)4564"
          },
          {
            "astId": 4505,
            "contract": "contracts/elementa/adminFacet.sol:adminFacet",
            "label": "itemId",
            "offset": 0,
            "slot": "1",
            "type": "t_uint256"
          },
          {
            "astId": 4507,
            "contract": "contracts/elementa/adminFacet.sol:adminFacet",
            "label": "name",
            "offset": 0,
            "slot": "2",
            "type": "t_string_storage"
          },
          {
            "astId": 4509,
            "contract": "contracts/elementa/adminFacet.sol:adminFacet",
            "label": "svgUri",
            "offset": 0,
            "slot": "3",
            "type": "t_bytes_storage"
          }
        ],
        "numberOfBytes": "128"
      },
      "t_struct(ElementaNFT)4500_storage": {
        "encoding": "inplace",
        "label": "struct ElementaNFT",
        "members": [
          {
            "astId": 4479,
            "contract": "contracts/elementa/adminFacet.sol:adminFacet",
            "label": "ownerAddress",
            "offset": 0,
            "slot": "0",
            "type": "t_address"
          },
          {
            "astId": 4481,
            "contract": "contracts/elementa/adminFacet.sol:adminFacet",
            "label": "delegateAddress",
            "offset": 0,
            "slot": "1",
            "type": "t_address"
          },
          {
            "astId": 4483,
            "contract": "contracts/elementa/adminFacet.sol:adminFacet",
            "label": "nickName",
            "offset": 0,
            "slot": "2",
            "type": "t_string_storage"
          },
          {
            "astId": 4485,
            "contract": "contracts/elementa/adminFacet.sol:adminFacet",
            "label": "grade",
            "offset": 0,
            "slot": "3",
            "type": "t_uint256"
          },
          {
            "astId": 4487,
            "contract": "contracts/elementa/adminFacet.sol:adminFacet",
            "label": "level",
            "offset": 0,
            "slot": "4",
            "type": "t_uint256"
          },
          {
            "astId": 4489,
            "contract": "contracts/elementa/adminFacet.sol:adminFacet",
            "label": "exp",
            "offset": 0,
            "slot": "5",
            "type": "t_uint256"
          },
          {
            "astId": 4491,
            "contract": "contracts/elementa/adminFacet.sol:adminFacet",
            "label": "heartMax",
            "offset": 0,
            "slot": "6",
            "type": "t_uint256"
          },
          {
            "astId": 4493,
            "contract": "contracts/elementa/adminFacet.sol:adminFacet",
            "label": "heartPoint",
            "offset": 0,
            "slot": "7",
            "type": "t_uint256"
          },
          {
            "astId": 4495,
            "contract": "contracts/elementa/adminFacet.sol:adminFacet",
            "label": "plusHeartPoint",
            "offset": 0,
            "slot": "8",
            "type": "t_uint256"
          },
          {
            "astId": 4497,
            "contract": "contracts/elementa/adminFacet.sol:adminFacet",
            "label": "updateHeartTime",
            "offset": 0,
            "slot": "9",
            "type": "t_uint256"
          },
          {
            "astId": 4499,
            "contract": "contracts/elementa/adminFacet.sol:adminFacet",
            "label": "elementaPoint",
            "offset": 0,
            "slot": "10",
            "type": "t_uint256"
          }
        ],
        "numberOfBytes": "352"
      },
      "t_struct(User)4459_storage": {
        "encoding": "inplace",
        "label": "struct User",
        "members": [
          {
            "astId": 4445,
            "contract": "contracts/elementa/adminFacet.sol:adminFacet",
            "label": "userId",
            "offset": 0,
            "slot": "0",
            "type": "t_string_storage"
          },
          {
            "astId": 4447,
            "contract": "contracts/elementa/adminFacet.sol:adminFacet",
            "label": "nftId",
            "offset": 0,
            "slot": "1",
            "type": "t_uint256"
          },
          {
            "astId": 4449,
            "contract": "contracts/elementa/adminFacet.sol:adminFacet",
            "label": "reciveAddress",
            "offset": 0,
            "slot": "2",
            "type": "t_address"
          },
          {
            "astId": 4451,
            "contract": "contracts/elementa/adminFacet.sol:adminFacet",
            "label": "delegateEOA",
            "offset": 0,
            "slot": "3",
            "type": "t_address"
          },
          {
            "astId": 4454,
            "contract": "contracts/elementa/adminFacet.sol:adminFacet",
            "label": "userType",
            "offset": 20,
            "slot": "3",
            "type": "t_enum(UserType)4570"
          },
          {
            "astId": 4456,
            "contract": "contracts/elementa/adminFacet.sol:adminFacet",
            "label": "refferalId",
            "offset": 0,
            "slot": "4",
            "type": "t_string_storage"
          },
          {
            "astId": 4458,
            "contract": "contracts/elementa/adminFacet.sol:adminFacet",
            "label": "refferalCount",
            "offset": 0,
            "slot": "5",
            "type": "t_uint256"
          }
        ],
        "numberOfBytes": "192"
      },
      "t_struct(levelInfo)4477_storage": {
        "encoding": "inplace",
        "label": "struct levelInfo",
        "members": [
          {
            "astId": 4470,
            "contract": "contracts/elementa/adminFacet.sol:adminFacet",
            "label": "level",
            "offset": 0,
            "slot": "0",
            "type": "t_uint256"
          },
          {
            "astId": 4472,
            "contract": "contracts/elementa/adminFacet.sol:adminFacet",
            "label": "requireExp",
            "offset": 0,
            "slot": "1",
            "type": "t_uint256"
          },
          {
            "astId": 4474,
            "contract": "contracts/elementa/adminFacet.sol:adminFacet",
            "label": "levelUserCount",
            "offset": 0,
            "slot": "2",
            "type": "t_uint256"
          },
          {
            "astId": 4476,
            "contract": "contracts/elementa/adminFacet.sol:adminFacet",
            "label": "heartMax",
            "offset": 0,
            "slot": "3",
            "type": "t_uint256"
          }
        ],
        "numberOfBytes": "128"
      },
      "t_uint256": {
        "encoding": "inplace",
        "label": "uint256",
        "numberOfBytes": "32"
      }
    }
  }
}