{
  "address": "0xfA4e94D2eD7AC2B356ffe37231A65a069B9adacA",
  "abi": [
    {
      "inputs": [
        {
          "internalType": "uint256",
          "name": "_tokenId",
          "type": "uint256"
        }
      ],
      "name": "_generateSVG",
      "outputs": [
        {
          "internalType": "string",
          "name": "",
          "type": "string"
        }
      ],
      "stateMutability": "view",
      "type": "function"
    },
    {
      "inputs": [
        {
          "internalType": "uint256",
          "name": "_tokenId",
          "type": "uint256"
        }
      ],
      "name": "nft_getUri",
      "outputs": [
        {
          "internalType": "string",
          "name": "",
          "type": "string"
        }
      ],
      "stateMutability": "view",
      "type": "function"
    }
  ],
  "transactionHash": "0x45652a48e37fc18c3cd481df406688db2320e516d72ab70d2bf8b2ab6c4ad018",
  "args": [],
  "numDeployments": 26,
  "solcInputHash": "de88465a983420e8149e9996f81de468",
  "bytecode": "0x6080806040523461001657610c24908161001c8239f35b600080fdfe6080604052600436101561001257600080fd5b6000803560e01c8063906ef652146100655763a0154fa21461003357600080fd5b346100625760203660031901126100625761005e61005260043561025a565b604051918291826101f6565b0390f35b80fd5b503461006257602090816003193601126100625761005e6101c3610052603d856101896004356100a560836100aa6100a561009f85610915565b9461025a565b610a59565b926040519384917f7b226e616d65223a2022456c656d656e74614e46542023000000000000000000888401526100e9815180928a6037870191016101d3565b820161088b60f21b60378201527f226465736372697074696f6e223a20225465737420456c656d656e746120644e6039820152631195088b60e21b60598201527f22696d616765223a2022646174613a696d6167652f7376672b786d6c3b626173605d82015263194d8d0b60e21b607d82015261016f825180938a6081850191016101d3565b0161227d60f01b6081820152036063810184520182610222565b60405194827f646174613a6170706c69636174696f6e2f6a736f6e3b6261736536342c0000008794850152825192839186860191016101d3565b810103601d810184520182610222565b60005b8381106101e65750506000910152565b81810151838201526020016101d6565b6040916020825261021681518092816020860152602086860191016101d3565b601f01601f1916010190565b90601f8019910116810190811067ffffffffffffffff82111761024457604052565b634e487b7160e01b600052604160045260246000fd5b600460009081527f5eff886ea0ce6ca488a3d6e336d6c0f75f46d19b42c06ce5ee98e42c96d256c76020908152604080517f8e567b5c12fa09fd5d5948a2f4987943d7fff021dc3e77516600a00f220ca53180549295939460018085169593949192909180831c91849188156108bd575b89841089146108a95783885289880198889392918b90821561088b57505060011461084d575b506102fe92500385610222565b8180526008865286822060048352865260038783200194875195839080549384811c91818616958615610843575b8b8410871461082f57838b528b8b019690811561081157506001146107dd575b505050927f30302f737667222076696577426f783d223020302032353020323530223e00009895926107da98959261038a8961032f9a970387610222565b6104626103c260078a61039c88610915565b9688815260058c526103b360048383200154610915565b98815260058c52200154610915565b9589519c8d9a7f3c73766720786d6c6e733d22687474703a2f2f7777772e77332e6f72672f32308b8d01528b0152651e3232b3399f60d11b605e8b01527f3c6c696e6561724772616469656e742069643d226f75746c696e65222078313d60648b01527f223025222079313d223025222078323d2231303025222079323d22313030252260848b0152601f60f91b60a48b015251809260a58b01906101d3565b87016104e7701e17b634b732b0b923b930b234b2b73a1f60791b968760a58401527f3c6c696e6561724772616469656e742069643d226261636b67726f756e64222060b68401527f78313d223025222079313d223025222078323d223025222079323d223130302560d684015261111f60f11b60f684015251809360f88401906101d3565b019360f8850152661e17b232b3399f60c91b6101098501527f3c726563742077696474683d223130302522206865696768743d2231303025226101108501527f2066696c6c3d2275726c28236261636b67726f756e642922207374726f6b653d6101308501527f2275726c28236f75746c696e652922207374726f6b652d77696474683d22372261015085015261179f60f11b6101708501527f3c696d61676520783d223530252220793d22353025222077696474683d2235306101728501527f2522206865696768743d223530252220687265663d2268747470733a2f2f692e6101928501527f696d6775722e636f6d2f573731386f76612e706e6722207472616e73666f726d6101b28501527f3d227472616e736c617465282d36352c202d38302922202f3e000000000000006101d28501527f3c7465787420783d2235252220793d223835252220666f6e742d66616d696c796101eb8501527f3d22417269616c2220666f6e742d73697a653d223135222066696c6c3d22233061020b8501527f30302220746578742d616e63686f723d227374617274223e0000000000000000908161022b8601526c456c656d656e74614e4654202360981b610243860152610250946106c0825180938989850191016101d3565b0191661e17ba32bc3a1f60c91b80958401527f3c7465787420783d2235252220793d223930252220666f6e742d66616d696c79610257840152847f3d22417269616c2220666f6e742d73697a653d223130222066696c6c3d2223309182610277860152836102978601526702632bb32b6101d160c51b6102af8601526102b794610752825180938b89850191016101d3565b01938401527f3c7465787420783d2235252220793d223935252220666f6e742d66616d696c796102be8401526102de8301526102fe8201526b0131198991c189a981d903c160a51b6103168201526107b661032294835193849187850191016101d3565b0191820152651e17b9bb339f60d11b6103298201520361030f810184520182610222565b90565b86528986208693505b8284106107fe5750505086018701828261038a61034c565b8054848b018c0152928a019281016107e6565b60ff19168752505050151560051b870188019050828261038a61034c565b634e487b7160e01b88526022600452602488fd5b92607f169261032c565b915050835284878085208486915b8583106108725750506102fe9350820101386102f1565b80919294505483858b010152019101889084889361085b565b60ff19168b526102fe95151560051b85010192503891506102f19050565b634e487b7160e01b86526022600452602486fd5b92607f16926102cb565b67ffffffffffffffff811161024457601f01601f191660200190565b906108ed826108c7565b6108fa6040519182610222565b828152809261090b601f19916108c7565b0190602036910137565b806000917a184f03e93ff9f4daa797ed6e38ed64bf6a1f01000000000000000080821015610a4b575b506d04ee2d6d415b85acef810000000080831015610a3c575b50662386f26fc1000080831015610a2d575b506305f5e10080831015610a1e575b5061271080831015610a0f575b5060648210156109ff575b600a809210156109f5575b6001908160216109ad600187016108e3565b95860101905b6109bf575b5050505090565b600019019083906f181899199a1a9b1b9c1cb0b131b232b360811b8282061a8353049182156109f0579190826109b3565b6109b8565b916001019161099b565b9190606460029104910191610990565b60049193920491019138610985565b60089193920491019138610978565b60109193920491019138610969565b60209193920491019138610957565b60409350810491503861093e565b90815115610bc857604051916060830183811067ffffffffffffffff82111761024457604052604083527f4142434445464748494a4b4c4d4e4f505152535455565758595a61626364656660208401527f6768696a6b6c6d6e6f707172737475767778797a303132333435363738392b2f604084015280519260029160028501809511610bb2576003948590046001600160fe1b0381168103610bb257610b059060029694961b6108e3565b926020840192829183518401976020890192835194600085525b8a8110610b6557505050506003939495965052510680600114610b5257600214610b47575090565b603d90600019015390565b50603d9081600019820153600119015390565b836004919b989b019a8b51600190603f9082828260121c16870101518453828282600c1c16870101518385015382828260061c168701015187850153168401015185820153019699610b1f565b634e487b7160e01b600052601160045260246000fd5b90506040516020810181811067ffffffffffffffff82111761024457604052600081529056fea264697066735822122088fc3348164ac850c48f679157d98e331ec26bbdd1220c6fc1214a212a80fd9464736f6c63430008180033",
  "devdoc": {
    "kind": "dev",
    "methods": {},
    "version": 1
  },
  "userdoc": {
    "kind": "user",
    "methods": {},
    "version": 1
  },
  "storageLayout": {
    "storage": [
      {
        "astId": 3945,
        "contract": "contracts/elementa/nftFacet.sol:nftFacet",
        "label": "s",
        "offset": 0,
        "slot": "0",
        "type": "t_struct(AppStorage)3899_storage"
      }
    ],
    "types": {
      "t_address": {
        "encoding": "inplace",
        "label": "address",
        "numberOfBytes": "20"
      },
      "t_bool": {
        "encoding": "inplace",
        "label": "bool",
        "numberOfBytes": "1"
      },
      "t_bytes_storage": {
        "encoding": "bytes",
        "label": "bytes",
        "numberOfBytes": "32"
      },
      "t_enum(EquipmentType)3910": {
        "encoding": "inplace",
        "label": "enum EquipmentType",
        "numberOfBytes": "1"
      },
      "t_enum(UserType)3916": {
        "encoding": "inplace",
        "label": "enum UserType",
        "numberOfBytes": "1"
      },
      "t_mapping(t_address,t_bool)": {
        "encoding": "mapping",
        "key": "t_address",
        "label": "mapping(address => bool)",
        "numberOfBytes": "32",
        "value": "t_bool"
      },
      "t_mapping(t_address,t_struct(DelegateEOA)3814_storage)": {
        "encoding": "mapping",
        "key": "t_address",
        "label": "mapping(address => struct DelegateEOA)",
        "numberOfBytes": "32",
        "value": "t_struct(DelegateEOA)3814_storage"
      },
      "t_mapping(t_enum(EquipmentType)3910,t_mapping(t_uint256,t_struct(ElementaItem)3856_storage))": {
        "encoding": "mapping",
        "key": "t_enum(EquipmentType)3910",
        "label": "mapping(enum EquipmentType => mapping(uint256 => struct ElementaItem))",
        "numberOfBytes": "32",
        "value": "t_mapping(t_uint256,t_struct(ElementaItem)3856_storage)"
      },
      "t_mapping(t_string_memory_ptr,t_address)": {
        "encoding": "mapping",
        "key": "t_string_memory_ptr",
        "label": "mapping(string => address)",
        "numberOfBytes": "32",
        "value": "t_address"
      },
      "t_mapping(t_string_memory_ptr,t_struct(User)3805_storage)": {
        "encoding": "mapping",
        "key": "t_string_memory_ptr",
        "label": "mapping(string => struct User)",
        "numberOfBytes": "32",
        "value": "t_struct(User)3805_storage"
      },
      "t_mapping(t_string_memory_ptr,t_uint256)": {
        "encoding": "mapping",
        "key": "t_string_memory_ptr",
        "label": "mapping(string => uint256)",
        "numberOfBytes": "32",
        "value": "t_uint256"
      },
      "t_mapping(t_uint256,t_struct(ElementaItem)3856_storage)": {
        "encoding": "mapping",
        "key": "t_uint256",
        "label": "mapping(uint256 => struct ElementaItem)",
        "numberOfBytes": "32",
        "value": "t_struct(ElementaItem)3856_storage"
      },
      "t_mapping(t_uint256,t_struct(ElementaNFT)3846_storage)": {
        "encoding": "mapping",
        "key": "t_uint256",
        "label": "mapping(uint256 => struct ElementaNFT)",
        "numberOfBytes": "32",
        "value": "t_struct(ElementaNFT)3846_storage"
      },
      "t_mapping(t_uint256,t_struct(levelInfo)3823_storage)": {
        "encoding": "mapping",
        "key": "t_uint256",
        "label": "mapping(uint256 => struct levelInfo)",
        "numberOfBytes": "32",
        "value": "t_struct(levelInfo)3823_storage"
      },
      "t_string_memory_ptr": {
        "encoding": "bytes",
        "label": "string",
        "numberOfBytes": "32"
      },
      "t_string_storage": {
        "encoding": "bytes",
        "label": "string",
        "numberOfBytes": "32"
      },
      "t_struct(AppStorage)3899_storage": {
        "encoding": "inplace",
        "label": "struct AppStorage",
        "members": [
          {
            "astId": 3860,
            "contract": "contracts/elementa/nftFacet.sol:nftFacet",
            "label": "contracts",
            "offset": 0,
            "slot": "0",
            "type": "t_mapping(t_string_memory_ptr,t_address)"
          },
          {
            "astId": 3865,
            "contract": "contracts/elementa/nftFacet.sol:nftFacet",
            "label": "users",
            "offset": 0,
            "slot": "1",
            "type": "t_mapping(t_string_memory_ptr,t_struct(User)3805_storage)"
          },
          {
            "astId": 3867,
            "contract": "contracts/elementa/nftFacet.sol:nftFacet",
            "label": "globalUserIndex",
            "offset": 0,
            "slot": "2",
            "type": "t_uint256"
          },
          {
            "astId": 3871,
            "contract": "contracts/elementa/nftFacet.sol:nftFacet",
            "label": "userIndex",
            "offset": 0,
            "slot": "3",
            "type": "t_mapping(t_string_memory_ptr,t_uint256)"
          },
          {
            "astId": 3876,
            "contract": "contracts/elementa/nftFacet.sol:nftFacet",
            "label": "delegateEOAs",
            "offset": 0,
            "slot": "4",
            "type": "t_mapping(t_address,t_struct(DelegateEOA)3814_storage)"
          },
          {
            "astId": 3881,
            "contract": "contracts/elementa/nftFacet.sol:nftFacet",
            "label": "elementaNFTs",
            "offset": 0,
            "slot": "5",
            "type": "t_mapping(t_uint256,t_struct(ElementaNFT)3846_storage)"
          },
          {
            "astId": 3886,
            "contract": "contracts/elementa/nftFacet.sol:nftFacet",
            "label": "levelInfos",
            "offset": 0,
            "slot": "6",
            "type": "t_mapping(t_uint256,t_struct(levelInfo)3823_storage)"
          },
          {
            "astId": 3890,
            "contract": "contracts/elementa/nftFacet.sol:nftFacet",
            "label": "isDelegateEOA",
            "offset": 0,
            "slot": "7",
            "type": "t_mapping(t_address,t_bool)"
          },
          {
            "astId": 3898,
            "contract": "contracts/elementa/nftFacet.sol:nftFacet",
            "label": "elementaItems",
            "offset": 0,
            "slot": "8",
            "type": "t_mapping(t_enum(EquipmentType)3910,t_mapping(t_uint256,t_struct(ElementaItem)3856_storage))"
          }
        ],
        "numberOfBytes": "288"
      },
      "t_struct(DelegateEOA)3814_storage": {
        "encoding": "inplace",
        "label": "struct DelegateEOA",
        "members": [
          {
            "astId": 3807,
            "contract": "contracts/elementa/nftFacet.sol:nftFacet",
            "label": "userIndex",
            "offset": 0,
            "slot": "0",
            "type": "t_uint256"
          },
          {
            "astId": 3809,
            "contract": "contracts/elementa/nftFacet.sol:nftFacet",
            "label": "userId",
            "offset": 0,
            "slot": "1",
            "type": "t_string_storage"
          },
          {
            "astId": 3811,
            "contract": "contracts/elementa/nftFacet.sol:nftFacet",
            "label": "connectAddress",
            "offset": 0,
            "slot": "2",
            "type": "t_address"
          },
          {
            "astId": 3813,
            "contract": "contracts/elementa/nftFacet.sol:nftFacet",
            "label": "isOwnNFT",
            "offset": 20,
            "slot": "2",
            "type": "t_bool"
          }
        ],
        "numberOfBytes": "96"
      },
      "t_struct(ElementaItem)3856_storage": {
        "encoding": "inplace",
        "label": "struct ElementaItem",
        "members": [
          {
            "astId": 3849,
            "contract": "contracts/elementa/nftFacet.sol:nftFacet",
            "label": "equipmentType",
            "offset": 0,
            "slot": "0",
            "type": "t_enum(EquipmentType)3910"
          },
          {
            "astId": 3851,
            "contract": "contracts/elementa/nftFacet.sol:nftFacet",
            "label": "itemId",
            "offset": 0,
            "slot": "1",
            "type": "t_uint256"
          },
          {
            "astId": 3853,
            "contract": "contracts/elementa/nftFacet.sol:nftFacet",
            "label": "name",
            "offset": 0,
            "slot": "2",
            "type": "t_string_storage"
          },
          {
            "astId": 3855,
            "contract": "contracts/elementa/nftFacet.sol:nftFacet",
            "label": "svgUri",
            "offset": 0,
            "slot": "3",
            "type": "t_bytes_storage"
          }
        ],
        "numberOfBytes": "128"
      },
      "t_struct(ElementaNFT)3846_storage": {
        "encoding": "inplace",
        "label": "struct ElementaNFT",
        "members": [
          {
            "astId": 3825,
            "contract": "contracts/elementa/nftFacet.sol:nftFacet",
            "label": "ownerAddress",
            "offset": 0,
            "slot": "0",
            "type": "t_address"
          },
          {
            "astId": 3827,
            "contract": "contracts/elementa/nftFacet.sol:nftFacet",
            "label": "delegateAddress",
            "offset": 0,
            "slot": "1",
            "type": "t_address"
          },
          {
            "astId": 3829,
            "contract": "contracts/elementa/nftFacet.sol:nftFacet",
            "label": "nickName",
            "offset": 0,
            "slot": "2",
            "type": "t_string_storage"
          },
          {
            "astId": 3831,
            "contract": "contracts/elementa/nftFacet.sol:nftFacet",
            "label": "grade",
            "offset": 0,
            "slot": "3",
            "type": "t_uint256"
          },
          {
            "astId": 3833,
            "contract": "contracts/elementa/nftFacet.sol:nftFacet",
            "label": "level",
            "offset": 0,
            "slot": "4",
            "type": "t_uint256"
          },
          {
            "astId": 3835,
            "contract": "contracts/elementa/nftFacet.sol:nftFacet",
            "label": "exp",
            "offset": 0,
            "slot": "5",
            "type": "t_uint256"
          },
          {
            "astId": 3837,
            "contract": "contracts/elementa/nftFacet.sol:nftFacet",
            "label": "heartMax",
            "offset": 0,
            "slot": "6",
            "type": "t_uint256"
          },
          {
            "astId": 3839,
            "contract": "contracts/elementa/nftFacet.sol:nftFacet",
            "label": "heartPoint",
            "offset": 0,
            "slot": "7",
            "type": "t_uint256"
          },
          {
            "astId": 3841,
            "contract": "contracts/elementa/nftFacet.sol:nftFacet",
            "label": "plusHeartPoint",
            "offset": 0,
            "slot": "8",
            "type": "t_uint256"
          },
          {
            "astId": 3843,
            "contract": "contracts/elementa/nftFacet.sol:nftFacet",
            "label": "updateHeartTime",
            "offset": 0,
            "slot": "9",
            "type": "t_uint256"
          },
          {
            "astId": 3845,
            "contract": "contracts/elementa/nftFacet.sol:nftFacet",
            "label": "elementaPoint",
            "offset": 0,
            "slot": "10",
            "type": "t_uint256"
          }
        ],
        "numberOfBytes": "352"
      },
      "t_struct(User)3805_storage": {
        "encoding": "inplace",
        "label": "struct User",
        "members": [
          {
            "astId": 3791,
            "contract": "contracts/elementa/nftFacet.sol:nftFacet",
            "label": "userId",
            "offset": 0,
            "slot": "0",
            "type": "t_string_storage"
          },
          {
            "astId": 3793,
            "contract": "contracts/elementa/nftFacet.sol:nftFacet",
            "label": "nftId",
            "offset": 0,
            "slot": "1",
            "type": "t_uint256"
          },
          {
            "astId": 3795,
            "contract": "contracts/elementa/nftFacet.sol:nftFacet",
            "label": "reciveAddress",
            "offset": 0,
            "slot": "2",
            "type": "t_address"
          },
          {
            "astId": 3797,
            "contract": "contracts/elementa/nftFacet.sol:nftFacet",
            "label": "delegateEOA",
            "offset": 0,
            "slot": "3",
            "type": "t_address"
          },
          {
            "astId": 3800,
            "contract": "contracts/elementa/nftFacet.sol:nftFacet",
            "label": "userType",
            "offset": 20,
            "slot": "3",
            "type": "t_enum(UserType)3916"
          },
          {
            "astId": 3802,
            "contract": "contracts/elementa/nftFacet.sol:nftFacet",
            "label": "refferalId",
            "offset": 0,
            "slot": "4",
            "type": "t_string_storage"
          },
          {
            "astId": 3804,
            "contract": "contracts/elementa/nftFacet.sol:nftFacet",
            "label": "refferalCount",
            "offset": 0,
            "slot": "5",
            "type": "t_uint256"
          }
        ],
        "numberOfBytes": "192"
      },
      "t_struct(levelInfo)3823_storage": {
        "encoding": "inplace",
        "label": "struct levelInfo",
        "members": [
          {
            "astId": 3816,
            "contract": "contracts/elementa/nftFacet.sol:nftFacet",
            "label": "level",
            "offset": 0,
            "slot": "0",
            "type": "t_uint256"
          },
          {
            "astId": 3818,
            "contract": "contracts/elementa/nftFacet.sol:nftFacet",
            "label": "requireExp",
            "offset": 0,
            "slot": "1",
            "type": "t_uint256"
          },
          {
            "astId": 3820,
            "contract": "contracts/elementa/nftFacet.sol:nftFacet",
            "label": "levelUserCount",
            "offset": 0,
            "slot": "2",
            "type": "t_uint256"
          },
          {
            "astId": 3822,
            "contract": "contracts/elementa/nftFacet.sol:nftFacet",
            "label": "heartMax",
            "offset": 0,
            "slot": "3",
            "type": "t_uint256"
          }
        ],
        "numberOfBytes": "128"
      },
      "t_uint256": {
        "encoding": "inplace",
        "label": "uint256",
        "numberOfBytes": "32"
      }
    }
  }
}