{
  "address": "0xDb9eBdB05Ccf468030cbf7EC96b6286E01a87c74",
  "abi": [
    {
      "anonymous": false,
      "inputs": [
        {
          "indexed": true,
          "internalType": "address",
          "name": "_address",
          "type": "address"
        },
        {
          "indexed": true,
          "internalType": "uint256",
          "name": "_nftId",
          "type": "uint256"
        }
      ],
      "name": "RegisterAddress",
      "type": "event"
    },
    {
      "inputs": [
        {
          "internalType": "address",
          "name": "_address",
          "type": "address"
        }
      ],
      "name": "user_getDelegateInfo",
      "outputs": [
        {
          "components": [
            {
              "internalType": "uint256",
              "name": "userIndex",
              "type": "uint256"
            },
            {
              "internalType": "string",
              "name": "userId",
              "type": "string"
            },
            {
              "internalType": "address",
              "name": "connectAddress",
              "type": "address"
            },
            {
              "internalType": "bool",
              "name": "isOwnNFT",
              "type": "bool"
            }
          ],
          "internalType": "struct DelegateEOA",
          "name": "",
          "type": "tuple"
        }
      ],
      "stateMutability": "view",
      "type": "function"
    },
    {
      "inputs": [
        {
          "internalType": "uint256",
          "name": "_nftId",
          "type": "uint256"
        }
      ],
      "name": "user_getNftInfo",
      "outputs": [
        {
          "components": [
            {
              "internalType": "address",
              "name": "ownerAddress",
              "type": "address"
            },
            {
              "internalType": "address",
              "name": "delegateAddress",
              "type": "address"
            },
            {
              "internalType": "string",
              "name": "nickName",
              "type": "string"
            },
            {
              "internalType": "uint256",
              "name": "grade",
              "type": "uint256"
            },
            {
              "internalType": "uint256",
              "name": "level",
              "type": "uint256"
            },
            {
              "internalType": "uint256",
              "name": "exp",
              "type": "uint256"
            },
            {
              "internalType": "uint256",
              "name": "heartMax",
              "type": "uint256"
            },
            {
              "internalType": "uint256",
              "name": "heartPoint",
              "type": "uint256"
            },
            {
              "internalType": "uint256",
              "name": "plusHeartPoint",
              "type": "uint256"
            },
            {
              "internalType": "uint256",
              "name": "updateHeartTime",
              "type": "uint256"
            },
            {
              "internalType": "uint256",
              "name": "elementaPoint",
              "type": "uint256"
            }
          ],
          "internalType": "struct ElementaNFT",
          "name": "",
          "type": "tuple"
        }
      ],
      "stateMutability": "view",
      "type": "function"
    },
    {
      "inputs": [
        {
          "internalType": "string",
          "name": "_userId",
          "type": "string"
        }
      ],
      "name": "user_getUserInfo",
      "outputs": [
        {
          "components": [
            {
              "internalType": "string",
              "name": "userId",
              "type": "string"
            },
            {
              "internalType": "uint256",
              "name": "nftId",
              "type": "uint256"
            },
            {
              "internalType": "address",
              "name": "reciveAddress",
              "type": "address"
            },
            {
              "internalType": "address",
              "name": "delegateEOA",
              "type": "address"
            },
            {
              "internalType": "enum UserType",
              "name": "userType",
              "type": "uint8"
            },
            {
              "internalType": "string",
              "name": "refferalId",
              "type": "string"
            },
            {
              "internalType": "uint256",
              "name": "refferalCount",
              "type": "uint256"
            }
          ],
          "internalType": "struct User",
          "name": "",
          "type": "tuple"
        }
      ],
      "stateMutability": "view",
      "type": "function"
    },
    {
      "inputs": [
        {
          "internalType": "address",
          "name": "_address",
          "type": "address"
        }
      ],
      "name": "user_inputAddress",
      "outputs": [],
      "stateMutability": "nonpayable",
      "type": "function"
    }
  ],
  "transactionHash": "0x27bfffd83b5cdcc8cb5fa9c3245308effd486dae883ae82fd1d54910388ac3a6",
  "args": [],
  "numDeployments": 8,
  "solcInputHash": "380997bdcc6f85c2a150f3e0f330deec",
  "bytecode": "0x60808060405234610016576108ea908161001c8239f35b600080fdfe6080806040526004908136101561001557600080fd5b600090813560e01c908163402eaeb4146106375750806361ce2524146104a657806370decaca1461024457637d492c4d1461004f57600080fd5b3461024157602090816003193601126102415767ffffffffffffffff90833582811161023d573660238201121561023d578085013592831161022a57604051601f19936100a3601f820186168701836107b3565b808252858201923660248383010111610226579184878361010e969460248397018637830101528460c06040516100d981610797565b606081528286820152826040820152826060820152826080820152606060a08201520152604051938492839251928391610700565b81016001815203019020916040519261012684610797565b61012f8161080f565b845260018101549285850193845260018060a01b03806002840154169060408701918252600384015460ff6060890191838116835260a01c16926080890193600381101561021357845282906101b7600561018b898f0161080f565b9860a08d01998a5201549a60c081019b8c5260e06040519d8e92818452519201526101008d0190610723565b985160408c0152511660608a01525116608088015251906003821015610200575060a08601525184830390910160c08501528392916101f591610723565b905160e08301520390f35b634e487b7160e01b815260218852602490fd5b634e487b7160e01b865260218c52602486fd5b8480fd5b634e487b7160e01b825260418552602482fd5b5080fd5b80fd5b50903461023d57602090816003193601126103c85780356001600160a01b0381811693918481036104a257338652838352604086205415610460573b63ffffffff1661041c57849033825283835260018360016040852001916040519285918154916102af836107d5565b926001811690811561040257506001146103cc575b50506001825250829003019020600290810180546001600160a01b03191687179055338084528585526040808520909201805460ff60a01b1916600160a01b1790558151621b999d60ea1b8152600381018590526023902054908452858552908320549116803b156103c8576044839260405194859384926289bef960e11b84528a8a85015260248401525af180156103bd5761038e575b50338452526040822054907fe1d65ccb379747c9411cc966c46d8e565609b1830aad0cf9d1e3338e3316d4208380a380f35b67ffffffffffffffff81959295116103aa57604052923861035c565b506041602492634e487b7160e01b835252fd5b6040513d87823e3d90fd5b8280fd5b875283872091925086915b8383106103ec575050508201826002386102c4565b8054868401528b975088949092019181016103d7565b60ff191687525050508015150283019050826002386102c4565b60405162461bcd60e51b8152808401839052601760248201527f4d6f6469666965727346616365743a206e6f7420454f410000000000000000006044820152606490fd5b60648484806040519262461bcd60e51b845283015260248201527f4d6f6469666965727346616365743a206e6f742064656c656761746520454f416044820152fd5b8580fd5b503461024157602036600319011261024157604081600a9261014083516104cc8161077a565b8281528260208201526060858201528260608201528260808201528260a08201528260c08201528260e08201528261010082015282610120820152015283358152600560205220604051926105208461077a565b81546001600160a01b03908116855260018301541660208501526105466002830161080f565b6040850152600382015460608501528101546080840152600581015460a0840152600681015460c0840152600781015460e084015260088101546101008401526009810154610120840152015461014082015260405180916020825260018060a01b03815116602083015260018060a01b03602082015116604083015260408101516101406105e361016092836060870152610180860190610723565b9260608101516080860152608081015160a086015260a081015160c086015260c081015160e086015260e0810151610100860152610100810151610120860152610120810151828601520151908301520390f35b82843461023d5760209182600319360112610241576001600160a01b03918035838116908190036103c857826060876106736040979899610748565b82815281898201528287820152015282528452206040519161069483610748565b8154835260026106a66001840161080f565b928585019384520154906106ec6040850193828416855260ff606087019460a01c16151584526040519687968188525190870152516080604087015260a0860190610723565b925116606084015251151560808301520390f35b60005b8381106107135750506000910152565b8181015183820152602001610703565b9060209161073c81518092818552858086019101610700565b601f01601f1916010190565b6080810190811067ffffffffffffffff82111761076457604052565b634e487b7160e01b600052604160045260246000fd5b610160810190811067ffffffffffffffff82111761076457604052565b60e0810190811067ffffffffffffffff82111761076457604052565b90601f8019910116810190811067ffffffffffffffff82111761076457604052565b90600182811c92168015610805575b60208310146107ef57565b634e487b7160e01b600052602260045260246000fd5b91607f16916107e4565b90604051918260008254610822816107d5565b908184526020946001916001811690816000146108925750600114610853575b505050610851925003836107b3565b565b600090815285812095935091905b81831061087a5750506108519350820101388080610842565b85548884018501529485019487945091830191610861565b9250505061085194925060ff191682840152151560051b82010138808061084256fea26469706673582212200b05a4e43264ceb64d41bc5b945acf2ca69e3dded46cf2c5660d4cc3b91d3ced64736f6c63430008180033",
  "devdoc": {
    "kind": "dev",
    "methods": {},
    "version": 1
  },
  "userdoc": {
    "kind": "user",
    "methods": {},
    "version": 1
  },
  "storageLayout": {
    "storage": [
      {
        "astId": 4714,
        "contract": "contracts/elementa/userFacet.sol:userFacet",
        "label": "s",
        "offset": 0,
        "slot": "0",
        "type": "t_struct(AppStorage)4668_storage"
      }
    ],
    "types": {
      "t_address": {
        "encoding": "inplace",
        "label": "address",
        "numberOfBytes": "20"
      },
      "t_bool": {
        "encoding": "inplace",
        "label": "bool",
        "numberOfBytes": "1"
      },
      "t_bytes_storage": {
        "encoding": "bytes",
        "label": "bytes",
        "numberOfBytes": "32"
      },
      "t_enum(EquipmentType)4679": {
        "encoding": "inplace",
        "label": "enum EquipmentType",
        "numberOfBytes": "1"
      },
      "t_enum(UserType)4685": {
        "encoding": "inplace",
        "label": "enum UserType",
        "numberOfBytes": "1"
      },
      "t_mapping(t_address,t_bool)": {
        "encoding": "mapping",
        "key": "t_address",
        "label": "mapping(address => bool)",
        "numberOfBytes": "32",
        "value": "t_bool"
      },
      "t_mapping(t_address,t_struct(DelegateEOA)4583_storage)": {
        "encoding": "mapping",
        "key": "t_address",
        "label": "mapping(address => struct DelegateEOA)",
        "numberOfBytes": "32",
        "value": "t_struct(DelegateEOA)4583_storage"
      },
      "t_mapping(t_enum(EquipmentType)4679,t_mapping(t_uint256,t_struct(ElementaItem)4625_storage))": {
        "encoding": "mapping",
        "key": "t_enum(EquipmentType)4679",
        "label": "mapping(enum EquipmentType => mapping(uint256 => struct ElementaItem))",
        "numberOfBytes": "32",
        "value": "t_mapping(t_uint256,t_struct(ElementaItem)4625_storage)"
      },
      "t_mapping(t_string_memory_ptr,t_address)": {
        "encoding": "mapping",
        "key": "t_string_memory_ptr",
        "label": "mapping(string => address)",
        "numberOfBytes": "32",
        "value": "t_address"
      },
      "t_mapping(t_string_memory_ptr,t_struct(User)4574_storage)": {
        "encoding": "mapping",
        "key": "t_string_memory_ptr",
        "label": "mapping(string => struct User)",
        "numberOfBytes": "32",
        "value": "t_struct(User)4574_storage"
      },
      "t_mapping(t_string_memory_ptr,t_uint256)": {
        "encoding": "mapping",
        "key": "t_string_memory_ptr",
        "label": "mapping(string => uint256)",
        "numberOfBytes": "32",
        "value": "t_uint256"
      },
      "t_mapping(t_uint256,t_struct(ElementaItem)4625_storage)": {
        "encoding": "mapping",
        "key": "t_uint256",
        "label": "mapping(uint256 => struct ElementaItem)",
        "numberOfBytes": "32",
        "value": "t_struct(ElementaItem)4625_storage"
      },
      "t_mapping(t_uint256,t_struct(ElementaNFT)4615_storage)": {
        "encoding": "mapping",
        "key": "t_uint256",
        "label": "mapping(uint256 => struct ElementaNFT)",
        "numberOfBytes": "32",
        "value": "t_struct(ElementaNFT)4615_storage"
      },
      "t_mapping(t_uint256,t_struct(levelInfo)4592_storage)": {
        "encoding": "mapping",
        "key": "t_uint256",
        "label": "mapping(uint256 => struct levelInfo)",
        "numberOfBytes": "32",
        "value": "t_struct(levelInfo)4592_storage"
      },
      "t_string_memory_ptr": {
        "encoding": "bytes",
        "label": "string",
        "numberOfBytes": "32"
      },
      "t_string_storage": {
        "encoding": "bytes",
        "label": "string",
        "numberOfBytes": "32"
      },
      "t_struct(AppStorage)4668_storage": {
        "encoding": "inplace",
        "label": "struct AppStorage",
        "members": [
          {
            "astId": 4629,
            "contract": "contracts/elementa/userFacet.sol:userFacet",
            "label": "contracts",
            "offset": 0,
            "slot": "0",
            "type": "t_mapping(t_string_memory_ptr,t_address)"
          },
          {
            "astId": 4634,
            "contract": "contracts/elementa/userFacet.sol:userFacet",
            "label": "users",
            "offset": 0,
            "slot": "1",
            "type": "t_mapping(t_string_memory_ptr,t_struct(User)4574_storage)"
          },
          {
            "astId": 4636,
            "contract": "contracts/elementa/userFacet.sol:userFacet",
            "label": "globalUserIndex",
            "offset": 0,
            "slot": "2",
            "type": "t_uint256"
          },
          {
            "astId": 4640,
            "contract": "contracts/elementa/userFacet.sol:userFacet",
            "label": "userIndex",
            "offset": 0,
            "slot": "3",
            "type": "t_mapping(t_string_memory_ptr,t_uint256)"
          },
          {
            "astId": 4645,
            "contract": "contracts/elementa/userFacet.sol:userFacet",
            "label": "delegateEOAs",
            "offset": 0,
            "slot": "4",
            "type": "t_mapping(t_address,t_struct(DelegateEOA)4583_storage)"
          },
          {
            "astId": 4650,
            "contract": "contracts/elementa/userFacet.sol:userFacet",
            "label": "elementaNFTs",
            "offset": 0,
            "slot": "5",
            "type": "t_mapping(t_uint256,t_struct(ElementaNFT)4615_storage)"
          },
          {
            "astId": 4655,
            "contract": "contracts/elementa/userFacet.sol:userFacet",
            "label": "levelInfos",
            "offset": 0,
            "slot": "6",
            "type": "t_mapping(t_uint256,t_struct(levelInfo)4592_storage)"
          },
          {
            "astId": 4659,
            "contract": "contracts/elementa/userFacet.sol:userFacet",
            "label": "isDelegateEOA",
            "offset": 0,
            "slot": "7",
            "type": "t_mapping(t_address,t_bool)"
          },
          {
            "astId": 4667,
            "contract": "contracts/elementa/userFacet.sol:userFacet",
            "label": "elementaItems",
            "offset": 0,
            "slot": "8",
            "type": "t_mapping(t_enum(EquipmentType)4679,t_mapping(t_uint256,t_struct(ElementaItem)4625_storage))"
          }
        ],
        "numberOfBytes": "288"
      },
      "t_struct(DelegateEOA)4583_storage": {
        "encoding": "inplace",
        "label": "struct DelegateEOA",
        "members": [
          {
            "astId": 4576,
            "contract": "contracts/elementa/userFacet.sol:userFacet",
            "label": "userIndex",
            "offset": 0,
            "slot": "0",
            "type": "t_uint256"
          },
          {
            "astId": 4578,
            "contract": "contracts/elementa/userFacet.sol:userFacet",
            "label": "userId",
            "offset": 0,
            "slot": "1",
            "type": "t_string_storage"
          },
          {
            "astId": 4580,
            "contract": "contracts/elementa/userFacet.sol:userFacet",
            "label": "connectAddress",
            "offset": 0,
            "slot": "2",
            "type": "t_address"
          },
          {
            "astId": 4582,
            "contract": "contracts/elementa/userFacet.sol:userFacet",
            "label": "isOwnNFT",
            "offset": 20,
            "slot": "2",
            "type": "t_bool"
          }
        ],
        "numberOfBytes": "96"
      },
      "t_struct(ElementaItem)4625_storage": {
        "encoding": "inplace",
        "label": "struct ElementaItem",
        "members": [
          {
            "astId": 4618,
            "contract": "contracts/elementa/userFacet.sol:userFacet",
            "label": "equipmentType",
            "offset": 0,
            "slot": "0",
            "type": "t_enum(EquipmentType)4679"
          },
          {
            "astId": 4620,
            "contract": "contracts/elementa/userFacet.sol:userFacet",
            "label": "itemId",
            "offset": 0,
            "slot": "1",
            "type": "t_uint256"
          },
          {
            "astId": 4622,
            "contract": "contracts/elementa/userFacet.sol:userFacet",
            "label": "name",
            "offset": 0,
            "slot": "2",
            "type": "t_string_storage"
          },
          {
            "astId": 4624,
            "contract": "contracts/elementa/userFacet.sol:userFacet",
            "label": "svgUri",
            "offset": 0,
            "slot": "3",
            "type": "t_bytes_storage"
          }
        ],
        "numberOfBytes": "128"
      },
      "t_struct(ElementaNFT)4615_storage": {
        "encoding": "inplace",
        "label": "struct ElementaNFT",
        "members": [
          {
            "astId": 4594,
            "contract": "contracts/elementa/userFacet.sol:userFacet",
            "label": "ownerAddress",
            "offset": 0,
            "slot": "0",
            "type": "t_address"
          },
          {
            "astId": 4596,
            "contract": "contracts/elementa/userFacet.sol:userFacet",
            "label": "delegateAddress",
            "offset": 0,
            "slot": "1",
            "type": "t_address"
          },
          {
            "astId": 4598,
            "contract": "contracts/elementa/userFacet.sol:userFacet",
            "label": "nickName",
            "offset": 0,
            "slot": "2",
            "type": "t_string_storage"
          },
          {
            "astId": 4600,
            "contract": "contracts/elementa/userFacet.sol:userFacet",
            "label": "grade",
            "offset": 0,
            "slot": "3",
            "type": "t_uint256"
          },
          {
            "astId": 4602,
            "contract": "contracts/elementa/userFacet.sol:userFacet",
            "label": "level",
            "offset": 0,
            "slot": "4",
            "type": "t_uint256"
          },
          {
            "astId": 4604,
            "contract": "contracts/elementa/userFacet.sol:userFacet",
            "label": "exp",
            "offset": 0,
            "slot": "5",
            "type": "t_uint256"
          },
          {
            "astId": 4606,
            "contract": "contracts/elementa/userFacet.sol:userFacet",
            "label": "heartMax",
            "offset": 0,
            "slot": "6",
            "type": "t_uint256"
          },
          {
            "astId": 4608,
            "contract": "contracts/elementa/userFacet.sol:userFacet",
            "label": "heartPoint",
            "offset": 0,
            "slot": "7",
            "type": "t_uint256"
          },
          {
            "astId": 4610,
            "contract": "contracts/elementa/userFacet.sol:userFacet",
            "label": "plusHeartPoint",
            "offset": 0,
            "slot": "8",
            "type": "t_uint256"
          },
          {
            "astId": 4612,
            "contract": "contracts/elementa/userFacet.sol:userFacet",
            "label": "updateHeartTime",
            "offset": 0,
            "slot": "9",
            "type": "t_uint256"
          },
          {
            "astId": 4614,
            "contract": "contracts/elementa/userFacet.sol:userFacet",
            "label": "elementaPoint",
            "offset": 0,
            "slot": "10",
            "type": "t_uint256"
          }
        ],
        "numberOfBytes": "352"
      },
      "t_struct(User)4574_storage": {
        "encoding": "inplace",
        "label": "struct User",
        "members": [
          {
            "astId": 4560,
            "contract": "contracts/elementa/userFacet.sol:userFacet",
            "label": "userId",
            "offset": 0,
            "slot": "0",
            "type": "t_string_storage"
          },
          {
            "astId": 4562,
            "contract": "contracts/elementa/userFacet.sol:userFacet",
            "label": "nftId",
            "offset": 0,
            "slot": "1",
            "type": "t_uint256"
          },
          {
            "astId": 4564,
            "contract": "contracts/elementa/userFacet.sol:userFacet",
            "label": "reciveAddress",
            "offset": 0,
            "slot": "2",
            "type": "t_address"
          },
          {
            "astId": 4566,
            "contract": "contracts/elementa/userFacet.sol:userFacet",
            "label": "delegateEOA",
            "offset": 0,
            "slot": "3",
            "type": "t_address"
          },
          {
            "astId": 4569,
            "contract": "contracts/elementa/userFacet.sol:userFacet",
            "label": "userType",
            "offset": 20,
            "slot": "3",
            "type": "t_enum(UserType)4685"
          },
          {
            "astId": 4571,
            "contract": "contracts/elementa/userFacet.sol:userFacet",
            "label": "refferalId",
            "offset": 0,
            "slot": "4",
            "type": "t_string_storage"
          },
          {
            "astId": 4573,
            "contract": "contracts/elementa/userFacet.sol:userFacet",
            "label": "refferalCount",
            "offset": 0,
            "slot": "5",
            "type": "t_uint256"
          }
        ],
        "numberOfBytes": "192"
      },
      "t_struct(levelInfo)4592_storage": {
        "encoding": "inplace",
        "label": "struct levelInfo",
        "members": [
          {
            "astId": 4585,
            "contract": "contracts/elementa/userFacet.sol:userFacet",
            "label": "level",
            "offset": 0,
            "slot": "0",
            "type": "t_uint256"
          },
          {
            "astId": 4587,
            "contract": "contracts/elementa/userFacet.sol:userFacet",
            "label": "requireExp",
            "offset": 0,
            "slot": "1",
            "type": "t_uint256"
          },
          {
            "astId": 4589,
            "contract": "contracts/elementa/userFacet.sol:userFacet",
            "label": "levelUserCount",
            "offset": 0,
            "slot": "2",
            "type": "t_uint256"
          },
          {
            "astId": 4591,
            "contract": "contracts/elementa/userFacet.sol:userFacet",
            "label": "heartMax",
            "offset": 0,
            "slot": "3",
            "type": "t_uint256"
          }
        ],
        "numberOfBytes": "128"
      },
      "t_uint256": {
        "encoding": "inplace",
        "label": "uint256",
        "numberOfBytes": "32"
      }
    }
  }
}