{
	"data": {
		"bytecode": {
			"linkReferences": {},
			"object": "60a06040523073ffffffffffffffffffffffffffffffffffffffff1660809073ffffffffffffffffffffffffffffffffffffffff1681525034801562000043575f80fd5b50620000546200005a60201b60201c565b620001c4565b5f6200006b6200015e60201b60201c565b9050805f0160089054906101000a900460ff1615620000b6576040517ff92ee8a900000000000000000000000000000000000000000000000000000000815260040160405180910390fd5b67ffffffffffffffff8016815f015f9054906101000a900467ffffffffffffffff1667ffffffffffffffff16146200015b5767ffffffffffffffff815f015f6101000a81548167ffffffffffffffff021916908367ffffffffffffffff1602179055507fc7f505b2f371ae2175ee4913f4499e1f2633a7b5936321eed1cdaeb6115181d267ffffffffffffffff604051620001529190620001a9565b60405180910390a15b50565b5f7ff0c57e16840df040f15088dc2f81fe391c3923bec73e23a9662efc9c229c6a00905090565b5f67ffffffffffffffff82169050919050565b620001a38162000185565b82525050565b5f602082019050620001be5f83018462000198565b92915050565b608051615f6c620001eb5f395f81816126f80152818161274d015261292a0152615f6c5ff3fe6080604052600436106102e7575f3560e01c806370a082311161018f578063ad3cb1cc116100db578063d539139311610094578063e63ab1e91161006e578063e63ab1e914610b48578063f1127ed814610b72578063f28487bc14610bae578063f72c0d8b14610bca576102ee565b8063d539139314610aba578063d547741f14610ae4578063dd62ed3e14610b0c576102ee565b8063ad3cb1cc146109c6578063ae2adaf0146109f0578063c0c53b8b14610a18578063c3cda52014610a40578063cd7db01814610a68578063d505accf14610a92576102ee565b806391d14854116101485780639ab24eb0116101225780639ab24eb01461090e578063a217fddf1461094a578063a80109c614610974578063a9059cbb1461098a576102ee565b806391d148541461087e57806391ddadf4146108ba57806395d89b41146108e4576102ee565b806370a082311461075c57806379cc6790146107985780637ecebe00146107c05780638456cb59146107fc57806384b0196e146108125780638e539e8c14610842576102ee565b80633a46b1a81161024e5780634fcd37e6116102075780635c19a95c116101e15780635c19a95c146106a65780635c975abb146106ce578063662d084a146106f85780636fcfff4514610720576102ee565b80634fcd37e61461061657806352d1902d14610640578063587cde1e1461066a576102ee565b80633a46b1a81461052e5780633f4ba83a1461056a57806340c10f191461058057806342966c68146105a85780634bf5d7e9146105d05780634f1ef286146105fa576102ee565b8063248a9ca3116102a0578063248a9ca3146104245780632f2ff15d14610460578063313ce5671461048857806332cb6b0c146104b25780633644e515146104dc57806336568abe14610506576102ee565b806301ffc9a7146102f2578063052e4fb01461032e57806306fdde0314610358578063095ea7b31461038257806318160ddd146103be57806323b872dd146103e8576102ee565b366102ee57005b5f80fd5b3480156102fd575f80fd5b5061031860048036038101906103139190614aa2565b610bf4565b6040516103259190614ae7565b60405180910390f35b348015610339575f80fd5b50610342610c6d565b60405161034f9190614b3f565b60405180910390f35b348015610363575f80fd5b5061036c610c92565b6040516103799190614be2565b60405180910390f35b34801561038d575f80fd5b506103a860048036038101906103a39190614c5f565b610d30565b6040516103b59190614ae7565b60405180910390f35b3480156103c9575f80fd5b506103d2610d52565b6040516103df9190614cac565b60405180910390f35b3480156103f3575f80fd5b5061040e60048036038101906104099190614cc5565b610d69565b60405161041b9190614ae7565b60405180910390f35b34801561042f575f80fd5b5061044a60048036038101906104459190614d48565b610d97565b6040516104579190614d82565b60405180910390f35b34801561046b575f80fd5b5061048660048036038101906104819190614d9b565b610dc1565b005b348015610493575f80fd5b5061049c610de3565b6040516104a99190614df4565b60405180910390f35b3480156104bd575f80fd5b506104c6610deb565b6040516104d39190614cac565b60405180910390f35b3480156104e7575f80fd5b506104f0610dfa565b6040516104fd9190614d82565b60405180910390f35b348015610511575f80fd5b5061052c60048036038101906105279190614d9b565b610e08565b005b348015610539575f80fd5b50610554600480360381019061054f9190614c5f565b610e83565b6040516105619190614cac565b60405180910390f35b348015610575575f80fd5b5061057e610f67565b005b34801561058b575f80fd5b506105a660048036038101906105a19190614c5f565b610f9c565b005b3480156105b3575f80fd5b506105ce60048036038101906105c99190614e0d565b611037565b005b3480156105db575f80fd5b506105e461104b565b6040516105f19190614be2565b60405180910390f35b610614600480360381019061060f9190614f64565b611088565b005b348015610621575f80fd5b5061062a6110a7565b6040516106379190614cac565b60405180910390f35b34801561064b575f80fd5b506106546110ad565b6040516106619190614d82565b60405180910390f35b348015610675575f80fd5b50610690600480360381019061068b9190614fbe565b6110de565b60405161069d9190614b3f565b60405180910390f35b3480156106b1575f80fd5b506106cc60048036038101906106c79190614fbe565b611150565b005b3480156106d9575f80fd5b506106e2611169565b6040516106ef9190614ae7565b60405180910390f35b348015610703575f80fd5b5061071e60048036038101906107199190614fbe565b61118b565b005b34801561072b575f80fd5b5061074660048036038101906107419190614fbe565b6112b1565b6040516107539190615007565b60405180910390f35b348015610767575f80fd5b50610782600480360381019061077d9190614fbe565b6112c2565b60405161078f9190614cac565b60405180910390f35b3480156107a3575f80fd5b506107be60048036038101906107b99190614c5f565b611315565b005b3480156107cb575f80fd5b506107e660048036038101906107e19190614fbe565b611335565b6040516107f39190614cac565b60405180910390f35b348015610807575f80fd5b50610810611346565b005b34801561081d575f80fd5b5061082661137b565b6040516108399796959493929190615111565b60405180910390f35b34801561084d575f80fd5b5061086860048036038101906108639190614e0d565b611484565b6040516108759190614cac565b60405180910390f35b348015610889575f80fd5b506108a4600480360381019061089f9190614d9b565b61152c565b6040516108b19190614ae7565b60405180910390f35b3480156108c5575f80fd5b506108ce61159d565b6040516108db91906151b3565b60405180910390f35b3480156108ef575f80fd5b506108f86115a4565b6040516109059190614be2565b60405180910390f35b348015610919575f80fd5b50610934600480360381019061092f9190614fbe565b611642565b6040516109419190614cac565b60405180910390f35b348015610955575f80fd5b5061095e6116b9565b60405161096b9190614d82565b60405180910390f35b34801561097f575f80fd5b506109886116bf565b005b348015610995575f80fd5b506109b060048036038101906109ab9190614c5f565b611730565b6040516109bd9190614ae7565b60405180910390f35b3480156109d1575f80fd5b506109da611752565b6040516109e79190614be2565b60405180910390f35b3480156109fb575f80fd5b50610a166004803603810190610a119190614c5f565b61178b565b005b348015610a23575f80fd5b50610a3e6004803603810190610a3991906151cc565b611850565b005b348015610a4b575f80fd5b50610a666004803603810190610a619190615246565b611bb9565b005b348015610a73575f80fd5b50610a7c611c7e565b604051610a899190614b3f565b60405180910390f35b348015610a9d575f80fd5b50610ab86004803603810190610ab391906152cf565b611ca1565b005b348015610ac5575f80fd5b50610ace611de6565b604051610adb9190614d82565b60405180910390f35b348015610aef575f80fd5b50610b0a6004803603810190610b059190614d9b565b611e0a565b005b348015610b17575f80fd5b50610b326004803603810190610b2d919061536c565b611e2c565b604051610b3f9190614cac565b60405180910390f35b348015610b53575f80fd5b50610b5c611ebc565b604051610b699190614d82565b60405180910390f35b348015610b7d575f80fd5b50610b986004803603810190610b9391906153d4565b611ee0565b604051610ba59190615482565b60405180910390f35b610bc86004803603810190610bc39190614fbe565b611efa565b005b348015610bd5575f80fd5b50610bde611f95565b604051610beb9190614d82565b60405180910390f35b5f7f7965db0b000000000000000000000000000000000000000000000000000000007bffffffffffffffffffffffffffffffffffffffffffffffffffffffff1916827bffffffffffffffffffffffffffffffffffffffffffffffffffffffff19161480610c665750610c6582611fb9565b5b9050919050565b60015f9054906101000a900473ffffffffffffffffffffffffffffffffffffffff1681565b60605f610c9d612022565b9050806003018054610cae906154c8565b80601f0160208091040260200160405190810160405280929190818152602001828054610cda906154c8565b8015610d255780601f10610cfc57610100808354040283529160200191610d25565b820191905f5260205f20905b815481529060010190602001808311610d0857829003601f168201915b505050505091505090565b5f80610d3a612049565b9050610d47818585612050565b600191505092915050565b5f80610d5c612022565b9050806002015491505090565b5f80610d73612049565b9050610d80858285612062565b610d8b8585856120f4565b60019150509392505050565b5f80610da16121e4565b9050805f015f8481526020019081526020015f2060010154915050919050565b610dca82610d97565b610dd38161220b565b610ddd838361221f565b50505050565b5f6012905090565b6a295be96e6406697200000081565b5f610e03612317565b905090565b610e10612049565b73ffffffffffffffffffffffffffffffffffffffff168173ffffffffffffffffffffffffffffffffffffffff1614610e74576040517f6697b23200000000000000000000000000000000000000000000000000000000815260040160405180910390fd5b610e7e8282612325565b505050565b5f80610e8d61241d565b90505f610e9861159d565b90508065ffffffffffff168410610ee85783816040517fecd3f81e000000000000000000000000000000000000000000000000000000008152600401610edf9291906154f8565b60405180910390fd5b610f41610ef485612444565b836001015f8873ffffffffffffffffffffffffffffffffffffffff1673ffffffffffffffffffffffffffffffffffffffff1681526020019081526020015f2061249d90919063ffffffff16565b79ffffffffffffffffffffffffffffffffffffffffffffffffffff169250505092915050565b7f65d7a28e3265b37a6474929f336521b332c1681b933f6cb9f3376673440d862a610f918161220b565b610f9961258a565b50565b806a295be96e6406697200000081610fb2610d52565b610fbc919061554c565b1115610ffd576040517f08c379a0000000000000000000000000000000000000000000000000000000008152600401610ff4906155c9565b60405180910390fd5b7f9f2df0fed2c77648de5860a4cc508cd0818c85b8b8a1ab4ceeef8d981c8956a66110278161220b565b61103184846125f8565b50505050565b611048611042612049565b82612677565b50565b60606040518060400160405280600e81526020017f6d6f64653d74696d657374616d70000000000000000000000000000000000000815250905090565b6110906126f6565b611099826127dc565b6110a3828261280a565b5050565b60025481565b5f6110b6612928565b7f360894a13ba1a3210667c828492db98dca3e2076cc3735a920a3ca505d382bbc5f1b905090565b5f806110e861241d565b9050805f015f8473ffffffffffffffffffffffffffffffffffffffff1673ffffffffffffffffffffffffffffffffffffffff1681526020019081526020015f205f9054906101000a900473ffffffffffffffffffffffffffffffffffffffff16915050919050565b5f611159612049565b905061116581836129af565b5050565b5f80611173612acc565b9050805f015f9054906101000a900460ff1691505090565b7f189ab7a9244df0848122154315af71fe140f3db0fe014031783b0946b8c9d2e36111b58161220b565b5f8290508073ffffffffffffffffffffffffffffffffffffffff1663a9059cbb338373ffffffffffffffffffffffffffffffffffffffff166370a08231306040518263ffffffff1660e01b815260040161120f9190614b3f565b602060405180830381865afa15801561122a573d5f803e3d5ffd5b505050506040513d601f19601f8201168201806040525081019061124e91906155fb565b6040518363ffffffff1660e01b815260040161126b929190615626565b6020604051808303815f875af1158015611287573d5f803e3d5ffd5b505050506040513d601f19601f820116820180604052508101906112ab9190615677565b50505050565b5f6112bb82612af3565b9050919050565b5f806112cc612022565b9050805f015f8473ffffffffffffffffffffffffffffffffffffffff1673ffffffffffffffffffffffffffffffffffffffff1681526020019081526020015f2054915050919050565b61132782611321612049565b83612062565b6113318282612677565b5050565b5f61133f82612b56565b9050919050565b7f65d7a28e3265b37a6474929f336521b332c1681b933f6cb9f3376673440d862a6113708161220b565b611378612b67565b50565b5f6060805f805f60605f61138d612bd6565b90505f801b815f01541480156113a857505f801b8160010154145b6113e7576040517f08c379a00000000000000000000000000000000000000000000000000000000081526004016113de906156ec565b60405180910390fd5b6113ef612bfd565b6113f7612c9b565b46305f801b5f67ffffffffffffffff81111561141657611415614e40565b5b6040519080825280602002602001820160405280156114445781602001602082028036833780820191505090505b507f0f0000000000000000000000000000000000000000000000000000000000000095949392919097509750975097509750975097505090919293949596565b5f8061148e61241d565b90505f61149961159d565b90508065ffffffffffff1684106114e95783816040517fecd3f81e0000000000000000000000000000000000000000000000000000000081526004016114e09291906154f8565b60405180910390fd5b6115076114f585612444565b8360020161249d90919063ffffffff16565b79ffffffffffffffffffffffffffffffffffffffffffffffffffff1692505050919050565b5f806115366121e4565b9050805f015f8581526020019081526020015f205f015f8473ffffffffffffffffffffffffffffffffffffffff1673ffffffffffffffffffffffffffffffffffffffff1681526020019081526020015f205f9054906101000a900460ff1691505092915050565b5f42905090565b60605f6115af612022565b90508060040180546115c0906154c8565b80601f01602080910402602001604051908101604052809291908181526020018280546115ec906154c8565b80156116375780601f1061160e57610100808354040283529160200191611637565b820191905f5260205f20905b81548152906001019060200180831161161a57829003601f168201915b505050505091505090565b5f8061164c61241d565b9050611695816001015f8573ffffffffffffffffffffffffffffffffffffffff1673ffffffffffffffffffffffffffffffffffffffff1681526020019081526020015f20612d39565b79ffffffffffffffffffffffffffffffffffffffffffffffffffff16915050919050565b5f801b81565b7f189ab7a9244df0848122154315af71fe140f3db0fe014031783b0946b8c9d2e36116e98161220b565b3373ffffffffffffffffffffffffffffffffffffffff166108fc4790811502906040515f60405180830381858888f1935050505015801561172c573d5f803e3d5ffd5b5050565b5f8061173a612049565b90506117478185856120f4565b600191505092915050565b6040518060400160405280600581526020017f352e302e3000000000000000000000000000000000000000000000000000000081525081565b5f805f9054906101000a900473ffffffffffffffffffffffffffffffffffffffff1673ffffffffffffffffffffffffffffffffffffffff1663e557498b84846040518363ffffffff1660e01b81526004016117e7929190615626565b60408051808303815f875af1158015611802573d5f803e3d5ffd5b505050506040513d601f19601f82011682018060405250810190611826919061570a565b5090508060025f82825461183a9190615748565b9250508190555061184b8383612677565b505050565b5f611859612d9b565b90505f815f0160089054906101000a900460ff161590505f825f015f9054906101000a900467ffffffffffffffff1690505f808267ffffffffffffffff161480156118a15750825b90505f60018367ffffffffffffffff161480156118d457505f3073ffffffffffffffffffffffffffffffffffffffff163b145b9050811580156118e2575080155b15611919576040517ff92ee8a900000000000000000000000000000000000000000000000000000000815260040160405180910390fd5b6001855f015f6101000a81548167ffffffffffffffff021916908367ffffffffffffffff1602179055508315611966576001855f0160086101000a81548160ff0219169083151502179055505b6119da6040518060400160405280600581526020017f546f6b656e0000000000000000000000000000000000000000000000000000008152506040518060400160405280600581526020017f746f6b656e000000000000000000000000000000000000000000000000000000815250612dc2565b6119e2612dd8565b6119ea612de2565b6119f2612df4565b611a306040518060400160405280600581526020017f546f6b656e000000000000000000000000000000000000000000000000000000815250612dfe565b611a38612e48565b611a40612e52565b611a48612e5c565b611a545f801b8961221f565b50611a7f7f65d7a28e3265b37a6474929f336521b332c1681b933f6cb9f3376673440d862a8961221f565b50611aaa7f9f2df0fed2c77648de5860a4cc508cd0818c85b8b8a1ab4ceeef8d981c8956a68961221f565b50611ad57f189ab7a9244df0848122154315af71fe140f3db0fe014031783b0946b8c9d2e38961221f565b50865f806101000a81548173ffffffffffffffffffffffffffffffffffffffff021916908373ffffffffffffffffffffffffffffffffffffffff1602179055508560015f6101000a81548173ffffffffffffffffffffffffffffffffffffffff021916908373ffffffffffffffffffffffffffffffffffffffff1602179055508315611baf575f855f0160086101000a81548160ff0219169083151502179055507fc7f505b2f371ae2175ee4913f4499e1f2633a7b5936321eed1cdaeb6115181d26001604051611ba691906157d0565b60405180910390a15b5050505050505050565b83421115611bfe57836040517f4683af0e000000000000000000000000000000000000000000000000000000008152600401611bf59190614cac565b60405180910390fd5b5f611c5f611c577fe48329057bfd03d55e49b547132e39cffd9c1820ad7b9d4c5307691425d15adf898989604051602001611c3c94939291906157e9565b60405160208183030381529060405280519060200120612e6e565b858585612e87565b9050611c6b8187612eb5565b611c7581886129af565b50505050505050565b5f8054906101000a900473ffffffffffffffffffffffffffffffffffffffff1681565b83421115611ce657836040517f62791302000000000000000000000000000000000000000000000000000000008152600401611cdd9190614cac565b60405180910390fd5b5f7f6e71edae12b1b97f4d1f60370fef10105fa2faae0126114a169c64845d6126c9888888611d148c612f0c565b89604051602001611d2a9695949392919061582c565b6040516020818303038152906040528051906020012090505f611d4c82612e6e565b90505f611d5b82878787612e87565b90508973ffffffffffffffffffffffffffffffffffffffff168173ffffffffffffffffffffffffffffffffffffffff1614611dcf57808a6040517f4b800e46000000000000000000000000000000000000000000000000000000008152600401611dc692919061588b565b60405180910390fd5b611dda8a8a8a612050565b50505050505050505050565b7f9f2df0fed2c77648de5860a4cc508cd0818c85b8b8a1ab4ceeef8d981c8956a681565b611e1382610d97565b611e1c8161220b565b611e268383612325565b50505050565b5f80611e36612022565b9050806001015f8573ffffffffffffffffffffffffffffffffffffffff1673ffffffffffffffffffffffffffffffffffffffff1681526020019081526020015f205f8473ffffffffffffffffffffffffffffffffffffffff1673ffffffffffffffffffffffffffffffffffffffff1681526020019081526020015f205491505092915050565b7f65d7a28e3265b37a6474929f336521b332c1681b933f6cb9f3376673440d862a81565b611ee8614a00565b611ef28383612f6c565b905092915050565b5f60015f9054906101000a900473ffffffffffffffffffffffffffffffffffffffff1690508073ffffffffffffffffffffffffffffffffffffffff16634bf6920634846040518363ffffffff1660e01b8152600401611f599190614b3f565b5f604051808303818588803b158015611f70575f80fd5b505af1158015611f82573d5f803e3d5ffd5b5050505050611f9182346125f8565b5050565b7f189ab7a9244df0848122154315af71fe140f3db0fe014031783b0946b8c9d2e381565b5f7f01ffc9a7000000000000000000000000000000000000000000000000000000007bffffffffffffffffffffffffffffffffffffffffffffffffffffffff1916827bffffffffffffffffffffffffffffffffffffffffffffffffffffffff1916149050919050565b5f7f52c63247e1f47db19d5ce0460030c497f067ca4cebf71ba98eeadabe20bace00905090565b5f33905090565b61205d8383836001612fd9565b505050565b5f61206d8484611e2c565b90507fffffffffffffffffffffffffffffffffffffffffffffffffffffffffffffffff81146120ee57818110156120df578281836040517ffb8f41b20000000000000000000000000000000000000000000000000000000081526004016120d6939291906158b2565b60405180910390fd5b6120ed84848484035f612fd9565b5b50505050565b5f73ffffffffffffffffffffffffffffffffffffffff168373ffffffffffffffffffffffffffffffffffffffff1603612164575f6040517f96c6fd1e00000000000000000000000000000000000000000000000000000000815260040161215b9190614b3f565b60405180910390fd5b5f73ffffffffffffffffffffffffffffffffffffffff168273ffffffffffffffffffffffffffffffffffffffff16036121d4575f6040517fec442f050000000000000000000000000000000000000000000000000000000081526004016121cb9190614b3f565b60405180910390fd5b6121df8383836131b6565b505050565b5f7f02dd7bc7dec4dceedda775e58dd541e08a116c6c53815c0bd028192f7b626800905090565b61221c81612217612049565b6131c6565b50565b5f806122296121e4565b9050612235848461152c565b61230c576001815f015f8681526020019081526020015f205f015f8573ffffffffffffffffffffffffffffffffffffffff1673ffffffffffffffffffffffffffffffffffffffff1681526020019081526020015f205f6101000a81548160ff0219169083151502179055506122a8612049565b73ffffffffffffffffffffffffffffffffffffffff168373ffffffffffffffffffffffffffffffffffffffff16857f2f8788117e7eff1d82e926ec794901d17c78024a50270940304540a733656f0d60405160405180910390a46001915050612311565b5f9150505b92915050565b5f612320613217565b905090565b5f8061232f6121e4565b905061233b848461152c565b15612412575f815f015f8681526020019081526020015f205f015f8573ffffffffffffffffffffffffffffffffffffffff1673ffffffffffffffffffffffffffffffffffffffff1681526020019081526020015f205f6101000a81548160ff0219169083151502179055506123ae612049565b73ffffffffffffffffffffffffffffffffffffffff168373ffffffffffffffffffffffffffffffffffffffff16857ff6391f5c32d9c69d2a47ea670b442974b53935d1edc7fd64eb21e047a839171b60405160405180910390a46001915050612417565b5f9150505b92915050565b5f7fe8b26c30fad74198956032a3533d903385d56dd795af560196f9c78d4af40d00905090565b5f65ffffffffffff8016821115612495576030826040517f6dfcc65000000000000000000000000000000000000000000000000000000000815260040161248c929190615920565b60405180910390fd5b819050919050565b5f80835f018054905090505f80829050600583111561251e575f6124c08461327a565b846124cb9190615748565b90506124d9875f0182613370565b5f015f9054906101000a900465ffffffffffff1665ffffffffffff168665ffffffffffff16101561250c5780915061251c565b600181612519919061554c565b92505b505b5f61252d875f01878585613382565b90505f811461257c5761254e875f016001836125499190615748565b613370565b5f0160069054906101000a900479ffffffffffffffffffffffffffffffffffffffffffffffffffff1661257e565b5f5b94505050505092915050565b6125926133f7565b5f61259b612acc565b90505f815f015f6101000a81548160ff0219169083151502179055507f5db9ee0a495bf2e6ff9c91a7834c1ba4fdd244a5e8aa4e537bd38aeae4b073aa6125e0612049565b6040516125ed9190614b3f565b60405180910390a150565b5f73ffffffffffffffffffffffffffffffffffffffff168273ffffffffffffffffffffffffffffffffffffffff1603612668575f6040517fec442f0500000000000000000000000000000000000000000000000000000000815260040161265f9190614b3f565b60405180910390fd5b6126735f83836131b6565b5050565b5f73ffffffffffffffffffffffffffffffffffffffff168273ffffffffffffffffffffffffffffffffffffffff16036126e7575f6040517f96c6fd1e0000000000000000000000000000000000000000000000000000000081526004016126de9190614b3f565b60405180910390fd5b6126f2825f836131b6565b5050565b7f000000000000000000000000000000000000000000000000000000000000000073ffffffffffffffffffffffffffffffffffffffff163073ffffffffffffffffffffffffffffffffffffffff1614806127a357507f000000000000000000000000000000000000000000000000000000000000000073ffffffffffffffffffffffffffffffffffffffff1661278a613437565b73ffffffffffffffffffffffffffffffffffffffff1614155b156127da576040517fe07c8dba00000000000000000000000000000000000000000000000000000000815260040160405180910390fd5b565b7f189ab7a9244df0848122154315af71fe140f3db0fe014031783b0946b8c9d2e36128068161220b565b5050565b8173ffffffffffffffffffffffffffffffffffffffff166352d1902d6040518163ffffffff1660e01b8152600401602060405180830381865afa92505050801561287257506040513d601f19601f8201168201806040525081019061286f919061595b565b60015b6128b357816040517f4c9c8ce30000000000000000000000000000000000000000000000000000000081526004016128aa9190614b3f565b60405180910390fd5b7f360894a13ba1a3210667c828492db98dca3e2076cc3735a920a3ca505d382bbc5f1b811461291957806040517faa1d49a40000000000000000000000000000000000000000000000000000000081526004016129109190614d82565b60405180910390fd5b612923838361348a565b505050565b7f000000000000000000000000000000000000000000000000000000000000000073ffffffffffffffffffffffffffffffffffffffff163073ffffffffffffffffffffffffffffffffffffffff16146129ad576040517fe07c8dba00000000000000000000000000000000000000000000000000000000815260040160405180910390fd5b565b5f6129b861241d565b90505f6129c4846110de565b905082825f015f8673ffffffffffffffffffffffffffffffffffffffff1673ffffffffffffffffffffffffffffffffffffffff1681526020019081526020015f205f6101000a81548173ffffffffffffffffffffffffffffffffffffffff021916908373ffffffffffffffffffffffffffffffffffffffff1602179055508273ffffffffffffffffffffffffffffffffffffffff168173ffffffffffffffffffffffffffffffffffffffff168573ffffffffffffffffffffffffffffffffffffffff167f3134e8a2e6d97e929a7e54011ea5485d7d196dd5f0ba4d4ef95803e8e3fc257f60405160405180910390a4612ac68184612ac1876134fc565b61350d565b50505050565b5f7fcd5ed15c6e187e77e9aee88184c21f4f2182ab5827cb3b7e07fbedcd63f03300905090565b5f80612afd61241d565b9050612b4e612b49826001015f8673ffffffffffffffffffffffffffffffffffffffff1673ffffffffffffffffffffffffffffffffffffffff1681526020019081526020015f2061378d565b61379c565b915050919050565b5f612b60826137f3565b9050919050565b612b6f613846565b5f612b78612acc565b90506001815f015f6101000a81548160ff0219169083151502179055507f62e78cea01bee320cd4e420270b5ea74000d11b0c9f74754ebdbfc544b05a258612bbe612049565b604051612bcb9190614b3f565b60405180910390a150565b5f7fa16a46d94261c7517cc8ff89f61c0ce93598e3c849801011dee649a6a557d100905090565b60605f612c08612bd6565b9050806002018054612c19906154c8565b80601f0160208091040260200160405190810160405280929190818152602001828054612c45906154c8565b8015612c905780601f10612c6757610100808354040283529160200191612c90565b820191905f5260205f20905b815481529060010190602001808311612c7357829003601f168201915b505050505091505090565b60605f612ca6612bd6565b9050806003018054612cb7906154c8565b80601f0160208091040260200160405190810160405280929190818152602001828054612ce3906154c8565b8015612d2e5780601f10612d0557610100808354040283529160200191612d2e565b820191905f5260205f20905b815481529060010190602001808311612d1157829003601f168201915b505050505091505090565b5f80825f018054905090505f8114612d9157612d63835f01600183612d5e9190615748565b613370565b5f0160069054906101000a900479ffffffffffffffffffffffffffffffffffffffffffffffffffff16612d93565b5f5b915050919050565b5f7ff0c57e16840df040f15088dc2f81fe391c3923bec73e23a9662efc9c229c6a00905090565b612dca613887565b612dd482826138c7565b5050565b612de0613887565b565b612dea613887565b612df2613903565b565b612dfc613887565b565b612e06613887565b612e45816040518060400160405280600181526020017f3100000000000000000000000000000000000000000000000000000000000000815250613933565b50565b612e50613887565b565b612e5a613887565b565b612e64613887565b612e6c613984565b565b5f612e80612e7a612317565b836139a3565b9050919050565b5f805f80612e97888888886139e3565b925092509250612ea78282613aca565b829350505050949350505050565b5f612ebf83612f0c565b9050808214612f075782816040517f752d88c0000000000000000000000000000000000000000000000000000000008152600401612efe929190615626565b60405180910390fd5b505050565b5f80612f16613c2c565b9050805f015f8473ffffffffffffffffffffffffffffffffffffffff1673ffffffffffffffffffffffffffffffffffffffff1681526020019081526020015f205f81548092919060010191905055915050919050565b612f74614a00565b5f612f7d61241d565b9050612fd083826001015f8773ffffffffffffffffffffffffffffffffffffffff1673ffffffffffffffffffffffffffffffffffffffff1681526020019081526020015f20613c5390919063ffffffff16565b91505092915050565b5f612fe2612022565b90505f73ffffffffffffffffffffffffffffffffffffffff168573ffffffffffffffffffffffffffffffffffffffff1603613054575f6040517fe602df0500000000000000000000000000000000000000000000000000000000815260040161304b9190614b3f565b60405180910390fd5b5f73ffffffffffffffffffffffffffffffffffffffff168473ffffffffffffffffffffffffffffffffffffffff16036130c4575f6040517f94280d620000000000000000000000000000000000000000000000000000000081526004016130bb9190614b3f565b60405180910390fd5b82816001015f8773ffffffffffffffffffffffffffffffffffffffff1673ffffffffffffffffffffffffffffffffffffffff1681526020019081526020015f205f8673ffffffffffffffffffffffffffffffffffffffff1673ffffffffffffffffffffffffffffffffffffffff1681526020019081526020015f208190555081156131af578373ffffffffffffffffffffffffffffffffffffffff168573ffffffffffffffffffffffffffffffffffffffff167f8c5be1e5ebec7d5bd14f71427d1e84f3dd0314c0f7b2291e5b200ac8c7c3b925856040516131a69190614cac565b60405180910390a35b5050505050565b6131c1838383613d22565b505050565b6131d0828261152c565b6132135780826040517fe2517d3f00000000000000000000000000000000000000000000000000000000815260040161320a929190615986565b60405180910390fd5b5050565b5f7f8b73c3c69bb8fe3d512ecc4cf759cc79239f7b179b0ffacaa9a75d522b39400f613241613dd0565b613249613e46565b463060405160200161325f9594939291906159ad565b60405160208183030381529060405280519060200120905090565b5f80820361328a575f905061336b565b5f600161329684613ebd565b901c6001901b905060018184816132b0576132af6159fe565b5b048201901c905060018184816132c9576132c86159fe565b5b048201901c905060018184816132e2576132e16159fe565b5b048201901c905060018184816132fb576132fa6159fe565b5b048201901c90506001818481613314576133136159fe565b5b048201901c9050600181848161332d5761332c6159fe565b5b048201901c90506001818481613346576133456159fe565b5b048201901c905061336781828581613361576133606159fe565b5b04613f94565b9150505b919050565b5f825f528160205f2001905092915050565b5f5b818310156133ec575f6133978484613fac565b90508465ffffffffffff166133ac8783613370565b5f015f9054906101000a900465ffffffffffff1665ffffffffffff1611156133d6578092506133e6565b6001816133e3919061554c565b93505b50613384565b819050949350505050565b6133ff611169565b613435576040517f8dfc202b00000000000000000000000000000000000000000000000000000000815260040160405180910390fd5b565b5f6134637f360894a13ba1a3210667c828492db98dca3e2076cc3735a920a3ca505d382bbc5f1b613fd1565b5f015f9054906101000a900473ffffffffffffffffffffffffffffffffffffffff16905090565b61349382613fda565b8173ffffffffffffffffffffffffffffffffffffffff167fbc7cd75a20ee27fd9adebab32041f755214dbc6bffa90cc0225b39da2e5c2d3b60405160405180910390a25f815111156134ef576134e982826140a3565b506134f8565b6134f7614123565b5b5050565b5f613506826112c2565b9050919050565b5f61351661241d565b90508273ffffffffffffffffffffffffffffffffffffffff168473ffffffffffffffffffffffffffffffffffffffff161415801561355357505f82115b15613787575f73ffffffffffffffffffffffffffffffffffffffff168473ffffffffffffffffffffffffffffffffffffffff161461366f575f806135e0836001015f8873ffffffffffffffffffffffffffffffffffffffff1673ffffffffffffffffffffffffffffffffffffffff1681526020019081526020015f2061415f6135db87614174565b6141e1565b79ffffffffffffffffffffffffffffffffffffffffffffffffffff16915079ffffffffffffffffffffffffffffffffffffffffffffffffffff1691508573ffffffffffffffffffffffffffffffffffffffff167fdec2bacdd2f05b59de34da9b523dff8be42e5e38e818c82fdb0bae774387a7248383604051613664929190615a2b565b60405180910390a250505b5f73ffffffffffffffffffffffffffffffffffffffff168373ffffffffffffffffffffffffffffffffffffffff1614613786575f806136f7836001015f8773ffffffffffffffffffffffffffffffffffffffff1673ffffffffffffffffffffffffffffffffffffffff1681526020019081526020015f206142206136f287614174565b6141e1565b79ffffffffffffffffffffffffffffffffffffffffffffffffffff16915079ffffffffffffffffffffffffffffffffffffffffffffffffffff1691508473ffffffffffffffffffffffffffffffffffffffff167fdec2bacdd2f05b59de34da9b523dff8be42e5e38e818c82fdb0bae774387a724838360405161377b929190615a2b565b60405180910390a250505b5b50505050565b5f815f01805490509050919050565b5f63ffffffff80168211156137eb576020826040517f6dfcc6500000000000000000000000000000000000000000000000000000000081526004016137e2929190615a8b565b60405180910390fd5b819050919050565b5f806137fd613c2c565b9050805f015f8473ffffffffffffffffffffffffffffffffffffffff1673ffffffffffffffffffffffffffffffffffffffff1681526020019081526020015f2054915050919050565b61384e611169565b15613885576040517fd93c066500000000000000000000000000000000000000000000000000000000815260040160405180910390fd5b565b61388f614235565b6138c5576040517fd7e6bcf800000000000000000000000000000000000000000000000000000000815260040160405180910390fd5b565b6138cf613887565b5f6138d8612022565b9050828160030190816138eb9190615c46565b50818160040190816138fd9190615c46565b50505050565b61390b613887565b5f613914612acc565b90505f815f015f6101000a81548160ff02191690831515021790555050565b61393b613887565b5f613944612bd6565b9050828160020190816139579190615c46565b50818160030190816139699190615c46565b505f801b815f01819055505f801b8160010181905550505050565b61398c613887565b5f613995614253565b90506001815f018190555050565b5f6040517f190100000000000000000000000000000000000000000000000000000000000081528360028201528260228201526042812091505092915050565b5f805f7f7fffffffffffffffffffffffffffffff5d576e7357a4501ddfe92f46681b20a0845f1c1115613a1f575f600385925092509250613ac0565b5f6001888888886040515f8152602001604052604051613a429493929190615d15565b6020604051602081039080840390855afa158015613a62573d5f803e3d5ffd5b5050506020604051035190505f73ffffffffffffffffffffffffffffffffffffffff168173ffffffffffffffffffffffffffffffffffffffff1603613ab3575f60015f801b93509350935050613ac0565b805f805f1b935093509350505b9450945094915050565b5f6003811115613add57613adc615d58565b5b826003811115613af057613aef615d58565b5b0315613c285760016003811115613b0a57613b09615d58565b5b826003811115613b1d57613b1c615d58565b5b03613b54576040517ff645eedf00000000000000000000000000000000000000000000000000000000815260040160405180910390fd5b60026003811115613b6857613b67615d58565b5b826003811115613b7b57613b7a615d58565b5b03613bbf57805f1c6040517ffce698f7000000000000000000000000000000000000000000000000000000008152600401613bb69190614cac565b60405180910390fd5b600380811115613bd257613bd1615d58565b5b826003811115613be557613be4615d58565b5b03613c2757806040517fd78bce0c000000000000000000000000000000000000000000000000000000008152600401613c1e9190614d82565b60405180910390fd5b5b5050565b5f7f5ab42ced628888259c08ac98db1eb0cf702fc1501344311d8b100cd1bfe4bb00905090565b613c5b614a00565b825f018263ffffffff1681548110613c7657613c75615d85565b5b905f5260205f20016040518060400160405290815f82015f9054906101000a900465ffffffffffff1665ffffffffffff1665ffffffffffff1681526020015f820160069054906101000a900479ffffffffffffffffffffffffffffffffffffffffffffffffffff1679ffffffffffffffffffffffffffffffffffffffffffffffffffff1679ffffffffffffffffffffffffffffffffffffffffffffffffffff1681525050905092915050565b613d2d83838361427a565b5f73ffffffffffffffffffffffffffffffffffffffff168373ffffffffffffffffffffffffffffffffffffffff1603613dc0575f613d69610d52565b90505f613d74614292565b905080821115613dbd5781816040517f1cb15d26000000000000000000000000000000000000000000000000000000008152600401613db4929190615a2b565b60405180910390fd5b50505b613dcb8383836142b5565b505050565b5f80613dda612bd6565b90505f613de5612bfd565b90505f81511115613e0157808051906020012092505050613e43565b5f825f015490505f801b8114613e1c57809350505050613e43565b7fc5d2460186f7233c927e7db2dcc703c0e500b653ca82273b7bfad8045d85a47093505050505b90565b5f80613e50612bd6565b90505f613e5b612c9b565b90505f81511115613e7757808051906020012092505050613eba565b5f826001015490505f801b8114613e9357809350505050613eba565b7fc5d2460186f7233c927e7db2dcc703c0e500b653ca82273b7bfad8045d85a47093505050505b90565b5f805f90505f608084901c1115613edc57608083901c92506080810190505b5f604084901c1115613ef657604083901c92506040810190505b5f602084901c1115613f1057602083901c92506020810190505b5f601084901c1115613f2a57601083901c92506010810190505b5f600884901c1115613f4457600883901c92506008810190505b5f600484901c1115613f5e57600483901c92506004810190505b5f600284901c1115613f7857600283901c92506002810190505b5f600184901c1115613f8b576001810190505b80915050919050565b5f818310613fa25781613fa4565b825b905092915050565b5f6002828418613fbc9190615db2565b828416613fc9919061554c565b905092915050565b5f819050919050565b5f8173ffffffffffffffffffffffffffffffffffffffff163b0361403557806040517f4c9c8ce300000000000000000000000000000000000000000000000000000000815260040161402c9190614b3f565b60405180910390fd5b806140617f360894a13ba1a3210667c828492db98dca3e2076cc3735a920a3ca505d382bbc5f1b613fd1565b5f015f6101000a81548173ffffffffffffffffffffffffffffffffffffffff021916908373ffffffffffffffffffffffffffffffffffffffff16021790555050565b60605f808473ffffffffffffffffffffffffffffffffffffffff16846040516140cc9190615e26565b5f60405180830381855af49150503d805f8114614104576040519150601f19603f3d011682016040523d82523d5f602084013e614109565b606091505b509150915061411985838361437d565b9250505092915050565b5f34111561415d576040517fb398979f00000000000000000000000000000000000000000000000000000000815260040160405180910390fd5b565b5f818361416c9190615e3c565b905092915050565b5f79ffffffffffffffffffffffffffffffffffffffffffffffffffff80168211156141d95760d0826040517f6dfcc6500000000000000000000000000000000000000000000000000000000081526004016141d0929190615ec2565b60405180910390fd5b819050919050565b5f806142146141ee61159d565b6142046141fa88612d39565b868863ffffffff16565b8761440a9092919063ffffffff16565b91509150935093915050565b5f818361422d9190615ee9565b905092915050565b5f61423e612d9b565b5f0160089054906101000a900460ff16905090565b5f7f9b779b17422d0df92223018b32b4d1fa46e071723d6817e2486d003becc55f00905090565b614282613846565b61428d838383614425565b505050565b5f79ffffffffffffffffffffffffffffffffffffffffffffffffffff8016905090565b5f6142be61241d565b90505f73ffffffffffffffffffffffffffffffffffffffff168473ffffffffffffffffffffffffffffffffffffffff160361430e5761430b8160020161422061430685614174565b6141e1565b50505b5f73ffffffffffffffffffffffffffffffffffffffff168373ffffffffffffffffffffffffffffffffffffffff160361435c576143598160020161415f61435485614174565b6141e1565b50505b614377614368856110de565b614371856110de565b8461350d565b50505050565b6060826143925761438d82614654565b614402565b5f82511480156143b857505f8473ffffffffffffffffffffffffffffffffffffffff163b145b156143fa57836040517f9996b3150000000000000000000000000000000000000000000000000000000081526004016143f19190614b3f565b60405180910390fd5b819050614403565b5b9392505050565b5f80614419855f018585614698565b91509150935093915050565b5f61442e612022565b90505f73ffffffffffffffffffffffffffffffffffffffff168473ffffffffffffffffffffffffffffffffffffffff16036144825781816002015f828254614476919061554c565b92505081905550614554565b5f815f015f8673ffffffffffffffffffffffffffffffffffffffff1673ffffffffffffffffffffffffffffffffffffffff1681526020019081526020015f205490508281101561450d578481846040517fe450d38c000000000000000000000000000000000000000000000000000000008152600401614504939291906158b2565b60405180910390fd5b828103825f015f8773ffffffffffffffffffffffffffffffffffffffff1673ffffffffffffffffffffffffffffffffffffffff1681526020019081526020015f2081905550505b5f73ffffffffffffffffffffffffffffffffffffffff168373ffffffffffffffffffffffffffffffffffffffff160361459d5781816002015f82825403925050819055506145e9565b81815f015f8573ffffffffffffffffffffffffffffffffffffffff1673ffffffffffffffffffffffffffffffffffffffff1681526020019081526020015f205f82825401925050819055505b8273ffffffffffffffffffffffffffffffffffffffff168473ffffffffffffffffffffffffffffffffffffffff167fddf252ad1be2c89b69c2b068fc378daa952ba7f163c4a11628f55a4df523b3ef846040516146469190614cac565b60405180910390a350505050565b5f815111156146665780518082602001fd5b6040517f1425ea4200000000000000000000000000000000000000000000000000000000815260040160405180910390fd5b5f805f858054905090505f811115614918575f6146c1876001846146bc9190615748565b613370565b6040518060400160405290815f82015f9054906101000a900465ffffffffffff1665ffffffffffff1665ffffffffffff1681526020015f820160069054906101000a900479ffffffffffffffffffffffffffffffffffffffffffffffffffff1679ffffffffffffffffffffffffffffffffffffffffffffffffffff1679ffffffffffffffffffffffffffffffffffffffffffffffffffff168152505090508565ffffffffffff16815f015165ffffffffffff1611156147ac576040517f2520601d00000000000000000000000000000000000000000000000000000000815260040160405180910390fd5b8565ffffffffffff16815f015165ffffffffffff160361482e57846147dd886001856147d89190615748565b613370565b5f0160066101000a81548179ffffffffffffffffffffffffffffffffffffffffffffffffffff021916908379ffffffffffffffffffffffffffffffffffffffffffffffffffff160217905550614907565b8660405180604001604052808865ffffffffffff1681526020018779ffffffffffffffffffffffffffffffffffffffffffffffffffff16815250908060018154018082558091505060019003905f5260205f20015f909190919091505f820151815f015f6101000a81548165ffffffffffff021916908365ffffffffffff1602179055506020820151815f0160066101000a81548179ffffffffffffffffffffffffffffffffffffffffffffffffffff021916908379ffffffffffffffffffffffffffffffffffffffffffffffffffff16021790555050505b8060200151859350935050506149f8565b8560405180604001604052808765ffffffffffff1681526020018679ffffffffffffffffffffffffffffffffffffffffffffffffffff16815250908060018154018082558091505060019003905f5260205f20015f909190919091505f820151815f015f6101000a81548165ffffffffffff021916908365ffffffffffff1602179055506020820151815f0160066101000a81548179ffffffffffffffffffffffffffffffffffffffffffffffffffff021916908379ffffffffffffffffffffffffffffffffffffffffffffffffffff16021790555050505f8492509250505b935093915050565b60405180604001604052805f65ffffffffffff1681526020015f79ffffffffffffffffffffffffffffffffffffffffffffffffffff1681525090565b5f604051905090565b5f80fd5b5f80fd5b5f7fffffffff0000000000000000000000000000000000000000000000000000000082169050919050565b614a8181614a4d565b8114614a8b575f80fd5b50565b5f81359050614a9c81614a78565b92915050565b5f60208284031215614ab757614ab6614a45565b5b5f614ac484828501614a8e565b91505092915050565b5f8115159050919050565b614ae181614acd565b82525050565b5f602082019050614afa5f830184614ad8565b92915050565b5f73ffffffffffffffffffffffffffffffffffffffff82169050919050565b5f614b2982614b00565b9050919050565b614b3981614b1f565b82525050565b5f602082019050614b525f830184614b30565b92915050565b5f81519050919050565b5f82825260208201905092915050565b5f5b83811015614b8f578082015181840152602081019050614b74565b5f8484015250505050565b5f601f19601f8301169050919050565b5f614bb482614b58565b614bbe8185614b62565b9350614bce818560208601614b72565b614bd781614b9a565b840191505092915050565b5f6020820190508181035f830152614bfa8184614baa565b905092915050565b614c0b81614b1f565b8114614c15575f80fd5b50565b5f81359050614c2681614c02565b92915050565b5f819050919050565b614c3e81614c2c565b8114614c48575f80fd5b50565b5f81359050614c5981614c35565b92915050565b5f8060408385031215614c7557614c74614a45565b5b5f614c8285828601614c18565b9250506020614c9385828601614c4b565b9150509250929050565b614ca681614c2c565b82525050565b5f602082019050614cbf5f830184614c9d565b92915050565b5f805f60608486031215614cdc57614cdb614a45565b5b5f614ce986828701614c18565b9350506020614cfa86828701614c18565b9250506040614d0b86828701614c4b565b9150509250925092565b5f819050919050565b614d2781614d15565b8114614d31575f80fd5b50565b5f81359050614d4281614d1e565b92915050565b5f60208284031215614d5d57614d5c614a45565b5b5f614d6a84828501614d34565b91505092915050565b614d7c81614d15565b82525050565b5f602082019050614d955f830184614d73565b92915050565b5f8060408385031215614db157614db0614a45565b5b5f614dbe85828601614d34565b9250506020614dcf85828601614c18565b9150509250929050565b5f60ff82169050919050565b614dee81614dd9565b82525050565b5f602082019050614e075f830184614de5565b92915050565b5f60208284031215614e2257614e21614a45565b5b5f614e2f84828501614c4b565b91505092915050565b5f80fd5b5f80fd5b7f4e487b71000000000000000000000000000000000000000000000000000000005f52604160045260245ffd5b614e7682614b9a565b810181811067ffffffffffffffff82111715614e9557614e94614e40565b5b80604052505050565b5f614ea7614a3c565b9050614eb38282614e6d565b919050565b5f67ffffffffffffffff821115614ed257614ed1614e40565b5b614edb82614b9a565b9050602081019050919050565b828183375f83830152505050565b5f614f08614f0384614eb8565b614e9e565b905082815260208101848484011115614f2457614f23614e3c565b5b614f2f848285614ee8565b509392505050565b5f82601f830112614f4b57614f4a614e38565b5b8135614f5b848260208601614ef6565b91505092915050565b5f8060408385031215614f7a57614f79614a45565b5b5f614f8785828601614c18565b925050602083013567ffffffffffffffff811115614fa857614fa7614a49565b5b614fb485828601614f37565b9150509250929050565b5f60208284031215614fd357614fd2614a45565b5b5f614fe084828501614c18565b91505092915050565b5f63ffffffff82169050919050565b61500181614fe9565b82525050565b5f60208201905061501a5f830184614ff8565b92915050565b5f7fff0000000000000000000000000000000000000000000000000000000000000082169050919050565b61505481615020565b82525050565b5f81519050919050565b5f82825260208201905092915050565b5f819050602082019050919050565b61508c81614c2c565b82525050565b5f61509d8383615083565b60208301905092915050565b5f602082019050919050565b5f6150bf8261505a565b6150c98185615064565b93506150d483615074565b805f5b838110156151045781516150eb8882615092565b97506150f6836150a9565b9250506001810190506150d7565b5085935050505092915050565b5f60e0820190506151245f83018a61504b565b81810360208301526151368189614baa565b9050818103604083015261514a8188614baa565b90506151596060830187614c9d565b6151666080830186614b30565b61517360a0830185614d73565b81810360c083015261518581846150b5565b905098975050505050505050565b5f65ffffffffffff82169050919050565b6151ad81615193565b82525050565b5f6020820190506151c65f8301846151a4565b92915050565b5f805f606084860312156151e3576151e2614a45565b5b5f6151f086828701614c18565b935050602061520186828701614c18565b925050604061521286828701614c18565b9150509250925092565b61522581614dd9565b811461522f575f80fd5b50565b5f813590506152408161521c565b92915050565b5f805f805f8060c087890312156152605761525f614a45565b5b5f61526d89828a01614c18565b965050602061527e89828a01614c4b565b955050604061528f89828a01614c4b565b94505060606152a089828a01615232565b93505060806152b189828a01614d34565b92505060a06152c289828a01614d34565b9150509295509295509295565b5f805f805f805f60e0888a0312156152ea576152e9614a45565b5b5f6152f78a828b01614c18565b97505060206153088a828b01614c18565b96505060406153198a828b01614c4b565b955050606061532a8a828b01614c4b565b945050608061533b8a828b01615232565b93505060a061534c8a828b01614d34565b92505060c061535d8a828b01614d34565b91505092959891949750929550565b5f806040838503121561538257615381614a45565b5b5f61538f85828601614c18565b92505060206153a085828601614c18565b9150509250929050565b6153b381614fe9565b81146153bd575f80fd5b50565b5f813590506153ce816153aa565b92915050565b5f80604083850312156153ea576153e9614a45565b5b5f6153f785828601614c18565b9250506020615408858286016153c0565b9150509250929050565b61541b81615193565b82525050565b5f79ffffffffffffffffffffffffffffffffffffffffffffffffffff82169050919050565b61544f81615421565b82525050565b604082015f8201516154695f850182615412565b50602082015161547c6020850182615446565b50505050565b5f6040820190506154955f830184615455565b92915050565b7f4e487b71000000000000000000000000000000000000000000000000000000005f52602260045260245ffd5b5f60028204905060018216806154df57607f821691505b6020821081036154f2576154f161549b565b5b50919050565b5f60408201905061550b5f830185614c9d565b61551860208301846151a4565b9392505050565b7f4e487b71000000000000000000000000000000000000000000000000000000005f52601160045260245ffd5b5f61555682614c2c565b915061556183614c2c565b92508282019050808211156155795761557861551f565b5b92915050565b7f546f6b656e3a204d617820737570706c792072656163686564000000000000005f82015250565b5f6155b3601983614b62565b91506155be8261557f565b602082019050919050565b5f6020820190508181035f8301526155e0816155a7565b9050919050565b5f815190506155f581614c35565b92915050565b5f602082840312156156105761560f614a45565b5b5f61561d848285016155e7565b91505092915050565b5f6040820190506156395f830185614b30565b6156466020830184614c9d565b9392505050565b61565681614acd565b8114615660575f80fd5b50565b5f815190506156718161564d565b92915050565b5f6020828403121561568c5761568b614a45565b5b5f61569984828501615663565b91505092915050565b7f4549503731323a20556e696e697469616c697a656400000000000000000000005f82015250565b5f6156d6601583614b62565b91506156e1826156a2565b602082019050919050565b5f6020820190508181035f830152615703816156ca565b9050919050565b5f80604083850312156157205761571f614a45565b5b5f61572d858286016155e7565b925050602061573e858286016155e7565b9150509250929050565b5f61575282614c2c565b915061575d83614c2c565b92508282039050818111156157755761577461551f565b5b92915050565b5f819050919050565b5f67ffffffffffffffff82169050919050565b5f819050919050565b5f6157ba6157b56157b08461577b565b615797565b615784565b9050919050565b6157ca816157a0565b82525050565b5f6020820190506157e35f8301846157c1565b92915050565b5f6080820190506157fc5f830187614d73565b6158096020830186614b30565b6158166040830185614c9d565b6158236060830184614c9d565b95945050505050565b5f60c08201905061583f5f830189614d73565b61584c6020830188614b30565b6158596040830187614b30565b6158666060830186614c9d565b6158736080830185614c9d565b61588060a0830184614c9d565b979650505050505050565b5f60408201905061589e5f830185614b30565b6158ab6020830184614b30565b9392505050565b5f6060820190506158c55f830186614b30565b6158d26020830185614c9d565b6158df6040830184614c9d565b949350505050565b5f819050919050565b5f61590a615905615900846158e7565b615797565b614dd9565b9050919050565b61591a816158f0565b82525050565b5f6040820190506159335f830185615911565b6159406020830184614c9d565b9392505050565b5f8151905061595581614d1e565b92915050565b5f602082840312156159705761596f614a45565b5b5f61597d84828501615947565b91505092915050565b5f6040820190506159995f830185614b30565b6159a66020830184614d73565b9392505050565b5f60a0820190506159c05f830188614d73565b6159cd6020830187614d73565b6159da6040830186614d73565b6159e76060830185614c9d565b6159f46080830184614b30565b9695505050505050565b7f4e487b71000000000000000000000000000000000000000000000000000000005f52601260045260245ffd5b5f604082019050615a3e5f830185614c9d565b615a4b6020830184614c9d565b9392505050565b5f819050919050565b5f615a75615a70615a6b84615a52565b615797565b614dd9565b9050919050565b615a8581615a5b565b82525050565b5f604082019050615a9e5f830185615a7c565b615aab6020830184614c9d565b9392505050565b5f819050815f5260205f209050919050565b5f6020601f8301049050919050565b5f82821b905092915050565b5f60088302615b0e7fffffffffffffffffffffffffffffffffffffffffffffffffffffffffffffffff82615ad3565b615b188683615ad3565b95508019841693508086168417925050509392505050565b5f615b4a615b45615b4084614c2c565b615797565b614c2c565b9050919050565b5f819050919050565b615b6383615b30565b615b77615b6f82615b51565b848454615adf565b825550505050565b5f90565b615b8b615b7f565b615b96818484615b5a565b505050565b5b81811015615bb957615bae5f82615b83565b600181019050615b9c565b5050565b601f821115615bfe57615bcf81615ab2565b615bd884615ac4565b81016020851015615be7578190505b615bfb615bf385615ac4565b830182615b9b565b50505b505050565b5f82821c905092915050565b5f615c1e5f1984600802615c03565b1980831691505092915050565b5f615c368383615c0f565b9150826002028217905092915050565b615c4f82614b58565b67ffffffffffffffff811115615c6857615c67614e40565b5b615c7282546154c8565b615c7d828285615bbd565b5f60209050601f831160018114615cae575f8415615c9c578287015190505b615ca68582615c2b565b865550615d0d565b601f198416615cbc86615ab2565b5f5b82811015615ce357848901518255600182019150602085019450602081019050615cbe565b86831015615d005784890151615cfc601f891682615c0f565b8355505b6001600288020188555050505b505050505050565b5f608082019050615d285f830187614d73565b615d356020830186614de5565b615d426040830185614d73565b615d4f6060830184614d73565b95945050505050565b7f4e487b71000000000000000000000000000000000000000000000000000000005f52602160045260245ffd5b7f4e487b71000000000000000000000000000000000000000000000000000000005f52603260045260245ffd5b5f615dbc82614c2c565b9150615dc783614c2c565b925082615dd757615dd66159fe565b5b828204905092915050565b5f81519050919050565b5f81905092915050565b5f615e0082615de2565b615e0a8185615dec565b9350615e1a818560208601614b72565b80840191505092915050565b5f615e318284615df6565b915081905092915050565b5f615e4682615421565b9150615e5183615421565b9250828203905079ffffffffffffffffffffffffffffffffffffffffffffffffffff811115615e8357615e8261551f565b5b92915050565b5f819050919050565b5f615eac615ea7615ea284615e89565b615797565b614dd9565b9050919050565b615ebc81615e92565b82525050565b5f604082019050615ed55f830185615eb3565b615ee26020830184614c9d565b9392505050565b5f615ef382615421565b9150615efe83615421565b9250828201905079ffffffffffffffffffffffffffffffffffffffffffffffffffff811115615f3057615f2f61551f565b5b9291505056fea26469706673582212209145f11d6105e6b7ba6392ae71a128caf14d87c7e2605f6c3583e540ecba0a1964736f6c63430008150033",
			"opcodes": "PUSH1 0xA0 PUSH1 0x40 MSTORE ADDRESS PUSH20 0xFFFFFFFFFFFFFFFFFFFFFFFFFFFFFFFFFFFFFFFF AND PUSH1 0x80 SWAP1 PUSH20 0xFFFFFFFFFFFFFFFFFFFFFFFFFFFFFFFFFFFFFFFF AND DUP2 MSTORE POP CALLVALUE DUP1 ISZERO PUSH3 0x43 JUMPI PUSH0 DUP1 REVERT JUMPDEST POP PUSH3 0x54 PUSH3 0x5A PUSH1 0x20 SHL PUSH1 0x20 SHR JUMP JUMPDEST PUSH3 0x1C4 JUMP JUMPDEST PUSH0 PUSH3 0x6B PUSH3 0x15E PUSH1 0x20 SHL PUSH1 0x20 SHR JUMP JUMPDEST SWAP1 POP DUP1 PUSH0 ADD PUSH1 0x8 SWAP1 SLOAD SWAP1 PUSH2 0x100 EXP SWAP1 DIV PUSH1 0xFF AND ISZERO PUSH3 0xB6 JUMPI PUSH1 0x40 MLOAD PUSH32 0xF92EE8A900000000000000000000000000000000000000000000000000000000 DUP2 MSTORE PUSH1 0x4 ADD PUSH1 0x40 MLOAD DUP1 SWAP2 SUB SWAP1 REVERT JUMPDEST PUSH8 0xFFFFFFFFFFFFFFFF DUP1 AND DUP2 PUSH0 ADD PUSH0 SWAP1 SLOAD SWAP1 PUSH2 0x100 EXP SWAP1 DIV PUSH8 0xFFFFFFFFFFFFFFFF AND PUSH8 0xFFFFFFFFFFFFFFFF AND EQ PUSH3 0x15B JUMPI PUSH8 0xFFFFFFFFFFFFFFFF DUP2 PUSH0 ADD PUSH0 PUSH2 0x100 EXP DUP2 SLOAD DUP2 PUSH8 0xFFFFFFFFFFFFFFFF MUL NOT AND SWAP1 DUP4 PUSH8 0xFFFFFFFFFFFFFFFF AND MUL OR SWAP1 SSTORE POP PUSH32 0xC7F505B2F371AE2175EE4913F4499E1F2633A7B5936321EED1CDAEB6115181D2 PUSH8 0xFFFFFFFFFFFFFFFF PUSH1 0x40 MLOAD PUSH3 0x152 SWAP2 SWAP1 PUSH3 0x1A9 JUMP JUMPDEST PUSH1 0x40 MLOAD DUP1 SWAP2 SUB SWAP1 LOG1 JUMPDEST POP JUMP JUMPDEST PUSH0 PUSH32 0xF0C57E16840DF040F15088DC2F81FE391C3923BEC73E23A9662EFC9C229C6A00 SWAP1 POP SWAP1 JUMP JUMPDEST PUSH0 PUSH8 0xFFFFFFFFFFFFFFFF DUP3 AND SWAP1 POP SWAP2 SWAP1 POP JUMP JUMPDEST PUSH3 0x1A3 DUP2 PUSH3 0x185 JUMP JUMPDEST DUP3 MSTORE POP POP JUMP JUMPDEST PUSH0 PUSH1 0x20 DUP3 ADD SWAP1 POP PUSH3 0x1BE PUSH0 DUP4 ADD DUP5 PUSH3 0x198 JUMP JUMPDEST SWAP3 SWAP2 POP POP JUMP JUMPDEST PUSH1 0x80 MLOAD PUSH2 0x5F6C PUSH3 0x1EB PUSH0 CODECOPY PUSH0 DUP2 DUP2 PUSH2 0x26F8 ADD MSTORE DUP2 DUP2 PUSH2 0x274D ADD MSTORE PUSH2 0x292A ADD MSTORE PUSH2 0x5F6C PUSH0 RETURN INVALID PUSH1 0x80 PUSH1 0x40 MSTORE PUSH1 0x4 CALLDATASIZE LT PUSH2 0x2E7 JUMPI PUSH0 CALLDATALOAD PUSH1 0xE0 SHR DUP1 PUSH4 0x70A08231 GT PUSH2 0x18F JUMPI DUP1 PUSH4 0xAD3CB1CC GT PUSH2 0xDB JUMPI DUP1 PUSH4 0xD5391393 GT PUSH2 0x94 JUMPI DUP1 PUSH4 0xE63AB1E9 GT PUSH2 0x6E JUMPI DUP1 PUSH4 0xE63AB1E9 EQ PUSH2 0xB48 JUMPI DUP1 PUSH4 0xF1127ED8 EQ PUSH2 0xB72 JUMPI DUP1 PUSH4 0xF28487BC EQ PUSH2 0xBAE JUMPI DUP1 PUSH4 0xF72C0D8B EQ PUSH2 0xBCA JUMPI PUSH2 0x2EE JUMP JUMPDEST DUP1 PUSH4 0xD5391393 EQ PUSH2 0xABA JUMPI DUP1 PUSH4 0xD547741F EQ PUSH2 0xAE4 JUMPI DUP1 PUSH4 0xDD62ED3E EQ PUSH2 0xB0C JUMPI PUSH2 0x2EE JUMP JUMPDEST DUP1 PUSH4 0xAD3CB1CC EQ PUSH2 0x9C6 JUMPI DUP1 PUSH4 0xAE2ADAF0 EQ PUSH2 0x9F0 JUMPI DUP1 PUSH4 0xC0C53B8B EQ PUSH2 0xA18 JUMPI DUP1 PUSH4 0xC3CDA520 EQ PUSH2 0xA40 JUMPI DUP1 PUSH4 0xCD7DB018 EQ PUSH2 0xA68 JUMPI DUP1 PUSH4 0xD505ACCF EQ PUSH2 0xA92 JUMPI PUSH2 0x2EE JUMP JUMPDEST DUP1 PUSH4 0x91D14854 GT PUSH2 0x148 JUMPI DUP1 PUSH4 0x9AB24EB0 GT PUSH2 0x122 JUMPI DUP1 PUSH4 0x9AB24EB0 EQ PUSH2 0x90E JUMPI DUP1 PUSH4 0xA217FDDF EQ PUSH2 0x94A JUMPI DUP1 PUSH4 0xA80109C6 EQ PUSH2 0x974 JUMPI DUP1 PUSH4 0xA9059CBB EQ PUSH2 0x98A JUMPI PUSH2 0x2EE JUMP JUMPDEST DUP1 PUSH4 0x91D14854 EQ PUSH2 0x87E JUMPI DUP1 PUSH4 0x91DDADF4 EQ PUSH2 0x8BA JUMPI DUP1 PUSH4 0x95D89B41 EQ PUSH2 0x8E4 JUMPI PUSH2 0x2EE JUMP JUMPDEST DUP1 PUSH4 0x70A08231 EQ PUSH2 0x75C JUMPI DUP1 PUSH4 0x79CC6790 EQ PUSH2 0x798 JUMPI DUP1 PUSH4 0x7ECEBE00 EQ PUSH2 0x7C0 JUMPI DUP1 PUSH4 0x8456CB59 EQ PUSH2 0x7FC JUMPI DUP1 PUSH4 0x84B0196E EQ PUSH2 0x812 JUMPI DUP1 PUSH4 0x8E539E8C EQ PUSH2 0x842 JUMPI PUSH2 0x2EE JUMP JUMPDEST DUP1 PUSH4 0x3A46B1A8 GT PUSH2 0x24E JUMPI DUP1 PUSH4 0x4FCD37E6 GT PUSH2 0x207 JUMPI DUP1 PUSH4 0x5C19A95C GT PUSH2 0x1E1 JUMPI DUP1 PUSH4 0x5C19A95C EQ PUSH2 0x6A6 JUMPI DUP1 PUSH4 0x5C975ABB EQ PUSH2 0x6CE JUMPI DUP1 PUSH4 0x662D084A EQ PUSH2 0x6F8 JUMPI DUP1 PUSH4 0x6FCFFF45 EQ PUSH2 0x720 JUMPI PUSH2 0x2EE JUMP JUMPDEST DUP1 PUSH4 0x4FCD37E6 EQ PUSH2 0x616 JUMPI DUP1 PUSH4 0x52D1902D EQ PUSH2 0x640 JUMPI DUP1 PUSH4 0x587CDE1E EQ PUSH2 0x66A JUMPI PUSH2 0x2EE JUMP JUMPDEST DUP1 PUSH4 0x3A46B1A8 EQ PUSH2 0x52E JUMPI DUP1 PUSH4 0x3F4BA83A EQ PUSH2 0x56A JUMPI DUP1 PUSH4 0x40C10F19 EQ PUSH2 0x580 JUMPI DUP1 PUSH4 0x42966C68 EQ PUSH2 0x5A8 JUMPI DUP1 PUSH4 0x4BF5D7E9 EQ PUSH2 0x5D0 JUMPI DUP1 PUSH4 0x4F1EF286 EQ PUSH2 0x5FA JUMPI PUSH2 0x2EE JUMP JUMPDEST DUP1 PUSH4 0x248A9CA3 GT PUSH2 0x2A0 JUMPI DUP1 PUSH4 0x248A9CA3 EQ PUSH2 0x424 JUMPI DUP1 PUSH4 0x2F2FF15D EQ PUSH2 0x460 JUMPI DUP1 PUSH4 0x313CE567 EQ PUSH2 0x488 JUMPI DUP1 PUSH4 0x32CB6B0C EQ PUSH2 0x4B2 JUMPI DUP1 PUSH4 0x3644E515 EQ PUSH2 0x4DC JUMPI DUP1 PUSH4 0x36568ABE EQ PUSH2 0x506 JUMPI PUSH2 0x2EE JUMP JUMPDEST DUP1 PUSH4 0x1FFC9A7 EQ PUSH2 0x2F2 JUMPI DUP1 PUSH4 0x52E4FB0 EQ PUSH2 0x32E JUMPI DUP1 PUSH4 0x6FDDE03 EQ PUSH2 0x358 JUMPI DUP1 PUSH4 0x95EA7B3 EQ PUSH2 0x382 JUMPI DUP1 PUSH4 0x18160DDD EQ PUSH2 0x3BE JUMPI DUP1 PUSH4 0x23B872DD EQ PUSH2 0x3E8 JUMPI PUSH2 0x2EE JUMP JUMPDEST CALLDATASIZE PUSH2 0x2EE JUMPI STOP JUMPDEST PUSH0 DUP1 REVERT JUMPDEST CALLVALUE DUP1 ISZERO PUSH2 0x2FD JUMPI PUSH0 DUP1 REVERT JUMPDEST POP PUSH2 0x318 PUSH1 0x4 DUP1 CALLDATASIZE SUB DUP2 ADD SWAP1 PUSH2 0x313 SWAP2 SWAP1 PUSH2 0x4AA2 JUMP JUMPDEST PUSH2 0xBF4 JUMP JUMPDEST PUSH1 0x40 MLOAD PUSH2 0x325 SWAP2 SWAP1 PUSH2 0x4AE7 JUMP JUMPDEST PUSH1 0x40 MLOAD DUP1 SWAP2 SUB SWAP1 RETURN JUMPDEST CALLVALUE DUP1 ISZERO PUSH2 0x339 JUMPI PUSH0 DUP1 REVERT JUMPDEST POP PUSH2 0x342 PUSH2 0xC6D JUMP JUMPDEST PUSH1 0x40 MLOAD PUSH2 0x34F SWAP2 SWAP1 PUSH2 0x4B3F JUMP JUMPDEST PUSH1 0x40 MLOAD DUP1 SWAP2 SUB SWAP1 RETURN JUMPDEST CALLVALUE DUP1 ISZERO PUSH2 0x363 JUMPI PUSH0 DUP1 REVERT JUMPDEST POP PUSH2 0x36C PUSH2 0xC92 JUMP JUMPDEST PUSH1 0x40 MLOAD PUSH2 0x379 SWAP2 SWAP1 PUSH2 0x4BE2 JUMP JUMPDEST PUSH1 0x40 MLOAD DUP1 SWAP2 SUB SWAP1 RETURN JUMPDEST CALLVALUE DUP1 ISZERO PUSH2 0x38D JUMPI PUSH0 DUP1 REVERT JUMPDEST POP PUSH2 0x3A8 PUSH1 0x4 DUP1 CALLDATASIZE SUB DUP2 ADD SWAP1 PUSH2 0x3A3 SWAP2 SWAP1 PUSH2 0x4C5F JUMP JUMPDEST PUSH2 0xD30 JUMP JUMPDEST PUSH1 0x40 MLOAD PUSH2 0x3B5 SWAP2 SWAP1 PUSH2 0x4AE7 JUMP JUMPDEST PUSH1 0x40 MLOAD DUP1 SWAP2 SUB SWAP1 RETURN JUMPDEST CALLVALUE DUP1 ISZERO PUSH2 0x3C9 JUMPI PUSH0 DUP1 REVERT JUMPDEST POP PUSH2 0x3D2 PUSH2 0xD52 JUMP JUMPDEST PUSH1 0x40 MLOAD PUSH2 0x3DF SWAP2 SWAP1 PUSH2 0x4CAC JUMP JUMPDEST PUSH1 0x40 MLOAD DUP1 SWAP2 SUB SWAP1 RETURN JUMPDEST CALLVALUE DUP1 ISZERO PUSH2 0x3F3 JUMPI PUSH0 DUP1 REVERT JUMPDEST POP PUSH2 0x40E PUSH1 0x4 DUP1 CALLDATASIZE SUB DUP2 ADD SWAP1 PUSH2 0x409 SWAP2 SWAP1 PUSH2 0x4CC5 JUMP JUMPDEST PUSH2 0xD69 JUMP JUMPDEST PUSH1 0x40 MLOAD PUSH2 0x41B SWAP2 SWAP1 PUSH2 0x4AE7 JUMP JUMPDEST PUSH1 0x40 MLOAD DUP1 SWAP2 SUB SWAP1 RETURN JUMPDEST CALLVALUE DUP1 ISZERO PUSH2 0x42F JUMPI PUSH0 DUP1 REVERT JUMPDEST POP PUSH2 0x44A PUSH1 0x4 DUP1 CALLDATASIZE SUB DUP2 ADD SWAP1 PUSH2 0x445 SWAP2 SWAP1 PUSH2 0x4D48 JUMP JUMPDEST PUSH2 0xD97 JUMP JUMPDEST PUSH1 0x40 MLOAD PUSH2 0x457 SWAP2 SWAP1 PUSH2 0x4D82 JUMP JUMPDEST PUSH1 0x40 MLOAD DUP1 SWAP2 SUB SWAP1 RETURN JUMPDEST CALLVALUE DUP1 ISZERO PUSH2 0x46B JUMPI PUSH0 DUP1 REVERT JUMPDEST POP PUSH2 0x486 PUSH1 0x4 DUP1 CALLDATASIZE SUB DUP2 ADD SWAP1 PUSH2 0x481 SWAP2 SWAP1 PUSH2 0x4D9B JUMP JUMPDEST PUSH2 0xDC1 JUMP JUMPDEST STOP JUMPDEST CALLVALUE DUP1 ISZERO PUSH2 0x493 JUMPI PUSH0 DUP1 REVERT JUMPDEST POP PUSH2 0x49C PUSH2 0xDE3 JUMP JUMPDEST PUSH1 0x40 MLOAD PUSH2 0x4A9 SWAP2 SWAP1 PUSH2 0x4DF4 JUMP JUMPDEST PUSH1 0x40 MLOAD DUP1 SWAP2 SUB SWAP1 RETURN JUMPDEST CALLVALUE DUP1 ISZERO PUSH2 0x4BD JUMPI PUSH0 DUP1 REVERT JUMPDEST POP PUSH2 0x4C6 PUSH2 0xDEB JUMP JUMPDEST PUSH1 0x40 MLOAD PUSH2 0x4D3 SWAP2 SWAP1 PUSH2 0x4CAC JUMP JUMPDEST PUSH1 0x40 MLOAD DUP1 SWAP2 SUB SWAP1 RETURN JUMPDEST CALLVALUE DUP1 ISZERO PUSH2 0x4E7 JUMPI PUSH0 DUP1 REVERT JUMPDEST POP PUSH2 0x4F0 PUSH2 0xDFA JUMP JUMPDEST PUSH1 0x40 MLOAD PUSH2 0x4FD SWAP2 SWAP1 PUSH2 0x4D82 JUMP JUMPDEST PUSH1 0x40 MLOAD DUP1 SWAP2 SUB SWAP1 RETURN JUMPDEST CALLVALUE DUP1 ISZERO PUSH2 0x511 JUMPI PUSH0 DUP1 REVERT JUMPDEST POP PUSH2 0x52C PUSH1 0x4 DUP1 CALLDATASIZE SUB DUP2 ADD SWAP1 PUSH2 0x527 SWAP2 SWAP1 PUSH2 0x4D9B JUMP JUMPDEST PUSH2 0xE08 JUMP JUMPDEST STOP JUMPDEST CALLVALUE DUP1 ISZERO PUSH2 0x539 JUMPI PUSH0 DUP1 REVERT JUMPDEST POP PUSH2 0x554 PUSH1 0x4 DUP1 CALLDATASIZE SUB DUP2 ADD SWAP1 PUSH2 0x54F SWAP2 SWAP1 PUSH2 0x4C5F JUMP JUMPDEST PUSH2 0xE83 JUMP JUMPDEST PUSH1 0x40 MLOAD PUSH2 0x561 SWAP2 SWAP1 PUSH2 0x4CAC JUMP JUMPDEST PUSH1 0x40 MLOAD DUP1 SWAP2 SUB SWAP1 RETURN JUMPDEST CALLVALUE DUP1 ISZERO PUSH2 0x575 JUMPI PUSH0 DUP1 REVERT JUMPDEST POP PUSH2 0x57E PUSH2 0xF67 JUMP JUMPDEST STOP JUMPDEST CALLVALUE DUP1 ISZERO PUSH2 0x58B JUMPI PUSH0 DUP1 REVERT JUMPDEST POP PUSH2 0x5A6 PUSH1 0x4 DUP1 CALLDATASIZE SUB DUP2 ADD SWAP1 PUSH2 0x5A1 SWAP2 SWAP1 PUSH2 0x4C5F JUMP JUMPDEST PUSH2 0xF9C JUMP JUMPDEST STOP JUMPDEST CALLVALUE DUP1 ISZERO PUSH2 0x5B3 JUMPI PUSH0 DUP1 REVERT JUMPDEST POP PUSH2 0x5CE PUSH1 0x4 DUP1 CALLDATASIZE SUB DUP2 ADD SWAP1 PUSH2 0x5C9 SWAP2 SWAP1 PUSH2 0x4E0D JUMP JUMPDEST PUSH2 0x1037 JUMP JUMPDEST STOP JUMPDEST CALLVALUE DUP1 ISZERO PUSH2 0x5DB JUMPI PUSH0 DUP1 REVERT JUMPDEST POP PUSH2 0x5E4 PUSH2 0x104B JUMP JUMPDEST PUSH1 0x40 MLOAD PUSH2 0x5F1 SWAP2 SWAP1 PUSH2 0x4BE2 JUMP JUMPDEST PUSH1 0x40 MLOAD DUP1 SWAP2 SUB SWAP1 RETURN JUMPDEST PUSH2 0x614 PUSH1 0x4 DUP1 CALLDATASIZE SUB DUP2 ADD SWAP1 PUSH2 0x60F SWAP2 SWAP1 PUSH2 0x4F64 JUMP JUMPDEST PUSH2 0x1088 JUMP JUMPDEST STOP JUMPDEST CALLVALUE DUP1 ISZERO PUSH2 0x621 JUMPI PUSH0 DUP1 REVERT JUMPDEST POP PUSH2 0x62A PUSH2 0x10A7 JUMP JUMPDEST PUSH1 0x40 MLOAD PUSH2 0x637 SWAP2 SWAP1 PUSH2 0x4CAC JUMP JUMPDEST PUSH1 0x40 MLOAD DUP1 SWAP2 SUB SWAP1 RETURN JUMPDEST CALLVALUE DUP1 ISZERO PUSH2 0x64B JUMPI PUSH0 DUP1 REVERT JUMPDEST POP PUSH2 0x654 PUSH2 0x10AD JUMP JUMPDEST PUSH1 0x40 MLOAD PUSH2 0x661 SWAP2 SWAP1 PUSH2 0x4D82 JUMP JUMPDEST PUSH1 0x40 MLOAD DUP1 SWAP2 SUB SWAP1 RETURN JUMPDEST CALLVALUE DUP1 ISZERO PUSH2 0x675 JUMPI PUSH0 DUP1 REVERT JUMPDEST POP PUSH2 0x690 PUSH1 0x4 DUP1 CALLDATASIZE SUB DUP2 ADD SWAP1 PUSH2 0x68B SWAP2 SWAP1 PUSH2 0x4FBE JUMP JUMPDEST PUSH2 0x10DE JUMP JUMPDEST PUSH1 0x40 MLOAD PUSH2 0x69D SWAP2 SWAP1 PUSH2 0x4B3F JUMP JUMPDEST PUSH1 0x40 MLOAD DUP1 SWAP2 SUB SWAP1 RETURN JUMPDEST CALLVALUE DUP1 ISZERO PUSH2 0x6B1 JUMPI PUSH0 DUP1 REVERT JUMPDEST POP PUSH2 0x6CC PUSH1 0x4 DUP1 CALLDATASIZE SUB DUP2 ADD SWAP1 PUSH2 0x6C7 SWAP2 SWAP1 PUSH2 0x4FBE JUMP JUMPDEST PUSH2 0x1150 JUMP JUMPDEST STOP JUMPDEST CALLVALUE DUP1 ISZERO PUSH2 0x6D9 JUMPI PUSH0 DUP1 REVERT JUMPDEST POP PUSH2 0x6E2 PUSH2 0x1169 JUMP JUMPDEST PUSH1 0x40 MLOAD PUSH2 0x6EF SWAP2 SWAP1 PUSH2 0x4AE7 JUMP JUMPDEST PUSH1 0x40 MLOAD DUP1 SWAP2 SUB SWAP1 RETURN JUMPDEST CALLVALUE DUP1 ISZERO PUSH2 0x703 JUMPI PUSH0 DUP1 REVERT JUMPDEST POP PUSH2 0x71E PUSH1 0x4 DUP1 CALLDATASIZE SUB DUP2 ADD SWAP1 PUSH2 0x719 SWAP2 SWAP1 PUSH2 0x4FBE JUMP JUMPDEST PUSH2 0x118B JUMP JUMPDEST STOP JUMPDEST CALLVALUE DUP1 ISZERO PUSH2 0x72B JUMPI PUSH0 DUP1 REVERT JUMPDEST POP PUSH2 0x746 PUSH1 0x4 DUP1 CALLDATASIZE SUB DUP2 ADD SWAP1 PUSH2 0x741 SWAP2 SWAP1 PUSH2 0x4FBE JUMP JUMPDEST PUSH2 0x12B1 JUMP JUMPDEST PUSH1 0x40 MLOAD PUSH2 0x753 SWAP2 SWAP1 PUSH2 0x5007 JUMP JUMPDEST PUSH1 0x40 MLOAD DUP1 SWAP2 SUB SWAP1 RETURN JUMPDEST CALLVALUE DUP1 ISZERO PUSH2 0x767 JUMPI PUSH0 DUP1 REVERT JUMPDEST POP PUSH2 0x782 PUSH1 0x4 DUP1 CALLDATASIZE SUB DUP2 ADD SWAP1 PUSH2 0x77D SWAP2 SWAP1 PUSH2 0x4FBE JUMP JUMPDEST PUSH2 0x12C2 JUMP JUMPDEST PUSH1 0x40 MLOAD PUSH2 0x78F SWAP2 SWAP1 PUSH2 0x4CAC JUMP JUMPDEST PUSH1 0x40 MLOAD DUP1 SWAP2 SUB SWAP1 RETURN JUMPDEST CALLVALUE DUP1 ISZERO PUSH2 0x7A3 JUMPI PUSH0 DUP1 REVERT JUMPDEST POP PUSH2 0x7BE PUSH1 0x4 DUP1 CALLDATASIZE SUB DUP2 ADD SWAP1 PUSH2 0x7B9 SWAP2 SWAP1 PUSH2 0x4C5F JUMP JUMPDEST PUSH2 0x1315 JUMP JUMPDEST STOP JUMPDEST CALLVALUE DUP1 ISZERO PUSH2 0x7CB JUMPI PUSH0 DUP1 REVERT JUMPDEST POP PUSH2 0x7E6 PUSH1 0x4 DUP1 CALLDATASIZE SUB DUP2 ADD SWAP1 PUSH2 0x7E1 SWAP2 SWAP1 PUSH2 0x4FBE JUMP JUMPDEST PUSH2 0x1335 JUMP JUMPDEST PUSH1 0x40 MLOAD PUSH2 0x7F3 SWAP2 SWAP1 PUSH2 0x4CAC JUMP JUMPDEST PUSH1 0x40 MLOAD DUP1 SWAP2 SUB SWAP1 RETURN JUMPDEST CALLVALUE DUP1 ISZERO PUSH2 0x807 JUMPI PUSH0 DUP1 REVERT JUMPDEST POP PUSH2 0x810 PUSH2 0x1346 JUMP JUMPDEST STOP JUMPDEST CALLVALUE DUP1 ISZERO PUSH2 0x81D JUMPI PUSH0 DUP1 REVERT JUMPDEST POP PUSH2 0x826 PUSH2 0x137B JUMP JUMPDEST PUSH1 0x40 MLOAD PUSH2 0x839 SWAP8 SWAP7 SWAP6 SWAP5 SWAP4 SWAP3 SWAP2 SWAP1 PUSH2 0x5111 JUMP JUMPDEST PUSH1 0x40 MLOAD DUP1 SWAP2 SUB SWAP1 RETURN JUMPDEST CALLVALUE DUP1 ISZERO PUSH2 0x84D JUMPI PUSH0 DUP1 REVERT JUMPDEST POP PUSH2 0x868 PUSH1 0x4 DUP1 CALLDATASIZE SUB DUP2 ADD SWAP1 PUSH2 0x863 SWAP2 SWAP1 PUSH2 0x4E0D JUMP JUMPDEST PUSH2 0x1484 JUMP JUMPDEST PUSH1 0x40 MLOAD PUSH2 0x875 SWAP2 SWAP1 PUSH2 0x4CAC JUMP JUMPDEST PUSH1 0x40 MLOAD DUP1 SWAP2 SUB SWAP1 RETURN JUMPDEST CALLVALUE DUP1 ISZERO PUSH2 0x889 JUMPI PUSH0 DUP1 REVERT JUMPDEST POP PUSH2 0x8A4 PUSH1 0x4 DUP1 CALLDATASIZE SUB DUP2 ADD SWAP1 PUSH2 0x89F SWAP2 SWAP1 PUSH2 0x4D9B JUMP JUMPDEST PUSH2 0x152C JUMP JUMPDEST PUSH1 0x40 MLOAD PUSH2 0x8B1 SWAP2 SWAP1 PUSH2 0x4AE7 JUMP JUMPDEST PUSH1 0x40 MLOAD DUP1 SWAP2 SUB SWAP1 RETURN JUMPDEST CALLVALUE DUP1 ISZERO PUSH2 0x8C5 JUMPI PUSH0 DUP1 REVERT JUMPDEST POP PUSH2 0x8CE PUSH2 0x159D JUMP JUMPDEST PUSH1 0x40 MLOAD PUSH2 0x8DB SWAP2 SWAP1 PUSH2 0x51B3 JUMP JUMPDEST PUSH1 0x40 MLOAD DUP1 SWAP2 SUB SWAP1 RETURN JUMPDEST CALLVALUE DUP1 ISZERO PUSH2 0x8EF JUMPI PUSH0 DUP1 REVERT JUMPDEST POP PUSH2 0x8F8 PUSH2 0x15A4 JUMP JUMPDEST PUSH1 0x40 MLOAD PUSH2 0x905 SWAP2 SWAP1 PUSH2 0x4BE2 JUMP JUMPDEST PUSH1 0x40 MLOAD DUP1 SWAP2 SUB SWAP1 RETURN JUMPDEST CALLVALUE DUP1 ISZERO PUSH2 0x919 JUMPI PUSH0 DUP1 REVERT JUMPDEST POP PUSH2 0x934 PUSH1 0x4 DUP1 CALLDATASIZE SUB DUP2 ADD SWAP1 PUSH2 0x92F SWAP2 SWAP1 PUSH2 0x4FBE JUMP JUMPDEST PUSH2 0x1642 JUMP JUMPDEST PUSH1 0x40 MLOAD PUSH2 0x941 SWAP2 SWAP1 PUSH2 0x4CAC JUMP JUMPDEST PUSH1 0x40 MLOAD DUP1 SWAP2 SUB SWAP1 RETURN JUMPDEST CALLVALUE DUP1 ISZERO PUSH2 0x955 JUMPI PUSH0 DUP1 REVERT JUMPDEST POP PUSH2 0x95E PUSH2 0x16B9 JUMP JUMPDEST PUSH1 0x40 MLOAD PUSH2 0x96B SWAP2 SWAP1 PUSH2 0x4D82 JUMP JUMPDEST PUSH1 0x40 MLOAD DUP1 SWAP2 SUB SWAP1 RETURN JUMPDEST CALLVALUE DUP1 ISZERO PUSH2 0x97F JUMPI PUSH0 DUP1 REVERT JUMPDEST POP PUSH2 0x988 PUSH2 0x16BF JUMP JUMPDEST STOP JUMPDEST CALLVALUE DUP1 ISZERO PUSH2 0x995 JUMPI PUSH0 DUP1 REVERT JUMPDEST POP PUSH2 0x9B0 PUSH1 0x4 DUP1 CALLDATASIZE SUB DUP2 ADD SWAP1 PUSH2 0x9AB SWAP2 SWAP1 PUSH2 0x4C5F JUMP JUMPDEST PUSH2 0x1730 JUMP JUMPDEST PUSH1 0x40 MLOAD PUSH2 0x9BD SWAP2 SWAP1 PUSH2 0x4AE7 JUMP JUMPDEST PUSH1 0x40 MLOAD DUP1 SWAP2 SUB SWAP1 RETURN JUMPDEST CALLVALUE DUP1 ISZERO PUSH2 0x9D1 JUMPI PUSH0 DUP1 REVERT JUMPDEST POP PUSH2 0x9DA PUSH2 0x1752 JUMP JUMPDEST PUSH1 0x40 MLOAD PUSH2 0x9E7 SWAP2 SWAP1 PUSH2 0x4BE2 JUMP JUMPDEST PUSH1 0x40 MLOAD DUP1 SWAP2 SUB SWAP1 RETURN JUMPDEST CALLVALUE DUP1 ISZERO PUSH2 0x9FB JUMPI PUSH0 DUP1 REVERT JUMPDEST POP PUSH2 0xA16 PUSH1 0x4 DUP1 CALLDATASIZE SUB DUP2 ADD SWAP1 PUSH2 0xA11 SWAP2 SWAP1 PUSH2 0x4C5F JUMP JUMPDEST PUSH2 0x178B JUMP JUMPDEST STOP JUMPDEST CALLVALUE DUP1 ISZERO PUSH2 0xA23 JUMPI PUSH0 DUP1 REVERT JUMPDEST POP PUSH2 0xA3E PUSH1 0x4 DUP1 CALLDATASIZE SUB DUP2 ADD SWAP1 PUSH2 0xA39 SWAP2 SWAP1 PUSH2 0x51CC JUMP JUMPDEST PUSH2 0x1850 JUMP JUMPDEST STOP JUMPDEST CALLVALUE DUP1 ISZERO PUSH2 0xA4B JUMPI PUSH0 DUP1 REVERT JUMPDEST POP PUSH2 0xA66 PUSH1 0x4 DUP1 CALLDATASIZE SUB DUP2 ADD SWAP1 PUSH2 0xA61 SWAP2 SWAP1 PUSH2 0x5246 JUMP JUMPDEST PUSH2 0x1BB9 JUMP JUMPDEST STOP JUMPDEST CALLVALUE DUP1 ISZERO PUSH2 0xA73 JUMPI PUSH0 DUP1 REVERT JUMPDEST POP PUSH2 0xA7C PUSH2 0x1C7E JUMP JUMPDEST PUSH1 0x40 MLOAD PUSH2 0xA89 SWAP2 SWAP1 PUSH2 0x4B3F JUMP JUMPDEST PUSH1 0x40 MLOAD DUP1 SWAP2 SUB SWAP1 RETURN JUMPDEST CALLVALUE DUP1 ISZERO PUSH2 0xA9D JUMPI PUSH0 DUP1 REVERT JUMPDEST POP PUSH2 0xAB8 PUSH1 0x4 DUP1 CALLDATASIZE SUB DUP2 ADD SWAP1 PUSH2 0xAB3 SWAP2 SWAP1 PUSH2 0x52CF JUMP JUMPDEST PUSH2 0x1CA1 JUMP JUMPDEST STOP JUMPDEST CALLVALUE DUP1 ISZERO PUSH2 0xAC5 JUMPI PUSH0 DUP1 REVERT JUMPDEST POP PUSH2 0xACE PUSH2 0x1DE6 JUMP JUMPDEST PUSH1 0x40 MLOAD PUSH2 0xADB SWAP2 SWAP1 PUSH2 0x4D82 JUMP JUMPDEST PUSH1 0x40 MLOAD DUP1 SWAP2 SUB SWAP1 RETURN JUMPDEST CALLVALUE DUP1 ISZERO PUSH2 0xAEF JUMPI PUSH0 DUP1 REVERT JUMPDEST POP PUSH2 0xB0A PUSH1 0x4 DUP1 CALLDATASIZE SUB DUP2 ADD SWAP1 PUSH2 0xB05 SWAP2 SWAP1 PUSH2 0x4D9B JUMP JUMPDEST PUSH2 0x1E0A JUMP JUMPDEST STOP JUMPDEST CALLVALUE DUP1 ISZERO PUSH2 0xB17 JUMPI PUSH0 DUP1 REVERT JUMPDEST POP PUSH2 0xB32 PUSH1 0x4 DUP1 CALLDATASIZE SUB DUP2 ADD SWAP1 PUSH2 0xB2D SWAP2 SWAP1 PUSH2 0x536C JUMP JUMPDEST PUSH2 0x1E2C JUMP JUMPDEST PUSH1 0x40 MLOAD PUSH2 0xB3F SWAP2 SWAP1 PUSH2 0x4CAC JUMP JUMPDEST PUSH1 0x40 MLOAD DUP1 SWAP2 SUB SWAP1 RETURN JUMPDEST CALLVALUE DUP1 ISZERO PUSH2 0xB53 JUMPI PUSH0 DUP1 REVERT JUMPDEST POP PUSH2 0xB5C PUSH2 0x1EBC JUMP JUMPDEST PUSH1 0x40 MLOAD PUSH2 0xB69 SWAP2 SWAP1 PUSH2 0x4D82 JUMP JUMPDEST PUSH1 0x40 MLOAD DUP1 SWAP2 SUB SWAP1 RETURN JUMPDEST CALLVALUE DUP1 ISZERO PUSH2 0xB7D JUMPI PUSH0 DUP1 REVERT JUMPDEST POP PUSH2 0xB98 PUSH1 0x4 DUP1 CALLDATASIZE SUB DUP2 ADD SWAP1 PUSH2 0xB93 SWAP2 SWAP1 PUSH2 0x53D4 JUMP JUMPDEST PUSH2 0x1EE0 JUMP JUMPDEST PUSH1 0x40 MLOAD PUSH2 0xBA5 SWAP2 SWAP1 PUSH2 0x5482 JUMP JUMPDEST PUSH1 0x40 MLOAD DUP1 SWAP2 SUB SWAP1 RETURN JUMPDEST PUSH2 0xBC8 PUSH1 0x4 DUP1 CALLDATASIZE SUB DUP2 ADD SWAP1 PUSH2 0xBC3 SWAP2 SWAP1 PUSH2 0x4FBE JUMP JUMPDEST PUSH2 0x1EFA JUMP JUMPDEST STOP JUMPDEST CALLVALUE DUP1 ISZERO PUSH2 0xBD5 JUMPI PUSH0 DUP1 REVERT JUMPDEST POP PUSH2 0xBDE PUSH2 0x1F95 JUMP JUMPDEST PUSH1 0x40 MLOAD PUSH2 0xBEB SWAP2 SWAP1 PUSH2 0x4D82 JUMP JUMPDEST PUSH1 0x40 MLOAD DUP1 SWAP2 SUB SWAP1 RETURN JUMPDEST PUSH0 PUSH32 0x7965DB0B00000000000000000000000000000000000000000000000000000000 PUSH28 0xFFFFFFFFFFFFFFFFFFFFFFFFFFFFFFFFFFFFFFFFFFFFFFFFFFFFFFFF NOT AND DUP3 PUSH28 0xFFFFFFFFFFFFFFFFFFFFFFFFFFFFFFFFFFFFFFFFFFFFFFFFFFFFFFFF NOT AND EQ DUP1 PUSH2 0xC66 JUMPI POP PUSH2 0xC65 DUP3 PUSH2 0x1FB9 JUMP JUMPDEST JUMPDEST SWAP1 POP SWAP2 SWAP1 POP JUMP JUMPDEST PUSH1 0x1 PUSH0 SWAP1 SLOAD SWAP1 PUSH2 0x100 EXP SWAP1 DIV PUSH20 0xFFFFFFFFFFFFFFFFFFFFFFFFFFFFFFFFFFFFFFFF AND DUP2 JUMP JUMPDEST PUSH1 0x60 PUSH0 PUSH2 0xC9D PUSH2 0x2022 JUMP JUMPDEST SWAP1 POP DUP1 PUSH1 0x3 ADD DUP1 SLOAD PUSH2 0xCAE SWAP1 PUSH2 0x54C8 JUMP JUMPDEST DUP1 PUSH1 0x1F ADD PUSH1 0x20 DUP1 SWAP2 DIV MUL PUSH1 0x20 ADD PUSH1 0x40 MLOAD SWAP1 DUP2 ADD PUSH1 0x40 MSTORE DUP1 SWAP3 SWAP2 SWAP1 DUP2 DUP2 MSTORE PUSH1 0x20 ADD DUP3 DUP1 SLOAD PUSH2 0xCDA SWAP1 PUSH2 0x54C8 JUMP JUMPDEST DUP1 ISZERO PUSH2 0xD25 JUMPI DUP1 PUSH1 0x1F LT PUSH2 0xCFC JUMPI PUSH2 0x100 DUP1 DUP4 SLOAD DIV MUL DUP4 MSTORE SWAP2 PUSH1 0x20 ADD SWAP2 PUSH2 0xD25 JUMP JUMPDEST DUP3 ADD SWAP2 SWAP1 PUSH0 MSTORE PUSH1 0x20 PUSH0 KECCAK256 SWAP1 JUMPDEST DUP2 SLOAD DUP2 MSTORE SWAP1 PUSH1 0x1 ADD SWAP1 PUSH1 0x20 ADD DUP1 DUP4 GT PUSH2 0xD08 JUMPI DUP3 SWAP1 SUB PUSH1 0x1F AND DUP3 ADD SWAP2 JUMPDEST POP POP POP POP POP SWAP2 POP POP SWAP1 JUMP JUMPDEST PUSH0 DUP1 PUSH2 0xD3A PUSH2 0x2049 JUMP JUMPDEST SWAP1 POP PUSH2 0xD47 DUP2 DUP6 DUP6 PUSH2 0x2050 JUMP JUMPDEST PUSH1 0x1 SWAP2 POP POP SWAP3 SWAP2 POP POP JUMP JUMPDEST PUSH0 DUP1 PUSH2 0xD5C PUSH2 0x2022 JUMP JUMPDEST SWAP1 POP DUP1 PUSH1 0x2 ADD SLOAD SWAP2 POP POP SWAP1 JUMP JUMPDEST PUSH0 DUP1 PUSH2 0xD73 PUSH2 0x2049 JUMP JUMPDEST SWAP1 POP PUSH2 0xD80 DUP6 DUP3 DUP6 PUSH2 0x2062 JUMP JUMPDEST PUSH2 0xD8B DUP6 DUP6 DUP6 PUSH2 0x20F4 JUMP JUMPDEST PUSH1 0x1 SWAP2 POP POP SWAP4 SWAP3 POP POP POP JUMP JUMPDEST PUSH0 DUP1 PUSH2 0xDA1 PUSH2 0x21E4 JUMP JUMPDEST SWAP1 POP DUP1 PUSH0 ADD PUSH0 DUP5 DUP2 MSTORE PUSH1 0x20 ADD SWAP1 DUP2 MSTORE PUSH1 0x20 ADD PUSH0 KECCAK256 PUSH1 0x1 ADD SLOAD SWAP2 POP POP SWAP2 SWAP1 POP JUMP JUMPDEST PUSH2 0xDCA DUP3 PUSH2 0xD97 JUMP JUMPDEST PUSH2 0xDD3 DUP2 PUSH2 0x220B JUMP JUMPDEST PUSH2 0xDDD DUP4 DUP4 PUSH2 0x221F JUMP JUMPDEST POP POP POP POP JUMP JUMPDEST PUSH0 PUSH1 0x12 SWAP1 POP SWAP1 JUMP JUMPDEST PUSH11 0x295BE96E64066972000000 DUP2 JUMP JUMPDEST PUSH0 PUSH2 0xE03 PUSH2 0x2317 JUMP JUMPDEST SWAP1 POP SWAP1 JUMP JUMPDEST PUSH2 0xE10 PUSH2 0x2049 JUMP JUMPDEST PUSH20 0xFFFFFFFFFFFFFFFFFFFFFFFFFFFFFFFFFFFFFFFF AND DUP2 PUSH20 0xFFFFFFFFFFFFFFFFFFFFFFFFFFFFFFFFFFFFFFFF AND EQ PUSH2 0xE74 JUMPI PUSH1 0x40 MLOAD PUSH32 0x6697B23200000000000000000000000000000000000000000000000000000000 DUP2 MSTORE PUSH1 0x4 ADD PUSH1 0x40 MLOAD DUP1 SWAP2 SUB SWAP1 REVERT JUMPDEST PUSH2 0xE7E DUP3 DUP3 PUSH2 0x2325 JUMP JUMPDEST POP POP POP JUMP JUMPDEST PUSH0 DUP1 PUSH2 0xE8D PUSH2 0x241D JUMP JUMPDEST SWAP1 POP PUSH0 PUSH2 0xE98 PUSH2 0x159D JUMP JUMPDEST SWAP1 POP DUP1 PUSH6 0xFFFFFFFFFFFF AND DUP5 LT PUSH2 0xEE8 JUMPI DUP4 DUP2 PUSH1 0x40 MLOAD PUSH32 0xECD3F81E00000000000000000000000000000000000000000000000000000000 DUP2 MSTORE PUSH1 0x4 ADD PUSH2 0xEDF SWAP3 SWAP2 SWAP1 PUSH2 0x54F8 JUMP JUMPDEST PUSH1 0x40 MLOAD DUP1 SWAP2 SUB SWAP1 REVERT JUMPDEST PUSH2 0xF41 PUSH2 0xEF4 DUP6 PUSH2 0x2444 JUMP JUMPDEST DUP4 PUSH1 0x1 ADD PUSH0 DUP9 PUSH20 0xFFFFFFFFFFFFFFFFFFFFFFFFFFFFFFFFFFFFFFFF AND PUSH20 0xFFFFFFFFFFFFFFFFFFFFFFFFFFFFFFFFFFFFFFFF AND DUP2 MSTORE PUSH1 0x20 ADD SWAP1 DUP2 MSTORE PUSH1 0x20 ADD PUSH0 KECCAK256 PUSH2 0x249D SWAP1 SWAP2 SWAP1 PUSH4 0xFFFFFFFF AND JUMP JUMPDEST PUSH26 0xFFFFFFFFFFFFFFFFFFFFFFFFFFFFFFFFFFFFFFFFFFFFFFFFFFFF AND SWAP3 POP POP POP SWAP3 SWAP2 POP POP JUMP JUMPDEST PUSH32 0x65D7A28E3265B37A6474929F336521B332C1681B933F6CB9F3376673440D862A PUSH2 0xF91 DUP2 PUSH2 0x220B JUMP JUMPDEST PUSH2 0xF99 PUSH2 0x258A JUMP JUMPDEST POP JUMP JUMPDEST DUP1 PUSH11 0x295BE96E64066972000000 DUP2 PUSH2 0xFB2 PUSH2 0xD52 JUMP JUMPDEST PUSH2 0xFBC SWAP2 SWAP1 PUSH2 0x554C JUMP JUMPDEST GT ISZERO PUSH2 0xFFD JUMPI PUSH1 0x40 MLOAD PUSH32 0x8C379A000000000000000000000000000000000000000000000000000000000 DUP2 MSTORE PUSH1 0x4 ADD PUSH2 0xFF4 SWAP1 PUSH2 0x55C9 JUMP JUMPDEST PUSH1 0x40 MLOAD DUP1 SWAP2 SUB SWAP1 REVERT JUMPDEST PUSH32 0x9F2DF0FED2C77648DE5860A4CC508CD0818C85B8B8A1AB4CEEEF8D981C8956A6 PUSH2 0x1027 DUP2 PUSH2 0x220B JUMP JUMPDEST PUSH2 0x1031 DUP5 DUP5 PUSH2 0x25F8 JUMP JUMPDEST POP POP POP POP JUMP JUMPDEST PUSH2 0x1048 PUSH2 0x1042 PUSH2 0x2049 JUMP JUMPDEST DUP3 PUSH2 0x2677 JUMP JUMPDEST POP JUMP JUMPDEST PUSH1 0x60 PUSH1 0x40 MLOAD DUP1 PUSH1 0x40 ADD PUSH1 0x40 MSTORE DUP1 PUSH1 0xE DUP2 MSTORE PUSH1 0x20 ADD PUSH32 0x6D6F64653D74696D657374616D70000000000000000000000000000000000000 DUP2 MSTORE POP SWAP1 POP SWAP1 JUMP JUMPDEST PUSH2 0x1090 PUSH2 0x26F6 JUMP JUMPDEST PUSH2 0x1099 DUP3 PUSH2 0x27DC JUMP JUMPDEST PUSH2 0x10A3 DUP3 DUP3 PUSH2 0x280A JUMP JUMPDEST POP POP JUMP JUMPDEST PUSH1 0x2 SLOAD DUP2 JUMP JUMPDEST PUSH0 PUSH2 0x10B6 PUSH2 0x2928 JUMP JUMPDEST PUSH32 0x360894A13BA1A3210667C828492DB98DCA3E2076CC3735A920A3CA505D382BBC PUSH0 SHL SWAP1 POP SWAP1 JUMP JUMPDEST PUSH0 DUP1 PUSH2 0x10E8 PUSH2 0x241D JUMP JUMPDEST SWAP1 POP DUP1 PUSH0 ADD PUSH0 DUP5 PUSH20 0xFFFFFFFFFFFFFFFFFFFFFFFFFFFFFFFFFFFFFFFF AND PUSH20 0xFFFFFFFFFFFFFFFFFFFFFFFFFFFFFFFFFFFFFFFF AND DUP2 MSTORE PUSH1 0x20 ADD SWAP1 DUP2 MSTORE PUSH1 0x20 ADD PUSH0 KECCAK256 PUSH0 SWAP1 SLOAD SWAP1 PUSH2 0x100 EXP SWAP1 DIV PUSH20 0xFFFFFFFFFFFFFFFFFFFFFFFFFFFFFFFFFFFFFFFF AND SWAP2 POP POP SWAP2 SWAP1 POP JUMP JUMPDEST PUSH0 PUSH2 0x1159 PUSH2 0x2049 JUMP JUMPDEST SWAP1 POP PUSH2 0x1165 DUP2 DUP4 PUSH2 0x29AF JUMP JUMPDEST POP POP JUMP JUMPDEST PUSH0 DUP1 PUSH2 0x1173 PUSH2 0x2ACC JUMP JUMPDEST SWAP1 POP DUP1 PUSH0 ADD PUSH0 SWAP1 SLOAD SWAP1 PUSH2 0x100 EXP SWAP1 DIV PUSH1 0xFF AND SWAP2 POP POP SWAP1 JUMP JUMPDEST PUSH32 0x189AB7A9244DF0848122154315AF71FE140F3DB0FE014031783B0946B8C9D2E3 PUSH2 0x11B5 DUP2 PUSH2 0x220B JUMP JUMPDEST PUSH0 DUP3 SWAP1 POP DUP1 PUSH20 0xFFFFFFFFFFFFFFFFFFFFFFFFFFFFFFFFFFFFFFFF AND PUSH4 0xA9059CBB CALLER DUP4 PUSH20 0xFFFFFFFFFFFFFFFFFFFFFFFFFFFFFFFFFFFFFFFF AND PUSH4 0x70A08231 ADDRESS PUSH1 0x40 MLOAD DUP3 PUSH4 0xFFFFFFFF AND PUSH1 0xE0 SHL DUP2 MSTORE PUSH1 0x4 ADD PUSH2 0x120F SWAP2 SWAP1 PUSH2 0x4B3F JUMP JUMPDEST PUSH1 0x20 PUSH1 0x40 MLOAD DUP1 DUP4 SUB DUP2 DUP7 GAS STATICCALL ISZERO DUP1 ISZERO PUSH2 0x122A JUMPI RETURNDATASIZE PUSH0 DUP1 RETURNDATACOPY RETURNDATASIZE PUSH0 REVERT JUMPDEST POP POP POP POP PUSH1 0x40 MLOAD RETURNDATASIZE PUSH1 0x1F NOT PUSH1 0x1F DUP3 ADD AND DUP3 ADD DUP1 PUSH1 0x40 MSTORE POP DUP2 ADD SWAP1 PUSH2 0x124E SWAP2 SWAP1 PUSH2 0x55FB JUMP JUMPDEST PUSH1 0x40 MLOAD DUP4 PUSH4 0xFFFFFFFF AND PUSH1 0xE0 SHL DUP2 MSTORE PUSH1 0x4 ADD PUSH2 0x126B SWAP3 SWAP2 SWAP1 PUSH2 0x5626 JUMP JUMPDEST PUSH1 0x20 PUSH1 0x40 MLOAD DUP1 DUP4 SUB DUP2 PUSH0 DUP8 GAS CALL ISZERO DUP1 ISZERO PUSH2 0x1287 JUMPI RETURNDATASIZE PUSH0 DUP1 RETURNDATACOPY RETURNDATASIZE PUSH0 REVERT JUMPDEST POP POP POP POP PUSH1 0x40 MLOAD RETURNDATASIZE PUSH1 0x1F NOT PUSH1 0x1F DUP3 ADD AND DUP3 ADD DUP1 PUSH1 0x40 MSTORE POP DUP2 ADD SWAP1 PUSH2 0x12AB SWAP2 SWAP1 PUSH2 0x5677 JUMP JUMPDEST POP POP POP POP JUMP JUMPDEST PUSH0 PUSH2 0x12BB DUP3 PUSH2 0x2AF3 JUMP JUMPDEST SWAP1 POP SWAP2 SWAP1 POP JUMP JUMPDEST PUSH0 DUP1 PUSH2 0x12CC PUSH2 0x2022 JUMP JUMPDEST SWAP1 POP DUP1 PUSH0 ADD PUSH0 DUP5 PUSH20 0xFFFFFFFFFFFFFFFFFFFFFFFFFFFFFFFFFFFFFFFF AND PUSH20 0xFFFFFFFFFFFFFFFFFFFFFFFFFFFFFFFFFFFFFFFF AND DUP2 MSTORE PUSH1 0x20 ADD SWAP1 DUP2 MSTORE PUSH1 0x20 ADD PUSH0 KECCAK256 SLOAD SWAP2 POP POP SWAP2 SWAP1 POP JUMP JUMPDEST PUSH2 0x1327 DUP3 PUSH2 0x1321 PUSH2 0x2049 JUMP JUMPDEST DUP4 PUSH2 0x2062 JUMP JUMPDEST PUSH2 0x1331 DUP3 DUP3 PUSH2 0x2677 JUMP JUMPDEST POP POP JUMP JUMPDEST PUSH0 PUSH2 0x133F DUP3 PUSH2 0x2B56 JUMP JUMPDEST SWAP1 POP SWAP2 SWAP1 POP JUMP JUMPDEST PUSH32 0x65D7A28E3265B37A6474929F336521B332C1681B933F6CB9F3376673440D862A PUSH2 0x1370 DUP2 PUSH2 0x220B JUMP JUMPDEST PUSH2 0x1378 PUSH2 0x2B67 JUMP JUMPDEST POP JUMP JUMPDEST PUSH0 PUSH1 0x60 DUP1 PUSH0 DUP1 PUSH0 PUSH1 0x60 PUSH0 PUSH2 0x138D PUSH2 0x2BD6 JUMP JUMPDEST SWAP1 POP PUSH0 DUP1 SHL DUP2 PUSH0 ADD SLOAD EQ DUP1 ISZERO PUSH2 0x13A8 JUMPI POP PUSH0 DUP1 SHL DUP2 PUSH1 0x1 ADD SLOAD EQ JUMPDEST PUSH2 0x13E7 JUMPI PUSH1 0x40 MLOAD PUSH32 0x8C379A000000000000000000000000000000000000000000000000000000000 DUP2 MSTORE PUSH1 0x4 ADD PUSH2 0x13DE SWAP1 PUSH2 0x56EC JUMP JUMPDEST PUSH1 0x40 MLOAD DUP1 SWAP2 SUB SWAP1 REVERT JUMPDEST PUSH2 0x13EF PUSH2 0x2BFD JUMP JUMPDEST PUSH2 0x13F7 PUSH2 0x2C9B JUMP JUMPDEST CHAINID ADDRESS PUSH0 DUP1 SHL PUSH0 PUSH8 0xFFFFFFFFFFFFFFFF DUP2 GT ISZERO PUSH2 0x1416 JUMPI PUSH2 0x1415 PUSH2 0x4E40 JUMP JUMPDEST JUMPDEST PUSH1 0x40 MLOAD SWAP1 DUP1 DUP3 MSTORE DUP1 PUSH1 0x20 MUL PUSH1 0x20 ADD DUP3 ADD PUSH1 0x40 MSTORE DUP1 ISZERO PUSH2 0x1444 JUMPI DUP2 PUSH1 0x20 ADD PUSH1 0x20 DUP3 MUL DUP1 CALLDATASIZE DUP4 CALLDATACOPY DUP1 DUP3 ADD SWAP2 POP POP SWAP1 POP JUMPDEST POP PUSH32 0xF00000000000000000000000000000000000000000000000000000000000000 SWAP6 SWAP5 SWAP4 SWAP3 SWAP2 SWAP1 SWAP8 POP SWAP8 POP SWAP8 POP SWAP8 POP SWAP8 POP SWAP8 POP SWAP8 POP POP SWAP1 SWAP2 SWAP3 SWAP4 SWAP5 SWAP6 SWAP7 JUMP JUMPDEST PUSH0 DUP1 PUSH2 0x148E PUSH2 0x241D JUMP JUMPDEST SWAP1 POP PUSH0 PUSH2 0x1499 PUSH2 0x159D JUMP JUMPDEST SWAP1 POP DUP1 PUSH6 0xFFFFFFFFFFFF AND DUP5 LT PUSH2 0x14E9 JUMPI DUP4 DUP2 PUSH1 0x40 MLOAD PUSH32 0xECD3F81E00000000000000000000000000000000000000000000000000000000 DUP2 MSTORE PUSH1 0x4 ADD PUSH2 0x14E0 SWAP3 SWAP2 SWAP1 PUSH2 0x54F8 JUMP JUMPDEST PUSH1 0x40 MLOAD DUP1 SWAP2 SUB SWAP1 REVERT JUMPDEST PUSH2 0x1507 PUSH2 0x14F5 DUP6 PUSH2 0x2444 JUMP JUMPDEST DUP4 PUSH1 0x2 ADD PUSH2 0x249D SWAP1 SWAP2 SWAP1 PUSH4 0xFFFFFFFF AND JUMP JUMPDEST PUSH26 0xFFFFFFFFFFFFFFFFFFFFFFFFFFFFFFFFFFFFFFFFFFFFFFFFFFFF AND SWAP3 POP POP POP SWAP2 SWAP1 POP JUMP JUMPDEST PUSH0 DUP1 PUSH2 0x1536 PUSH2 0x21E4 JUMP JUMPDEST SWAP1 POP DUP1 PUSH0 ADD PUSH0 DUP6 DUP2 MSTORE PUSH1 0x20 ADD SWAP1 DUP2 MSTORE PUSH1 0x20 ADD PUSH0 KECCAK256 PUSH0 ADD PUSH0 DUP5 PUSH20 0xFFFFFFFFFFFFFFFFFFFFFFFFFFFFFFFFFFFFFFFF AND PUSH20 0xFFFFFFFFFFFFFFFFFFFFFFFFFFFFFFFFFFFFFFFF AND DUP2 MSTORE PUSH1 0x20 ADD SWAP1 DUP2 MSTORE PUSH1 0x20 ADD PUSH0 KECCAK256 PUSH0 SWAP1 SLOAD SWAP1 PUSH2 0x100 EXP SWAP1 DIV PUSH1 0xFF AND SWAP2 POP POP SWAP3 SWAP2 POP POP JUMP JUMPDEST PUSH0 TIMESTAMP SWAP1 POP SWAP1 JUMP JUMPDEST PUSH1 0x60 PUSH0 PUSH2 0x15AF PUSH2 0x2022 JUMP JUMPDEST SWAP1 POP DUP1 PUSH1 0x4 ADD DUP1 SLOAD PUSH2 0x15C0 SWAP1 PUSH2 0x54C8 JUMP JUMPDEST DUP1 PUSH1 0x1F ADD PUSH1 0x20 DUP1 SWAP2 DIV MUL PUSH1 0x20 ADD PUSH1 0x40 MLOAD SWAP1 DUP2 ADD PUSH1 0x40 MSTORE DUP1 SWAP3 SWAP2 SWAP1 DUP2 DUP2 MSTORE PUSH1 0x20 ADD DUP3 DUP1 SLOAD PUSH2 0x15EC SWAP1 PUSH2 0x54C8 JUMP JUMPDEST DUP1 ISZERO PUSH2 0x1637 JUMPI DUP1 PUSH1 0x1F LT PUSH2 0x160E JUMPI PUSH2 0x100 DUP1 DUP4 SLOAD DIV MUL DUP4 MSTORE SWAP2 PUSH1 0x20 ADD SWAP2 PUSH2 0x1637 JUMP JUMPDEST DUP3 ADD SWAP2 SWAP1 PUSH0 MSTORE PUSH1 0x20 PUSH0 KECCAK256 SWAP1 JUMPDEST DUP2 SLOAD DUP2 MSTORE SWAP1 PUSH1 0x1 ADD SWAP1 PUSH1 0x20 ADD DUP1 DUP4 GT PUSH2 0x161A JUMPI DUP3 SWAP1 SUB PUSH1 0x1F AND DUP3 ADD SWAP2 JUMPDEST POP POP POP POP POP SWAP2 POP POP SWAP1 JUMP JUMPDEST PUSH0 DUP1 PUSH2 0x164C PUSH2 0x241D JUMP JUMPDEST SWAP1 POP PUSH2 0x1695 DUP2 PUSH1 0x1 ADD PUSH0 DUP6 PUSH20 0xFFFFFFFFFFFFFFFFFFFFFFFFFFFFFFFFFFFFFFFF AND PUSH20 0xFFFFFFFFFFFFFFFFFFFFFFFFFFFFFFFFFFFFFFFF AND DUP2 MSTORE PUSH1 0x20 ADD SWAP1 DUP2 MSTORE PUSH1 0x20 ADD PUSH0 KECCAK256 PUSH2 0x2D39 JUMP JUMPDEST PUSH26 0xFFFFFFFFFFFFFFFFFFFFFFFFFFFFFFFFFFFFFFFFFFFFFFFFFFFF AND SWAP2 POP POP SWAP2 SWAP1 POP JUMP JUMPDEST PUSH0 DUP1 SHL DUP2 JUMP JUMPDEST PUSH32 0x189AB7A9244DF0848122154315AF71FE140F3DB0FE014031783B0946B8C9D2E3 PUSH2 0x16E9 DUP2 PUSH2 0x220B JUMP JUMPDEST CALLER PUSH20 0xFFFFFFFFFFFFFFFFFFFFFFFFFFFFFFFFFFFFFFFF AND PUSH2 0x8FC SELFBALANCE SWAP1 DUP2 ISZERO MUL SWAP1 PUSH1 0x40 MLOAD PUSH0 PUSH1 0x40 MLOAD DUP1 DUP4 SUB DUP2 DUP6 DUP9 DUP9 CALL SWAP4 POP POP POP POP ISZERO DUP1 ISZERO PUSH2 0x172C JUMPI RETURNDATASIZE PUSH0 DUP1 RETURNDATACOPY RETURNDATASIZE PUSH0 REVERT JUMPDEST POP POP JUMP JUMPDEST PUSH0 DUP1 PUSH2 0x173A PUSH2 0x2049 JUMP JUMPDEST SWAP1 POP PUSH2 0x1747 DUP2 DUP6 DUP6 PUSH2 0x20F4 JUMP JUMPDEST PUSH1 0x1 SWAP2 POP POP SWAP3 SWAP2 POP POP JUMP JUMPDEST PUSH1 0x40 MLOAD DUP1 PUSH1 0x40 ADD PUSH1 0x40 MSTORE DUP1 PUSH1 0x5 DUP2 MSTORE PUSH1 0x20 ADD PUSH32 0x352E302E30000000000000000000000000000000000000000000000000000000 DUP2 MSTORE POP DUP2 JUMP JUMPDEST PUSH0 DUP1 PUSH0 SWAP1 SLOAD SWAP1 PUSH2 0x100 EXP SWAP1 DIV PUSH20 0xFFFFFFFFFFFFFFFFFFFFFFFFFFFFFFFFFFFFFFFF AND PUSH20 0xFFFFFFFFFFFFFFFFFFFFFFFFFFFFFFFFFFFFFFFF AND PUSH4 0xE557498B DUP5 DUP5 PUSH1 0x40 MLOAD DUP4 PUSH4 0xFFFFFFFF AND PUSH1 0xE0 SHL DUP2 MSTORE PUSH1 0x4 ADD PUSH2 0x17E7 SWAP3 SWAP2 SWAP1 PUSH2 0x5626 JUMP JUMPDEST PUSH1 0x40 DUP1 MLOAD DUP1 DUP4 SUB DUP2 PUSH0 DUP8 GAS CALL ISZERO DUP1 ISZERO PUSH2 0x1802 JUMPI RETURNDATASIZE PUSH0 DUP1 RETURNDATACOPY RETURNDATASIZE PUSH0 REVERT JUMPDEST POP POP POP POP PUSH1 0x40 MLOAD RETURNDATASIZE PUSH1 0x1F NOT PUSH1 0x1F DUP3 ADD AND DUP3 ADD DUP1 PUSH1 0x40 MSTORE POP DUP2 ADD SWAP1 PUSH2 0x1826 SWAP2 SWAP1 PUSH2 0x570A JUMP JUMPDEST POP SWAP1 POP DUP1 PUSH1 0x2 PUSH0 DUP3 DUP3 SLOAD PUSH2 0x183A SWAP2 SWAP1 PUSH2 0x5748 JUMP JUMPDEST SWAP3 POP POP DUP2 SWAP1 SSTORE POP PUSH2 0x184B DUP4 DUP4 PUSH2 0x2677 JUMP JUMPDEST POP POP POP JUMP JUMPDEST PUSH0 PUSH2 0x1859 PUSH2 0x2D9B JUMP JUMPDEST SWAP1 POP PUSH0 DUP2 PUSH0 ADD PUSH1 0x8 SWAP1 SLOAD SWAP1 PUSH2 0x100 EXP SWAP1 DIV PUSH1 0xFF AND ISZERO SWAP1 POP PUSH0 DUP3 PUSH0 ADD PUSH0 SWAP1 SLOAD SWAP1 PUSH2 0x100 EXP SWAP1 DIV PUSH8 0xFFFFFFFFFFFFFFFF AND SWAP1 POP PUSH0 DUP1 DUP3 PUSH8 0xFFFFFFFFFFFFFFFF AND EQ DUP1 ISZERO PUSH2 0x18A1 JUMPI POP DUP3 JUMPDEST SWAP1 POP PUSH0 PUSH1 0x1 DUP4 PUSH8 0xFFFFFFFFFFFFFFFF AND EQ DUP1 ISZERO PUSH2 0x18D4 JUMPI POP PUSH0 ADDRESS PUSH20 0xFFFFFFFFFFFFFFFFFFFFFFFFFFFFFFFFFFFFFFFF AND EXTCODESIZE EQ JUMPDEST SWAP1 POP DUP2 ISZERO DUP1 ISZERO PUSH2 0x18E2 JUMPI POP DUP1 ISZERO JUMPDEST ISZERO PUSH2 0x1919 JUMPI PUSH1 0x40 MLOAD PUSH32 0xF92EE8A900000000000000000000000000000000000000000000000000000000 DUP2 MSTORE PUSH1 0x4 ADD PUSH1 0x40 MLOAD DUP1 SWAP2 SUB SWAP1 REVERT JUMPDEST PUSH1 0x1 DUP6 PUSH0 ADD PUSH0 PUSH2 0x100 EXP DUP2 SLOAD DUP2 PUSH8 0xFFFFFFFFFFFFFFFF MUL NOT AND SWAP1 DUP4 PUSH8 0xFFFFFFFFFFFFFFFF AND MUL OR SWAP1 SSTORE POP DUP4 ISZERO PUSH2 0x1966 JUMPI PUSH1 0x1 DUP6 PUSH0 ADD PUSH1 0x8 PUSH2 0x100 EXP DUP2 SLOAD DUP2 PUSH1 0xFF MUL NOT AND SWAP1 DUP4 ISZERO ISZERO MUL OR SWAP1 SSTORE POP JUMPDEST PUSH2 0x19DA PUSH1 0x40 MLOAD DUP1 PUSH1 0x40 ADD PUSH1 0x40 MSTORE DUP1 PUSH1 0x5 DUP2 MSTORE PUSH1 0x20 ADD PUSH32 0x546F6B656E000000000000000000000000000000000000000000000000000000 DUP2 MSTORE POP PUSH1 0x40 MLOAD DUP1 PUSH1 0x40 ADD PUSH1 0x40 MSTORE DUP1 PUSH1 0x5 DUP2 MSTORE PUSH1 0x20 ADD PUSH32 0x746F6B656E000000000000000000000000000000000000000000000000000000 DUP2 MSTORE POP PUSH2 0x2DC2 JUMP JUMPDEST PUSH2 0x19E2 PUSH2 0x2DD8 JUMP JUMPDEST PUSH2 0x19EA PUSH2 0x2DE2 JUMP JUMPDEST PUSH2 0x19F2 PUSH2 0x2DF4 JUMP JUMPDEST PUSH2 0x1A30 PUSH1 0x40 MLOAD DUP1 PUSH1 0x40 ADD PUSH1 0x40 MSTORE DUP1 PUSH1 0x5 DUP2 MSTORE PUSH1 0x20 ADD PUSH32 0x546F6B656E000000000000000000000000000000000000000000000000000000 DUP2 MSTORE POP PUSH2 0x2DFE JUMP JUMPDEST PUSH2 0x1A38 PUSH2 0x2E48 JUMP JUMPDEST PUSH2 0x1A40 PUSH2 0x2E52 JUMP JUMPDEST PUSH2 0x1A48 PUSH2 0x2E5C JUMP JUMPDEST PUSH2 0x1A54 PUSH0 DUP1 SHL DUP10 PUSH2 0x221F JUMP JUMPDEST POP PUSH2 0x1A7F PUSH32 0x65D7A28E3265B37A6474929F336521B332C1681B933F6CB9F3376673440D862A DUP10 PUSH2 0x221F JUMP JUMPDEST POP PUSH2 0x1AAA PUSH32 0x9F2DF0FED2C77648DE5860A4CC508CD0818C85B8B8A1AB4CEEEF8D981C8956A6 DUP10 PUSH2 0x221F JUMP JUMPDEST POP PUSH2 0x1AD5 PUSH32 0x189AB7A9244DF0848122154315AF71FE140F3DB0FE014031783B0946B8C9D2E3 DUP10 PUSH2 0x221F JUMP JUMPDEST POP DUP7 PUSH0 DUP1 PUSH2 0x100 EXP DUP2 SLOAD DUP2 PUSH20 0xFFFFFFFFFFFFFFFFFFFFFFFFFFFFFFFFFFFFFFFF MUL NOT AND SWAP1 DUP4 PUSH20 0xFFFFFFFFFFFFFFFFFFFFFFFFFFFFFFFFFFFFFFFF AND MUL OR SWAP1 SSTORE POP DUP6 PUSH1 0x1 PUSH0 PUSH2 0x100 EXP DUP2 SLOAD DUP2 PUSH20 0xFFFFFFFFFFFFFFFFFFFFFFFFFFFFFFFFFFFFFFFF MUL NOT AND SWAP1 DUP4 PUSH20 0xFFFFFFFFFFFFFFFFFFFFFFFFFFFFFFFFFFFFFFFF AND MUL OR SWAP1 SSTORE POP DUP4 ISZERO PUSH2 0x1BAF JUMPI PUSH0 DUP6 PUSH0 ADD PUSH1 0x8 PUSH2 0x100 EXP DUP2 SLOAD DUP2 PUSH1 0xFF MUL NOT AND SWAP1 DUP4 ISZERO ISZERO MUL OR SWAP1 SSTORE POP PUSH32 0xC7F505B2F371AE2175EE4913F4499E1F2633A7B5936321EED1CDAEB6115181D2 PUSH1 0x1 PUSH1 0x40 MLOAD PUSH2 0x1BA6 SWAP2 SWAP1 PUSH2 0x57D0 JUMP JUMPDEST PUSH1 0x40 MLOAD DUP1 SWAP2 SUB SWAP1 LOG1 JUMPDEST POP POP POP POP POP POP POP POP JUMP JUMPDEST DUP4 TIMESTAMP GT ISZERO PUSH2 0x1BFE JUMPI DUP4 PUSH1 0x40 MLOAD PUSH32 0x4683AF0E00000000000000000000000000000000000000000000000000000000 DUP2 MSTORE PUSH1 0x4 ADD PUSH2 0x1BF5 SWAP2 SWAP1 PUSH2 0x4CAC JUMP JUMPDEST PUSH1 0x40 MLOAD DUP1 SWAP2 SUB SWAP1 REVERT JUMPDEST PUSH0 PUSH2 0x1C5F PUSH2 0x1C57 PUSH32 0xE48329057BFD03D55E49B547132E39CFFD9C1820AD7B9D4C5307691425D15ADF DUP10 DUP10 DUP10 PUSH1 0x40 MLOAD PUSH1 0x20 ADD PUSH2 0x1C3C SWAP5 SWAP4 SWAP3 SWAP2 SWAP1 PUSH2 0x57E9 JUMP JUMPDEST PUSH1 0x40 MLOAD PUSH1 0x20 DUP2 DUP4 SUB SUB DUP2 MSTORE SWAP1 PUSH1 0x40 MSTORE DUP1 MLOAD SWAP1 PUSH1 0x20 ADD KECCAK256 PUSH2 0x2E6E JUMP JUMPDEST DUP6 DUP6 DUP6 PUSH2 0x2E87 JUMP JUMPDEST SWAP1 POP PUSH2 0x1C6B DUP2 DUP8 PUSH2 0x2EB5 JUMP JUMPDEST PUSH2 0x1C75 DUP2 DUP9 PUSH2 0x29AF JUMP JUMPDEST POP POP POP POP POP POP POP JUMP JUMPDEST PUSH0 DUP1 SLOAD SWAP1 PUSH2 0x100 EXP SWAP1 DIV PUSH20 0xFFFFFFFFFFFFFFFFFFFFFFFFFFFFFFFFFFFFFFFF AND DUP2 JUMP JUMPDEST DUP4 TIMESTAMP GT ISZERO PUSH2 0x1CE6 JUMPI DUP4 PUSH1 0x40 MLOAD PUSH32 0x6279130200000000000000000000000000000000000000000000000000000000 DUP2 MSTORE PUSH1 0x4 ADD PUSH2 0x1CDD SWAP2 SWAP1 PUSH2 0x4CAC JUMP JUMPDEST PUSH1 0x40 MLOAD DUP1 SWAP2 SUB SWAP1 REVERT JUMPDEST PUSH0 PUSH32 0x6E71EDAE12B1B97F4D1F60370FEF10105FA2FAAE0126114A169C64845D6126C9 DUP9 DUP9 DUP9 PUSH2 0x1D14 DUP13 PUSH2 0x2F0C JUMP JUMPDEST DUP10 PUSH1 0x40 MLOAD PUSH1 0x20 ADD PUSH2 0x1D2A SWAP7 SWAP6 SWAP5 SWAP4 SWAP3 SWAP2 SWAP1 PUSH2 0x582C JUMP JUMPDEST PUSH1 0x40 MLOAD PUSH1 0x20 DUP2 DUP4 SUB SUB DUP2 MSTORE SWAP1 PUSH1 0x40 MSTORE DUP1 MLOAD SWAP1 PUSH1 0x20 ADD KECCAK256 SWAP1 POP PUSH0 PUSH2 0x1D4C DUP3 PUSH2 0x2E6E JUMP JUMPDEST SWAP1 POP PUSH0 PUSH2 0x1D5B DUP3 DUP8 DUP8 DUP8 PUSH2 0x2E87 JUMP JUMPDEST SWAP1 POP DUP10 PUSH20 0xFFFFFFFFFFFFFFFFFFFFFFFFFFFFFFFFFFFFFFFF AND DUP2 PUSH20 0xFFFFFFFFFFFFFFFFFFFFFFFFFFFFFFFFFFFFFFFF AND EQ PUSH2 0x1DCF JUMPI DUP1 DUP11 PUSH1 0x40 MLOAD PUSH32 0x4B800E4600000000000000000000000000000000000000000000000000000000 DUP2 MSTORE PUSH1 0x4 ADD PUSH2 0x1DC6 SWAP3 SWAP2 SWAP1 PUSH2 0x588B JUMP JUMPDEST PUSH1 0x40 MLOAD DUP1 SWAP2 SUB SWAP1 REVERT JUMPDEST PUSH2 0x1DDA DUP11 DUP11 DUP11 PUSH2 0x2050 JUMP JUMPDEST POP POP POP POP POP POP POP POP POP POP JUMP JUMPDEST PUSH32 0x9F2DF0FED2C77648DE5860A4CC508CD0818C85B8B8A1AB4CEEEF8D981C8956A6 DUP2 JUMP JUMPDEST PUSH2 0x1E13 DUP3 PUSH2 0xD97 JUMP JUMPDEST PUSH2 0x1E1C DUP2 PUSH2 0x220B JUMP JUMPDEST PUSH2 0x1E26 DUP4 DUP4 PUSH2 0x2325 JUMP JUMPDEST POP POP POP POP JUMP JUMPDEST PUSH0 DUP1 PUSH2 0x1E36 PUSH2 0x2022 JUMP JUMPDEST SWAP1 POP DUP1 PUSH1 0x1 ADD PUSH0 DUP6 PUSH20 0xFFFFFFFFFFFFFFFFFFFFFFFFFFFFFFFFFFFFFFFF AND PUSH20 0xFFFFFFFFFFFFFFFFFFFFFFFFFFFFFFFFFFFFFFFF AND DUP2 MSTORE PUSH1 0x20 ADD SWAP1 DUP2 MSTORE PUSH1 0x20 ADD PUSH0 KECCAK256 PUSH0 DUP5 PUSH20 0xFFFFFFFFFFFFFFFFFFFFFFFFFFFFFFFFFFFFFFFF AND PUSH20 0xFFFFFFFFFFFFFFFFFFFFFFFFFFFFFFFFFFFFFFFF AND DUP2 MSTORE PUSH1 0x20 ADD SWAP1 DUP2 MSTORE PUSH1 0x20 ADD PUSH0 KECCAK256 SLOAD SWAP2 POP POP SWAP3 SWAP2 POP POP JUMP JUMPDEST PUSH32 0x65D7A28E3265B37A6474929F336521B332C1681B933F6CB9F3376673440D862A DUP2 JUMP JUMPDEST PUSH2 0x1EE8 PUSH2 0x4A00 JUMP JUMPDEST PUSH2 0x1EF2 DUP4 DUP4 PUSH2 0x2F6C JUMP JUMPDEST SWAP1 POP SWAP3 SWAP2 POP POP JUMP JUMPDEST PUSH0 PUSH1 0x1 PUSH0 SWAP1 SLOAD SWAP1 PUSH2 0x100 EXP SWAP1 DIV PUSH20 0xFFFFFFFFFFFFFFFFFFFFFFFFFFFFFFFFFFFFFFFF AND SWAP1 POP DUP1 PUSH20 0xFFFFFFFFFFFFFFFFFFFFFFFFFFFFFFFFFFFFFFFF AND PUSH4 0x4BF69206 CALLVALUE DUP5 PUSH1 0x40 MLOAD DUP4 PUSH4 0xFFFFFFFF AND PUSH1 0xE0 SHL DUP2 MSTORE PUSH1 0x4 ADD PUSH2 0x1F59 SWAP2 SWAP1 PUSH2 0x4B3F JUMP JUMPDEST PUSH0 PUSH1 0x40 MLOAD DUP1 DUP4 SUB DUP2 DUP6 DUP9 DUP1 EXTCODESIZE ISZERO DUP1 ISZERO PUSH2 0x1F70 JUMPI PUSH0 DUP1 REVERT JUMPDEST POP GAS CALL ISZERO DUP1 ISZERO PUSH2 0x1F82 JUMPI RETURNDATASIZE PUSH0 DUP1 RETURNDATACOPY RETURNDATASIZE PUSH0 REVERT JUMPDEST POP POP POP POP POP PUSH2 0x1F91 DUP3 CALLVALUE PUSH2 0x25F8 JUMP JUMPDEST POP POP JUMP JUMPDEST PUSH32 0x189AB7A9244DF0848122154315AF71FE140F3DB0FE014031783B0946B8C9D2E3 DUP2 JUMP JUMPDEST PUSH0 PUSH32 0x1FFC9A700000000000000000000000000000000000000000000000000000000 PUSH28 0xFFFFFFFFFFFFFFFFFFFFFFFFFFFFFFFFFFFFFFFFFFFFFFFFFFFFFFFF NOT AND DUP3 PUSH28 0xFFFFFFFFFFFFFFFFFFFFFFFFFFFFFFFFFFFFFFFFFFFFFFFFFFFFFFFF NOT AND EQ SWAP1 POP SWAP2 SWAP1 POP JUMP JUMPDEST PUSH0 PUSH32 0x52C63247E1F47DB19D5CE0460030C497F067CA4CEBF71BA98EEADABE20BACE00 SWAP1 POP SWAP1 JUMP JUMPDEST PUSH0 CALLER SWAP1 POP SWAP1 JUMP JUMPDEST PUSH2 0x205D DUP4 DUP4 DUP4 PUSH1 0x1 PUSH2 0x2FD9 JUMP JUMPDEST POP POP POP JUMP JUMPDEST PUSH0 PUSH2 0x206D DUP5 DUP5 PUSH2 0x1E2C JUMP JUMPDEST SWAP1 POP PUSH32 0xFFFFFFFFFFFFFFFFFFFFFFFFFFFFFFFFFFFFFFFFFFFFFFFFFFFFFFFFFFFFFFFF DUP2 EQ PUSH2 0x20EE JUMPI DUP2 DUP2 LT ISZERO PUSH2 0x20DF JUMPI DUP3 DUP2 DUP4 PUSH1 0x40 MLOAD PUSH32 0xFB8F41B200000000000000000000000000000000000000000000000000000000 DUP2 MSTORE PUSH1 0x4 ADD PUSH2 0x20D6 SWAP4 SWAP3 SWAP2 SWAP1 PUSH2 0x58B2 JUMP JUMPDEST PUSH1 0x40 MLOAD DUP1 SWAP2 SUB SWAP1 REVERT JUMPDEST PUSH2 0x20ED DUP5 DUP5 DUP5 DUP5 SUB PUSH0 PUSH2 0x2FD9 JUMP JUMPDEST JUMPDEST POP POP POP POP JUMP JUMPDEST PUSH0 PUSH20 0xFFFFFFFFFFFFFFFFFFFFFFFFFFFFFFFFFFFFFFFF AND DUP4 PUSH20 0xFFFFFFFFFFFFFFFFFFFFFFFFFFFFFFFFFFFFFFFF AND SUB PUSH2 0x2164 JUMPI PUSH0 PUSH1 0x40 MLOAD PUSH32 0x96C6FD1E00000000000000000000000000000000000000000000000000000000 DUP2 MSTORE PUSH1 0x4 ADD PUSH2 0x215B SWAP2 SWAP1 PUSH2 0x4B3F JUMP JUMPDEST PUSH1 0x40 MLOAD DUP1 SWAP2 SUB SWAP1 REVERT JUMPDEST PUSH0 PUSH20 0xFFFFFFFFFFFFFFFFFFFFFFFFFFFFFFFFFFFFFFFF AND DUP3 PUSH20 0xFFFFFFFFFFFFFFFFFFFFFFFFFFFFFFFFFFFFFFFF AND SUB PUSH2 0x21D4 JUMPI PUSH0 PUSH1 0x40 MLOAD PUSH32 0xEC442F0500000000000000000000000000000000000000000000000000000000 DUP2 MSTORE PUSH1 0x4 ADD PUSH2 0x21CB SWAP2 SWAP1 PUSH2 0x4B3F JUMP JUMPDEST PUSH1 0x40 MLOAD DUP1 SWAP2 SUB SWAP1 REVERT JUMPDEST PUSH2 0x21DF DUP4 DUP4 DUP4 PUSH2 0x31B6 JUMP JUMPDEST POP POP POP JUMP JUMPDEST PUSH0 PUSH32 0x2DD7BC7DEC4DCEEDDA775E58DD541E08A116C6C53815C0BD028192F7B626800 SWAP1 POP SWAP1 JUMP JUMPDEST PUSH2 0x221C DUP2 PUSH2 0x2217 PUSH2 0x2049 JUMP JUMPDEST PUSH2 0x31C6 JUMP JUMPDEST POP JUMP JUMPDEST PUSH0 DUP1 PUSH2 0x2229 PUSH2 0x21E4 JUMP JUMPDEST SWAP1 POP PUSH2 0x2235 DUP5 DUP5 PUSH2 0x152C JUMP JUMPDEST PUSH2 0x230C JUMPI PUSH1 0x1 DUP2 PUSH0 ADD PUSH0 DUP7 DUP2 MSTORE PUSH1 0x20 ADD SWAP1 DUP2 MSTORE PUSH1 0x20 ADD PUSH0 KECCAK256 PUSH0 ADD PUSH0 DUP6 PUSH20 0xFFFFFFFFFFFFFFFFFFFFFFFFFFFFFFFFFFFFFFFF AND PUSH20 0xFFFFFFFFFFFFFFFFFFFFFFFFFFFFFFFFFFFFFFFF AND DUP2 MSTORE PUSH1 0x20 ADD SWAP1 DUP2 MSTORE PUSH1 0x20 ADD PUSH0 KECCAK256 PUSH0 PUSH2 0x100 EXP DUP2 SLOAD DUP2 PUSH1 0xFF MUL NOT AND SWAP1 DUP4 ISZERO ISZERO MUL OR SWAP1 SSTORE POP PUSH2 0x22A8 PUSH2 0x2049 JUMP JUMPDEST PUSH20 0xFFFFFFFFFFFFFFFFFFFFFFFFFFFFFFFFFFFFFFFF AND DUP4 PUSH20 0xFFFFFFFFFFFFFFFFFFFFFFFFFFFFFFFFFFFFFFFF AND DUP6 PUSH32 0x2F8788117E7EFF1D82E926EC794901D17C78024A50270940304540A733656F0D PUSH1 0x40 MLOAD PUSH1 0x40 MLOAD DUP1 SWAP2 SUB SWAP1 LOG4 PUSH1 0x1 SWAP2 POP POP PUSH2 0x2311 JUMP JUMPDEST PUSH0 SWAP2 POP POP JUMPDEST SWAP3 SWAP2 POP POP JUMP JUMPDEST PUSH0 PUSH2 0x2320 PUSH2 0x3217 JUMP JUMPDEST SWAP1 POP SWAP1 JUMP JUMPDEST PUSH0 DUP1 PUSH2 0x232F PUSH2 0x21E4 JUMP JUMPDEST SWAP1 POP PUSH2 0x233B DUP5 DUP5 PUSH2 0x152C JUMP JUMPDEST ISZERO PUSH2 0x2412 JUMPI PUSH0 DUP2 PUSH0 ADD PUSH0 DUP7 DUP2 MSTORE PUSH1 0x20 ADD SWAP1 DUP2 MSTORE PUSH1 0x20 ADD PUSH0 KECCAK256 PUSH0 ADD PUSH0 DUP6 PUSH20 0xFFFFFFFFFFFFFFFFFFFFFFFFFFFFFFFFFFFFFFFF AND PUSH20 0xFFFFFFFFFFFFFFFFFFFFFFFFFFFFFFFFFFFFFFFF AND DUP2 MSTORE PUSH1 0x20 ADD SWAP1 DUP2 MSTORE PUSH1 0x20 ADD PUSH0 KECCAK256 PUSH0 PUSH2 0x100 EXP DUP2 SLOAD DUP2 PUSH1 0xFF MUL NOT AND SWAP1 DUP4 ISZERO ISZERO MUL OR SWAP1 SSTORE POP PUSH2 0x23AE PUSH2 0x2049 JUMP JUMPDEST PUSH20 0xFFFFFFFFFFFFFFFFFFFFFFFFFFFFFFFFFFFFFFFF AND DUP4 PUSH20 0xFFFFFFFFFFFFFFFFFFFFFFFFFFFFFFFFFFFFFFFF AND DUP6 PUSH32 0xF6391F5C32D9C69D2A47EA670B442974B53935D1EDC7FD64EB21E047A839171B PUSH1 0x40 MLOAD PUSH1 0x40 MLOAD DUP1 SWAP2 SUB SWAP1 LOG4 PUSH1 0x1 SWAP2 POP POP PUSH2 0x2417 JUMP JUMPDEST PUSH0 SWAP2 POP POP JUMPDEST SWAP3 SWAP2 POP POP JUMP JUMPDEST PUSH0 PUSH32 0xE8B26C30FAD74198956032A3533D903385D56DD795AF560196F9C78D4AF40D00 SWAP1 POP SWAP1 JUMP JUMPDEST PUSH0 PUSH6 0xFFFFFFFFFFFF DUP1 AND DUP3 GT ISZERO PUSH2 0x2495 JUMPI PUSH1 0x30 DUP3 PUSH1 0x40 MLOAD PUSH32 0x6DFCC65000000000000000000000000000000000000000000000000000000000 DUP2 MSTORE PUSH1 0x4 ADD PUSH2 0x248C SWAP3 SWAP2 SWAP1 PUSH2 0x5920 JUMP JUMPDEST PUSH1 0x40 MLOAD DUP1 SWAP2 SUB SWAP1 REVERT JUMPDEST DUP2 SWAP1 POP SWAP2 SWAP1 POP JUMP JUMPDEST PUSH0 DUP1 DUP4 PUSH0 ADD DUP1 SLOAD SWAP1 POP SWAP1 POP PUSH0 DUP1 DUP3 SWAP1 POP PUSH1 0x5 DUP4 GT ISZERO PUSH2 0x251E JUMPI PUSH0 PUSH2 0x24C0 DUP5 PUSH2 0x327A JUMP JUMPDEST DUP5 PUSH2 0x24CB SWAP2 SWAP1 PUSH2 0x5748 JUMP JUMPDEST SWAP1 POP PUSH2 0x24D9 DUP8 PUSH0 ADD DUP3 PUSH2 0x3370 JUMP JUMPDEST PUSH0 ADD PUSH0 SWAP1 SLOAD SWAP1 PUSH2 0x100 EXP SWAP1 DIV PUSH6 0xFFFFFFFFFFFF AND PUSH6 0xFFFFFFFFFFFF AND DUP7 PUSH6 0xFFFFFFFFFFFF AND LT ISZERO PUSH2 0x250C JUMPI DUP1 SWAP2 POP PUSH2 0x251C JUMP JUMPDEST PUSH1 0x1 DUP2 PUSH2 0x2519 SWAP2 SWAP1 PUSH2 0x554C JUMP JUMPDEST SWAP3 POP JUMPDEST POP JUMPDEST PUSH0 PUSH2 0x252D DUP8 PUSH0 ADD DUP8 DUP6 DUP6 PUSH2 0x3382 JUMP JUMPDEST SWAP1 POP PUSH0 DUP2 EQ PUSH2 0x257C JUMPI PUSH2 0x254E DUP8 PUSH0 ADD PUSH1 0x1 DUP4 PUSH2 0x2549 SWAP2 SWAP1 PUSH2 0x5748 JUMP JUMPDEST PUSH2 0x3370 JUMP JUMPDEST PUSH0 ADD PUSH1 0x6 SWAP1 SLOAD SWAP1 PUSH2 0x100 EXP SWAP1 DIV PUSH26 0xFFFFFFFFFFFFFFFFFFFFFFFFFFFFFFFFFFFFFFFFFFFFFFFFFFFF AND PUSH2 0x257E JUMP JUMPDEST PUSH0 JUMPDEST SWAP5 POP POP POP POP POP SWAP3 SWAP2 POP POP JUMP JUMPDEST PUSH2 0x2592 PUSH2 0x33F7 JUMP JUMPDEST PUSH0 PUSH2 0x259B PUSH2 0x2ACC JUMP JUMPDEST SWAP1 POP PUSH0 DUP2 PUSH0 ADD PUSH0 PUSH2 0x100 EXP DUP2 SLOAD DUP2 PUSH1 0xFF MUL NOT AND SWAP1 DUP4 ISZERO ISZERO MUL OR SWAP1 SSTORE POP PUSH32 0x5DB9EE0A495BF2E6FF9C91A7834C1BA4FDD244A5E8AA4E537BD38AEAE4B073AA PUSH2 0x25E0 PUSH2 0x2049 JUMP JUMPDEST PUSH1 0x40 MLOAD PUSH2 0x25ED SWAP2 SWAP1 PUSH2 0x4B3F JUMP JUMPDEST PUSH1 0x40 MLOAD DUP1 SWAP2 SUB SWAP1 LOG1 POP JUMP JUMPDEST PUSH0 PUSH20 0xFFFFFFFFFFFFFFFFFFFFFFFFFFFFFFFFFFFFFFFF AND DUP3 PUSH20 0xFFFFFFFFFFFFFFFFFFFFFFFFFFFFFFFFFFFFFFFF AND SUB PUSH2 0x2668 JUMPI PUSH0 PUSH1 0x40 MLOAD PUSH32 0xEC442F0500000000000000000000000000000000000000000000000000000000 DUP2 MSTORE PUSH1 0x4 ADD PUSH2 0x265F SWAP2 SWAP1 PUSH2 0x4B3F JUMP JUMPDEST PUSH1 0x40 MLOAD DUP1 SWAP2 SUB SWAP1 REVERT JUMPDEST PUSH2 0x2673 PUSH0 DUP4 DUP4 PUSH2 0x31B6 JUMP JUMPDEST POP POP JUMP JUMPDEST PUSH0 PUSH20 0xFFFFFFFFFFFFFFFFFFFFFFFFFFFFFFFFFFFFFFFF AND DUP3 PUSH20 0xFFFFFFFFFFFFFFFFFFFFFFFFFFFFFFFFFFFFFFFF AND SUB PUSH2 0x26E7 JUMPI PUSH0 PUSH1 0x40 MLOAD PUSH32 0x96C6FD1E00000000000000000000000000000000000000000000000000000000 DUP2 MSTORE PUSH1 0x4 ADD PUSH2 0x26DE SWAP2 SWAP1 PUSH2 0x4B3F JUMP JUMPDEST PUSH1 0x40 MLOAD DUP1 SWAP2 SUB SWAP1 REVERT JUMPDEST PUSH2 0x26F2 DUP3 PUSH0 DUP4 PUSH2 0x31B6 JUMP JUMPDEST POP POP JUMP JUMPDEST PUSH32 0x0 PUSH20 0xFFFFFFFFFFFFFFFFFFFFFFFFFFFFFFFFFFFFFFFF AND ADDRESS PUSH20 0xFFFFFFFFFFFFFFFFFFFFFFFFFFFFFFFFFFFFFFFF AND EQ DUP1 PUSH2 0x27A3 JUMPI POP PUSH32 0x0 PUSH20 0xFFFFFFFFFFFFFFFFFFFFFFFFFFFFFFFFFFFFFFFF AND PUSH2 0x278A PUSH2 0x3437 JUMP JUMPDEST PUSH20 0xFFFFFFFFFFFFFFFFFFFFFFFFFFFFFFFFFFFFFFFF AND EQ ISZERO JUMPDEST ISZERO PUSH2 0x27DA JUMPI PUSH1 0x40 MLOAD PUSH32 0xE07C8DBA00000000000000000000000000000000000000000000000000000000 DUP2 MSTORE PUSH1 0x4 ADD PUSH1 0x40 MLOAD DUP1 SWAP2 SUB SWAP1 REVERT JUMPDEST JUMP JUMPDEST PUSH32 0x189AB7A9244DF0848122154315AF71FE140F3DB0FE014031783B0946B8C9D2E3 PUSH2 0x2806 DUP2 PUSH2 0x220B JUMP JUMPDEST POP POP JUMP JUMPDEST DUP2 PUSH20 0xFFFFFFFFFFFFFFFFFFFFFFFFFFFFFFFFFFFFFFFF AND PUSH4 0x52D1902D PUSH1 0x40 MLOAD DUP2 PUSH4 0xFFFFFFFF AND PUSH1 0xE0 SHL DUP2 MSTORE PUSH1 0x4 ADD PUSH1 0x20 PUSH1 0x40 MLOAD DUP1 DUP4 SUB DUP2 DUP7 GAS STATICCALL SWAP3 POP POP POP DUP1 ISZERO PUSH2 0x2872 JUMPI POP PUSH1 0x40 MLOAD RETURNDATASIZE PUSH1 0x1F NOT PUSH1 0x1F DUP3 ADD AND DUP3 ADD DUP1 PUSH1 0x40 MSTORE POP DUP2 ADD SWAP1 PUSH2 0x286F SWAP2 SWAP1 PUSH2 0x595B JUMP JUMPDEST PUSH1 0x1 JUMPDEST PUSH2 0x28B3 JUMPI DUP2 PUSH1 0x40 MLOAD PUSH32 0x4C9C8CE300000000000000000000000000000000000000000000000000000000 DUP2 MSTORE PUSH1 0x4 ADD PUSH2 0x28AA SWAP2 SWAP1 PUSH2 0x4B3F JUMP JUMPDEST PUSH1 0x40 MLOAD DUP1 SWAP2 SUB SWAP1 REVERT JUMPDEST PUSH32 0x360894A13BA1A3210667C828492DB98DCA3E2076CC3735A920A3CA505D382BBC PUSH0 SHL DUP2 EQ PUSH2 0x2919 JUMPI DUP1 PUSH1 0x40 MLOAD PUSH32 0xAA1D49A400000000000000000000000000000000000000000000000000000000 DUP2 MSTORE PUSH1 0x4 ADD PUSH2 0x2910 SWAP2 SWAP1 PUSH2 0x4D82 JUMP JUMPDEST PUSH1 0x40 MLOAD DUP1 SWAP2 SUB SWAP1 REVERT JUMPDEST PUSH2 0x2923 DUP4 DUP4 PUSH2 0x348A JUMP JUMPDEST POP POP POP JUMP JUMPDEST PUSH32 0x0 PUSH20 0xFFFFFFFFFFFFFFFFFFFFFFFFFFFFFFFFFFFFFFFF AND ADDRESS PUSH20 0xFFFFFFFFFFFFFFFFFFFFFFFFFFFFFFFFFFFFFFFF AND EQ PUSH2 0x29AD JUMPI PUSH1 0x40 MLOAD PUSH32 0xE07C8DBA00000000000000000000000000000000000000000000000000000000 DUP2 MSTORE PUSH1 0x4 ADD PUSH1 0x40 MLOAD DUP1 SWAP2 SUB SWAP1 REVERT JUMPDEST JUMP JUMPDEST PUSH0 PUSH2 0x29B8 PUSH2 0x241D JUMP JUMPDEST SWAP1 POP PUSH0 PUSH2 0x29C4 DUP5 PUSH2 0x10DE JUMP JUMPDEST SWAP1 POP DUP3 DUP3 PUSH0 ADD PUSH0 DUP7 PUSH20 0xFFFFFFFFFFFFFFFFFFFFFFFFFFFFFFFFFFFFFFFF AND PUSH20 0xFFFFFFFFFFFFFFFFFFFFFFFFFFFFFFFFFFFFFFFF AND DUP2 MSTORE PUSH1 0x20 ADD SWAP1 DUP2 MSTORE PUSH1 0x20 ADD PUSH0 KECCAK256 PUSH0 PUSH2 0x100 EXP DUP2 SLOAD DUP2 PUSH20 0xFFFFFFFFFFFFFFFFFFFFFFFFFFFFFFFFFFFFFFFF MUL NOT AND SWAP1 DUP4 PUSH20 0xFFFFFFFFFFFFFFFFFFFFFFFFFFFFFFFFFFFFFFFF AND MUL OR SWAP1 SSTORE POP DUP3 PUSH20 0xFFFFFFFFFFFFFFFFFFFFFFFFFFFFFFFFFFFFFFFF AND DUP2 PUSH20 0xFFFFFFFFFFFFFFFFFFFFFFFFFFFFFFFFFFFFFFFF AND DUP6 PUSH20 0xFFFFFFFFFFFFFFFFFFFFFFFFFFFFFFFFFFFFFFFF AND PUSH32 0x3134E8A2E6D97E929A7E54011EA5485D7D196DD5F0BA4D4EF95803E8E3FC257F PUSH1 0x40 MLOAD PUSH1 0x40 MLOAD DUP1 SWAP2 SUB SWAP1 LOG4 PUSH2 0x2AC6 DUP2 DUP5 PUSH2 0x2AC1 DUP8 PUSH2 0x34FC JUMP JUMPDEST PUSH2 0x350D JUMP JUMPDEST POP POP POP POP JUMP JUMPDEST PUSH0 PUSH32 0xCD5ED15C6E187E77E9AEE88184C21F4F2182AB5827CB3B7E07FBEDCD63F03300 SWAP1 POP SWAP1 JUMP JUMPDEST PUSH0 DUP1 PUSH2 0x2AFD PUSH2 0x241D JUMP JUMPDEST SWAP1 POP PUSH2 0x2B4E PUSH2 0x2B49 DUP3 PUSH1 0x1 ADD PUSH0 DUP7 PUSH20 0xFFFFFFFFFFFFFFFFFFFFFFFFFFFFFFFFFFFFFFFF AND PUSH20 0xFFFFFFFFFFFFFFFFFFFFFFFFFFFFFFFFFFFFFFFF AND DUP2 MSTORE PUSH1 0x20 ADD SWAP1 DUP2 MSTORE PUSH1 0x20 ADD PUSH0 KECCAK256 PUSH2 0x378D JUMP JUMPDEST PUSH2 0x379C JUMP JUMPDEST SWAP2 POP POP SWAP2 SWAP1 POP JUMP JUMPDEST PUSH0 PUSH2 0x2B60 DUP3 PUSH2 0x37F3 JUMP JUMPDEST SWAP1 POP SWAP2 SWAP1 POP JUMP JUMPDEST PUSH2 0x2B6F PUSH2 0x3846 JUMP JUMPDEST PUSH0 PUSH2 0x2B78 PUSH2 0x2ACC JUMP JUMPDEST SWAP1 POP PUSH1 0x1 DUP2 PUSH0 ADD PUSH0 PUSH2 0x100 EXP DUP2 SLOAD DUP2 PUSH1 0xFF MUL NOT AND SWAP1 DUP4 ISZERO ISZERO MUL OR SWAP1 SSTORE POP PUSH32 0x62E78CEA01BEE320CD4E420270B5EA74000D11B0C9F74754EBDBFC544B05A258 PUSH2 0x2BBE PUSH2 0x2049 JUMP JUMPDEST PUSH1 0x40 MLOAD PUSH2 0x2BCB SWAP2 SWAP1 PUSH2 0x4B3F JUMP JUMPDEST PUSH1 0x40 MLOAD DUP1 SWAP2 SUB SWAP1 LOG1 POP JUMP JUMPDEST PUSH0 PUSH32 0xA16A46D94261C7517CC8FF89F61C0CE93598E3C849801011DEE649A6A557D100 SWAP1 POP SWAP1 JUMP JUMPDEST PUSH1 0x60 PUSH0 PUSH2 0x2C08 PUSH2 0x2BD6 JUMP JUMPDEST SWAP1 POP DUP1 PUSH1 0x2 ADD DUP1 SLOAD PUSH2 0x2C19 SWAP1 PUSH2 0x54C8 JUMP JUMPDEST DUP1 PUSH1 0x1F ADD PUSH1 0x20 DUP1 SWAP2 DIV MUL PUSH1 0x20 ADD PUSH1 0x40 MLOAD SWAP1 DUP2 ADD PUSH1 0x40 MSTORE DUP1 SWAP3 SWAP2 SWAP1 DUP2 DUP2 MSTORE PUSH1 0x20 ADD DUP3 DUP1 SLOAD PUSH2 0x2C45 SWAP1 PUSH2 0x54C8 JUMP JUMPDEST DUP1 ISZERO PUSH2 0x2C90 JUMPI DUP1 PUSH1 0x1F LT PUSH2 0x2C67 JUMPI PUSH2 0x100 DUP1 DUP4 SLOAD DIV MUL DUP4 MSTORE SWAP2 PUSH1 0x20 ADD SWAP2 PUSH2 0x2C90 JUMP JUMPDEST DUP3 ADD SWAP2 SWAP1 PUSH0 MSTORE PUSH1 0x20 PUSH0 KECCAK256 SWAP1 JUMPDEST DUP2 SLOAD DUP2 MSTORE SWAP1 PUSH1 0x1 ADD SWAP1 PUSH1 0x20 ADD DUP1 DUP4 GT PUSH2 0x2C73 JUMPI DUP3 SWAP1 SUB PUSH1 0x1F AND DUP3 ADD SWAP2 JUMPDEST POP POP POP POP POP SWAP2 POP POP SWAP1 JUMP JUMPDEST PUSH1 0x60 PUSH0 PUSH2 0x2CA6 PUSH2 0x2BD6 JUMP JUMPDEST SWAP1 POP DUP1 PUSH1 0x3 ADD DUP1 SLOAD PUSH2 0x2CB7 SWAP1 PUSH2 0x54C8 JUMP JUMPDEST DUP1 PUSH1 0x1F ADD PUSH1 0x20 DUP1 SWAP2 DIV MUL PUSH1 0x20 ADD PUSH1 0x40 MLOAD SWAP1 DUP2 ADD PUSH1 0x40 MSTORE DUP1 SWAP3 SWAP2 SWAP1 DUP2 DUP2 MSTORE PUSH1 0x20 ADD DUP3 DUP1 SLOAD PUSH2 0x2CE3 SWAP1 PUSH2 0x54C8 JUMP JUMPDEST DUP1 ISZERO PUSH2 0x2D2E JUMPI DUP1 PUSH1 0x1F LT PUSH2 0x2D05 JUMPI PUSH2 0x100 DUP1 DUP4 SLOAD DIV MUL DUP4 MSTORE SWAP2 PUSH1 0x20 ADD SWAP2 PUSH2 0x2D2E JUMP JUMPDEST DUP3 ADD SWAP2 SWAP1 PUSH0 MSTORE PUSH1 0x20 PUSH0 KECCAK256 SWAP1 JUMPDEST DUP2 SLOAD DUP2 MSTORE SWAP1 PUSH1 0x1 ADD SWAP1 PUSH1 0x20 ADD DUP1 DUP4 GT PUSH2 0x2D11 JUMPI DUP3 SWAP1 SUB PUSH1 0x1F AND DUP3 ADD SWAP2 JUMPDEST POP POP POP POP POP SWAP2 POP POP SWAP1 JUMP JUMPDEST PUSH0 DUP1 DUP3 PUSH0 ADD DUP1 SLOAD SWAP1 POP SWAP1 POP PUSH0 DUP2 EQ PUSH2 0x2D91 JUMPI PUSH2 0x2D63 DUP4 PUSH0 ADD PUSH1 0x1 DUP4 PUSH2 0x2D5E SWAP2 SWAP1 PUSH2 0x5748 JUMP JUMPDEST PUSH2 0x3370 JUMP JUMPDEST PUSH0 ADD PUSH1 0x6 SWAP1 SLOAD SWAP1 PUSH2 0x100 EXP SWAP1 DIV PUSH26 0xFFFFFFFFFFFFFFFFFFFFFFFFFFFFFFFFFFFFFFFFFFFFFFFFFFFF AND PUSH2 0x2D93 JUMP JUMPDEST PUSH0 JUMPDEST SWAP2 POP POP SWAP2 SWAP1 POP JUMP JUMPDEST PUSH0 PUSH32 0xF0C57E16840DF040F15088DC2F81FE391C3923BEC73E23A9662EFC9C229C6A00 SWAP1 POP SWAP1 JUMP JUMPDEST PUSH2 0x2DCA PUSH2 0x3887 JUMP JUMPDEST PUSH2 0x2DD4 DUP3 DUP3 PUSH2 0x38C7 JUMP JUMPDEST POP POP JUMP JUMPDEST PUSH2 0x2DE0 PUSH2 0x3887 JUMP JUMPDEST JUMP JUMPDEST PUSH2 0x2DEA PUSH2 0x3887 JUMP JUMPDEST PUSH2 0x2DF2 PUSH2 0x3903 JUMP JUMPDEST JUMP JUMPDEST PUSH2 0x2DFC PUSH2 0x3887 JUMP JUMPDEST JUMP JUMPDEST PUSH2 0x2E06 PUSH2 0x3887 JUMP JUMPDEST PUSH2 0x2E45 DUP2 PUSH1 0x40 MLOAD DUP1 PUSH1 0x40 ADD PUSH1 0x40 MSTORE DUP1 PUSH1 0x1 DUP2 MSTORE PUSH1 0x20 ADD PUSH32 0x3100000000000000000000000000000000000000000000000000000000000000 DUP2 MSTORE POP PUSH2 0x3933 JUMP JUMPDEST POP JUMP JUMPDEST PUSH2 0x2E50 PUSH2 0x3887 JUMP JUMPDEST JUMP JUMPDEST PUSH2 0x2E5A PUSH2 0x3887 JUMP JUMPDEST JUMP JUMPDEST PUSH2 0x2E64 PUSH2 0x3887 JUMP JUMPDEST PUSH2 0x2E6C PUSH2 0x3984 JUMP JUMPDEST JUMP JUMPDEST PUSH0 PUSH2 0x2E80 PUSH2 0x2E7A PUSH2 0x2317 JUMP JUMPDEST DUP4 PUSH2 0x39A3 JUMP JUMPDEST SWAP1 POP SWAP2 SWAP1 POP JUMP JUMPDEST PUSH0 DUP1 PUSH0 DUP1 PUSH2 0x2E97 DUP9 DUP9 DUP9 DUP9 PUSH2 0x39E3 JUMP JUMPDEST SWAP3 POP SWAP3 POP SWAP3 POP PUSH2 0x2EA7 DUP3 DUP3 PUSH2 0x3ACA JUMP JUMPDEST DUP3 SWAP4 POP POP POP POP SWAP5 SWAP4 POP POP POP POP JUMP JUMPDEST PUSH0 PUSH2 0x2EBF DUP4 PUSH2 0x2F0C JUMP JUMPDEST SWAP1 POP DUP1 DUP3 EQ PUSH2 0x2F07 JUMPI DUP3 DUP2 PUSH1 0x40 MLOAD PUSH32 0x752D88C000000000000000000000000000000000000000000000000000000000 DUP2 MSTORE PUSH1 0x4 ADD PUSH2 0x2EFE SWAP3 SWAP2 SWAP1 PUSH2 0x5626 JUMP JUMPDEST PUSH1 0x40 MLOAD DUP1 SWAP2 SUB SWAP1 REVERT JUMPDEST POP POP POP JUMP JUMPDEST PUSH0 DUP1 PUSH2 0x2F16 PUSH2 0x3C2C JUMP JUMPDEST SWAP1 POP DUP1 PUSH0 ADD PUSH0 DUP5 PUSH20 0xFFFFFFFFFFFFFFFFFFFFFFFFFFFFFFFFFFFFFFFF AND PUSH20 0xFFFFFFFFFFFFFFFFFFFFFFFFFFFFFFFFFFFFFFFF AND DUP2 MSTORE PUSH1 0x20 ADD SWAP1 DUP2 MSTORE PUSH1 0x20 ADD PUSH0 KECCAK256 PUSH0 DUP2 SLOAD DUP1 SWAP3 SWAP2 SWAP1 PUSH1 0x1 ADD SWAP2 SWAP1 POP SSTORE SWAP2 POP POP SWAP2 SWAP1 POP JUMP JUMPDEST PUSH2 0x2F74 PUSH2 0x4A00 JUMP JUMPDEST PUSH0 PUSH2 0x2F7D PUSH2 0x241D JUMP JUMPDEST SWAP1 POP PUSH2 0x2FD0 DUP4 DUP3 PUSH1 0x1 ADD PUSH0 DUP8 PUSH20 0xFFFFFFFFFFFFFFFFFFFFFFFFFFFFFFFFFFFFFFFF AND PUSH20 0xFFFFFFFFFFFFFFFFFFFFFFFFFFFFFFFFFFFFFFFF AND DUP2 MSTORE PUSH1 0x20 ADD SWAP1 DUP2 MSTORE PUSH1 0x20 ADD PUSH0 KECCAK256 PUSH2 0x3C53 SWAP1 SWAP2 SWAP1 PUSH4 0xFFFFFFFF AND JUMP JUMPDEST SWAP2 POP POP SWAP3 SWAP2 POP POP JUMP JUMPDEST PUSH0 PUSH2 0x2FE2 PUSH2 0x2022 JUMP JUMPDEST SWAP1 POP PUSH0 PUSH20 0xFFFFFFFFFFFFFFFFFFFFFFFFFFFFFFFFFFFFFFFF AND DUP6 PUSH20 0xFFFFFFFFFFFFFFFFFFFFFFFFFFFFFFFFFFFFFFFF AND SUB PUSH2 0x3054 JUMPI PUSH0 PUSH1 0x40 MLOAD PUSH32 0xE602DF0500000000000000000000000000000000000000000000000000000000 DUP2 MSTORE PUSH1 0x4 ADD PUSH2 0x304B SWAP2 SWAP1 PUSH2 0x4B3F JUMP JUMPDEST PUSH1 0x40 MLOAD DUP1 SWAP2 SUB SWAP1 REVERT JUMPDEST PUSH0 PUSH20 0xFFFFFFFFFFFFFFFFFFFFFFFFFFFFFFFFFFFFFFFF AND DUP5 PUSH20 0xFFFFFFFFFFFFFFFFFFFFFFFFFFFFFFFFFFFFFFFF AND SUB PUSH2 0x30C4 JUMPI PUSH0 PUSH1 0x40 MLOAD PUSH32 0x94280D6200000000000000000000000000000000000000000000000000000000 DUP2 MSTORE PUSH1 0x4 ADD PUSH2 0x30BB SWAP2 SWAP1 PUSH2 0x4B3F JUMP JUMPDEST PUSH1 0x40 MLOAD DUP1 SWAP2 SUB SWAP1 REVERT JUMPDEST DUP3 DUP2 PUSH1 0x1 ADD PUSH0 DUP8 PUSH20 0xFFFFFFFFFFFFFFFFFFFFFFFFFFFFFFFFFFFFFFFF AND PUSH20 0xFFFFFFFFFFFFFFFFFFFFFFFFFFFFFFFFFFFFFFFF AND DUP2 MSTORE PUSH1 0x20 ADD SWAP1 DUP2 MSTORE PUSH1 0x20 ADD PUSH0 KECCAK256 PUSH0 DUP7 PUSH20 0xFFFFFFFFFFFFFFFFFFFFFFFFFFFFFFFFFFFFFFFF AND PUSH20 0xFFFFFFFFFFFFFFFFFFFFFFFFFFFFFFFFFFFFFFFF AND DUP2 MSTORE PUSH1 0x20 ADD SWAP1 DUP2 MSTORE PUSH1 0x20 ADD PUSH0 KECCAK256 DUP2 SWAP1 SSTORE POP DUP2 ISZERO PUSH2 0x31AF JUMPI DUP4 PUSH20 0xFFFFFFFFFFFFFFFFFFFFFFFFFFFFFFFFFFFFFFFF AND DUP6 PUSH20 0xFFFFFFFFFFFFFFFFFFFFFFFFFFFFFFFFFFFFFFFF AND PUSH32 0x8C5BE1E5EBEC7D5BD14F71427D1E84F3DD0314C0F7B2291E5B200AC8C7C3B925 DUP6 PUSH1 0x40 MLOAD PUSH2 0x31A6 SWAP2 SWAP1 PUSH2 0x4CAC JUMP JUMPDEST PUSH1 0x40 MLOAD DUP1 SWAP2 SUB SWAP1 LOG3 JUMPDEST POP POP POP POP POP JUMP JUMPDEST PUSH2 0x31C1 DUP4 DUP4 DUP4 PUSH2 0x3D22 JUMP JUMPDEST POP POP POP JUMP JUMPDEST PUSH2 0x31D0 DUP3 DUP3 PUSH2 0x152C JUMP JUMPDEST PUSH2 0x3213 JUMPI DUP1 DUP3 PUSH1 0x40 MLOAD PUSH32 0xE2517D3F00000000000000000000000000000000000000000000000000000000 DUP2 MSTORE PUSH1 0x4 ADD PUSH2 0x320A SWAP3 SWAP2 SWAP1 PUSH2 0x5986 JUMP JUMPDEST PUSH1 0x40 MLOAD DUP1 SWAP2 SUB SWAP1 REVERT JUMPDEST POP POP JUMP JUMPDEST PUSH0 PUSH32 0x8B73C3C69BB8FE3D512ECC4CF759CC79239F7B179B0FFACAA9A75D522B39400F PUSH2 0x3241 PUSH2 0x3DD0 JUMP JUMPDEST PUSH2 0x3249 PUSH2 0x3E46 JUMP JUMPDEST CHAINID ADDRESS PUSH1 0x40 MLOAD PUSH1 0x20 ADD PUSH2 0x325F SWAP6 SWAP5 SWAP4 SWAP3 SWAP2 SWAP1 PUSH2 0x59AD JUMP JUMPDEST PUSH1 0x40 MLOAD PUSH1 0x20 DUP2 DUP4 SUB SUB DUP2 MSTORE SWAP1 PUSH1 0x40 MSTORE DUP1 MLOAD SWAP1 PUSH1 0x20 ADD KECCAK256 SWAP1 POP SWAP1 JUMP JUMPDEST PUSH0 DUP1 DUP3 SUB PUSH2 0x328A JUMPI PUSH0 SWAP1 POP PUSH2 0x336B JUMP JUMPDEST PUSH0 PUSH1 0x1 PUSH2 0x3296 DUP5 PUSH2 0x3EBD JUMP JUMPDEST SWAP1 SHR PUSH1 0x1 SWAP1 SHL SWAP1 POP PUSH1 0x1 DUP2 DUP5 DUP2 PUSH2 0x32B0 JUMPI PUSH2 0x32AF PUSH2 0x59FE JUMP JUMPDEST JUMPDEST DIV DUP3 ADD SWAP1 SHR SWAP1 POP PUSH1 0x1 DUP2 DUP5 DUP2 PUSH2 0x32C9 JUMPI PUSH2 0x32C8 PUSH2 0x59FE JUMP JUMPDEST JUMPDEST DIV DUP3 ADD SWAP1 SHR SWAP1 POP PUSH1 0x1 DUP2 DUP5 DUP2 PUSH2 0x32E2 JUMPI PUSH2 0x32E1 PUSH2 0x59FE JUMP JUMPDEST JUMPDEST DIV DUP3 ADD SWAP1 SHR SWAP1 POP PUSH1 0x1 DUP2 DUP5 DUP2 PUSH2 0x32FB JUMPI PUSH2 0x32FA PUSH2 0x59FE JUMP JUMPDEST JUMPDEST DIV DUP3 ADD SWAP1 SHR SWAP1 POP PUSH1 0x1 DUP2 DUP5 DUP2 PUSH2 0x3314 JUMPI PUSH2 0x3313 PUSH2 0x59FE JUMP JUMPDEST JUMPDEST DIV DUP3 ADD SWAP1 SHR SWAP1 POP PUSH1 0x1 DUP2 DUP5 DUP2 PUSH2 0x332D JUMPI PUSH2 0x332C PUSH2 0x59FE JUMP JUMPDEST JUMPDEST DIV DUP3 ADD SWAP1 SHR SWAP1 POP PUSH1 0x1 DUP2 DUP5 DUP2 PUSH2 0x3346 JUMPI PUSH2 0x3345 PUSH2 0x59FE JUMP JUMPDEST JUMPDEST DIV DUP3 ADD SWAP1 SHR SWAP1 POP PUSH2 0x3367 DUP2 DUP3 DUP6 DUP2 PUSH2 0x3361 JUMPI PUSH2 0x3360 PUSH2 0x59FE JUMP JUMPDEST JUMPDEST DIV PUSH2 0x3F94 JUMP JUMPDEST SWAP2 POP POP JUMPDEST SWAP2 SWAP1 POP JUMP JUMPDEST PUSH0 DUP3 PUSH0 MSTORE DUP2 PUSH1 0x20 PUSH0 KECCAK256 ADD SWAP1 POP SWAP3 SWAP2 POP POP JUMP JUMPDEST PUSH0 JUMPDEST DUP2 DUP4 LT ISZERO PUSH2 0x33EC JUMPI PUSH0 PUSH2 0x3397 DUP5 DUP5 PUSH2 0x3FAC JUMP JUMPDEST SWAP1 POP DUP5 PUSH6 0xFFFFFFFFFFFF AND PUSH2 0x33AC DUP8 DUP4 PUSH2 0x3370 JUMP JUMPDEST PUSH0 ADD PUSH0 SWAP1 SLOAD SWAP1 PUSH2 0x100 EXP SWAP1 DIV PUSH6 0xFFFFFFFFFFFF AND PUSH6 0xFFFFFFFFFFFF AND GT ISZERO PUSH2 0x33D6 JUMPI DUP1 SWAP3 POP PUSH2 0x33E6 JUMP JUMPDEST PUSH1 0x1 DUP2 PUSH2 0x33E3 SWAP2 SWAP1 PUSH2 0x554C JUMP JUMPDEST SWAP4 POP JUMPDEST POP PUSH2 0x3384 JUMP JUMPDEST DUP2 SWAP1 POP SWAP5 SWAP4 POP POP POP POP JUMP JUMPDEST PUSH2 0x33FF PUSH2 0x1169 JUMP JUMPDEST PUSH2 0x3435 JUMPI PUSH1 0x40 MLOAD PUSH32 0x8DFC202B00000000000000000000000000000000000000000000000000000000 DUP2 MSTORE PUSH1 0x4 ADD PUSH1 0x40 MLOAD DUP1 SWAP2 SUB SWAP1 REVERT JUMPDEST JUMP JUMPDEST PUSH0 PUSH2 0x3463 PUSH32 0x360894A13BA1A3210667C828492DB98DCA3E2076CC3735A920A3CA505D382BBC PUSH0 SHL PUSH2 0x3FD1 JUMP JUMPDEST PUSH0 ADD PUSH0 SWAP1 SLOAD SWAP1 PUSH2 0x100 EXP SWAP1 DIV PUSH20 0xFFFFFFFFFFFFFFFFFFFFFFFFFFFFFFFFFFFFFFFF AND SWAP1 POP SWAP1 JUMP JUMPDEST PUSH2 0x3493 DUP3 PUSH2 0x3FDA JUMP JUMPDEST DUP2 PUSH20 0xFFFFFFFFFFFFFFFFFFFFFFFFFFFFFFFFFFFFFFFF AND PUSH32 0xBC7CD75A20EE27FD9ADEBAB32041F755214DBC6BFFA90CC0225B39DA2E5C2D3B PUSH1 0x40 MLOAD PUSH1 0x40 MLOAD DUP1 SWAP2 SUB SWAP1 LOG2 PUSH0 DUP2 MLOAD GT ISZERO PUSH2 0x34EF JUMPI PUSH2 0x34E9 DUP3 DUP3 PUSH2 0x40A3 JUMP JUMPDEST POP PUSH2 0x34F8 JUMP JUMPDEST PUSH2 0x34F7 PUSH2 0x4123 JUMP JUMPDEST JUMPDEST POP POP JUMP JUMPDEST PUSH0 PUSH2 0x3506 DUP3 PUSH2 0x12C2 JUMP JUMPDEST SWAP1 POP SWAP2 SWAP1 POP JUMP JUMPDEST PUSH0 PUSH2 0x3516 PUSH2 0x241D JUMP JUMPDEST SWAP1 POP DUP3 PUSH20 0xFFFFFFFFFFFFFFFFFFFFFFFFFFFFFFFFFFFFFFFF AND DUP5 PUSH20 0xFFFFFFFFFFFFFFFFFFFFFFFFFFFFFFFFFFFFFFFF AND EQ ISZERO DUP1 ISZERO PUSH2 0x3553 JUMPI POP PUSH0 DUP3 GT JUMPDEST ISZERO PUSH2 0x3787 JUMPI PUSH0 PUSH20 0xFFFFFFFFFFFFFFFFFFFFFFFFFFFFFFFFFFFFFFFF AND DUP5 PUSH20 0xFFFFFFFFFFFFFFFFFFFFFFFFFFFFFFFFFFFFFFFF AND EQ PUSH2 0x366F JUMPI PUSH0 DUP1 PUSH2 0x35E0 DUP4 PUSH1 0x1 ADD PUSH0 DUP9 PUSH20 0xFFFFFFFFFFFFFFFFFFFFFFFFFFFFFFFFFFFFFFFF AND PUSH20 0xFFFFFFFFFFFFFFFFFFFFFFFFFFFFFFFFFFFFFFFF AND DUP2 MSTORE PUSH1 0x20 ADD SWAP1 DUP2 MSTORE PUSH1 0x20 ADD PUSH0 KECCAK256 PUSH2 0x415F PUSH2 0x35DB DUP8 PUSH2 0x4174 JUMP JUMPDEST PUSH2 0x41E1 JUMP JUMPDEST PUSH26 0xFFFFFFFFFFFFFFFFFFFFFFFFFFFFFFFFFFFFFFFFFFFFFFFFFFFF AND SWAP2 POP PUSH26 0xFFFFFFFFFFFFFFFFFFFFFFFFFFFFFFFFFFFFFFFFFFFFFFFFFFFF AND SWAP2 POP DUP6 PUSH20 0xFFFFFFFFFFFFFFFFFFFFFFFFFFFFFFFFFFFFFFFF AND PUSH32 0xDEC2BACDD2F05B59DE34DA9B523DFF8BE42E5E38E818C82FDB0BAE774387A724 DUP4 DUP4 PUSH1 0x40 MLOAD PUSH2 0x3664 SWAP3 SWAP2 SWAP1 PUSH2 0x5A2B JUMP JUMPDEST PUSH1 0x40 MLOAD DUP1 SWAP2 SUB SWAP1 LOG2 POP POP JUMPDEST PUSH0 PUSH20 0xFFFFFFFFFFFFFFFFFFFFFFFFFFFFFFFFFFFFFFFF AND DUP4 PUSH20 0xFFFFFFFFFFFFFFFFFFFFFFFFFFFFFFFFFFFFFFFF AND EQ PUSH2 0x3786 JUMPI PUSH0 DUP1 PUSH2 0x36F7 DUP4 PUSH1 0x1 ADD PUSH0 DUP8 PUSH20 0xFFFFFFFFFFFFFFFFFFFFFFFFFFFFFFFFFFFFFFFF AND PUSH20 0xFFFFFFFFFFFFFFFFFFFFFFFFFFFFFFFFFFFFFFFF AND DUP2 MSTORE PUSH1 0x20 ADD SWAP1 DUP2 MSTORE PUSH1 0x20 ADD PUSH0 KECCAK256 PUSH2 0x4220 PUSH2 0x36F2 DUP8 PUSH2 0x4174 JUMP JUMPDEST PUSH2 0x41E1 JUMP JUMPDEST PUSH26 0xFFFFFFFFFFFFFFFFFFFFFFFFFFFFFFFFFFFFFFFFFFFFFFFFFFFF AND SWAP2 POP PUSH26 0xFFFFFFFFFFFFFFFFFFFFFFFFFFFFFFFFFFFFFFFFFFFFFFFFFFFF AND SWAP2 POP DUP5 PUSH20 0xFFFFFFFFFFFFFFFFFFFFFFFFFFFFFFFFFFFFFFFF AND PUSH32 0xDEC2BACDD2F05B59DE34DA9B523DFF8BE42E5E38E818C82FDB0BAE774387A724 DUP4 DUP4 PUSH1 0x40 MLOAD PUSH2 0x377B SWAP3 SWAP2 SWAP1 PUSH2 0x5A2B JUMP JUMPDEST PUSH1 0x40 MLOAD DUP1 SWAP2 SUB SWAP1 LOG2 POP POP JUMPDEST JUMPDEST POP POP POP POP JUMP JUMPDEST PUSH0 DUP2 PUSH0 ADD DUP1 SLOAD SWAP1 POP SWAP1 POP SWAP2 SWAP1 POP JUMP JUMPDEST PUSH0 PUSH4 0xFFFFFFFF DUP1 AND DUP3 GT ISZERO PUSH2 0x37EB JUMPI PUSH1 0x20 DUP3 PUSH1 0x40 MLOAD PUSH32 0x6DFCC65000000000000000000000000000000000000000000000000000000000 DUP2 MSTORE PUSH1 0x4 ADD PUSH2 0x37E2 SWAP3 SWAP2 SWAP1 PUSH2 0x5A8B JUMP JUMPDEST PUSH1 0x40 MLOAD DUP1 SWAP2 SUB SWAP1 REVERT JUMPDEST DUP2 SWAP1 POP SWAP2 SWAP1 POP JUMP JUMPDEST PUSH0 DUP1 PUSH2 0x37FD PUSH2 0x3C2C JUMP JUMPDEST SWAP1 POP DUP1 PUSH0 ADD PUSH0 DUP5 PUSH20 0xFFFFFFFFFFFFFFFFFFFFFFFFFFFFFFFFFFFFFFFF AND PUSH20 0xFFFFFFFFFFFFFFFFFFFFFFFFFFFFFFFFFFFFFFFF AND DUP2 MSTORE PUSH1 0x20 ADD SWAP1 DUP2 MSTORE PUSH1 0x20 ADD PUSH0 KECCAK256 SLOAD SWAP2 POP POP SWAP2 SWAP1 POP JUMP JUMPDEST PUSH2 0x384E PUSH2 0x1169 JUMP JUMPDEST ISZERO PUSH2 0x3885 JUMPI PUSH1 0x40 MLOAD PUSH32 0xD93C066500000000000000000000000000000000000000000000000000000000 DUP2 MSTORE PUSH1 0x4 ADD PUSH1 0x40 MLOAD DUP1 SWAP2 SUB SWAP1 REVERT JUMPDEST JUMP JUMPDEST PUSH2 0x388F PUSH2 0x4235 JUMP JUMPDEST PUSH2 0x38C5 JUMPI PUSH1 0x40 MLOAD PUSH32 0xD7E6BCF800000000000000000000000000000000000000000000000000000000 DUP2 MSTORE PUSH1 0x4 ADD PUSH1 0x40 MLOAD DUP1 SWAP2 SUB SWAP1 REVERT JUMPDEST JUMP JUMPDEST PUSH2 0x38CF PUSH2 0x3887 JUMP JUMPDEST PUSH0 PUSH2 0x38D8 PUSH2 0x2022 JUMP JUMPDEST SWAP1 POP DUP3 DUP2 PUSH1 0x3 ADD SWAP1 DUP2 PUSH2 0x38EB SWAP2 SWAP1 PUSH2 0x5C46 JUMP JUMPDEST POP DUP2 DUP2 PUSH1 0x4 ADD SWAP1 DUP2 PUSH2 0x38FD SWAP2 SWAP1 PUSH2 0x5C46 JUMP JUMPDEST POP POP POP POP JUMP JUMPDEST PUSH2 0x390B PUSH2 0x3887 JUMP JUMPDEST PUSH0 PUSH2 0x3914 PUSH2 0x2ACC JUMP JUMPDEST SWAP1 POP PUSH0 DUP2 PUSH0 ADD PUSH0 PUSH2 0x100 EXP DUP2 SLOAD DUP2 PUSH1 0xFF MUL NOT AND SWAP1 DUP4 ISZERO ISZERO MUL OR SWAP1 SSTORE POP POP JUMP JUMPDEST PUSH2 0x393B PUSH2 0x3887 JUMP JUMPDEST PUSH0 PUSH2 0x3944 PUSH2 0x2BD6 JUMP JUMPDEST SWAP1 POP DUP3 DUP2 PUSH1 0x2 ADD SWAP1 DUP2 PUSH2 0x3957 SWAP2 SWAP1 PUSH2 0x5C46 JUMP JUMPDEST POP DUP2 DUP2 PUSH1 0x3 ADD SWAP1 DUP2 PUSH2 0x3969 SWAP2 SWAP1 PUSH2 0x5C46 JUMP JUMPDEST POP PUSH0 DUP1 SHL DUP2 PUSH0 ADD DUP2 SWAP1 SSTORE POP PUSH0 DUP1 SHL DUP2 PUSH1 0x1 ADD DUP2 SWAP1 SSTORE POP POP POP POP JUMP JUMPDEST PUSH2 0x398C PUSH2 0x3887 JUMP JUMPDEST PUSH0 PUSH2 0x3995 PUSH2 0x4253 JUMP JUMPDEST SWAP1 POP PUSH1 0x1 DUP2 PUSH0 ADD DUP2 SWAP1 SSTORE POP POP JUMP JUMPDEST PUSH0 PUSH1 0x40 MLOAD PUSH32 0x1901000000000000000000000000000000000000000000000000000000000000 DUP2 MSTORE DUP4 PUSH1 0x2 DUP3 ADD MSTORE DUP3 PUSH1 0x22 DUP3 ADD MSTORE PUSH1 0x42 DUP2 KECCAK256 SWAP2 POP POP SWAP3 SWAP2 POP POP JUMP JUMPDEST PUSH0 DUP1 PUSH0 PUSH32 0x7FFFFFFFFFFFFFFFFFFFFFFFFFFFFFFF5D576E7357A4501DDFE92F46681B20A0 DUP5 PUSH0 SHR GT ISZERO PUSH2 0x3A1F JUMPI PUSH0 PUSH1 0x3 DUP6 SWAP3 POP SWAP3 POP SWAP3 POP PUSH2 0x3AC0 JUMP JUMPDEST PUSH0 PUSH1 0x1 DUP9 DUP9 DUP9 DUP9 PUSH1 0x40 MLOAD PUSH0 DUP2 MSTORE PUSH1 0x20 ADD PUSH1 0x40 MSTORE PUSH1 0x40 MLOAD PUSH2 0x3A42 SWAP5 SWAP4 SWAP3 SWAP2 SWAP1 PUSH2 0x5D15 JUMP JUMPDEST PUSH1 0x20 PUSH1 0x40 MLOAD PUSH1 0x20 DUP2 SUB SWAP1 DUP1 DUP5 SUB SWAP1 DUP6 GAS STATICCALL ISZERO DUP1 ISZERO PUSH2 0x3A62 JUMPI RETURNDATASIZE PUSH0 DUP1 RETURNDATACOPY RETURNDATASIZE PUSH0 REVERT JUMPDEST POP POP POP PUSH1 0x20 PUSH1 0x40 MLOAD SUB MLOAD SWAP1 POP PUSH0 PUSH20 0xFFFFFFFFFFFFFFFFFFFFFFFFFFFFFFFFFFFFFFFF AND DUP2 PUSH20 0xFFFFFFFFFFFFFFFFFFFFFFFFFFFFFFFFFFFFFFFF AND SUB PUSH2 0x3AB3 JUMPI PUSH0 PUSH1 0x1 PUSH0 DUP1 SHL SWAP4 POP SWAP4 POP SWAP4 POP POP PUSH2 0x3AC0 JUMP JUMPDEST DUP1 PUSH0 DUP1 PUSH0 SHL SWAP4 POP SWAP4 POP SWAP4 POP POP JUMPDEST SWAP5 POP SWAP5 POP SWAP5 SWAP2 POP POP JUMP JUMPDEST PUSH0 PUSH1 0x3 DUP2 GT ISZERO PUSH2 0x3ADD JUMPI PUSH2 0x3ADC PUSH2 0x5D58 JUMP JUMPDEST JUMPDEST DUP3 PUSH1 0x3 DUP2 GT ISZERO PUSH2 0x3AF0 JUMPI PUSH2 0x3AEF PUSH2 0x5D58 JUMP JUMPDEST JUMPDEST SUB ISZERO PUSH2 0x3C28 JUMPI PUSH1 0x1 PUSH1 0x3 DUP2 GT ISZERO PUSH2 0x3B0A JUMPI PUSH2 0x3B09 PUSH2 0x5D58 JUMP JUMPDEST JUMPDEST DUP3 PUSH1 0x3 DUP2 GT ISZERO PUSH2 0x3B1D JUMPI PUSH2 0x3B1C PUSH2 0x5D58 JUMP JUMPDEST JUMPDEST SUB PUSH2 0x3B54 JUMPI PUSH1 0x40 MLOAD PUSH32 0xF645EEDF00000000000000000000000000000000000000000000000000000000 DUP2 MSTORE PUSH1 0x4 ADD PUSH1 0x40 MLOAD DUP1 SWAP2 SUB SWAP1 REVERT JUMPDEST PUSH1 0x2 PUSH1 0x3 DUP2 GT ISZERO PUSH2 0x3B68 JUMPI PUSH2 0x3B67 PUSH2 0x5D58 JUMP JUMPDEST JUMPDEST DUP3 PUSH1 0x3 DUP2 GT ISZERO PUSH2 0x3B7B JUMPI PUSH2 0x3B7A PUSH2 0x5D58 JUMP JUMPDEST JUMPDEST SUB PUSH2 0x3BBF JUMPI DUP1 PUSH0 SHR PUSH1 0x40 MLOAD PUSH32 0xFCE698F700000000000000000000000000000000000000000000000000000000 DUP2 MSTORE PUSH1 0x4 ADD PUSH2 0x3BB6 SWAP2 SWAP1 PUSH2 0x4CAC JUMP JUMPDEST PUSH1 0x40 MLOAD DUP1 SWAP2 SUB SWAP1 REVERT JUMPDEST PUSH1 0x3 DUP1 DUP2 GT ISZERO PUSH2 0x3BD2 JUMPI PUSH2 0x3BD1 PUSH2 0x5D58 JUMP JUMPDEST JUMPDEST DUP3 PUSH1 0x3 DUP2 GT ISZERO PUSH2 0x3BE5 JUMPI PUSH2 0x3BE4 PUSH2 0x5D58 JUMP JUMPDEST JUMPDEST SUB PUSH2 0x3C27 JUMPI DUP1 PUSH1 0x40 MLOAD PUSH32 0xD78BCE0C00000000000000000000000000000000000000000000000000000000 DUP2 MSTORE PUSH1 0x4 ADD PUSH2 0x3C1E SWAP2 SWAP1 PUSH2 0x4D82 JUMP JUMPDEST PUSH1 0x40 MLOAD DUP1 SWAP2 SUB SWAP1 REVERT JUMPDEST JUMPDEST POP POP JUMP JUMPDEST PUSH0 PUSH32 0x5AB42CED628888259C08AC98DB1EB0CF702FC1501344311D8B100CD1BFE4BB00 SWAP1 POP SWAP1 JUMP JUMPDEST PUSH2 0x3C5B PUSH2 0x4A00 JUMP JUMPDEST DUP3 PUSH0 ADD DUP3 PUSH4 0xFFFFFFFF AND DUP2 SLOAD DUP2 LT PUSH2 0x3C76 JUMPI PUSH2 0x3C75 PUSH2 0x5D85 JUMP JUMPDEST JUMPDEST SWAP1 PUSH0 MSTORE PUSH1 0x20 PUSH0 KECCAK256 ADD PUSH1 0x40 MLOAD DUP1 PUSH1 0x40 ADD PUSH1 0x40 MSTORE SWAP1 DUP2 PUSH0 DUP3 ADD PUSH0 SWAP1 SLOAD SWAP1 PUSH2 0x100 EXP SWAP1 DIV PUSH6 0xFFFFFFFFFFFF AND PUSH6 0xFFFFFFFFFFFF AND PUSH6 0xFFFFFFFFFFFF AND DUP2 MSTORE PUSH1 0x20 ADD PUSH0 DUP3 ADD PUSH1 0x6 SWAP1 SLOAD SWAP1 PUSH2 0x100 EXP SWAP1 DIV PUSH26 0xFFFFFFFFFFFFFFFFFFFFFFFFFFFFFFFFFFFFFFFFFFFFFFFFFFFF AND PUSH26 0xFFFFFFFFFFFFFFFFFFFFFFFFFFFFFFFFFFFFFFFFFFFFFFFFFFFF AND PUSH26 0xFFFFFFFFFFFFFFFFFFFFFFFFFFFFFFFFFFFFFFFFFFFFFFFFFFFF AND DUP2 MSTORE POP POP SWAP1 POP SWAP3 SWAP2 POP POP JUMP JUMPDEST PUSH2 0x3D2D DUP4 DUP4 DUP4 PUSH2 0x427A JUMP JUMPDEST PUSH0 PUSH20 0xFFFFFFFFFFFFFFFFFFFFFFFFFFFFFFFFFFFFFFFF AND DUP4 PUSH20 0xFFFFFFFFFFFFFFFFFFFFFFFFFFFFFFFFFFFFFFFF AND SUB PUSH2 0x3DC0 JUMPI PUSH0 PUSH2 0x3D69 PUSH2 0xD52 JUMP JUMPDEST SWAP1 POP PUSH0 PUSH2 0x3D74 PUSH2 0x4292 JUMP JUMPDEST SWAP1 POP DUP1 DUP3 GT ISZERO PUSH2 0x3DBD JUMPI DUP2 DUP2 PUSH1 0x40 MLOAD PUSH32 0x1CB15D2600000000000000000000000000000000000000000000000000000000 DUP2 MSTORE PUSH1 0x4 ADD PUSH2 0x3DB4 SWAP3 SWAP2 SWAP1 PUSH2 0x5A2B JUMP JUMPDEST PUSH1 0x40 MLOAD DUP1 SWAP2 SUB SWAP1 REVERT JUMPDEST POP POP JUMPDEST PUSH2 0x3DCB DUP4 DUP4 DUP4 PUSH2 0x42B5 JUMP JUMPDEST POP POP POP JUMP JUMPDEST PUSH0 DUP1 PUSH2 0x3DDA PUSH2 0x2BD6 JUMP JUMPDEST SWAP1 POP PUSH0 PUSH2 0x3DE5 PUSH2 0x2BFD JUMP JUMPDEST SWAP1 POP PUSH0 DUP2 MLOAD GT ISZERO PUSH2 0x3E01 JUMPI DUP1 DUP1 MLOAD SWAP1 PUSH1 0x20 ADD KECCAK256 SWAP3 POP POP POP PUSH2 0x3E43 JUMP JUMPDEST PUSH0 DUP3 PUSH0 ADD SLOAD SWAP1 POP PUSH0 DUP1 SHL DUP2 EQ PUSH2 0x3E1C JUMPI DUP1 SWAP4 POP POP POP POP PUSH2 0x3E43 JUMP JUMPDEST PUSH32 0xC5D2460186F7233C927E7DB2DCC703C0E500B653CA82273B7BFAD8045D85A470 SWAP4 POP POP POP POP JUMPDEST SWAP1 JUMP JUMPDEST PUSH0 DUP1 PUSH2 0x3E50 PUSH2 0x2BD6 JUMP JUMPDEST SWAP1 POP PUSH0 PUSH2 0x3E5B PUSH2 0x2C9B JUMP JUMPDEST SWAP1 POP PUSH0 DUP2 MLOAD GT ISZERO PUSH2 0x3E77 JUMPI DUP1 DUP1 MLOAD SWAP1 PUSH1 0x20 ADD KECCAK256 SWAP3 POP POP POP PUSH2 0x3EBA JUMP JUMPDEST PUSH0 DUP3 PUSH1 0x1 ADD SLOAD SWAP1 POP PUSH0 DUP1 SHL DUP2 EQ PUSH2 0x3E93 JUMPI DUP1 SWAP4 POP POP POP POP PUSH2 0x3EBA JUMP JUMPDEST PUSH32 0xC5D2460186F7233C927E7DB2DCC703C0E500B653CA82273B7BFAD8045D85A470 SWAP4 POP POP POP POP JUMPDEST SWAP1 JUMP JUMPDEST PUSH0 DUP1 PUSH0 SWAP1 POP PUSH0 PUSH1 0x80 DUP5 SWAP1 SHR GT ISZERO PUSH2 0x3EDC JUMPI PUSH1 0x80 DUP4 SWAP1 SHR SWAP3 POP PUSH1 0x80 DUP2 ADD SWAP1 POP JUMPDEST PUSH0 PUSH1 0x40 DUP5 SWAP1 SHR GT ISZERO PUSH2 0x3EF6 JUMPI PUSH1 0x40 DUP4 SWAP1 SHR SWAP3 POP PUSH1 0x40 DUP2 ADD SWAP1 POP JUMPDEST PUSH0 PUSH1 0x20 DUP5 SWAP1 SHR GT ISZERO PUSH2 0x3F10 JUMPI PUSH1 0x20 DUP4 SWAP1 SHR SWAP3 POP PUSH1 0x20 DUP2 ADD SWAP1 POP JUMPDEST PUSH0 PUSH1 0x10 DUP5 SWAP1 SHR GT ISZERO PUSH2 0x3F2A JUMPI PUSH1 0x10 DUP4 SWAP1 SHR SWAP3 POP PUSH1 0x10 DUP2 ADD SWAP1 POP JUMPDEST PUSH0 PUSH1 0x8 DUP5 SWAP1 SHR GT ISZERO PUSH2 0x3F44 JUMPI PUSH1 0x8 DUP4 SWAP1 SHR SWAP3 POP PUSH1 0x8 DUP2 ADD SWAP1 POP JUMPDEST PUSH0 PUSH1 0x4 DUP5 SWAP1 SHR GT ISZERO PUSH2 0x3F5E JUMPI PUSH1 0x4 DUP4 SWAP1 SHR SWAP3 POP PUSH1 0x4 DUP2 ADD SWAP1 POP JUMPDEST PUSH0 PUSH1 0x2 DUP5 SWAP1 SHR GT ISZERO PUSH2 0x3F78 JUMPI PUSH1 0x2 DUP4 SWAP1 SHR SWAP3 POP PUSH1 0x2 DUP2 ADD SWAP1 POP JUMPDEST PUSH0 PUSH1 0x1 DUP5 SWAP1 SHR GT ISZERO PUSH2 0x3F8B JUMPI PUSH1 0x1 DUP2 ADD SWAP1 POP JUMPDEST DUP1 SWAP2 POP POP SWAP2 SWAP1 POP JUMP JUMPDEST PUSH0 DUP2 DUP4 LT PUSH2 0x3FA2 JUMPI DUP2 PUSH2 0x3FA4 JUMP JUMPDEST DUP3 JUMPDEST SWAP1 POP SWAP3 SWAP2 POP POP JUMP JUMPDEST PUSH0 PUSH1 0x2 DUP3 DUP5 XOR PUSH2 0x3FBC SWAP2 SWAP1 PUSH2 0x5DB2 JUMP JUMPDEST DUP3 DUP5 AND PUSH2 0x3FC9 SWAP2 SWAP1 PUSH2 0x554C JUMP JUMPDEST SWAP1 POP SWAP3 SWAP2 POP POP JUMP JUMPDEST PUSH0 DUP2 SWAP1 POP SWAP2 SWAP1 POP JUMP JUMPDEST PUSH0 DUP2 PUSH20 0xFFFFFFFFFFFFFFFFFFFFFFFFFFFFFFFFFFFFFFFF AND EXTCODESIZE SUB PUSH2 0x4035 JUMPI DUP1 PUSH1 0x40 MLOAD PUSH32 0x4C9C8CE300000000000000000000000000000000000000000000000000000000 DUP2 MSTORE PUSH1 0x4 ADD PUSH2 0x402C SWAP2 SWAP1 PUSH2 0x4B3F JUMP JUMPDEST PUSH1 0x40 MLOAD DUP1 SWAP2 SUB SWAP1 REVERT JUMPDEST DUP1 PUSH2 0x4061 PUSH32 0x360894A13BA1A3210667C828492DB98DCA3E2076CC3735A920A3CA505D382BBC PUSH0 SHL PUSH2 0x3FD1 JUMP JUMPDEST PUSH0 ADD PUSH0 PUSH2 0x100 EXP DUP2 SLOAD DUP2 PUSH20 0xFFFFFFFFFFFFFFFFFFFFFFFFFFFFFFFFFFFFFFFF MUL NOT AND SWAP1 DUP4 PUSH20 0xFFFFFFFFFFFFFFFFFFFFFFFFFFFFFFFFFFFFFFFF AND MUL OR SWAP1 SSTORE POP POP JUMP JUMPDEST PUSH1 0x60 PUSH0 DUP1 DUP5 PUSH20 0xFFFFFFFFFFFFFFFFFFFFFFFFFFFFFFFFFFFFFFFF AND DUP5 PUSH1 0x40 MLOAD PUSH2 0x40CC SWAP2 SWAP1 PUSH2 0x5E26 JUMP JUMPDEST PUSH0 PUSH1 0x40 MLOAD DUP1 DUP4 SUB DUP2 DUP6 GAS DELEGATECALL SWAP2 POP POP RETURNDATASIZE DUP1 PUSH0 DUP2 EQ PUSH2 0x4104 JUMPI PUSH1 0x40 MLOAD SWAP2 POP PUSH1 0x1F NOT PUSH1 0x3F RETURNDATASIZE ADD AND DUP3 ADD PUSH1 0x40 MSTORE RETURNDATASIZE DUP3 MSTORE RETURNDATASIZE PUSH0 PUSH1 0x20 DUP5 ADD RETURNDATACOPY PUSH2 0x4109 JUMP JUMPDEST PUSH1 0x60 SWAP2 POP JUMPDEST POP SWAP2 POP SWAP2 POP PUSH2 0x4119 DUP6 DUP4 DUP4 PUSH2 0x437D JUMP JUMPDEST SWAP3 POP POP POP SWAP3 SWAP2 POP POP JUMP JUMPDEST PUSH0 CALLVALUE GT ISZERO PUSH2 0x415D JUMPI PUSH1 0x40 MLOAD PUSH32 0xB398979F00000000000000000000000000000000000000000000000000000000 DUP2 MSTORE PUSH1 0x4 ADD PUSH1 0x40 MLOAD DUP1 SWAP2 SUB SWAP1 REVERT JUMPDEST JUMP JUMPDEST PUSH0 DUP2 DUP4 PUSH2 0x416C SWAP2 SWAP1 PUSH2 0x5E3C JUMP JUMPDEST SWAP1 POP SWAP3 SWAP2 POP POP JUMP JUMPDEST PUSH0 PUSH26 0xFFFFFFFFFFFFFFFFFFFFFFFFFFFFFFFFFFFFFFFFFFFFFFFFFFFF DUP1 AND DUP3 GT ISZERO PUSH2 0x41D9 JUMPI PUSH1 0xD0 DUP3 PUSH1 0x40 MLOAD PUSH32 0x6DFCC65000000000000000000000000000000000000000000000000000000000 DUP2 MSTORE PUSH1 0x4 ADD PUSH2 0x41D0 SWAP3 SWAP2 SWAP1 PUSH2 0x5EC2 JUMP JUMPDEST PUSH1 0x40 MLOAD DUP1 SWAP2 SUB SWAP1 REVERT JUMPDEST DUP2 SWAP1 POP SWAP2 SWAP1 POP JUMP JUMPDEST PUSH0 DUP1 PUSH2 0x4214 PUSH2 0x41EE PUSH2 0x159D JUMP JUMPDEST PUSH2 0x4204 PUSH2 0x41FA DUP9 PUSH2 0x2D39 JUMP JUMPDEST DUP7 DUP9 PUSH4 0xFFFFFFFF AND JUMP JUMPDEST DUP8 PUSH2 0x440A SWAP1 SWAP3 SWAP2 SWAP1 PUSH4 0xFFFFFFFF AND JUMP JUMPDEST SWAP2 POP SWAP2 POP SWAP4 POP SWAP4 SWAP2 POP POP JUMP JUMPDEST PUSH0 DUP2 DUP4 PUSH2 0x422D SWAP2 SWAP1 PUSH2 0x5EE9 JUMP JUMPDEST SWAP1 POP SWAP3 SWAP2 POP POP JUMP JUMPDEST PUSH0 PUSH2 0x423E PUSH2 0x2D9B JUMP JUMPDEST PUSH0 ADD PUSH1 0x8 SWAP1 SLOAD SWAP1 PUSH2 0x100 EXP SWAP1 DIV PUSH1 0xFF AND SWAP1 POP SWAP1 JUMP JUMPDEST PUSH0 PUSH32 0x9B779B17422D0DF92223018B32B4D1FA46E071723D6817E2486D003BECC55F00 SWAP1 POP SWAP1 JUMP JUMPDEST PUSH2 0x4282 PUSH2 0x3846 JUMP JUMPDEST PUSH2 0x428D DUP4 DUP4 DUP4 PUSH2 0x4425 JUMP JUMPDEST POP POP POP JUMP JUMPDEST PUSH0 PUSH26 0xFFFFFFFFFFFFFFFFFFFFFFFFFFFFFFFFFFFFFFFFFFFFFFFFFFFF DUP1 AND SWAP1 POP SWAP1 JUMP JUMPDEST PUSH0 PUSH2 0x42BE PUSH2 0x241D JUMP JUMPDEST SWAP1 POP PUSH0 PUSH20 0xFFFFFFFFFFFFFFFFFFFFFFFFFFFFFFFFFFFFFFFF AND DUP5 PUSH20 0xFFFFFFFFFFFFFFFFFFFFFFFFFFFFFFFFFFFFFFFF AND SUB PUSH2 0x430E JUMPI PUSH2 0x430B DUP2 PUSH1 0x2 ADD PUSH2 0x4220 PUSH2 0x4306 DUP6 PUSH2 0x4174 JUMP JUMPDEST PUSH2 0x41E1 JUMP JUMPDEST POP POP JUMPDEST PUSH0 PUSH20 0xFFFFFFFFFFFFFFFFFFFFFFFFFFFFFFFFFFFFFFFF AND DUP4 PUSH20 0xFFFFFFFFFFFFFFFFFFFFFFFFFFFFFFFFFFFFFFFF AND SUB PUSH2 0x435C JUMPI PUSH2 0x4359 DUP2 PUSH1 0x2 ADD PUSH2 0x415F PUSH2 0x4354 DUP6 PUSH2 0x4174 JUMP JUMPDEST PUSH2 0x41E1 JUMP JUMPDEST POP POP JUMPDEST PUSH2 0x4377 PUSH2 0x4368 DUP6 PUSH2 0x10DE JUMP JUMPDEST PUSH2 0x4371 DUP6 PUSH2 0x10DE JUMP JUMPDEST DUP5 PUSH2 0x350D JUMP JUMPDEST POP POP POP POP JUMP JUMPDEST PUSH1 0x60 DUP3 PUSH2 0x4392 JUMPI PUSH2 0x438D DUP3 PUSH2 0x4654 JUMP JUMPDEST PUSH2 0x4402 JUMP JUMPDEST PUSH0 DUP3 MLOAD EQ DUP1 ISZERO PUSH2 0x43B8 JUMPI POP PUSH0 DUP5 PUSH20 0xFFFFFFFFFFFFFFFFFFFFFFFFFFFFFFFFFFFFFFFF AND EXTCODESIZE EQ JUMPDEST ISZERO PUSH2 0x43FA JUMPI DUP4 PUSH1 0x40 MLOAD PUSH32 0x9996B31500000000000000000000000000000000000000000000000000000000 DUP2 MSTORE PUSH1 0x4 ADD PUSH2 0x43F1 SWAP2 SWAP1 PUSH2 0x4B3F JUMP JUMPDEST PUSH1 0x40 MLOAD DUP1 SWAP2 SUB SWAP1 REVERT JUMPDEST DUP2 SWAP1 POP PUSH2 0x4403 JUMP JUMPDEST JUMPDEST SWAP4 SWAP3 POP POP POP JUMP JUMPDEST PUSH0 DUP1 PUSH2 0x4419 DUP6 PUSH0 ADD DUP6 DUP6 PUSH2 0x4698 JUMP JUMPDEST SWAP2 POP SWAP2 POP SWAP4 POP SWAP4 SWAP2 POP POP JUMP JUMPDEST PUSH0 PUSH2 0x442E PUSH2 0x2022 JUMP JUMPDEST SWAP1 POP PUSH0 PUSH20 0xFFFFFFFFFFFFFFFFFFFFFFFFFFFFFFFFFFFFFFFF AND DUP5 PUSH20 0xFFFFFFFFFFFFFFFFFFFFFFFFFFFFFFFFFFFFFFFF AND SUB PUSH2 0x4482 JUMPI DUP2 DUP2 PUSH1 0x2 ADD PUSH0 DUP3 DUP3 SLOAD PUSH2 0x4476 SWAP2 SWAP1 PUSH2 0x554C JUMP JUMPDEST SWAP3 POP POP DUP2 SWAP1 SSTORE POP PUSH2 0x4554 JUMP JUMPDEST PUSH0 DUP2 PUSH0 ADD PUSH0 DUP7 PUSH20 0xFFFFFFFFFFFFFFFFFFFFFFFFFFFFFFFFFFFFFFFF AND PUSH20 0xFFFFFFFFFFFFFFFFFFFFFFFFFFFFFFFFFFFFFFFF AND DUP2 MSTORE PUSH1 0x20 ADD SWAP1 DUP2 MSTORE PUSH1 0x20 ADD PUSH0 KECCAK256 SLOAD SWAP1 POP DUP3 DUP2 LT ISZERO PUSH2 0x450D JUMPI DUP5 DUP2 DUP5 PUSH1 0x40 MLOAD PUSH32 0xE450D38C00000000000000000000000000000000000000000000000000000000 DUP2 MSTORE PUSH1 0x4 ADD PUSH2 0x4504 SWAP4 SWAP3 SWAP2 SWAP1 PUSH2 0x58B2 JUMP JUMPDEST PUSH1 0x40 MLOAD DUP1 SWAP2 SUB SWAP1 REVERT JUMPDEST DUP3 DUP2 SUB DUP3 PUSH0 ADD PUSH0 DUP8 PUSH20 0xFFFFFFFFFFFFFFFFFFFFFFFFFFFFFFFFFFFFFFFF AND PUSH20 0xFFFFFFFFFFFFFFFFFFFFFFFFFFFFFFFFFFFFFFFF AND DUP2 MSTORE PUSH1 0x20 ADD SWAP1 DUP2 MSTORE PUSH1 0x20 ADD PUSH0 KECCAK256 DUP2 SWAP1 SSTORE POP POP JUMPDEST PUSH0 PUSH20 0xFFFFFFFFFFFFFFFFFFFFFFFFFFFFFFFFFFFFFFFF AND DUP4 PUSH20 0xFFFFFFFFFFFFFFFFFFFFFFFFFFFFFFFFFFFFFFFF AND SUB PUSH2 0x459D JUMPI DUP2 DUP2 PUSH1 0x2 ADD PUSH0 DUP3 DUP3 SLOAD SUB SWAP3 POP POP DUP2 SWAP1 SSTORE POP PUSH2 0x45E9 JUMP JUMPDEST DUP2 DUP2 PUSH0 ADD PUSH0 DUP6 PUSH20 0xFFFFFFFFFFFFFFFFFFFFFFFFFFFFFFFFFFFFFFFF AND PUSH20 0xFFFFFFFFFFFFFFFFFFFFFFFFFFFFFFFFFFFFFFFF AND DUP2 MSTORE PUSH1 0x20 ADD SWAP1 DUP2 MSTORE PUSH1 0x20 ADD PUSH0 KECCAK256 PUSH0 DUP3 DUP3 SLOAD ADD SWAP3 POP POP DUP2 SWAP1 SSTORE POP JUMPDEST DUP3 PUSH20 0xFFFFFFFFFFFFFFFFFFFFFFFFFFFFFFFFFFFFFFFF AND DUP5 PUSH20 0xFFFFFFFFFFFFFFFFFFFFFFFFFFFFFFFFFFFFFFFF AND PUSH32 0xDDF252AD1BE2C89B69C2B068FC378DAA952BA7F163C4A11628F55A4DF523B3EF DUP5 PUSH1 0x40 MLOAD PUSH2 0x4646 SWAP2 SWAP1 PUSH2 0x4CAC JUMP JUMPDEST PUSH1 0x40 MLOAD DUP1 SWAP2 SUB SWAP1 LOG3 POP POP POP POP JUMP JUMPDEST PUSH0 DUP2 MLOAD GT ISZERO PUSH2 0x4666 JUMPI DUP1 MLOAD DUP1 DUP3 PUSH1 0x20 ADD REVERT JUMPDEST PUSH1 0x40 MLOAD PUSH32 0x1425EA4200000000000000000000000000000000000000000000000000000000 DUP2 MSTORE PUSH1 0x4 ADD PUSH1 0x40 MLOAD DUP1 SWAP2 SUB SWAP1 REVERT JUMPDEST PUSH0 DUP1 PUSH0 DUP6 DUP1 SLOAD SWAP1 POP SWAP1 POP PUSH0 DUP2 GT ISZERO PUSH2 0x4918 JUMPI PUSH0 PUSH2 0x46C1 DUP8 PUSH1 0x1 DUP5 PUSH2 0x46BC SWAP2 SWAP1 PUSH2 0x5748 JUMP JUMPDEST PUSH2 0x3370 JUMP JUMPDEST PUSH1 0x40 MLOAD DUP1 PUSH1 0x40 ADD PUSH1 0x40 MSTORE SWAP1 DUP2 PUSH0 DUP3 ADD PUSH0 SWAP1 SLOAD SWAP1 PUSH2 0x100 EXP SWAP1 DIV PUSH6 0xFFFFFFFFFFFF AND PUSH6 0xFFFFFFFFFFFF AND PUSH6 0xFFFFFFFFFFFF AND DUP2 MSTORE PUSH1 0x20 ADD PUSH0 DUP3 ADD PUSH1 0x6 SWAP1 SLOAD SWAP1 PUSH2 0x100 EXP SWAP1 DIV PUSH26 0xFFFFFFFFFFFFFFFFFFFFFFFFFFFFFFFFFFFFFFFFFFFFFFFFFFFF AND PUSH26 0xFFFFFFFFFFFFFFFFFFFFFFFFFFFFFFFFFFFFFFFFFFFFFFFFFFFF AND PUSH26 0xFFFFFFFFFFFFFFFFFFFFFFFFFFFFFFFFFFFFFFFFFFFFFFFFFFFF AND DUP2 MSTORE POP POP SWAP1 POP DUP6 PUSH6 0xFFFFFFFFFFFF AND DUP2 PUSH0 ADD MLOAD PUSH6 0xFFFFFFFFFFFF AND GT ISZERO PUSH2 0x47AC JUMPI PUSH1 0x40 MLOAD PUSH32 0x2520601D00000000000000000000000000000000000000000000000000000000 DUP2 MSTORE PUSH1 0x4 ADD PUSH1 0x40 MLOAD DUP1 SWAP2 SUB SWAP1 REVERT JUMPDEST DUP6 PUSH6 0xFFFFFFFFFFFF AND DUP2 PUSH0 ADD MLOAD PUSH6 0xFFFFFFFFFFFF AND SUB PUSH2 0x482E JUMPI DUP5 PUSH2 0x47DD DUP9 PUSH1 0x1 DUP6 PUSH2 0x47D8 SWAP2 SWAP1 PUSH2 0x5748 JUMP JUMPDEST PUSH2 0x3370 JUMP JUMPDEST PUSH0 ADD PUSH1 0x6 PUSH2 0x100 EXP DUP2 SLOAD DUP2 PUSH26 0xFFFFFFFFFFFFFFFFFFFFFFFFFFFFFFFFFFFFFFFFFFFFFFFFFFFF MUL NOT AND SWAP1 DUP4 PUSH26 0xFFFFFFFFFFFFFFFFFFFFFFFFFFFFFFFFFFFFFFFFFFFFFFFFFFFF AND MUL OR SWAP1 SSTORE POP PUSH2 0x4907 JUMP JUMPDEST DUP7 PUSH1 0x40 MLOAD DUP1 PUSH1 0x40 ADD PUSH1 0x40 MSTORE DUP1 DUP9 PUSH6 0xFFFFFFFFFFFF AND DUP2 MSTORE PUSH1 0x20 ADD DUP8 PUSH26 0xFFFFFFFFFFFFFFFFFFFFFFFFFFFFFFFFFFFFFFFFFFFFFFFFFFFF AND DUP2 MSTORE POP SWAP1 DUP1 PUSH1 0x1 DUP2 SLOAD ADD DUP1 DUP3 SSTORE DUP1 SWAP2 POP POP PUSH1 0x1 SWAP1 SUB SWAP1 PUSH0 MSTORE PUSH1 0x20 PUSH0 KECCAK256 ADD PUSH0 SWAP1 SWAP2 SWAP1 SWAP2 SWAP1 SWAP2 POP PUSH0 DUP3 ADD MLOAD DUP2 PUSH0 ADD PUSH0 PUSH2 0x100 EXP DUP2 SLOAD DUP2 PUSH6 0xFFFFFFFFFFFF MUL NOT AND SWAP1 DUP4 PUSH6 0xFFFFFFFFFFFF AND MUL OR SWAP1 SSTORE POP PUSH1 0x20 DUP3 ADD MLOAD DUP2 PUSH0 ADD PUSH1 0x6 PUSH2 0x100 EXP DUP2 SLOAD DUP2 PUSH26 0xFFFFFFFFFFFFFFFFFFFFFFFFFFFFFFFFFFFFFFFFFFFFFFFFFFFF MUL NOT AND SWAP1 DUP4 PUSH26 0xFFFFFFFFFFFFFFFFFFFFFFFFFFFFFFFFFFFFFFFFFFFFFFFFFFFF AND MUL OR SWAP1 SSTORE POP POP POP JUMPDEST DUP1 PUSH1 0x20 ADD MLOAD DUP6 SWAP4 POP SWAP4 POP POP POP PUSH2 0x49F8 JUMP JUMPDEST DUP6 PUSH1 0x40 MLOAD DUP1 PUSH1 0x40 ADD PUSH1 0x40 MSTORE DUP1 DUP8 PUSH6 0xFFFFFFFFFFFF AND DUP2 MSTORE PUSH1 0x20 ADD DUP7 PUSH26 0xFFFFFFFFFFFFFFFFFFFFFFFFFFFFFFFFFFFFFFFFFFFFFFFFFFFF AND DUP2 MSTORE POP SWAP1 DUP1 PUSH1 0x1 DUP2 SLOAD ADD DUP1 DUP3 SSTORE DUP1 SWAP2 POP POP PUSH1 0x1 SWAP1 SUB SWAP1 PUSH0 MSTORE PUSH1 0x20 PUSH0 KECCAK256 ADD PUSH0 SWAP1 SWAP2 SWAP1 SWAP2 SWAP1 SWAP2 POP PUSH0 DUP3 ADD MLOAD DUP2 PUSH0 ADD PUSH0 PUSH2 0x100 EXP DUP2 SLOAD DUP2 PUSH6 0xFFFFFFFFFFFF MUL NOT AND SWAP1 DUP4 PUSH6 0xFFFFFFFFFFFF AND MUL OR SWAP1 SSTORE POP PUSH1 0x20 DUP3 ADD MLOAD DUP2 PUSH0 ADD PUSH1 0x6 PUSH2 0x100 EXP DUP2 SLOAD DUP2 PUSH26 0xFFFFFFFFFFFFFFFFFFFFFFFFFFFFFFFFFFFFFFFFFFFFFFFFFFFF MUL NOT AND SWAP1 DUP4 PUSH26 0xFFFFFFFFFFFFFFFFFFFFFFFFFFFFFFFFFFFFFFFFFFFFFFFFFFFF AND MUL OR SWAP1 SSTORE POP POP POP PUSH0 DUP5 SWAP3 POP SWAP3 POP POP JUMPDEST SWAP4 POP SWAP4 SWAP2 POP POP JUMP JUMPDEST PUSH1 0x40 MLOAD DUP1 PUSH1 0x40 ADD PUSH1 0x40 MSTORE DUP1 PUSH0 PUSH6 0xFFFFFFFFFFFF AND DUP2 MSTORE PUSH1 0x20 ADD PUSH0 PUSH26 0xFFFFFFFFFFFFFFFFFFFFFFFFFFFFFFFFFFFFFFFFFFFFFFFFFFFF AND DUP2 MSTORE POP SWAP1 JUMP JUMPDEST PUSH0 PUSH1 0x40 MLOAD SWAP1 POP SWAP1 JUMP JUMPDEST PUSH0 DUP1 REVERT JUMPDEST PUSH0 DUP1 REVERT JUMPDEST PUSH0 PUSH32 0xFFFFFFFF00000000000000000000000000000000000000000000000000000000 DUP3 AND SWAP1 POP SWAP2 SWAP1 POP JUMP JUMPDEST PUSH2 0x4A81 DUP2 PUSH2 0x4A4D JUMP JUMPDEST DUP2 EQ PUSH2 0x4A8B JUMPI PUSH0 DUP1 REVERT JUMPDEST POP JUMP JUMPDEST PUSH0 DUP2 CALLDATALOAD SWAP1 POP PUSH2 0x4A9C DUP2 PUSH2 0x4A78 JUMP JUMPDEST SWAP3 SWAP2 POP POP JUMP JUMPDEST PUSH0 PUSH1 0x20 DUP3 DUP5 SUB SLT ISZERO PUSH2 0x4AB7 JUMPI PUSH2 0x4AB6 PUSH2 0x4A45 JUMP JUMPDEST JUMPDEST PUSH0 PUSH2 0x4AC4 DUP5 DUP3 DUP6 ADD PUSH2 0x4A8E JUMP JUMPDEST SWAP2 POP POP SWAP3 SWAP2 POP POP JUMP JUMPDEST PUSH0 DUP2 ISZERO ISZERO SWAP1 POP SWAP2 SWAP1 POP JUMP JUMPDEST PUSH2 0x4AE1 DUP2 PUSH2 0x4ACD JUMP JUMPDEST DUP3 MSTORE POP POP JUMP JUMPDEST PUSH0 PUSH1 0x20 DUP3 ADD SWAP1 POP PUSH2 0x4AFA PUSH0 DUP4 ADD DUP5 PUSH2 0x4AD8 JUMP JUMPDEST SWAP3 SWAP2 POP POP JUMP JUMPDEST PUSH0 PUSH20 0xFFFFFFFFFFFFFFFFFFFFFFFFFFFFFFFFFFFFFFFF DUP3 AND SWAP1 POP SWAP2 SWAP1 POP JUMP JUMPDEST PUSH0 PUSH2 0x4B29 DUP3 PUSH2 0x4B00 JUMP JUMPDEST SWAP1 POP SWAP2 SWAP1 POP JUMP JUMPDEST PUSH2 0x4B39 DUP2 PUSH2 0x4B1F JUMP JUMPDEST DUP3 MSTORE POP POP JUMP JUMPDEST PUSH0 PUSH1 0x20 DUP3 ADD SWAP1 POP PUSH2 0x4B52 PUSH0 DUP4 ADD DUP5 PUSH2 0x4B30 JUMP JUMPDEST SWAP3 SWAP2 POP POP JUMP JUMPDEST PUSH0 DUP2 MLOAD SWAP1 POP SWAP2 SWAP1 POP JUMP JUMPDEST PUSH0 DUP3 DUP3 MSTORE PUSH1 0x20 DUP3 ADD SWAP1 POP SWAP3 SWAP2 POP POP JUMP JUMPDEST PUSH0 JUMPDEST DUP4 DUP2 LT ISZERO PUSH2 0x4B8F JUMPI DUP1 DUP3 ADD MLOAD DUP2 DUP5 ADD MSTORE PUSH1 0x20 DUP2 ADD SWAP1 POP PUSH2 0x4B74 JUMP JUMPDEST PUSH0 DUP5 DUP5 ADD MSTORE POP POP POP POP JUMP JUMPDEST PUSH0 PUSH1 0x1F NOT PUSH1 0x1F DUP4 ADD AND SWAP1 POP SWAP2 SWAP1 POP JUMP JUMPDEST PUSH0 PUSH2 0x4BB4 DUP3 PUSH2 0x4B58 JUMP JUMPDEST PUSH2 0x4BBE DUP2 DUP6 PUSH2 0x4B62 JUMP JUMPDEST SWAP4 POP PUSH2 0x4BCE DUP2 DUP6 PUSH1 0x20 DUP7 ADD PUSH2 0x4B72 JUMP JUMPDEST PUSH2 0x4BD7 DUP2 PUSH2 0x4B9A JUMP JUMPDEST DUP5 ADD SWAP2 POP POP SWAP3 SWAP2 POP POP JUMP JUMPDEST PUSH0 PUSH1 0x20 DUP3 ADD SWAP1 POP DUP2 DUP2 SUB PUSH0 DUP4 ADD MSTORE PUSH2 0x4BFA DUP2 DUP5 PUSH2 0x4BAA JUMP JUMPDEST SWAP1 POP SWAP3 SWAP2 POP POP JUMP JUMPDEST PUSH2 0x4C0B DUP2 PUSH2 0x4B1F JUMP JUMPDEST DUP2 EQ PUSH2 0x4C15 JUMPI PUSH0 DUP1 REVERT JUMPDEST POP JUMP JUMPDEST PUSH0 DUP2 CALLDATALOAD SWAP1 POP PUSH2 0x4C26 DUP2 PUSH2 0x4C02 JUMP JUMPDEST SWAP3 SWAP2 POP POP JUMP JUMPDEST PUSH0 DUP2 SWAP1 POP SWAP2 SWAP1 POP JUMP JUMPDEST PUSH2 0x4C3E DUP2 PUSH2 0x4C2C JUMP JUMPDEST DUP2 EQ PUSH2 0x4C48 JUMPI PUSH0 DUP1 REVERT JUMPDEST POP JUMP JUMPDEST PUSH0 DUP2 CALLDATALOAD SWAP1 POP PUSH2 0x4C59 DUP2 PUSH2 0x4C35 JUMP JUMPDEST SWAP3 SWAP2 POP POP JUMP JUMPDEST PUSH0 DUP1 PUSH1 0x40 DUP4 DUP6 SUB SLT ISZERO PUSH2 0x4C75 JUMPI PUSH2 0x4C74 PUSH2 0x4A45 JUMP JUMPDEST JUMPDEST PUSH0 PUSH2 0x4C82 DUP6 DUP3 DUP7 ADD PUSH2 0x4C18 JUMP JUMPDEST SWAP3 POP POP PUSH1 0x20 PUSH2 0x4C93 DUP6 DUP3 DUP7 ADD PUSH2 0x4C4B JUMP JUMPDEST SWAP2 POP POP SWAP3 POP SWAP3 SWAP1 POP JUMP JUMPDEST PUSH2 0x4CA6 DUP2 PUSH2 0x4C2C JUMP JUMPDEST DUP3 MSTORE POP POP JUMP JUMPDEST PUSH0 PUSH1 0x20 DUP3 ADD SWAP1 POP PUSH2 0x4CBF PUSH0 DUP4 ADD DUP5 PUSH2 0x4C9D JUMP JUMPDEST SWAP3 SWAP2 POP POP JUMP JUMPDEST PUSH0 DUP1 PUSH0 PUSH1 0x60 DUP5 DUP7 SUB SLT ISZERO PUSH2 0x4CDC JUMPI PUSH2 0x4CDB PUSH2 0x4A45 JUMP JUMPDEST JUMPDEST PUSH0 PUSH2 0x4CE9 DUP7 DUP3 DUP8 ADD PUSH2 0x4C18 JUMP JUMPDEST SWAP4 POP POP PUSH1 0x20 PUSH2 0x4CFA DUP7 DUP3 DUP8 ADD PUSH2 0x4C18 JUMP JUMPDEST SWAP3 POP POP PUSH1 0x40 PUSH2 0x4D0B DUP7 DUP3 DUP8 ADD PUSH2 0x4C4B JUMP JUMPDEST SWAP2 POP POP SWAP3 POP SWAP3 POP SWAP3 JUMP JUMPDEST PUSH0 DUP2 SWAP1 POP SWAP2 SWAP1 POP JUMP JUMPDEST PUSH2 0x4D27 DUP2 PUSH2 0x4D15 JUMP JUMPDEST DUP2 EQ PUSH2 0x4D31 JUMPI PUSH0 DUP1 REVERT JUMPDEST POP JUMP JUMPDEST PUSH0 DUP2 CALLDATALOAD SWAP1 POP PUSH2 0x4D42 DUP2 PUSH2 0x4D1E JUMP JUMPDEST SWAP3 SWAP2 POP POP JUMP JUMPDEST PUSH0 PUSH1 0x20 DUP3 DUP5 SUB SLT ISZERO PUSH2 0x4D5D JUMPI PUSH2 0x4D5C PUSH2 0x4A45 JUMP JUMPDEST JUMPDEST PUSH0 PUSH2 0x4D6A DUP5 DUP3 DUP6 ADD PUSH2 0x4D34 JUMP JUMPDEST SWAP2 POP POP SWAP3 SWAP2 POP POP JUMP JUMPDEST PUSH2 0x4D7C DUP2 PUSH2 0x4D15 JUMP JUMPDEST DUP3 MSTORE POP POP JUMP JUMPDEST PUSH0 PUSH1 0x20 DUP3 ADD SWAP1 POP PUSH2 0x4D95 PUSH0 DUP4 ADD DUP5 PUSH2 0x4D73 JUMP JUMPDEST SWAP3 SWAP2 POP POP JUMP JUMPDEST PUSH0 DUP1 PUSH1 0x40 DUP4 DUP6 SUB SLT ISZERO PUSH2 0x4DB1 JUMPI PUSH2 0x4DB0 PUSH2 0x4A45 JUMP JUMPDEST JUMPDEST PUSH0 PUSH2 0x4DBE DUP6 DUP3 DUP7 ADD PUSH2 0x4D34 JUMP JUMPDEST SWAP3 POP POP PUSH1 0x20 PUSH2 0x4DCF DUP6 DUP3 DUP7 ADD PUSH2 0x4C18 JUMP JUMPDEST SWAP2 POP POP SWAP3 POP SWAP3 SWAP1 POP JUMP JUMPDEST PUSH0 PUSH1 0xFF DUP3 AND SWAP1 POP SWAP2 SWAP1 POP JUMP JUMPDEST PUSH2 0x4DEE DUP2 PUSH2 0x4DD9 JUMP JUMPDEST DUP3 MSTORE POP POP JUMP JUMPDEST PUSH0 PUSH1 0x20 DUP3 ADD SWAP1 POP PUSH2 0x4E07 PUSH0 DUP4 ADD DUP5 PUSH2 0x4DE5 JUMP JUMPDEST SWAP3 SWAP2 POP POP JUMP JUMPDEST PUSH0 PUSH1 0x20 DUP3 DUP5 SUB SLT ISZERO PUSH2 0x4E22 JUMPI PUSH2 0x4E21 PUSH2 0x4A45 JUMP JUMPDEST JUMPDEST PUSH0 PUSH2 0x4E2F DUP5 DUP3 DUP6 ADD PUSH2 0x4C4B JUMP JUMPDEST SWAP2 POP POP SWAP3 SWAP2 POP POP JUMP JUMPDEST PUSH0 DUP1 REVERT JUMPDEST PUSH0 DUP1 REVERT JUMPDEST PUSH32 0x4E487B7100000000000000000000000000000000000000000000000000000000 PUSH0 MSTORE PUSH1 0x41 PUSH1 0x4 MSTORE PUSH1 0x24 PUSH0 REVERT JUMPDEST PUSH2 0x4E76 DUP3 PUSH2 0x4B9A JUMP JUMPDEST DUP2 ADD DUP2 DUP2 LT PUSH8 0xFFFFFFFFFFFFFFFF DUP3 GT OR ISZERO PUSH2 0x4E95 JUMPI PUSH2 0x4E94 PUSH2 0x4E40 JUMP JUMPDEST JUMPDEST DUP1 PUSH1 0x40 MSTORE POP POP POP JUMP JUMPDEST PUSH0 PUSH2 0x4EA7 PUSH2 0x4A3C JUMP JUMPDEST SWAP1 POP PUSH2 0x4EB3 DUP3 DUP3 PUSH2 0x4E6D JUMP JUMPDEST SWAP2 SWAP1 POP JUMP JUMPDEST PUSH0 PUSH8 0xFFFFFFFFFFFFFFFF DUP3 GT ISZERO PUSH2 0x4ED2 JUMPI PUSH2 0x4ED1 PUSH2 0x4E40 JUMP JUMPDEST JUMPDEST PUSH2 0x4EDB DUP3 PUSH2 0x4B9A JUMP JUMPDEST SWAP1 POP PUSH1 0x20 DUP2 ADD SWAP1 POP SWAP2 SWAP1 POP JUMP JUMPDEST DUP3 DUP2 DUP4 CALLDATACOPY PUSH0 DUP4 DUP4 ADD MSTORE POP POP POP JUMP JUMPDEST PUSH0 PUSH2 0x4F08 PUSH2 0x4F03 DUP5 PUSH2 0x4EB8 JUMP JUMPDEST PUSH2 0x4E9E JUMP JUMPDEST SWAP1 POP DUP3 DUP2 MSTORE PUSH1 0x20 DUP2 ADD DUP5 DUP5 DUP5 ADD GT ISZERO PUSH2 0x4F24 JUMPI PUSH2 0x4F23 PUSH2 0x4E3C JUMP JUMPDEST JUMPDEST PUSH2 0x4F2F DUP5 DUP3 DUP6 PUSH2 0x4EE8 JUMP JUMPDEST POP SWAP4 SWAP3 POP POP POP JUMP JUMPDEST PUSH0 DUP3 PUSH1 0x1F DUP4 ADD SLT PUSH2 0x4F4B JUMPI PUSH2 0x4F4A PUSH2 0x4E38 JUMP JUMPDEST JUMPDEST DUP2 CALLDATALOAD PUSH2 0x4F5B DUP5 DUP3 PUSH1 0x20 DUP7 ADD PUSH2 0x4EF6 JUMP JUMPDEST SWAP2 POP POP SWAP3 SWAP2 POP POP JUMP JUMPDEST PUSH0 DUP1 PUSH1 0x40 DUP4 DUP6 SUB SLT ISZERO PUSH2 0x4F7A JUMPI PUSH2 0x4F79 PUSH2 0x4A45 JUMP JUMPDEST JUMPDEST PUSH0 PUSH2 0x4F87 DUP6 DUP3 DUP7 ADD PUSH2 0x4C18 JUMP JUMPDEST SWAP3 POP POP PUSH1 0x20 DUP4 ADD CALLDATALOAD PUSH8 0xFFFFFFFFFFFFFFFF DUP2 GT ISZERO PUSH2 0x4FA8 JUMPI PUSH2 0x4FA7 PUSH2 0x4A49 JUMP JUMPDEST JUMPDEST PUSH2 0x4FB4 DUP6 DUP3 DUP7 ADD PUSH2 0x4F37 JUMP JUMPDEST SWAP2 POP POP SWAP3 POP SWAP3 SWAP1 POP JUMP JUMPDEST PUSH0 PUSH1 0x20 DUP3 DUP5 SUB SLT ISZERO PUSH2 0x4FD3 JUMPI PUSH2 0x4FD2 PUSH2 0x4A45 JUMP JUMPDEST JUMPDEST PUSH0 PUSH2 0x4FE0 DUP5 DUP3 DUP6 ADD PUSH2 0x4C18 JUMP JUMPDEST SWAP2 POP POP SWAP3 SWAP2 POP POP JUMP JUMPDEST PUSH0 PUSH4 0xFFFFFFFF DUP3 AND SWAP1 POP SWAP2 SWAP1 POP JUMP JUMPDEST PUSH2 0x5001 DUP2 PUSH2 0x4FE9 JUMP JUMPDEST DUP3 MSTORE POP POP JUMP JUMPDEST PUSH0 PUSH1 0x20 DUP3 ADD SWAP1 POP PUSH2 0x501A PUSH0 DUP4 ADD DUP5 PUSH2 0x4FF8 JUMP JUMPDEST SWAP3 SWAP2 POP POP JUMP JUMPDEST PUSH0 PUSH32 0xFF00000000000000000000000000000000000000000000000000000000000000 DUP3 AND SWAP1 POP SWAP2 SWAP1 POP JUMP JUMPDEST PUSH2 0x5054 DUP2 PUSH2 0x5020 JUMP JUMPDEST DUP3 MSTORE POP POP JUMP JUMPDEST PUSH0 DUP2 MLOAD SWAP1 POP SWAP2 SWAP1 POP JUMP JUMPDEST PUSH0 DUP3 DUP3 MSTORE PUSH1 0x20 DUP3 ADD SWAP1 POP SWAP3 SWAP2 POP POP JUMP JUMPDEST PUSH0 DUP2 SWAP1 POP PUSH1 0x20 DUP3 ADD SWAP1 POP SWAP2 SWAP1 POP JUMP JUMPDEST PUSH2 0x508C DUP2 PUSH2 0x4C2C JUMP JUMPDEST DUP3 MSTORE POP POP JUMP JUMPDEST PUSH0 PUSH2 0x509D DUP4 DUP4 PUSH2 0x5083 JUMP JUMPDEST PUSH1 0x20 DUP4 ADD SWAP1 POP SWAP3 SWAP2 POP POP JUMP JUMPDEST PUSH0 PUSH1 0x20 DUP3 ADD SWAP1 POP SWAP2 SWAP1 POP JUMP JUMPDEST PUSH0 PUSH2 0x50BF DUP3 PUSH2 0x505A JUMP JUMPDEST PUSH2 0x50C9 DUP2 DUP6 PUSH2 0x5064 JUMP JUMPDEST SWAP4 POP PUSH2 0x50D4 DUP4 PUSH2 0x5074 JUMP JUMPDEST DUP1 PUSH0 JUMPDEST DUP4 DUP2 LT ISZERO PUSH2 0x5104 JUMPI DUP2 MLOAD PUSH2 0x50EB DUP9 DUP3 PUSH2 0x5092 JUMP JUMPDEST SWAP8 POP PUSH2 0x50F6 DUP4 PUSH2 0x50A9 JUMP JUMPDEST SWAP3 POP POP PUSH1 0x1 DUP2 ADD SWAP1 POP PUSH2 0x50D7 JUMP JUMPDEST POP DUP6 SWAP4 POP POP POP POP SWAP3 SWAP2 POP POP JUMP JUMPDEST PUSH0 PUSH1 0xE0 DUP3 ADD SWAP1 POP PUSH2 0x5124 PUSH0 DUP4 ADD DUP11 PUSH2 0x504B JUMP JUMPDEST DUP2 DUP2 SUB PUSH1 0x20 DUP4 ADD MSTORE PUSH2 0x5136 DUP2 DUP10 PUSH2 0x4BAA JUMP JUMPDEST SWAP1 POP DUP2 DUP2 SUB PUSH1 0x40 DUP4 ADD MSTORE PUSH2 0x514A DUP2 DUP9 PUSH2 0x4BAA JUMP JUMPDEST SWAP1 POP PUSH2 0x5159 PUSH1 0x60 DUP4 ADD DUP8 PUSH2 0x4C9D JUMP JUMPDEST PUSH2 0x5166 PUSH1 0x80 DUP4 ADD DUP7 PUSH2 0x4B30 JUMP JUMPDEST PUSH2 0x5173 PUSH1 0xA0 DUP4 ADD DUP6 PUSH2 0x4D73 JUMP JUMPDEST DUP2 DUP2 SUB PUSH1 0xC0 DUP4 ADD MSTORE PUSH2 0x5185 DUP2 DUP5 PUSH2 0x50B5 JUMP JUMPDEST SWAP1 POP SWAP9 SWAP8 POP POP POP POP POP POP POP POP JUMP JUMPDEST PUSH0 PUSH6 0xFFFFFFFFFFFF DUP3 AND SWAP1 POP SWAP2 SWAP1 POP JUMP JUMPDEST PUSH2 0x51AD DUP2 PUSH2 0x5193 JUMP JUMPDEST DUP3 MSTORE POP POP JUMP JUMPDEST PUSH0 PUSH1 0x20 DUP3 ADD SWAP1 POP PUSH2 0x51C6 PUSH0 DUP4 ADD DUP5 PUSH2 0x51A4 JUMP JUMPDEST SWAP3 SWAP2 POP POP JUMP JUMPDEST PUSH0 DUP1 PUSH0 PUSH1 0x60 DUP5 DUP7 SUB SLT ISZERO PUSH2 0x51E3 JUMPI PUSH2 0x51E2 PUSH2 0x4A45 JUMP JUMPDEST JUMPDEST PUSH0 PUSH2 0x51F0 DUP7 DUP3 DUP8 ADD PUSH2 0x4C18 JUMP JUMPDEST SWAP4 POP POP PUSH1 0x20 PUSH2 0x5201 DUP7 DUP3 DUP8 ADD PUSH2 0x4C18 JUMP JUMPDEST SWAP3 POP POP PUSH1 0x40 PUSH2 0x5212 DUP7 DUP3 DUP8 ADD PUSH2 0x4C18 JUMP JUMPDEST SWAP2 POP POP SWAP3 POP SWAP3 POP SWAP3 JUMP JUMPDEST PUSH2 0x5225 DUP2 PUSH2 0x4DD9 JUMP JUMPDEST DUP2 EQ PUSH2 0x522F JUMPI PUSH0 DUP1 REVERT JUMPDEST POP JUMP JUMPDEST PUSH0 DUP2 CALLDATALOAD SWAP1 POP PUSH2 0x5240 DUP2 PUSH2 0x521C JUMP JUMPDEST SWAP3 SWAP2 POP POP JUMP JUMPDEST PUSH0 DUP1 PUSH0 DUP1 PUSH0 DUP1 PUSH1 0xC0 DUP8 DUP10 SUB SLT ISZERO PUSH2 0x5260 JUMPI PUSH2 0x525F PUSH2 0x4A45 JUMP JUMPDEST JUMPDEST PUSH0 PUSH2 0x526D DUP10 DUP3 DUP11 ADD PUSH2 0x4C18 JUMP JUMPDEST SWAP7 POP POP PUSH1 0x20 PUSH2 0x527E DUP10 DUP3 DUP11 ADD PUSH2 0x4C4B JUMP JUMPDEST SWAP6 POP POP PUSH1 0x40 PUSH2 0x528F DUP10 DUP3 DUP11 ADD PUSH2 0x4C4B JUMP JUMPDEST SWAP5 POP POP PUSH1 0x60 PUSH2 0x52A0 DUP10 DUP3 DUP11 ADD PUSH2 0x5232 JUMP JUMPDEST SWAP4 POP POP PUSH1 0x80 PUSH2 0x52B1 DUP10 DUP3 DUP11 ADD PUSH2 0x4D34 JUMP JUMPDEST SWAP3 POP POP PUSH1 0xA0 PUSH2 0x52C2 DUP10 DUP3 DUP11 ADD PUSH2 0x4D34 JUMP JUMPDEST SWAP2 POP POP SWAP3 SWAP6 POP SWAP3 SWAP6 POP SWAP3 SWAP6 JUMP JUMPDEST PUSH0 DUP1 PUSH0 DUP1 PUSH0 DUP1 PUSH0 PUSH1 0xE0 DUP9 DUP11 SUB SLT ISZERO PUSH2 0x52EA JUMPI PUSH2 0x52E9 PUSH2 0x4A45 JUMP JUMPDEST JUMPDEST PUSH0 PUSH2 0x52F7 DUP11 DUP3 DUP12 ADD PUSH2 0x4C18 JUMP JUMPDEST SWAP8 POP POP PUSH1 0x20 PUSH2 0x5308 DUP11 DUP3 DUP12 ADD PUSH2 0x4C18 JUMP JUMPDEST SWAP7 POP POP PUSH1 0x40 PUSH2 0x5319 DUP11 DUP3 DUP12 ADD PUSH2 0x4C4B JUMP JUMPDEST SWAP6 POP POP PUSH1 0x60 PUSH2 0x532A DUP11 DUP3 DUP12 ADD PUSH2 0x4C4B JUMP JUMPDEST SWAP5 POP POP PUSH1 0x80 PUSH2 0x533B DUP11 DUP3 DUP12 ADD PUSH2 0x5232 JUMP JUMPDEST SWAP4 POP POP PUSH1 0xA0 PUSH2 0x534C DUP11 DUP3 DUP12 ADD PUSH2 0x4D34 JUMP JUMPDEST SWAP3 POP POP PUSH1 0xC0 PUSH2 0x535D DUP11 DUP3 DUP12 ADD PUSH2 0x4D34 JUMP JUMPDEST SWAP2 POP POP SWAP3 SWAP6 SWAP9 SWAP2 SWAP5 SWAP8 POP SWAP3 SWAP6 POP JUMP JUMPDEST PUSH0 DUP1 PUSH1 0x40 DUP4 DUP6 SUB SLT ISZERO PUSH2 0x5382 JUMPI PUSH2 0x5381 PUSH2 0x4A45 JUMP JUMPDEST JUMPDEST PUSH0 PUSH2 0x538F DUP6 DUP3 DUP7 ADD PUSH2 0x4C18 JUMP JUMPDEST SWAP3 POP POP PUSH1 0x20 PUSH2 0x53A0 DUP6 DUP3 DUP7 ADD PUSH2 0x4C18 JUMP JUMPDEST SWAP2 POP POP SWAP3 POP SWAP3 SWAP1 POP JUMP JUMPDEST PUSH2 0x53B3 DUP2 PUSH2 0x4FE9 JUMP JUMPDEST DUP2 EQ PUSH2 0x53BD JUMPI PUSH0 DUP1 REVERT JUMPDEST POP JUMP JUMPDEST PUSH0 DUP2 CALLDATALOAD SWAP1 POP PUSH2 0x53CE DUP2 PUSH2 0x53AA JUMP JUMPDEST SWAP3 SWAP2 POP POP JUMP JUMPDEST PUSH0 DUP1 PUSH1 0x40 DUP4 DUP6 SUB SLT ISZERO PUSH2 0x53EA JUMPI PUSH2 0x53E9 PUSH2 0x4A45 JUMP JUMPDEST JUMPDEST PUSH0 PUSH2 0x53F7 DUP6 DUP3 DUP7 ADD PUSH2 0x4C18 JUMP JUMPDEST SWAP3 POP POP PUSH1 0x20 PUSH2 0x5408 DUP6 DUP3 DUP7 ADD PUSH2 0x53C0 JUMP JUMPDEST SWAP2 POP POP SWAP3 POP SWAP3 SWAP1 POP JUMP JUMPDEST PUSH2 0x541B DUP2 PUSH2 0x5193 JUMP JUMPDEST DUP3 MSTORE POP POP JUMP JUMPDEST PUSH0 PUSH26 0xFFFFFFFFFFFFFFFFFFFFFFFFFFFFFFFFFFFFFFFFFFFFFFFFFFFF DUP3 AND SWAP1 POP SWAP2 SWAP1 POP JUMP JUMPDEST PUSH2 0x544F DUP2 PUSH2 0x5421 JUMP JUMPDEST DUP3 MSTORE POP POP JUMP JUMPDEST PUSH1 0x40 DUP3 ADD PUSH0 DUP3 ADD MLOAD PUSH2 0x5469 PUSH0 DUP6 ADD DUP3 PUSH2 0x5412 JUMP JUMPDEST POP PUSH1 0x20 DUP3 ADD MLOAD PUSH2 0x547C PUSH1 0x20 DUP6 ADD DUP3 PUSH2 0x5446 JUMP JUMPDEST POP POP POP POP JUMP JUMPDEST PUSH0 PUSH1 0x40 DUP3 ADD SWAP1 POP PUSH2 0x5495 PUSH0 DUP4 ADD DUP5 PUSH2 0x5455 JUMP JUMPDEST SWAP3 SWAP2 POP POP JUMP JUMPDEST PUSH32 0x4E487B7100000000000000000000000000000000000000000000000000000000 PUSH0 MSTORE PUSH1 0x22 PUSH1 0x4 MSTORE PUSH1 0x24 PUSH0 REVERT JUMPDEST PUSH0 PUSH1 0x2 DUP3 DIV SWAP1 POP PUSH1 0x1 DUP3 AND DUP1 PUSH2 0x54DF JUMPI PUSH1 0x7F DUP3 AND SWAP2 POP JUMPDEST PUSH1 0x20 DUP3 LT DUP2 SUB PUSH2 0x54F2 JUMPI PUSH2 0x54F1 PUSH2 0x549B JUMP JUMPDEST JUMPDEST POP SWAP2 SWAP1 POP JUMP JUMPDEST PUSH0 PUSH1 0x40 DUP3 ADD SWAP1 POP PUSH2 0x550B PUSH0 DUP4 ADD DUP6 PUSH2 0x4C9D JUMP JUMPDEST PUSH2 0x5518 PUSH1 0x20 DUP4 ADD DUP5 PUSH2 0x51A4 JUMP JUMPDEST SWAP4 SWAP3 POP POP POP JUMP JUMPDEST PUSH32 0x4E487B7100000000000000000000000000000000000000000000000000000000 PUSH0 MSTORE PUSH1 0x11 PUSH1 0x4 MSTORE PUSH1 0x24 PUSH0 REVERT JUMPDEST PUSH0 PUSH2 0x5556 DUP3 PUSH2 0x4C2C JUMP JUMPDEST SWAP2 POP PUSH2 0x5561 DUP4 PUSH2 0x4C2C JUMP JUMPDEST SWAP3 POP DUP3 DUP3 ADD SWAP1 POP DUP1 DUP3 GT ISZERO PUSH2 0x5579 JUMPI PUSH2 0x5578 PUSH2 0x551F JUMP JUMPDEST JUMPDEST SWAP3 SWAP2 POP POP JUMP JUMPDEST PUSH32 0x546F6B656E3A204D617820737570706C79207265616368656400000000000000 PUSH0 DUP3 ADD MSTORE POP JUMP JUMPDEST PUSH0 PUSH2 0x55B3 PUSH1 0x19 DUP4 PUSH2 0x4B62 JUMP JUMPDEST SWAP2 POP PUSH2 0x55BE DUP3 PUSH2 0x557F JUMP JUMPDEST PUSH1 0x20 DUP3 ADD SWAP1 POP SWAP2 SWAP1 POP JUMP JUMPDEST PUSH0 PUSH1 0x20 DUP3 ADD SWAP1 POP DUP2 DUP2 SUB PUSH0 DUP4 ADD MSTORE PUSH2 0x55E0 DUP2 PUSH2 0x55A7 JUMP JUMPDEST SWAP1 POP SWAP2 SWAP1 POP JUMP JUMPDEST PUSH0 DUP2 MLOAD SWAP1 POP PUSH2 0x55F5 DUP2 PUSH2 0x4C35 JUMP JUMPDEST SWAP3 SWAP2 POP POP JUMP JUMPDEST PUSH0 PUSH1 0x20 DUP3 DUP5 SUB SLT ISZERO PUSH2 0x5610 JUMPI PUSH2 0x560F PUSH2 0x4A45 JUMP JUMPDEST JUMPDEST PUSH0 PUSH2 0x561D DUP5 DUP3 DUP6 ADD PUSH2 0x55E7 JUMP JUMPDEST SWAP2 POP POP SWAP3 SWAP2 POP POP JUMP JUMPDEST PUSH0 PUSH1 0x40 DUP3 ADD SWAP1 POP PUSH2 0x5639 PUSH0 DUP4 ADD DUP6 PUSH2 0x4B30 JUMP JUMPDEST PUSH2 0x5646 PUSH1 0x20 DUP4 ADD DUP5 PUSH2 0x4C9D JUMP JUMPDEST SWAP4 SWAP3 POP POP POP JUMP JUMPDEST PUSH2 0x5656 DUP2 PUSH2 0x4ACD JUMP JUMPDEST DUP2 EQ PUSH2 0x5660 JUMPI PUSH0 DUP1 REVERT JUMPDEST POP JUMP JUMPDEST PUSH0 DUP2 MLOAD SWAP1 POP PUSH2 0x5671 DUP2 PUSH2 0x564D JUMP JUMPDEST SWAP3 SWAP2 POP POP JUMP JUMPDEST PUSH0 PUSH1 0x20 DUP3 DUP5 SUB SLT ISZERO PUSH2 0x568C JUMPI PUSH2 0x568B PUSH2 0x4A45 JUMP JUMPDEST JUMPDEST PUSH0 PUSH2 0x5699 DUP5 DUP3 DUP6 ADD PUSH2 0x5663 JUMP JUMPDEST SWAP2 POP POP SWAP3 SWAP2 POP POP JUMP JUMPDEST PUSH32 0x4549503731323A20556E696E697469616C697A65640000000000000000000000 PUSH0 DUP3 ADD MSTORE POP JUMP JUMPDEST PUSH0 PUSH2 0x56D6 PUSH1 0x15 DUP4 PUSH2 0x4B62 JUMP JUMPDEST SWAP2 POP PUSH2 0x56E1 DUP3 PUSH2 0x56A2 JUMP JUMPDEST PUSH1 0x20 DUP3 ADD SWAP1 POP SWAP2 SWAP1 POP JUMP JUMPDEST PUSH0 PUSH1 0x20 DUP3 ADD SWAP1 POP DUP2 DUP2 SUB PUSH0 DUP4 ADD MSTORE PUSH2 0x5703 DUP2 PUSH2 0x56CA JUMP JUMPDEST SWAP1 POP SWAP2 SWAP1 POP JUMP JUMPDEST PUSH0 DUP1 PUSH1 0x40 DUP4 DUP6 SUB SLT ISZERO PUSH2 0x5720 JUMPI PUSH2 0x571F PUSH2 0x4A45 JUMP JUMPDEST JUMPDEST PUSH0 PUSH2 0x572D DUP6 DUP3 DUP7 ADD PUSH2 0x55E7 JUMP JUMPDEST SWAP3 POP POP PUSH1 0x20 PUSH2 0x573E DUP6 DUP3 DUP7 ADD PUSH2 0x55E7 JUMP JUMPDEST SWAP2 POP POP SWAP3 POP SWAP3 SWAP1 POP JUMP JUMPDEST PUSH0 PUSH2 0x5752 DUP3 PUSH2 0x4C2C JUMP JUMPDEST SWAP2 POP PUSH2 0x575D DUP4 PUSH2 0x4C2C JUMP JUMPDEST SWAP3 POP DUP3 DUP3 SUB SWAP1 POP DUP2 DUP2 GT ISZERO PUSH2 0x5775 JUMPI PUSH2 0x5774 PUSH2 0x551F JUMP JUMPDEST JUMPDEST SWAP3 SWAP2 POP POP JUMP JUMPDEST PUSH0 DUP2 SWAP1 POP SWAP2 SWAP1 POP JUMP JUMPDEST PUSH0 PUSH8 0xFFFFFFFFFFFFFFFF DUP3 AND SWAP1 POP SWAP2 SWAP1 POP JUMP JUMPDEST PUSH0 DUP2 SWAP1 POP SWAP2 SWAP1 POP JUMP JUMPDEST PUSH0 PUSH2 0x57BA PUSH2 0x57B5 PUSH2 0x57B0 DUP5 PUSH2 0x577B JUMP JUMPDEST PUSH2 0x5797 JUMP JUMPDEST PUSH2 0x5784 JUMP JUMPDEST SWAP1 POP SWAP2 SWAP1 POP JUMP JUMPDEST PUSH2 0x57CA DUP2 PUSH2 0x57A0 JUMP JUMPDEST DUP3 MSTORE POP POP JUMP JUMPDEST PUSH0 PUSH1 0x20 DUP3 ADD SWAP1 POP PUSH2 0x57E3 PUSH0 DUP4 ADD DUP5 PUSH2 0x57C1 JUMP JUMPDEST SWAP3 SWAP2 POP POP JUMP JUMPDEST PUSH0 PUSH1 0x80 DUP3 ADD SWAP1 POP PUSH2 0x57FC PUSH0 DUP4 ADD DUP8 PUSH2 0x4D73 JUMP JUMPDEST PUSH2 0x5809 PUSH1 0x20 DUP4 ADD DUP7 PUSH2 0x4B30 JUMP JUMPDEST PUSH2 0x5816 PUSH1 0x40 DUP4 ADD DUP6 PUSH2 0x4C9D JUMP JUMPDEST PUSH2 0x5823 PUSH1 0x60 DUP4 ADD DUP5 PUSH2 0x4C9D JUMP JUMPDEST SWAP6 SWAP5 POP POP POP POP POP JUMP JUMPDEST PUSH0 PUSH1 0xC0 DUP3 ADD SWAP1 POP PUSH2 0x583F PUSH0 DUP4 ADD DUP10 PUSH2 0x4D73 JUMP JUMPDEST PUSH2 0x584C PUSH1 0x20 DUP4 ADD DUP9 PUSH2 0x4B30 JUMP JUMPDEST PUSH2 0x5859 PUSH1 0x40 DUP4 ADD DUP8 PUSH2 0x4B30 JUMP JUMPDEST PUSH2 0x5866 PUSH1 0x60 DUP4 ADD DUP7 PUSH2 0x4C9D JUMP JUMPDEST PUSH2 0x5873 PUSH1 0x80 DUP4 ADD DUP6 PUSH2 0x4C9D JUMP JUMPDEST PUSH2 0x5880 PUSH1 0xA0 DUP4 ADD DUP5 PUSH2 0x4C9D JUMP JUMPDEST SWAP8 SWAP7 POP POP POP POP POP POP POP JUMP JUMPDEST PUSH0 PUSH1 0x40 DUP3 ADD SWAP1 POP PUSH2 0x589E PUSH0 DUP4 ADD DUP6 PUSH2 0x4B30 JUMP JUMPDEST PUSH2 0x58AB PUSH1 0x20 DUP4 ADD DUP5 PUSH2 0x4B30 JUMP JUMPDEST SWAP4 SWAP3 POP POP POP JUMP JUMPDEST PUSH0 PUSH1 0x60 DUP3 ADD SWAP1 POP PUSH2 0x58C5 PUSH0 DUP4 ADD DUP7 PUSH2 0x4B30 JUMP JUMPDEST PUSH2 0x58D2 PUSH1 0x20 DUP4 ADD DUP6 PUSH2 0x4C9D JUMP JUMPDEST PUSH2 0x58DF PUSH1 0x40 DUP4 ADD DUP5 PUSH2 0x4C9D JUMP JUMPDEST SWAP5 SWAP4 POP POP POP POP JUMP JUMPDEST PUSH0 DUP2 SWAP1 POP SWAP2 SWAP1 POP JUMP JUMPDEST PUSH0 PUSH2 0x590A PUSH2 0x5905 PUSH2 0x5900 DUP5 PUSH2 0x58E7 JUMP JUMPDEST PUSH2 0x5797 JUMP JUMPDEST PUSH2 0x4DD9 JUMP JUMPDEST SWAP1 POP SWAP2 SWAP1 POP JUMP JUMPDEST PUSH2 0x591A DUP2 PUSH2 0x58F0 JUMP JUMPDEST DUP3 MSTORE POP POP JUMP JUMPDEST PUSH0 PUSH1 0x40 DUP3 ADD SWAP1 POP PUSH2 0x5933 PUSH0 DUP4 ADD DUP6 PUSH2 0x5911 JUMP JUMPDEST PUSH2 0x5940 PUSH1 0x20 DUP4 ADD DUP5 PUSH2 0x4C9D JUMP JUMPDEST SWAP4 SWAP3 POP POP POP JUMP JUMPDEST PUSH0 DUP2 MLOAD SWAP1 POP PUSH2 0x5955 DUP2 PUSH2 0x4D1E JUMP JUMPDEST SWAP3 SWAP2 POP POP JUMP JUMPDEST PUSH0 PUSH1 0x20 DUP3 DUP5 SUB SLT ISZERO PUSH2 0x5970 JUMPI PUSH2 0x596F PUSH2 0x4A45 JUMP JUMPDEST JUMPDEST PUSH0 PUSH2 0x597D DUP5 DUP3 DUP6 ADD PUSH2 0x5947 JUMP JUMPDEST SWAP2 POP POP SWAP3 SWAP2 POP POP JUMP JUMPDEST PUSH0 PUSH1 0x40 DUP3 ADD SWAP1 POP PUSH2 0x5999 PUSH0 DUP4 ADD DUP6 PUSH2 0x4B30 JUMP JUMPDEST PUSH2 0x59A6 PUSH1 0x20 DUP4 ADD DUP5 PUSH2 0x4D73 JUMP JUMPDEST SWAP4 SWAP3 POP POP POP JUMP JUMPDEST PUSH0 PUSH1 0xA0 DUP3 ADD SWAP1 POP PUSH2 0x59C0 PUSH0 DUP4 ADD DUP9 PUSH2 0x4D73 JUMP JUMPDEST PUSH2 0x59CD PUSH1 0x20 DUP4 ADD DUP8 PUSH2 0x4D73 JUMP JUMPDEST PUSH2 0x59DA PUSH1 0x40 DUP4 ADD DUP7 PUSH2 0x4D73 JUMP JUMPDEST PUSH2 0x59E7 PUSH1 0x60 DUP4 ADD DUP6 PUSH2 0x4C9D JUMP JUMPDEST PUSH2 0x59F4 PUSH1 0x80 DUP4 ADD DUP5 PUSH2 0x4B30 JUMP JUMPDEST SWAP7 SWAP6 POP POP POP POP POP POP JUMP JUMPDEST PUSH32 0x4E487B7100000000000000000000000000000000000000000000000000000000 PUSH0 MSTORE PUSH1 0x12 PUSH1 0x4 MSTORE PUSH1 0x24 PUSH0 REVERT JUMPDEST PUSH0 PUSH1 0x40 DUP3 ADD SWAP1 POP PUSH2 0x5A3E PUSH0 DUP4 ADD DUP6 PUSH2 0x4C9D JUMP JUMPDEST PUSH2 0x5A4B PUSH1 0x20 DUP4 ADD DUP5 PUSH2 0x4C9D JUMP JUMPDEST SWAP4 SWAP3 POP POP POP JUMP JUMPDEST PUSH0 DUP2 SWAP1 POP SWAP2 SWAP1 POP JUMP JUMPDEST PUSH0 PUSH2 0x5A75 PUSH2 0x5A70 PUSH2 0x5A6B DUP5 PUSH2 0x5A52 JUMP JUMPDEST PUSH2 0x5797 JUMP JUMPDEST PUSH2 0x4DD9 JUMP JUMPDEST SWAP1 POP SWAP2 SWAP1 POP JUMP JUMPDEST PUSH2 0x5A85 DUP2 PUSH2 0x5A5B JUMP JUMPDEST DUP3 MSTORE POP POP JUMP JUMPDEST PUSH0 PUSH1 0x40 DUP3 ADD SWAP1 POP PUSH2 0x5A9E PUSH0 DUP4 ADD DUP6 PUSH2 0x5A7C JUMP JUMPDEST PUSH2 0x5AAB PUSH1 0x20 DUP4 ADD DUP5 PUSH2 0x4C9D JUMP JUMPDEST SWAP4 SWAP3 POP POP POP JUMP JUMPDEST PUSH0 DUP2 SWAP1 POP DUP2 PUSH0 MSTORE PUSH1 0x20 PUSH0 KECCAK256 SWAP1 POP SWAP2 SWAP1 POP JUMP JUMPDEST PUSH0 PUSH1 0x20 PUSH1 0x1F DUP4 ADD DIV SWAP1 POP SWAP2 SWAP1 POP JUMP JUMPDEST PUSH0 DUP3 DUP3 SHL SWAP1 POP SWAP3 SWAP2 POP POP JUMP JUMPDEST PUSH0 PUSH1 0x8 DUP4 MUL PUSH2 0x5B0E PUSH32 0xFFFFFFFFFFFFFFFFFFFFFFFFFFFFFFFFFFFFFFFFFFFFFFFFFFFFFFFFFFFFFFFF DUP3 PUSH2 0x5AD3 JUMP JUMPDEST PUSH2 0x5B18 DUP7 DUP4 PUSH2 0x5AD3 JUMP JUMPDEST SWAP6 POP DUP1 NOT DUP5 AND SWAP4 POP DUP1 DUP7 AND DUP5 OR SWAP3 POP POP POP SWAP4 SWAP3 POP POP POP JUMP JUMPDEST PUSH0 PUSH2 0x5B4A PUSH2 0x5B45 PUSH2 0x5B40 DUP5 PUSH2 0x4C2C JUMP JUMPDEST PUSH2 0x5797 JUMP JUMPDEST PUSH2 0x4C2C JUMP JUMPDEST SWAP1 POP SWAP2 SWAP1 POP JUMP JUMPDEST PUSH0 DUP2 SWAP1 POP SWAP2 SWAP1 POP JUMP JUMPDEST PUSH2 0x5B63 DUP4 PUSH2 0x5B30 JUMP JUMPDEST PUSH2 0x5B77 PUSH2 0x5B6F DUP3 PUSH2 0x5B51 JUMP JUMPDEST DUP5 DUP5 SLOAD PUSH2 0x5ADF JUMP JUMPDEST DUP3 SSTORE POP POP POP POP JUMP JUMPDEST PUSH0 SWAP1 JUMP JUMPDEST PUSH2 0x5B8B PUSH2 0x5B7F JUMP JUMPDEST PUSH2 0x5B96 DUP2 DUP5 DUP5 PUSH2 0x5B5A JUMP JUMPDEST POP POP POP JUMP JUMPDEST JUMPDEST DUP2 DUP2 LT ISZERO PUSH2 0x5BB9 JUMPI PUSH2 0x5BAE PUSH0 DUP3 PUSH2 0x5B83 JUMP JUMPDEST PUSH1 0x1 DUP2 ADD SWAP1 POP PUSH2 0x5B9C JUMP JUMPDEST POP POP JUMP JUMPDEST PUSH1 0x1F DUP3 GT ISZERO PUSH2 0x5BFE JUMPI PUSH2 0x5BCF DUP2 PUSH2 0x5AB2 JUMP JUMPDEST PUSH2 0x5BD8 DUP5 PUSH2 0x5AC4 JUMP JUMPDEST DUP2 ADD PUSH1 0x20 DUP6 LT ISZERO PUSH2 0x5BE7 JUMPI DUP2 SWAP1 POP JUMPDEST PUSH2 0x5BFB PUSH2 0x5BF3 DUP6 PUSH2 0x5AC4 JUMP JUMPDEST DUP4 ADD DUP3 PUSH2 0x5B9B JUMP JUMPDEST POP POP JUMPDEST POP POP POP JUMP JUMPDEST PUSH0 DUP3 DUP3 SHR SWAP1 POP SWAP3 SWAP2 POP POP JUMP JUMPDEST PUSH0 PUSH2 0x5C1E PUSH0 NOT DUP5 PUSH1 0x8 MUL PUSH2 0x5C03 JUMP JUMPDEST NOT DUP1 DUP4 AND SWAP2 POP POP SWAP3 SWAP2 POP POP JUMP JUMPDEST PUSH0 PUSH2 0x5C36 DUP4 DUP4 PUSH2 0x5C0F JUMP JUMPDEST SWAP2 POP DUP3 PUSH1 0x2 MUL DUP3 OR SWAP1 POP SWAP3 SWAP2 POP POP JUMP JUMPDEST PUSH2 0x5C4F DUP3 PUSH2 0x4B58 JUMP JUMPDEST PUSH8 0xFFFFFFFFFFFFFFFF DUP2 GT ISZERO PUSH2 0x5C68 JUMPI PUSH2 0x5C67 PUSH2 0x4E40 JUMP JUMPDEST JUMPDEST PUSH2 0x5C72 DUP3 SLOAD PUSH2 0x54C8 JUMP JUMPDEST PUSH2 0x5C7D DUP3 DUP3 DUP6 PUSH2 0x5BBD JUMP JUMPDEST PUSH0 PUSH1 0x20 SWAP1 POP PUSH1 0x1F DUP4 GT PUSH1 0x1 DUP2 EQ PUSH2 0x5CAE JUMPI PUSH0 DUP5 ISZERO PUSH2 0x5C9C JUMPI DUP3 DUP8 ADD MLOAD SWAP1 POP JUMPDEST PUSH2 0x5CA6 DUP6 DUP3 PUSH2 0x5C2B JUMP JUMPDEST DUP7 SSTORE POP PUSH2 0x5D0D JUMP JUMPDEST PUSH1 0x1F NOT DUP5 AND PUSH2 0x5CBC DUP7 PUSH2 0x5AB2 JUMP JUMPDEST PUSH0 JUMPDEST DUP3 DUP2 LT ISZERO PUSH2 0x5CE3 JUMPI DUP5 DUP10 ADD MLOAD DUP3 SSTORE PUSH1 0x1 DUP3 ADD SWAP2 POP PUSH1 0x20 DUP6 ADD SWAP5 POP PUSH1 0x20 DUP2 ADD SWAP1 POP PUSH2 0x5CBE JUMP JUMPDEST DUP7 DUP4 LT ISZERO PUSH2 0x5D00 JUMPI DUP5 DUP10 ADD MLOAD PUSH2 0x5CFC PUSH1 0x1F DUP10 AND DUP3 PUSH2 0x5C0F JUMP JUMPDEST DUP4 SSTORE POP JUMPDEST PUSH1 0x1 PUSH1 0x2 DUP9 MUL ADD DUP9 SSTORE POP POP POP JUMPDEST POP POP POP POP POP POP JUMP JUMPDEST PUSH0 PUSH1 0x80 DUP3 ADD SWAP1 POP PUSH2 0x5D28 PUSH0 DUP4 ADD DUP8 PUSH2 0x4D73 JUMP JUMPDEST PUSH2 0x5D35 PUSH1 0x20 DUP4 ADD DUP7 PUSH2 0x4DE5 JUMP JUMPDEST PUSH2 0x5D42 PUSH1 0x40 DUP4 ADD DUP6 PUSH2 0x4D73 JUMP JUMPDEST PUSH2 0x5D4F PUSH1 0x60 DUP4 ADD DUP5 PUSH2 0x4D73 JUMP JUMPDEST SWAP6 SWAP5 POP POP POP POP POP JUMP JUMPDEST PUSH32 0x4E487B7100000000000000000000000000000000000000000000000000000000 PUSH0 MSTORE PUSH1 0x21 PUSH1 0x4 MSTORE PUSH1 0x24 PUSH0 REVERT JUMPDEST PUSH32 0x4E487B7100000000000000000000000000000000000000000000000000000000 PUSH0 MSTORE PUSH1 0x32 PUSH1 0x4 MSTORE PUSH1 0x24 PUSH0 REVERT JUMPDEST PUSH0 PUSH2 0x5DBC DUP3 PUSH2 0x4C2C JUMP JUMPDEST SWAP2 POP PUSH2 0x5DC7 DUP4 PUSH2 0x4C2C JUMP JUMPDEST SWAP3 POP DUP3 PUSH2 0x5DD7 JUMPI PUSH2 0x5DD6 PUSH2 0x59FE JUMP JUMPDEST JUMPDEST DUP3 DUP3 DIV SWAP1 POP SWAP3 SWAP2 POP POP JUMP JUMPDEST PUSH0 DUP2 MLOAD SWAP1 POP SWAP2 SWAP1 POP JUMP JUMPDEST PUSH0 DUP2 SWAP1 POP SWAP3 SWAP2 POP POP JUMP JUMPDEST PUSH0 PUSH2 0x5E00 DUP3 PUSH2 0x5DE2 JUMP JUMPDEST PUSH2 0x5E0A DUP2 DUP6 PUSH2 0x5DEC JUMP JUMPDEST SWAP4 POP PUSH2 0x5E1A DUP2 DUP6 PUSH1 0x20 DUP7 ADD PUSH2 0x4B72 JUMP JUMPDEST DUP1 DUP5 ADD SWAP2 POP POP SWAP3 SWAP2 POP POP JUMP JUMPDEST PUSH0 PUSH2 0x5E31 DUP3 DUP5 PUSH2 0x5DF6 JUMP JUMPDEST SWAP2 POP DUP2 SWAP1 POP SWAP3 SWAP2 POP POP JUMP JUMPDEST PUSH0 PUSH2 0x5E46 DUP3 PUSH2 0x5421 JUMP JUMPDEST SWAP2 POP PUSH2 0x5E51 DUP4 PUSH2 0x5421 JUMP JUMPDEST SWAP3 POP DUP3 DUP3 SUB SWAP1 POP PUSH26 0xFFFFFFFFFFFFFFFFFFFFFFFFFFFFFFFFFFFFFFFFFFFFFFFFFFFF DUP2 GT ISZERO PUSH2 0x5E83 JUMPI PUSH2 0x5E82 PUSH2 0x551F JUMP JUMPDEST JUMPDEST SWAP3 SWAP2 POP POP JUMP JUMPDEST PUSH0 DUP2 SWAP1 POP SWAP2 SWAP1 POP JUMP JUMPDEST PUSH0 PUSH2 0x5EAC PUSH2 0x5EA7 PUSH2 0x5EA2 DUP5 PUSH2 0x5E89 JUMP JUMPDEST PUSH2 0x5797 JUMP JUMPDEST PUSH2 0x4DD9 JUMP JUMPDEST SWAP1 POP SWAP2 SWAP1 POP JUMP JUMPDEST PUSH2 0x5EBC DUP2 PUSH2 0x5E92 JUMP JUMPDEST DUP3 MSTORE POP POP JUMP JUMPDEST PUSH0 PUSH1 0x40 DUP3 ADD SWAP1 POP PUSH2 0x5ED5 PUSH0 DUP4 ADD DUP6 PUSH2 0x5EB3 JUMP JUMPDEST PUSH2 0x5EE2 PUSH1 0x20 DUP4 ADD DUP5 PUSH2 0x4C9D JUMP JUMPDEST SWAP4 SWAP3 POP POP POP JUMP JUMPDEST PUSH0 PUSH2 0x5EF3 DUP3 PUSH2 0x5421 JUMP JUMPDEST SWAP2 POP PUSH2 0x5EFE DUP4 PUSH2 0x5421 JUMP JUMPDEST SWAP3 POP DUP3 DUP3 ADD SWAP1 POP PUSH26 0xFFFFFFFFFFFFFFFFFFFFFFFFFFFFFFFFFFFFFFFFFFFFFFFFFFFF DUP2 GT ISZERO PUSH2 0x5F30 JUMPI PUSH2 0x5F2F PUSH2 0x551F JUMP JUMPDEST JUMPDEST SWAP3 SWAP2 POP POP JUMP INVALID LOG2 PUSH5 0x6970667358 0x22 SLT KECCAK256 SWAP2 GASLIMIT CALL SAR PUSH2 0x5E6 0xB7 0xBA PUSH4 0x92AE71A1 0x28 0xCA CALL 0x4D DUP8 0xC7 0xE2 PUSH1 0x5F PUSH13 0x3583E540ECBA0A1964736F6C63 NUMBER STOP ADDMOD ISZERO STOP CALLER "
		},
		"gasEstimates": {
			"creation": {
				"codeDepositCost": "4885600",
				"executionCost": "infinite",
				"totalCost": "infinite"
			},
			"external": {
				"CLOCK_MODE()": "infinite",
				"DEFAULT_ADMIN_ROLE()": "419",
				"DOMAIN_SEPARATOR()": "infinite",
				"GCKLAY()": "2577",
				"MAX_SUPPLY()": "437",
				"MINTER_ROLE()": "392",
				"OF_CONTRACT()": "2638",
				"PAUSER_ROLE()": "391",
				"UPGRADER_ROLE()": "457",
				"UPGRADE_INTERFACE_VERSION()": "infinite",
				"allowance(address,address)": "infinite",
				"approve(address,uint256)": "infinite",
				"balanceOf(address)": "2927",
				"burn(uint256)": "infinite",
				"burnFrom(address,uint256)": "infinite",
				"checkpoints(address,uint32)": "infinite",
				"clock()": "427",
				"decimals()": "428",
				"delegate(address)": "infinite",
				"delegateBySig(address,uint256,uint256,uint8,bytes32,bytes32)": "infinite",
				"delegates(address)": "infinite",
				"eip712Domain()": "infinite",
				"exitETH()": "infinite",
				"exitToken(address)": "infinite",
				"fundToken(address)": "infinite",
				"getPastTotalSupply(uint256)": "infinite",
				"getPastVotes(address,uint256)": "infinite",
				"getRoleAdmin(bytes32)": "infinite",
				"getVotes(address)": "infinite",
				"grantRole(bytes32,address)": "infinite",
				"hasRole(bytes32,address)": "3242",
				"initialize(address,address,address)": "infinite",
				"mint(address,uint256)": "infinite",
				"name()": "infinite",
				"nonces(address)": "3055",
				"numCheckpoints(address)": "3369",
				"pause()": "infinite",
				"paused()": "2614",
				"permit(address,address,uint256,uint256,uint8,bytes32,bytes32)": "infinite",
				"proxiableUUID()": "infinite",
				"purchaseStatus()": "2493",
				"reFundToken(address,uint256)": "infinite",
				"renounceRole(bytes32,address)": "infinite",
				"revokeRole(bytes32,address)": "infinite",
				"supportsInterface(bytes4)": "764",
				"symbol()": "infinite",
				"totalSupply()": "2620",
				"transfer(address,uint256)": "infinite",
				"transferFrom(address,address,uint256)": "infinite",
				"unpause()": "infinite",
				"upgradeToAndCall(address,bytes)": "infinite"
			},
			"internal": {
				"_authorizeUpgrade(address)": "infinite",
				"_update(address,address,uint256)": "infinite"
			}
		},
		"methodIdentifiers": {
			"CLOCK_MODE()": "4bf5d7e9",
			"DEFAULT_ADMIN_ROLE()": "a217fddf",
			"DOMAIN_SEPARATOR()": "3644e515",
			"GCKLAY()": "052e4fb0",
			"MAX_SUPPLY()": "32cb6b0c",
			"MINTER_ROLE()": "d5391393",
			"OF_CONTRACT()": "cd7db018",
			"PAUSER_ROLE()": "e63ab1e9",
			"UPGRADER_ROLE()": "f72c0d8b",
			"UPGRADE_INTERFACE_VERSION()": "ad3cb1cc",
			"allowance(address,address)": "dd62ed3e",
			"approve(address,uint256)": "095ea7b3",
			"balanceOf(address)": "70a08231",
			"burn(uint256)": "42966c68",
			"burnFrom(address,uint256)": "79cc6790",
			"checkpoints(address,uint32)": "f1127ed8",
			"clock()": "91ddadf4",
			"decimals()": "313ce567",
			"delegate(address)": "5c19a95c",
			"delegateBySig(address,uint256,uint256,uint8,bytes32,bytes32)": "c3cda520",
			"delegates(address)": "587cde1e",
			"eip712Domain()": "84b0196e",
			"exitETH()": "a80109c6",
			"exitToken(address)": "662d084a",
			"fundToken(address)": "f28487bc",
			"getPastTotalSupply(uint256)": "8e539e8c",
			"getPastVotes(address,uint256)": "3a46b1a8",
			"getRoleAdmin(bytes32)": "248a9ca3",
			"getVotes(address)": "9ab24eb0",
			"grantRole(bytes32,address)": "2f2ff15d",
			"hasRole(bytes32,address)": "91d14854",
			"initialize(address,address,address)": "c0c53b8b",
			"mint(address,uint256)": "40c10f19",
			"name()": "06fdde03",
			"nonces(address)": "7ecebe00",
			"numCheckpoints(address)": "6fcfff45",
			"pause()": "8456cb59",
			"paused()": "5c975abb",
			"permit(address,address,uint256,uint256,uint8,bytes32,bytes32)": "d505accf",
			"proxiableUUID()": "52d1902d",
			"purchaseStatus()": "4fcd37e6",
			"reFundToken(address,uint256)": "ae2adaf0",
			"renounceRole(bytes32,address)": "36568abe",
			"revokeRole(bytes32,address)": "d547741f",
			"supportsInterface(bytes4)": "01ffc9a7",
			"symbol()": "95d89b41",
			"totalSupply()": "18160ddd",
			"transfer(address,uint256)": "a9059cbb",
			"transferFrom(address,address,uint256)": "23b872dd",
			"unpause()": "3f4ba83a",
			"upgradeToAndCall(address,bytes)": "4f1ef286"
		}
	},
	"abi": [
		{
			"inputs": [],
			"stateMutability": "nonpayable",
			"type": "constructor"
		},
		{
			"inputs": [],
			"name": "AccessControlBadConfirmation",
			"type": "error"
		},
		{
			"inputs": [
				{
					"internalType": "address",
					"name": "account",
					"type": "address"
				},
				{
					"internalType": "bytes32",
					"name": "neededRole",
					"type": "bytes32"
				}
			],
			"name": "AccessControlUnauthorizedAccount",
			"type": "error"
		},
		{
			"inputs": [
				{
					"internalType": "address",
					"name": "target",
					"type": "address"
				}
			],
			"name": "AddressEmptyCode",
			"type": "error"
		},
		{
			"inputs": [],
			"name": "CheckpointUnorderedInsertion",
			"type": "error"
		},
		{
			"inputs": [],
			"name": "ECDSAInvalidSignature",
			"type": "error"
		},
		{
			"inputs": [
				{
					"internalType": "uint256",
					"name": "length",
					"type": "uint256"
				}
			],
			"name": "ECDSAInvalidSignatureLength",
			"type": "error"
		},
		{
			"inputs": [
				{
					"internalType": "bytes32",
					"name": "s",
					"type": "bytes32"
				}
			],
			"name": "ECDSAInvalidSignatureS",
			"type": "error"
		},
		{
			"inputs": [
				{
					"internalType": "address",
					"name": "implementation",
					"type": "address"
				}
			],
			"name": "ERC1967InvalidImplementation",
			"type": "error"
		},
		{
			"inputs": [],
			"name": "ERC1967NonPayable",
			"type": "error"
		},
		{
			"inputs": [
				{
					"internalType": "uint256",
					"name": "increasedSupply",
					"type": "uint256"
				},
				{
					"internalType": "uint256",
					"name": "cap",
					"type": "uint256"
				}
			],
			"name": "ERC20ExceededSafeSupply",
			"type": "error"
		},
		{
			"inputs": [
				{
					"internalType": "address",
					"name": "spender",
					"type": "address"
				},
				{
					"internalType": "uint256",
					"name": "allowance",
					"type": "uint256"
				},
				{
					"internalType": "uint256",
					"name": "needed",
					"type": "uint256"
				}
			],
			"name": "ERC20InsufficientAllowance",
			"type": "error"
		},
		{
			"inputs": [
				{
					"internalType": "address",
					"name": "sender",
					"type": "address"
				},
				{
					"internalType": "uint256",
					"name": "balance",
					"type": "uint256"
				},
				{
					"internalType": "uint256",
					"name": "needed",
					"type": "uint256"
				}
			],
			"name": "ERC20InsufficientBalance",
			"type": "error"
		},
		{
			"inputs": [
				{
					"internalType": "address",
					"name": "approver",
					"type": "address"
				}
			],
			"name": "ERC20InvalidApprover",
			"type": "error"
		},
		{
			"inputs": [
				{
					"internalType": "address",
					"name": "receiver",
					"type": "address"
				}
			],
			"name": "ERC20InvalidReceiver",
			"type": "error"
		},
		{
			"inputs": [
				{
					"internalType": "address",
					"name": "sender",
					"type": "address"
				}
			],
			"name": "ERC20InvalidSender",
			"type": "error"
		},
		{
			"inputs": [
				{
					"internalType": "address",
					"name": "spender",
					"type": "address"
				}
			],
			"name": "ERC20InvalidSpender",
			"type": "error"
		},
		{
			"inputs": [
				{
					"internalType": "uint256",
					"name": "deadline",
					"type": "uint256"
				}
			],
			"name": "ERC2612ExpiredSignature",
			"type": "error"
		},
		{
			"inputs": [
				{
					"internalType": "address",
					"name": "signer",
					"type": "address"
				},
				{
					"internalType": "address",
					"name": "owner",
					"type": "address"
				}
			],
			"name": "ERC2612InvalidSigner",
			"type": "error"
		},
		{
			"inputs": [
				{
					"internalType": "uint256",
					"name": "timepoint",
					"type": "uint256"
				},
				{
					"internalType": "uint48",
					"name": "clock",
					"type": "uint48"
				}
			],
			"name": "ERC5805FutureLookup",
			"type": "error"
		},
		{
			"inputs": [],
			"name": "ERC6372InconsistentClock",
			"type": "error"
		},
		{
			"inputs": [],
			"name": "EnforcedPause",
			"type": "error"
		},
		{
			"inputs": [],
			"name": "ExpectedPause",
			"type": "error"
		},
		{
			"inputs": [],
			"name": "FailedInnerCall",
			"type": "error"
		},
		{
			"inputs": [
				{
					"internalType": "address",
					"name": "account",
					"type": "address"
				},
				{
					"internalType": "uint256",
					"name": "currentNonce",
					"type": "uint256"
				}
			],
			"name": "InvalidAccountNonce",
			"type": "error"
		},
		{
			"inputs": [],
			"name": "InvalidInitialization",
			"type": "error"
		},
		{
			"inputs": [],
			"name": "NotInitializing",
			"type": "error"
		},
		{
			"inputs": [],
			"name": "ReentrancyGuardReentrantCall",
			"type": "error"
		},
		{
			"inputs": [
				{
					"internalType": "uint8",
					"name": "bits",
					"type": "uint8"
				},
				{
					"internalType": "uint256",
					"name": "value",
					"type": "uint256"
				}
			],
			"name": "SafeCastOverflowedUintDowncast",
			"type": "error"
		},
		{
			"inputs": [],
			"name": "UUPSUnauthorizedCallContext",
			"type": "error"
		},
		{
			"inputs": [
				{
					"internalType": "bytes32",
					"name": "slot",
					"type": "bytes32"
				}
			],
			"name": "UUPSUnsupportedProxiableUUID",
			"type": "error"
		},
		{
			"inputs": [
				{
					"internalType": "uint256",
					"name": "expiry",
					"type": "uint256"
				}
			],
			"name": "VotesExpiredSignature",
			"type": "error"
		},
		{
			"anonymous": false,
			"inputs": [
				{
					"indexed": true,
					"internalType": "address",
					"name": "owner",
					"type": "address"
				},
				{
					"indexed": true,
					"internalType": "address",
					"name": "spender",
					"type": "address"
				},
				{
					"indexed": false,
					"internalType": "uint256",
					"name": "value",
					"type": "uint256"
				}
			],
			"name": "Approval",
			"type": "event"
		},
		{
			"anonymous": false,
			"inputs": [
				{
					"indexed": true,
					"internalType": "address",
					"name": "delegator",
					"type": "address"
				},
				{
					"indexed": true,
					"internalType": "address",
					"name": "fromDelegate",
					"type": "address"
				},
				{
					"indexed": true,
					"internalType": "address",
					"name": "toDelegate",
					"type": "address"
				}
			],
			"name": "DelegateChanged",
			"type": "event"
		},
		{
			"anonymous": false,
			"inputs": [
				{
					"indexed": true,
					"internalType": "address",
					"name": "delegate",
					"type": "address"
				},
				{
					"indexed": false,
					"internalType": "uint256",
					"name": "previousVotes",
					"type": "uint256"
				},
				{
					"indexed": false,
					"internalType": "uint256",
					"name": "newVotes",
					"type": "uint256"
				}
			],
			"name": "DelegateVotesChanged",
			"type": "event"
		},
		{
			"anonymous": false,
			"inputs": [],
			"name": "EIP712DomainChanged",
			"type": "event"
		},
		{
			"anonymous": false,
			"inputs": [
				{
					"indexed": false,
					"internalType": "uint64",
					"name": "version",
					"type": "uint64"
				}
			],
			"name": "Initialized",
			"type": "event"
		},
		{
			"anonymous": false,
			"inputs": [
				{
					"indexed": false,
					"internalType": "address",
					"name": "account",
					"type": "address"
				}
			],
			"name": "Paused",
			"type": "event"
		},
		{
			"anonymous": false,
			"inputs": [
				{
					"indexed": true,
					"internalType": "bytes32",
					"name": "role",
					"type": "bytes32"
				},
				{
					"indexed": true,
					"internalType": "bytes32",
					"name": "previousAdminRole",
					"type": "bytes32"
				},
				{
					"indexed": true,
					"internalType": "bytes32",
					"name": "newAdminRole",
					"type": "bytes32"
				}
			],
			"name": "RoleAdminChanged",
			"type": "event"
		},
		{
			"anonymous": false,
			"inputs": [
				{
					"indexed": true,
					"internalType": "bytes32",
					"name": "role",
					"type": "bytes32"
				},
				{
					"indexed": true,
					"internalType": "address",
					"name": "account",
					"type": "address"
				},
				{
					"indexed": true,
					"internalType": "address",
					"name": "sender",
					"type": "address"
				}
			],
			"name": "RoleGranted",
			"type": "event"
		},
		{
			"anonymous": false,
			"inputs": [
				{
					"indexed": true,
					"internalType": "bytes32",
					"name": "role",
					"type": "bytes32"
				},
				{
					"indexed": true,
					"internalType": "address",
					"name": "account",
					"type": "address"
				},
				{
					"indexed": true,
					"internalType": "address",
					"name": "sender",
					"type": "address"
				}
			],
			"name": "RoleRevoked",
			"type": "event"
		},
		{
			"anonymous": false,
			"inputs": [
				{
					"indexed": true,
					"internalType": "address",
					"name": "from",
					"type": "address"
				},
				{
					"indexed": true,
					"internalType": "address",
					"name": "to",
					"type": "address"
				},
				{
					"indexed": false,
					"internalType": "uint256",
					"name": "value",
					"type": "uint256"
				}
			],
			"name": "Transfer",
			"type": "event"
		},
		{
			"anonymous": false,
			"inputs": [
				{
					"indexed": false,
					"internalType": "address",
					"name": "account",
					"type": "address"
				}
			],
			"name": "Unpaused",
			"type": "event"
		},
		{
			"anonymous": false,
			"inputs": [
				{
					"indexed": true,
					"internalType": "address",
					"name": "implementation",
					"type": "address"
				}
			],
			"name": "Upgraded",
			"type": "event"
		},
		{
			"inputs": [],
			"name": "CLOCK_MODE",
			"outputs": [
				{
					"internalType": "string",
					"name": "",
					"type": "string"
				}
			],
			"stateMutability": "pure",
			"type": "function"
		},
		{
			"inputs": [],
			"name": "DEFAULT_ADMIN_ROLE",
			"outputs": [
				{
					"internalType": "bytes32",
					"name": "",
					"type": "bytes32"
				}
			],
			"stateMutability": "view",
			"type": "function"
		},
		{
			"inputs": [],
			"name": "DOMAIN_SEPARATOR",
			"outputs": [
				{
					"internalType": "bytes32",
					"name": "",
					"type": "bytes32"
				}
			],
			"stateMutability": "view",
			"type": "function"
		},
		{
			"inputs": [],
			"name": "GCKLAY",
			"outputs": [
				{
					"internalType": "address",
					"name": "",
					"type": "address"
				}
			],
			"stateMutability": "view",
			"type": "function"
		},
		{
			"inputs": [],
			"name": "MAX_SUPPLY",
			"outputs": [
				{
					"internalType": "uint256",
					"name": "",
					"type": "uint256"
				}
			],
			"stateMutability": "view",
			"type": "function"
		},
		{
			"inputs": [],
			"name": "MINTER_ROLE",
			"outputs": [
				{
					"internalType": "bytes32",
					"name": "",
					"type": "bytes32"
				}
			],
			"stateMutability": "view",
			"type": "function"
		},
		{
			"inputs": [],
			"name": "OF_CONTRACT",
			"outputs": [
				{
					"internalType": "address",
					"name": "",
					"type": "address"
				}
			],
			"stateMutability": "view",
			"type": "function"
		},
		{
			"inputs": [],
			"name": "PAUSER_ROLE",
			"outputs": [
				{
					"internalType": "bytes32",
					"name": "",
					"type": "bytes32"
				}
			],
			"stateMutability": "view",
			"type": "function"
		},
		{
			"inputs": [],
			"name": "UPGRADER_ROLE",
			"outputs": [
				{
					"internalType": "bytes32",
					"name": "",
					"type": "bytes32"
				}
			],
			"stateMutability": "view",
			"type": "function"
		},
		{
			"inputs": [],
			"name": "UPGRADE_INTERFACE_VERSION",
			"outputs": [
				{
					"internalType": "string",
					"name": "",
					"type": "string"
				}
			],
			"stateMutability": "view",
			"type": "function"
		},
		{
			"inputs": [
				{
					"internalType": "address",
					"name": "owner",
					"type": "address"
				},
				{
					"internalType": "address",
					"name": "spender",
					"type": "address"
				}
			],
			"name": "allowance",
			"outputs": [
				{
					"internalType": "uint256",
					"name": "",
					"type": "uint256"
				}
			],
			"stateMutability": "view",
			"type": "function"
		},
		{
			"inputs": [
				{
					"internalType": "address",
					"name": "spender",
					"type": "address"
				},
				{
					"internalType": "uint256",
					"name": "value",
					"type": "uint256"
				}
			],
			"name": "approve",
			"outputs": [
				{
					"internalType": "bool",
					"name": "",
					"type": "bool"
				}
			],
			"stateMutability": "nonpayable",
			"type": "function"
		},
		{
			"inputs": [
				{
					"internalType": "address",
					"name": "account",
					"type": "address"
				}
			],
			"name": "balanceOf",
			"outputs": [
				{
					"internalType": "uint256",
					"name": "",
					"type": "uint256"
				}
			],
			"stateMutability": "view",
			"type": "function"
		},
		{
			"inputs": [
				{
					"internalType": "uint256",
					"name": "value",
					"type": "uint256"
				}
			],
			"name": "burn",
			"outputs": [],
			"stateMutability": "nonpayable",
			"type": "function"
		},
		{
			"inputs": [
				{
					"internalType": "address",
					"name": "account",
					"type": "address"
				},
				{
					"internalType": "uint256",
					"name": "value",
					"type": "uint256"
				}
			],
			"name": "burnFrom",
			"outputs": [],
			"stateMutability": "nonpayable",
			"type": "function"
		},
		{
			"inputs": [
				{
					"internalType": "address",
					"name": "account",
					"type": "address"
				},
				{
					"internalType": "uint32",
					"name": "pos",
					"type": "uint32"
				}
			],
			"name": "checkpoints",
			"outputs": [
				{
					"components": [
						{
							"internalType": "uint48",
							"name": "_key",
							"type": "uint48"
						},
						{
							"internalType": "uint208",
							"name": "_value",
							"type": "uint208"
						}
					],
					"internalType": "struct Checkpoints.Checkpoint208",
					"name": "",
					"type": "tuple"
				}
			],
			"stateMutability": "view",
			"type": "function"
		},
		{
			"inputs": [],
			"name": "clock",
			"outputs": [
				{
					"internalType": "uint48",
					"name": "",
					"type": "uint48"
				}
			],
			"stateMutability": "view",
			"type": "function"
		},
		{
			"inputs": [],
			"name": "decimals",
			"outputs": [
				{
					"internalType": "uint8",
					"name": "",
					"type": "uint8"
				}
			],
			"stateMutability": "view",
			"type": "function"
		},
		{
			"inputs": [
				{
					"internalType": "address",
					"name": "delegatee",
					"type": "address"
				}
			],
			"name": "delegate",
			"outputs": [],
			"stateMutability": "nonpayable",
			"type": "function"
		},
		{
			"inputs": [
				{
					"internalType": "address",
					"name": "delegatee",
					"type": "address"
				},
				{
					"internalType": "uint256",
					"name": "nonce",
					"type": "uint256"
				},
				{
					"internalType": "uint256",
					"name": "expiry",
					"type": "uint256"
				},
				{
					"internalType": "uint8",
					"name": "v",
					"type": "uint8"
				},
				{
					"internalType": "bytes32",
					"name": "r",
					"type": "bytes32"
				},
				{
					"internalType": "bytes32",
					"name": "s",
					"type": "bytes32"
				}
			],
			"name": "delegateBySig",
			"outputs": [],
			"stateMutability": "nonpayable",
			"type": "function"
		},
		{
			"inputs": [
				{
					"internalType": "address",
					"name": "account",
					"type": "address"
				}
			],
			"name": "delegates",
			"outputs": [
				{
					"internalType": "address",
					"name": "",
					"type": "address"
				}
			],
			"stateMutability": "view",
			"type": "function"
		},
		{
			"inputs": [],
			"name": "eip712Domain",
			"outputs": [
				{
					"internalType": "bytes1",
					"name": "fields",
					"type": "bytes1"
				},
				{
					"internalType": "string",
					"name": "name",
					"type": "string"
				},
				{
					"internalType": "string",
					"name": "version",
					"type": "string"
				},
				{
					"internalType": "uint256",
					"name": "chainId",
					"type": "uint256"
				},
				{
					"internalType": "address",
					"name": "verifyingContract",
					"type": "address"
				},
				{
					"internalType": "bytes32",
					"name": "salt",
					"type": "bytes32"
				},
				{
					"internalType": "uint256[]",
					"name": "extensions",
					"type": "uint256[]"
				}
			],
			"stateMutability": "view",
			"type": "function"
		},
		{
			"inputs": [],
			"name": "exitETH",
			"outputs": [],
			"stateMutability": "nonpayable",
			"type": "function"
		},
		{
			"inputs": [
				{
					"internalType": "address",
					"name": "_tokenAddr",
					"type": "address"
				}
			],
			"name": "exitToken",
			"outputs": [],
			"stateMutability": "nonpayable",
			"type": "function"
		},
		{
			"inputs": [
				{
					"internalType": "address",
					"name": "_to",
					"type": "address"
				}
			],
			"name": "fundToken",
			"outputs": [],
			"stateMutability": "payable",
			"type": "function"
		},
		{
			"inputs": [
				{
					"internalType": "uint256",
					"name": "timepoint",
					"type": "uint256"
				}
			],
			"name": "getPastTotalSupply",
			"outputs": [
				{
					"internalType": "uint256",
					"name": "",
					"type": "uint256"
				}
			],
			"stateMutability": "view",
			"type": "function"
		},
		{
			"inputs": [
				{
					"internalType": "address",
					"name": "account",
					"type": "address"
				},
				{
					"internalType": "uint256",
					"name": "timepoint",
					"type": "uint256"
				}
			],
			"name": "getPastVotes",
			"outputs": [
				{
					"internalType": "uint256",
					"name": "",
					"type": "uint256"
				}
			],
			"stateMutability": "view",
			"type": "function"
		},
		{
			"inputs": [
				{
					"internalType": "bytes32",
					"name": "role",
					"type": "bytes32"
				}
			],
			"name": "getRoleAdmin",
			"outputs": [
				{
					"internalType": "bytes32",
					"name": "",
					"type": "bytes32"
				}
			],
			"stateMutability": "view",
			"type": "function"
		},
		{
			"inputs": [
				{
					"internalType": "address",
					"name": "account",
					"type": "address"
				}
			],
			"name": "getVotes",
			"outputs": [
				{
					"internalType": "uint256",
					"name": "",
					"type": "uint256"
				}
			],
			"stateMutability": "view",
			"type": "function"
		},
		{
			"inputs": [
				{
					"internalType": "bytes32",
					"name": "role",
					"type": "bytes32"
				},
				{
					"internalType": "address",
					"name": "account",
					"type": "address"
				}
			],
			"name": "grantRole",
			"outputs": [],
			"stateMutability": "nonpayable",
			"type": "function"
		},
		{
			"inputs": [
				{
					"internalType": "bytes32",
					"name": "role",
					"type": "bytes32"
				},
				{
					"internalType": "address",
					"name": "account",
					"type": "address"
				}
			],
			"name": "hasRole",
			"outputs": [
				{
					"internalType": "bool",
					"name": "",
					"type": "bool"
				}
			],
			"stateMutability": "view",
			"type": "function"
		},
		{
			"inputs": [
				{
					"internalType": "address",
					"name": "defaultAdmin",
					"type": "address"
				},
				{
					"internalType": "address",
					"name": "_ofContract",
					"type": "address"
				},
				{
					"internalType": "address",
					"name": "_GCKLAY",
					"type": "address"
				}
			],
			"name": "initialize",
			"outputs": [],
			"stateMutability": "nonpayable",
			"type": "function"
		},
		{
			"inputs": [
				{
					"internalType": "address",
					"name": "to",
					"type": "address"
				},
				{
					"internalType": "uint256",
					"name": "amount",
					"type": "uint256"
				}
			],
			"name": "mint",
			"outputs": [],
			"stateMutability": "nonpayable",
			"type": "function"
		},
		{
			"inputs": [],
			"name": "name",
			"outputs": [
				{
					"internalType": "string",
					"name": "",
					"type": "string"
				}
			],
			"stateMutability": "view",
			"type": "function"
		},
		{
			"inputs": [
				{
					"internalType": "address",
					"name": "owner",
					"type": "address"
				}
			],
			"name": "nonces",
			"outputs": [
				{
					"internalType": "uint256",
					"name": "",
					"type": "uint256"
				}
			],
			"stateMutability": "view",
			"type": "function"
		},
		{
			"inputs": [
				{
					"internalType": "address",
					"name": "account",
					"type": "address"
				}
			],
			"name": "numCheckpoints",
			"outputs": [
				{
					"internalType": "uint32",
					"name": "",
					"type": "uint32"
				}
			],
			"stateMutability": "view",
			"type": "function"
		},
		{
			"inputs": [],
			"name": "pause",
			"outputs": [],
			"stateMutability": "nonpayable",
			"type": "function"
		},
		{
			"inputs": [],
			"name": "paused",
			"outputs": [
				{
					"internalType": "bool",
					"name": "",
					"type": "bool"
				}
			],
			"stateMutability": "view",
			"type": "function"
		},
		{
			"inputs": [
				{
					"internalType": "address",
					"name": "owner",
					"type": "address"
				},
				{
					"internalType": "address",
					"name": "spender",
					"type": "address"
				},
				{
					"internalType": "uint256",
					"name": "value",
					"type": "uint256"
				},
				{
					"internalType": "uint256",
					"name": "deadline",
					"type": "uint256"
				},
				{
					"internalType": "uint8",
					"name": "v",
					"type": "uint8"
				},
				{
					"internalType": "bytes32",
					"name": "r",
					"type": "bytes32"
				},
				{
					"internalType": "bytes32",
					"name": "s",
					"type": "bytes32"
				}
			],
			"name": "permit",
			"outputs": [],
			"stateMutability": "nonpayable",
			"type": "function"
		},
		{
			"inputs": [],
			"name": "proxiableUUID",
			"outputs": [
				{
					"internalType": "bytes32",
					"name": "",
					"type": "bytes32"
				}
			],
			"stateMutability": "view",
			"type": "function"
		},
		{
			"inputs": [],
			"name": "purchaseStatus",
			"outputs": [
				{
					"internalType": "uint256",
					"name": "",
					"type": "uint256"
				}
			],
			"stateMutability": "view",
			"type": "function"
		},
		{
			"inputs": [
				{
					"internalType": "address",
					"name": "_to",
					"type": "address"
				},
				{
					"internalType": "uint256",
					"name": "_amount",
					"type": "uint256"
				}
			],
			"name": "reFundToken",
			"outputs": [],
			"stateMutability": "nonpayable",
			"type": "function"
		},
		{
			"inputs": [
				{
					"internalType": "bytes32",
					"name": "role",
					"type": "bytes32"
				},
				{
					"internalType": "address",
					"name": "callerConfirmation",
					"type": "address"
				}
			],
			"name": "renounceRole",
			"outputs": [],
			"stateMutability": "nonpayable",
			"type": "function"
		},
		{
			"inputs": [
				{
					"internalType": "bytes32",
					"name": "role",
					"type": "bytes32"
				},
				{
					"internalType": "address",
					"name": "account",
					"type": "address"
				}
			],
			"name": "revokeRole",
			"outputs": [],
			"stateMutability": "nonpayable",
			"type": "function"
		},
		{
			"inputs": [
				{
					"internalType": "bytes4",
					"name": "interfaceId",
					"type": "bytes4"
				}
			],
			"name": "supportsInterface",
			"outputs": [
				{
					"internalType": "bool",
					"name": "",
					"type": "bool"
				}
			],
			"stateMutability": "view",
			"type": "function"
		},
		{
			"inputs": [],
			"name": "symbol",
			"outputs": [
				{
					"internalType": "string",
					"name": "",
					"type": "string"
				}
			],
			"stateMutability": "view",
			"type": "function"
		},
		{
			"inputs": [],
			"name": "totalSupply",
			"outputs": [
				{
					"internalType": "uint256",
					"name": "",
					"type": "uint256"
				}
			],
			"stateMutability": "view",
			"type": "function"
		},
		{
			"inputs": [
				{
					"internalType": "address",
					"name": "to",
					"type": "address"
				},
				{
					"internalType": "uint256",
					"name": "value",
					"type": "uint256"
				}
			],
			"name": "transfer",
			"outputs": [
				{
					"internalType": "bool",
					"name": "",
					"type": "bool"
				}
			],
			"stateMutability": "nonpayable",
			"type": "function"
		},
		{
			"inputs": [
				{
					"internalType": "address",
					"name": "from",
					"type": "address"
				},
				{
					"internalType": "address",
					"name": "to",
					"type": "address"
				},
				{
					"internalType": "uint256",
					"name": "value",
					"type": "uint256"
				}
			],
			"name": "transferFrom",
			"outputs": [
				{
					"internalType": "bool",
					"name": "",
					"type": "bool"
				}
			],
			"stateMutability": "nonpayable",
			"type": "function"
		},
		{
			"inputs": [],
			"name": "unpause",
			"outputs": [],
			"stateMutability": "nonpayable",
			"type": "function"
		},
		{
			"inputs": [
				{
					"internalType": "address",
					"name": "newImplementation",
					"type": "address"
				},
				{
					"internalType": "bytes",
					"name": "data",
					"type": "bytes"
				}
			],
			"name": "upgradeToAndCall",
			"outputs": [],
			"stateMutability": "payable",
			"type": "function"
		},
		{
			"stateMutability": "payable",
			"type": "receive"
		}
	]
}