{
  "address": "0xe81a4038472DA654396638e960b64d7E694d240e",
  "abi": [
    {
      "anonymous": false,
      "inputs": [
        {
          "indexed": true,
          "internalType": "enum UserType",
          "name": "_type",
          "type": "uint8"
        },
        {
          "indexed": true,
          "internalType": "string",
          "name": "userId",
          "type": "string"
        },
        {
          "indexed": true,
          "internalType": "uint256",
          "name": "userIndex",
          "type": "uint256"
        }
      ],
      "name": "RegisterUser",
      "type": "event"
    },
    {
      "inputs": [
        {
          "internalType": "enum UserType",
          "name": "_type",
          "type": "uint8"
        },
        {
          "internalType": "string",
          "name": "_userId",
          "type": "string"
        },
        {
          "internalType": "address",
          "name": "_delegateEOA",
          "type": "address"
        },
        {
          "internalType": "string",
          "name": "_refferalId",
          "type": "string"
        }
      ],
      "name": "admin_registerMessengerUser",
      "outputs": [],
      "stateMutability": "nonpayable",
      "type": "function"
    },
    {
      "inputs": [
        {
          "internalType": "bytes32",
          "name": "_keyHash",
          "type": "bytes32"
        },
        {
          "internalType": "uint64",
          "name": "_accId",
          "type": "uint64"
        },
        {
          "internalType": "uint32",
          "name": "_callbackGasLimit",
          "type": "uint32"
        }
      ],
      "name": "admin_vrfSettings",
      "outputs": [],
      "stateMutability": "nonpayable",
      "type": "function"
    },
    {
      "inputs": [
        {
          "internalType": "string",
          "name": "_name",
          "type": "string"
        }
      ],
      "name": "getContract",
      "outputs": [
        {
          "internalType": "address",
          "name": "",
          "type": "address"
        }
      ],
      "stateMutability": "view",
      "type": "function"
    },
    {
      "inputs": [
        {
          "internalType": "string",
          "name": "_name",
          "type": "string"
        },
        {
          "internalType": "address",
          "name": "_address",
          "type": "address"
        }
      ],
      "name": "setContract",
      "outputs": [],
      "stateMutability": "nonpayable",
      "type": "function"
    }
  ],
  "transactionHash": "0xffd34bff2587fde42a5efe3941707bc476af7392540ac8cd9929fb96ea7cafdc",
  "args": [],
  "numDeployments": 9,
  "solcInputHash": "9307b8d626953133f8fa97bb4263d0fb",
  "bytecode": "0x6080806040523461001657610a58908161001c8239f35b600080fdfe6080604052600436101561001257600080fd5b60003560e01c8063358177731461081d5780633f0ed0df146107ad57806345bca7b8146100c1576389482e421461004857600080fd5b346100bc5760603660031901126100bc5760243567ffffffffffffffff81168091036100bc576044359063ffffffff821682036100bc5761008761092e565b600435600b556bffffffff0000000000000000600c549260401b16916bffffffffffffffffffffffff19161717600c55600080f35b600080fd5b346100bc5760803660031901126100bc57600360043510156100bc5760243567ffffffffffffffff81116100bc576100fd90369060040161087b565b6044356001600160a01b0380821682036100bc5760643567ffffffffffffffff81116100bc5761013190369060040161087b565b9161013a61092e565b60005b845181101561017a576001906101666001600160f81b031961015f83896109b1565b51166109d8565b60001a61017382886109b1565b530161013d565b509091826003604051602081610190818a6108de565b600181520301902001541661074b576040516020816101af81886108de565b6001815203019020845167ffffffffffffffff81116105a8578154600181811c91168015610741575b602082101461058857601f81116106fd575b50806020601f82116001146106965760009161068b575b508160011b916000199060031b1c19161790555b600360405160208161022781896108de565b600181520301902001805460ff60a01b191660043560a01b60ff60a01b1617905560405160039060208161025b81896108de565b60018152030190200180546001600160a01b03191683851617905560405160049060208161028981896108de565b600181520301902001815167ffffffffffffffff81116105a8578154600181811c91168015610681575b602082101461058857601f8111610639575b506020601f82116001146105c9579261030792826020936005966000916105be575b508160011b916000199060031b1c19161790555b604051928380926108de565b60018152030190200161031a8154610909565b90556002548060405160208161033081896108de565b60038152030190205560005260056020526001600460406000200155600254600052600560066040600020015560025460005260056007604060002001556002546000524260096040600020015560025460005260016040600020018282166bffffffffffffffffffffffff60a01b82541617905560016002548383166000526004602052604060002090815501835167ffffffffffffffff81116105a8578154600181811c9116801561059e575b602082101461058857601f8111610540575b50806020601f82116001146104dc576000916104d1575b508160011b916000199060031b1c19161790555b600160005260066020527f3e5fec24aa4dc4e5aee2e025e51e1392c72a2500577559fae9665c6d52bd6a33805461045290610909565b90551660005260076020526040600020600160ff1982541617905561049660405160208161048081866108de565b60038152030190205491604051918280926108de565b0390206004357fd0cb6b6a3ec896a28c9cbdc1c1d8bd5974bffca7bc1e7d79d23f8077dd03a1b2600080a46104cc600254610909565b600255005b905085015186610408565b6000848152602081209250601f198416905b8181106105285750908360019493921061050f575b5050811b01905561041c565b87015160001960f88460031b161c191690558680610503565b9192602060018192868c0151815501940192016104ee565b826000526020600020601f830160051c8101916020841061057e575b601f0160051c01905b81811061057257506103f1565b60008155600101610565565b909150819061055c565b634e487b7160e01b600052602260045260246000fd5b90607f16906103df565b634e487b7160e01b600052604160045260246000fd5b90508301518a6102e7565b8260005260206000209060005b601f19841681106106215750926001836005969361030796602096601f19811610610608575b5050811b0190556102fb565b85015160001960f88460031b161c191690558a806105fc565b909160206001819285890151815501930191016105d6565b826000526020600020601f830160051c81019160208410610677575b601f0160051c01905b81811061066b57506102c5565b6000815560010161065e565b9091508190610655565b90607f16906102b3565b905086015187610201565b91508260005260206000206000925b601f19831684106106e5576001935082601f198116106106cc575b5050811b019055610215565b88015160001960f88460031b161c1916905587806106c0565b888101518255602093840193600190920191016106a5565b826000526020600020601f830160051c81016020841061073a575b601f830160051c8201811061072e5750506101ea565b60008155600101610718565b5080610718565b90607f16906101d8565b60405162461bcd60e51b815260206004820152603460248201527f61646d696e5f72656769737465724d657373656e676572557365723a207573656044820152731c88185b1c9958591e481c9959da5cdd195c995960621b6064820152608490fd5b346100bc5760403660031901126100bc5760043567ffffffffffffffff81116100bc576107de90369060040161087b565b6024356001600160a01b03811691908290036100bc576020610802916102fb61092e565b600081520301902080546001600160a01b0319169091179055005b346100bc5760203660031901126100bc5760043567ffffffffffffffff81116100bc57610850602091369060040161087b565b61085d60405180926108de565b6000815281900382019020546040516001600160a01b039091168152f35b81601f820112156100bc5780359067ffffffffffffffff928383116105a85760405193601f8401601f19908116603f01168501908111858210176105a857604052828452602083830101116100bc57816000926020809301838601378301015290565b9081519160005b8381106108f6575050016000815290565b80602080928401015181850152016108e5565b60001981146109185760010190565b634e487b7160e01b600052601160045260246000fd5b7fc8fcad8db84d3cc18b4c41d551ea0ee66dd599cde068d998e57d5e09332c1320546001600160a01b0316330361096157565b60405162461bcd60e51b815260206004820152602260248201527f4c69624469616d6f6e643a204d75737420626520636f6e7472616374206f776e60448201526132b960f11b6064820152608490fd5b9081518110156109c2570160200190565b634e487b7160e01b600052603260045260246000fd5b6001600160f81b0319604160f81b828216908110159081610a13575b506109fd575090565b9060f81c60200160ff81116109185760f81b1690565b602d60f91b10159050386109f456fea2646970667358221220b0aae30dd7908ee5e38f24ce605047e02f6f924fd4b7721bd420295b42b9252464736f6c63430008180033",
  "devdoc": {
    "kind": "dev",
    "methods": {},
    "version": 1
  },
  "userdoc": {
    "kind": "user",
    "methods": {},
    "version": 1
  },
  "storageLayout": {
    "storage": [
      {
        "astId": 4121,
        "contract": "contracts/elementa/adminFacet.sol:adminFacet",
        "label": "s",
        "offset": 0,
        "slot": "0",
        "type": "t_struct(AppStorage)4074_storage"
      }
    ],
    "types": {
      "t_address": {
        "encoding": "inplace",
        "label": "address",
        "numberOfBytes": "20"
      },
      "t_array(t_uint256)10_storage": {
        "base": "t_uint256",
        "encoding": "inplace",
        "label": "uint256[10]",
        "numberOfBytes": "320"
      },
      "t_bool": {
        "encoding": "inplace",
        "label": "bool",
        "numberOfBytes": "1"
      },
      "t_bytes32": {
        "encoding": "inplace",
        "label": "bytes32",
        "numberOfBytes": "32"
      },
      "t_enum(EquipmentType)4086": {
        "encoding": "inplace",
        "label": "enum EquipmentType",
        "numberOfBytes": "1"
      },
      "t_enum(UserType)4092": {
        "encoding": "inplace",
        "label": "enum UserType",
        "numberOfBytes": "1"
      },
      "t_mapping(t_address,t_bool)": {
        "encoding": "mapping",
        "key": "t_address",
        "label": "mapping(address => bool)",
        "numberOfBytes": "32",
        "value": "t_bool"
      },
      "t_mapping(t_address,t_struct(DelegateEOA)3958_storage)": {
        "encoding": "mapping",
        "key": "t_address",
        "label": "mapping(address => struct DelegateEOA)",
        "numberOfBytes": "32",
        "value": "t_struct(DelegateEOA)3958_storage"
      },
      "t_mapping(t_string_memory_ptr,t_address)": {
        "encoding": "mapping",
        "key": "t_string_memory_ptr",
        "label": "mapping(string => address)",
        "numberOfBytes": "32",
        "value": "t_address"
      },
      "t_mapping(t_string_memory_ptr,t_struct(User)3949_storage)": {
        "encoding": "mapping",
        "key": "t_string_memory_ptr",
        "label": "mapping(string => struct User)",
        "numberOfBytes": "32",
        "value": "t_struct(User)3949_storage"
      },
      "t_mapping(t_string_memory_ptr,t_uint256)": {
        "encoding": "mapping",
        "key": "t_string_memory_ptr",
        "label": "mapping(string => uint256)",
        "numberOfBytes": "32",
        "value": "t_uint256"
      },
      "t_mapping(t_uint256,t_array(t_uint256)10_storage)": {
        "encoding": "mapping",
        "key": "t_uint256",
        "label": "mapping(uint256 => uint256[10])",
        "numberOfBytes": "32",
        "value": "t_array(t_uint256)10_storage"
      },
      "t_mapping(t_uint256,t_struct(ElementaItem)4006_storage)": {
        "encoding": "mapping",
        "key": "t_uint256",
        "label": "mapping(uint256 => struct ElementaItem)",
        "numberOfBytes": "32",
        "value": "t_struct(ElementaItem)4006_storage"
      },
      "t_mapping(t_uint256,t_struct(ElementaNFT)3990_storage)": {
        "encoding": "mapping",
        "key": "t_uint256",
        "label": "mapping(uint256 => struct ElementaNFT)",
        "numberOfBytes": "32",
        "value": "t_struct(ElementaNFT)3990_storage"
      },
      "t_mapping(t_uint256,t_struct(ElementaToken)4011_storage)": {
        "encoding": "mapping",
        "key": "t_uint256",
        "label": "mapping(uint256 => struct ElementaToken)",
        "numberOfBytes": "32",
        "value": "t_struct(ElementaToken)4011_storage"
      },
      "t_mapping(t_uint256,t_struct(levelInfo)3967_storage)": {
        "encoding": "mapping",
        "key": "t_uint256",
        "label": "mapping(uint256 => struct levelInfo)",
        "numberOfBytes": "32",
        "value": "t_struct(levelInfo)3967_storage"
      },
      "t_string_memory_ptr": {
        "encoding": "bytes",
        "label": "string",
        "numberOfBytes": "32"
      },
      "t_string_storage": {
        "encoding": "bytes",
        "label": "string",
        "numberOfBytes": "32"
      },
      "t_struct(AppStorage)4074_storage": {
        "encoding": "inplace",
        "label": "struct AppStorage",
        "members": [
          {
            "astId": 4024,
            "contract": "contracts/elementa/adminFacet.sol:adminFacet",
            "label": "contracts",
            "offset": 0,
            "slot": "0",
            "type": "t_mapping(t_string_memory_ptr,t_address)"
          },
          {
            "astId": 4029,
            "contract": "contracts/elementa/adminFacet.sol:adminFacet",
            "label": "users",
            "offset": 0,
            "slot": "1",
            "type": "t_mapping(t_string_memory_ptr,t_struct(User)3949_storage)"
          },
          {
            "astId": 4031,
            "contract": "contracts/elementa/adminFacet.sol:adminFacet",
            "label": "globalUserIndex",
            "offset": 0,
            "slot": "2",
            "type": "t_uint256"
          },
          {
            "astId": 4035,
            "contract": "contracts/elementa/adminFacet.sol:adminFacet",
            "label": "userIndex",
            "offset": 0,
            "slot": "3",
            "type": "t_mapping(t_string_memory_ptr,t_uint256)"
          },
          {
            "astId": 4040,
            "contract": "contracts/elementa/adminFacet.sol:adminFacet",
            "label": "delegateEOAs",
            "offset": 0,
            "slot": "4",
            "type": "t_mapping(t_address,t_struct(DelegateEOA)3958_storage)"
          },
          {
            "astId": 4045,
            "contract": "contracts/elementa/adminFacet.sol:adminFacet",
            "label": "elementaNFTs",
            "offset": 0,
            "slot": "5",
            "type": "t_mapping(t_uint256,t_struct(ElementaNFT)3990_storage)"
          },
          {
            "astId": 4050,
            "contract": "contracts/elementa/adminFacet.sol:adminFacet",
            "label": "levelInfos",
            "offset": 0,
            "slot": "6",
            "type": "t_mapping(t_uint256,t_struct(levelInfo)3967_storage)"
          },
          {
            "astId": 4054,
            "contract": "contracts/elementa/adminFacet.sol:adminFacet",
            "label": "isDelegateEOA",
            "offset": 0,
            "slot": "7",
            "type": "t_mapping(t_address,t_bool)"
          },
          {
            "astId": 4059,
            "contract": "contracts/elementa/adminFacet.sol:adminFacet",
            "label": "elementaItems",
            "offset": 0,
            "slot": "8",
            "type": "t_mapping(t_uint256,t_struct(ElementaItem)4006_storage)"
          },
          {
            "astId": 4065,
            "contract": "contracts/elementa/adminFacet.sol:adminFacet",
            "label": "equipItems",
            "offset": 0,
            "slot": "9",
            "type": "t_mapping(t_uint256,t_array(t_uint256)10_storage)"
          },
          {
            "astId": 4070,
            "contract": "contracts/elementa/adminFacet.sol:adminFacet",
            "label": "elementaToken",
            "offset": 0,
            "slot": "10",
            "type": "t_mapping(t_uint256,t_struct(ElementaToken)4011_storage)"
          },
          {
            "astId": 4073,
            "contract": "contracts/elementa/adminFacet.sol:adminFacet",
            "label": "oraklVRF",
            "offset": 0,
            "slot": "11",
            "type": "t_struct(OraklVRF)4020_storage"
          }
        ],
        "numberOfBytes": "416"
      },
      "t_struct(DelegateEOA)3958_storage": {
        "encoding": "inplace",
        "label": "struct DelegateEOA",
        "members": [
          {
            "astId": 3951,
            "contract": "contracts/elementa/adminFacet.sol:adminFacet",
            "label": "userIndex",
            "offset": 0,
            "slot": "0",
            "type": "t_uint256"
          },
          {
            "astId": 3953,
            "contract": "contracts/elementa/adminFacet.sol:adminFacet",
            "label": "userId",
            "offset": 0,
            "slot": "1",
            "type": "t_string_storage"
          },
          {
            "astId": 3955,
            "contract": "contracts/elementa/adminFacet.sol:adminFacet",
            "label": "connectAddress",
            "offset": 0,
            "slot": "2",
            "type": "t_address"
          },
          {
            "astId": 3957,
            "contract": "contracts/elementa/adminFacet.sol:adminFacet",
            "label": "isOwnNFT",
            "offset": 20,
            "slot": "2",
            "type": "t_bool"
          }
        ],
        "numberOfBytes": "96"
      },
      "t_struct(ElementaItem)4006_storage": {
        "encoding": "inplace",
        "label": "struct ElementaItem",
        "members": [
          {
            "astId": 3993,
            "contract": "contracts/elementa/adminFacet.sol:adminFacet",
            "label": "equipmentType",
            "offset": 0,
            "slot": "0",
            "type": "t_enum(EquipmentType)4086"
          },
          {
            "astId": 3995,
            "contract": "contracts/elementa/adminFacet.sol:adminFacet",
            "label": "itemId",
            "offset": 0,
            "slot": "1",
            "type": "t_uint256"
          },
          {
            "astId": 3997,
            "contract": "contracts/elementa/adminFacet.sol:adminFacet",
            "label": "name",
            "offset": 0,
            "slot": "2",
            "type": "t_string_storage"
          },
          {
            "astId": 3999,
            "contract": "contracts/elementa/adminFacet.sol:adminFacet",
            "label": "svgUri",
            "offset": 0,
            "slot": "3",
            "type": "t_string_storage"
          },
          {
            "astId": 4001,
            "contract": "contracts/elementa/adminFacet.sol:adminFacet",
            "label": "animateColors",
            "offset": 0,
            "slot": "4",
            "type": "t_string_storage"
          },
          {
            "astId": 4003,
            "contract": "contracts/elementa/adminFacet.sol:adminFacet",
            "label": "stopColor",
            "offset": 0,
            "slot": "5",
            "type": "t_string_storage"
          },
          {
            "astId": 4005,
            "contract": "contracts/elementa/adminFacet.sol:adminFacet",
            "label": "animateDuration",
            "offset": 0,
            "slot": "6",
            "type": "t_string_storage"
          }
        ],
        "numberOfBytes": "224"
      },
      "t_struct(ElementaNFT)3990_storage": {
        "encoding": "inplace",
        "label": "struct ElementaNFT",
        "members": [
          {
            "astId": 3969,
            "contract": "contracts/elementa/adminFacet.sol:adminFacet",
            "label": "ownerAddress",
            "offset": 0,
            "slot": "0",
            "type": "t_address"
          },
          {
            "astId": 3971,
            "contract": "contracts/elementa/adminFacet.sol:adminFacet",
            "label": "delegateAddress",
            "offset": 0,
            "slot": "1",
            "type": "t_address"
          },
          {
            "astId": 3973,
            "contract": "contracts/elementa/adminFacet.sol:adminFacet",
            "label": "nickName",
            "offset": 0,
            "slot": "2",
            "type": "t_string_storage"
          },
          {
            "astId": 3975,
            "contract": "contracts/elementa/adminFacet.sol:adminFacet",
            "label": "grade",
            "offset": 0,
            "slot": "3",
            "type": "t_uint256"
          },
          {
            "astId": 3977,
            "contract": "contracts/elementa/adminFacet.sol:adminFacet",
            "label": "level",
            "offset": 0,
            "slot": "4",
            "type": "t_uint256"
          },
          {
            "astId": 3979,
            "contract": "contracts/elementa/adminFacet.sol:adminFacet",
            "label": "exp",
            "offset": 0,
            "slot": "5",
            "type": "t_uint256"
          },
          {
            "astId": 3981,
            "contract": "contracts/elementa/adminFacet.sol:adminFacet",
            "label": "heartMax",
            "offset": 0,
            "slot": "6",
            "type": "t_uint256"
          },
          {
            "astId": 3983,
            "contract": "contracts/elementa/adminFacet.sol:adminFacet",
            "label": "heartPoint",
            "offset": 0,
            "slot": "7",
            "type": "t_uint256"
          },
          {
            "astId": 3985,
            "contract": "contracts/elementa/adminFacet.sol:adminFacet",
            "label": "plusHeartPoint",
            "offset": 0,
            "slot": "8",
            "type": "t_uint256"
          },
          {
            "astId": 3987,
            "contract": "contracts/elementa/adminFacet.sol:adminFacet",
            "label": "updateHeartTime",
            "offset": 0,
            "slot": "9",
            "type": "t_uint256"
          },
          {
            "astId": 3989,
            "contract": "contracts/elementa/adminFacet.sol:adminFacet",
            "label": "elementaPoint",
            "offset": 0,
            "slot": "10",
            "type": "t_uint256"
          }
        ],
        "numberOfBytes": "352"
      },
      "t_struct(ElementaToken)4011_storage": {
        "encoding": "inplace",
        "label": "struct ElementaToken",
        "members": [
          {
            "astId": 4008,
            "contract": "contracts/elementa/adminFacet.sol:adminFacet",
            "label": "phaseMaxSupply",
            "offset": 0,
            "slot": "0",
            "type": "t_uint256"
          },
          {
            "astId": 4010,
            "contract": "contracts/elementa/adminFacet.sol:adminFacet",
            "label": "mintedSupply",
            "offset": 0,
            "slot": "1",
            "type": "t_uint256"
          }
        ],
        "numberOfBytes": "64"
      },
      "t_struct(OraklVRF)4020_storage": {
        "encoding": "inplace",
        "label": "struct OraklVRF",
        "members": [
          {
            "astId": 4013,
            "contract": "contracts/elementa/adminFacet.sol:adminFacet",
            "label": "keyHash",
            "offset": 0,
            "slot": "0",
            "type": "t_bytes32"
          },
          {
            "astId": 4015,
            "contract": "contracts/elementa/adminFacet.sol:adminFacet",
            "label": "accId",
            "offset": 0,
            "slot": "1",
            "type": "t_uint64"
          },
          {
            "astId": 4017,
            "contract": "contracts/elementa/adminFacet.sol:adminFacet",
            "label": "callbackGasLimit",
            "offset": 8,
            "slot": "1",
            "type": "t_uint32"
          },
          {
            "astId": 4019,
            "contract": "contracts/elementa/adminFacet.sol:adminFacet",
            "label": "numWords",
            "offset": 12,
            "slot": "1",
            "type": "t_uint32"
          }
        ],
        "numberOfBytes": "64"
      },
      "t_struct(User)3949_storage": {
        "encoding": "inplace",
        "label": "struct User",
        "members": [
          {
            "astId": 3935,
            "contract": "contracts/elementa/adminFacet.sol:adminFacet",
            "label": "userId",
            "offset": 0,
            "slot": "0",
            "type": "t_string_storage"
          },
          {
            "astId": 3937,
            "contract": "contracts/elementa/adminFacet.sol:adminFacet",
            "label": "nftId",
            "offset": 0,
            "slot": "1",
            "type": "t_uint256"
          },
          {
            "astId": 3939,
            "contract": "contracts/elementa/adminFacet.sol:adminFacet",
            "label": "reciveAddress",
            "offset": 0,
            "slot": "2",
            "type": "t_address"
          },
          {
            "astId": 3941,
            "contract": "contracts/elementa/adminFacet.sol:adminFacet",
            "label": "delegateEOA",
            "offset": 0,
            "slot": "3",
            "type": "t_address"
          },
          {
            "astId": 3944,
            "contract": "contracts/elementa/adminFacet.sol:adminFacet",
            "label": "userType",
            "offset": 20,
            "slot": "3",
            "type": "t_enum(UserType)4092"
          },
          {
            "astId": 3946,
            "contract": "contracts/elementa/adminFacet.sol:adminFacet",
            "label": "refferalId",
            "offset": 0,
            "slot": "4",
            "type": "t_string_storage"
          },
          {
            "astId": 3948,
            "contract": "contracts/elementa/adminFacet.sol:adminFacet",
            "label": "refferalCount",
            "offset": 0,
            "slot": "5",
            "type": "t_uint256"
          }
        ],
        "numberOfBytes": "192"
      },
      "t_struct(levelInfo)3967_storage": {
        "encoding": "inplace",
        "label": "struct levelInfo",
        "members": [
          {
            "astId": 3960,
            "contract": "contracts/elementa/adminFacet.sol:adminFacet",
            "label": "level",
            "offset": 0,
            "slot": "0",
            "type": "t_uint256"
          },
          {
            "astId": 3962,
            "contract": "contracts/elementa/adminFacet.sol:adminFacet",
            "label": "requireExp",
            "offset": 0,
            "slot": "1",
            "type": "t_uint256"
          },
          {
            "astId": 3964,
            "contract": "contracts/elementa/adminFacet.sol:adminFacet",
            "label": "levelUserCount",
            "offset": 0,
            "slot": "2",
            "type": "t_uint256"
          },
          {
            "astId": 3966,
            "contract": "contracts/elementa/adminFacet.sol:adminFacet",
            "label": "heartMax",
            "offset": 0,
            "slot": "3",
            "type": "t_uint256"
          }
        ],
        "numberOfBytes": "128"
      },
      "t_uint256": {
        "encoding": "inplace",
        "label": "uint256",
        "numberOfBytes": "32"
      },
      "t_uint32": {
        "encoding": "inplace",
        "label": "uint32",
        "numberOfBytes": "4"
      },
      "t_uint64": {
        "encoding": "inplace",
        "label": "uint64",
        "numberOfBytes": "8"
      }
    }
  }
}