{
  "address": "0xcCD839dBf1D7d28ABc8bf4A2115D73D38A639Ed4",
  "abi": [
    {
      "anonymous": false,
      "inputs": [
        {
          "indexed": true,
          "internalType": "enum UserType",
          "name": "_type",
          "type": "uint8"
        },
        {
          "indexed": true,
          "internalType": "string",
          "name": "userId",
          "type": "string"
        },
        {
          "indexed": true,
          "internalType": "uint256",
          "name": "userIndex",
          "type": "uint256"
        }
      ],
      "name": "RegisterUser",
      "type": "event"
    },
    {
      "inputs": [
        {
          "internalType": "enum UserType",
          "name": "_type",
          "type": "uint8"
        },
        {
          "internalType": "string",
          "name": "_userId",
          "type": "string"
        },
        {
          "internalType": "address",
          "name": "_delegateEOA",
          "type": "address"
        },
        {
          "internalType": "string",
          "name": "_refferalId",
          "type": "string"
        }
      ],
      "name": "admin_registerMessengerUser",
      "outputs": [],
      "stateMutability": "nonpayable",
      "type": "function"
    },
    {
      "inputs": [
        {
          "internalType": "string",
          "name": "_name",
          "type": "string"
        }
      ],
      "name": "getContract",
      "outputs": [
        {
          "internalType": "address",
          "name": "",
          "type": "address"
        }
      ],
      "stateMutability": "view",
      "type": "function"
    },
    {
      "inputs": [
        {
          "internalType": "string",
          "name": "_name",
          "type": "string"
        },
        {
          "internalType": "address",
          "name": "_address",
          "type": "address"
        }
      ],
      "name": "setContract",
      "outputs": [],
      "stateMutability": "nonpayable",
      "type": "function"
    }
  ],
  "transactionHash": "0x47936ce90f12fc087635492ac81da654781815f15128da6c146bdc1cdc8fc740",
  "args": [],
  "numDeployments": 6,
  "solcInputHash": "61de401cecd0dd0616a011e026944ea1",
  "bytecode": "0x60808060405234610016576109d9908161001c8239f35b600080fdfe6080604052600436101561001257600080fd5b60003560e01c8063358177731461079e5780633f0ed0df1461072e576345bca7b81461003d57600080fd5b3461072957608036600319011261072957600360043510156107295760243567ffffffffffffffff8111610729576100799036906004016107fc565b6044356001600160a01b0380821682036107295760643567ffffffffffffffff8111610729576100ad9036906004016107fc565b916100b66108af565b60005b84518110156100f6576001906100e26001600160f81b03196100db8389610932565b5116610959565b60001a6100ef8288610932565b53016100b9565b50909182600360405160208161010c818a61085f565b60018152030190200154166106c75760405160208161012b818861085f565b6001815203019020845167ffffffffffffffff8111610524578154600181811c911680156106bd575b602082101461050457601f8111610679575b50806020601f821160011461061257600091610607575b508160011b916000199060031b1c19161790555b60036040516020816101a3818961085f565b600181520301902001805460ff60a01b191660043560a01b60ff60a01b161790556040516003906020816101d7818961085f565b60018152030190200180546001600160a01b031916838516179055604051600490602081610205818961085f565b600181520301902001815167ffffffffffffffff8111610524578154600181811c911680156105fd575b602082101461050457601f81116105b5575b506020601f82116001146105455792610283928260209360059660009161053a575b508160011b916000199060031b1c19161790555b6040519283809261085f565b600181520301902001610296815461088a565b9055600254806040516020816102ac818961085f565b60038152030190205560005260056020526001600460406000200155600254600052600560066040600020015560025460005260056007604060002001556002546000524260096040600020015560025460005260016040600020018282166bffffffffffffffffffffffff60a01b82541617905560016002548383166000526004602052604060002090815501835167ffffffffffffffff8111610524578154600181811c9116801561051a575b602082101461050457601f81116104bc575b50806020601f82116001146104585760009161044d575b508160011b916000199060031b1c19161790555b600160005260066020527f3e5fec24aa4dc4e5aee2e025e51e1392c72a2500577559fae9665c6d52bd6a3380546103ce9061088a565b90551660005260076020526040600020600160ff198254161790556104126040516020816103fc818661085f565b600381520301902054916040519182809261085f565b0390206004357fd0cb6b6a3ec896a28c9cbdc1c1d8bd5974bffca7bc1e7d79d23f8077dd03a1b2600080a461044860025461088a565b600255005b905085015138610384565b6000848152602081209250601f198416905b8181106104a45750908360019493921061048b575b5050811b019055610398565b87015160001960f88460031b161c19169055388061047f565b9192602060018192868c01518155019401920161046a565b826000526020600020601f830160051c810191602084106104fa575b601f0160051c01905b8181106104ee575061036d565b600081556001016104e1565b90915081906104d8565b634e487b7160e01b600052602260045260246000fd5b90607f169061035b565b634e487b7160e01b600052604160045260246000fd5b905083015138610263565b8260005260206000209060005b601f198416811061059d5750926001836005969361028396602096601f19811610610584575b5050811b019055610277565b85015160001960f88460031b161c191690553880610578565b90916020600181928589015181550193019101610552565b826000526020600020601f830160051c810191602084106105f3575b601f0160051c01905b8181106105e75750610241565b600081556001016105da565b90915081906105d1565b90607f169061022f565b90508601513861017d565b91508260005260206000206000925b601f1983168410610661576001935082601f19811610610648575b5050811b019055610191565b88015160001960f88460031b161c19169055388061063c565b88810151825560209384019360019092019101610621565b826000526020600020601f830160051c8101602084106106b6575b601f830160051c820181106106aa575050610166565b60008155600101610694565b5080610694565b90607f1690610154565b60405162461bcd60e51b815260206004820152603460248201527f61646d696e5f72656769737465724d657373656e676572557365723a207573656044820152731c88185b1c9958591e481c9959da5cdd195c995960621b6064820152608490fd5b600080fd5b346107295760403660031901126107295760043567ffffffffffffffff81116107295761075f9036906004016107fc565b6024356001600160a01b0381169190829003610729576020610783916102776108af565b600081520301902080546001600160a01b0319169091179055005b346107295760203660031901126107295760043567ffffffffffffffff8111610729576107d160209136906004016107fc565b6107de604051809261085f565b6000815281900382019020546040516001600160a01b039091168152f35b81601f820112156107295780359067ffffffffffffffff928383116105245760405193601f8401601f19908116603f0116850190811185821017610524576040528284526020838301011161072957816000926020809301838601378301015290565b9081519160005b838110610877575050016000815290565b8060208092840101518185015201610866565b60001981146108995760010190565b634e487b7160e01b600052601160045260246000fd5b7fc8fcad8db84d3cc18b4c41d551ea0ee66dd599cde068d998e57d5e09332c1320546001600160a01b031633036108e257565b60405162461bcd60e51b815260206004820152602260248201527f4c69624469616d6f6e643a204d75737420626520636f6e7472616374206f776e60448201526132b960f11b6064820152608490fd5b908151811015610943570160200190565b634e487b7160e01b600052603260045260246000fd5b6001600160f81b0319604160f81b828216908110159081610994575b5061097e575090565b9060f81c60200160ff81116108995760f81b1690565b602d60f91b101590503861097556fea264697066735822122055b7e333bd411beb3b5d73602c9a8afe51487f20ea67687e585c9f978352407e64736f6c63430008180033",
  "devdoc": {
    "kind": "dev",
    "methods": {},
    "version": 1
  },
  "userdoc": {
    "kind": "user",
    "methods": {},
    "version": 1
  },
  "storageLayout": {
    "storage": [
      {
        "astId": 14177,
        "contract": "contracts/elementa/adminFacet.sol:adminFacet",
        "label": "s",
        "offset": 0,
        "slot": "0",
        "type": "t_struct(AppStorage)14131_storage"
      }
    ],
    "types": {
      "t_address": {
        "encoding": "inplace",
        "label": "address",
        "numberOfBytes": "20"
      },
      "t_array(t_uint256)10_storage": {
        "base": "t_uint256",
        "encoding": "inplace",
        "label": "uint256[10]",
        "numberOfBytes": "320"
      },
      "t_bool": {
        "encoding": "inplace",
        "label": "bool",
        "numberOfBytes": "1"
      },
      "t_bytes_storage": {
        "encoding": "bytes",
        "label": "bytes",
        "numberOfBytes": "32"
      },
      "t_enum(EquipmentType)14142": {
        "encoding": "inplace",
        "label": "enum EquipmentType",
        "numberOfBytes": "1"
      },
      "t_enum(UserType)14148": {
        "encoding": "inplace",
        "label": "enum UserType",
        "numberOfBytes": "1"
      },
      "t_mapping(t_address,t_bool)": {
        "encoding": "mapping",
        "key": "t_address",
        "label": "mapping(address => bool)",
        "numberOfBytes": "32",
        "value": "t_bool"
      },
      "t_mapping(t_address,t_struct(DelegateEOA)14036_storage)": {
        "encoding": "mapping",
        "key": "t_address",
        "label": "mapping(address => struct DelegateEOA)",
        "numberOfBytes": "32",
        "value": "t_struct(DelegateEOA)14036_storage"
      },
      "t_mapping(t_string_memory_ptr,t_address)": {
        "encoding": "mapping",
        "key": "t_string_memory_ptr",
        "label": "mapping(string => address)",
        "numberOfBytes": "32",
        "value": "t_address"
      },
      "t_mapping(t_string_memory_ptr,t_struct(User)14027_storage)": {
        "encoding": "mapping",
        "key": "t_string_memory_ptr",
        "label": "mapping(string => struct User)",
        "numberOfBytes": "32",
        "value": "t_struct(User)14027_storage"
      },
      "t_mapping(t_string_memory_ptr,t_uint256)": {
        "encoding": "mapping",
        "key": "t_string_memory_ptr",
        "label": "mapping(string => uint256)",
        "numberOfBytes": "32",
        "value": "t_uint256"
      },
      "t_mapping(t_uint256,t_array(t_uint256)10_storage)": {
        "encoding": "mapping",
        "key": "t_uint256",
        "label": "mapping(uint256 => uint256[10])",
        "numberOfBytes": "32",
        "value": "t_array(t_uint256)10_storage"
      },
      "t_mapping(t_uint256,t_struct(ElementaItem)14078_storage)": {
        "encoding": "mapping",
        "key": "t_uint256",
        "label": "mapping(uint256 => struct ElementaItem)",
        "numberOfBytes": "32",
        "value": "t_struct(ElementaItem)14078_storage"
      },
      "t_mapping(t_uint256,t_struct(ElementaNFT)14068_storage)": {
        "encoding": "mapping",
        "key": "t_uint256",
        "label": "mapping(uint256 => struct ElementaNFT)",
        "numberOfBytes": "32",
        "value": "t_struct(ElementaNFT)14068_storage"
      },
      "t_mapping(t_uint256,t_struct(levelInfo)14045_storage)": {
        "encoding": "mapping",
        "key": "t_uint256",
        "label": "mapping(uint256 => struct levelInfo)",
        "numberOfBytes": "32",
        "value": "t_struct(levelInfo)14045_storage"
      },
      "t_string_memory_ptr": {
        "encoding": "bytes",
        "label": "string",
        "numberOfBytes": "32"
      },
      "t_string_storage": {
        "encoding": "bytes",
        "label": "string",
        "numberOfBytes": "32"
      },
      "t_struct(AppStorage)14131_storage": {
        "encoding": "inplace",
        "label": "struct AppStorage",
        "members": [
          {
            "astId": 14089,
            "contract": "contracts/elementa/adminFacet.sol:adminFacet",
            "label": "contracts",
            "offset": 0,
            "slot": "0",
            "type": "t_mapping(t_string_memory_ptr,t_address)"
          },
          {
            "astId": 14094,
            "contract": "contracts/elementa/adminFacet.sol:adminFacet",
            "label": "users",
            "offset": 0,
            "slot": "1",
            "type": "t_mapping(t_string_memory_ptr,t_struct(User)14027_storage)"
          },
          {
            "astId": 14096,
            "contract": "contracts/elementa/adminFacet.sol:adminFacet",
            "label": "globalUserIndex",
            "offset": 0,
            "slot": "2",
            "type": "t_uint256"
          },
          {
            "astId": 14100,
            "contract": "contracts/elementa/adminFacet.sol:adminFacet",
            "label": "userIndex",
            "offset": 0,
            "slot": "3",
            "type": "t_mapping(t_string_memory_ptr,t_uint256)"
          },
          {
            "astId": 14105,
            "contract": "contracts/elementa/adminFacet.sol:adminFacet",
            "label": "delegateEOAs",
            "offset": 0,
            "slot": "4",
            "type": "t_mapping(t_address,t_struct(DelegateEOA)14036_storage)"
          },
          {
            "astId": 14110,
            "contract": "contracts/elementa/adminFacet.sol:adminFacet",
            "label": "elementaNFTs",
            "offset": 0,
            "slot": "5",
            "type": "t_mapping(t_uint256,t_struct(ElementaNFT)14068_storage)"
          },
          {
            "astId": 14115,
            "contract": "contracts/elementa/adminFacet.sol:adminFacet",
            "label": "levelInfos",
            "offset": 0,
            "slot": "6",
            "type": "t_mapping(t_uint256,t_struct(levelInfo)14045_storage)"
          },
          {
            "astId": 14119,
            "contract": "contracts/elementa/adminFacet.sol:adminFacet",
            "label": "isDelegateEOA",
            "offset": 0,
            "slot": "7",
            "type": "t_mapping(t_address,t_bool)"
          },
          {
            "astId": 14124,
            "contract": "contracts/elementa/adminFacet.sol:adminFacet",
            "label": "elementaItems",
            "offset": 0,
            "slot": "8",
            "type": "t_mapping(t_uint256,t_struct(ElementaItem)14078_storage)"
          },
          {
            "astId": 14130,
            "contract": "contracts/elementa/adminFacet.sol:adminFacet",
            "label": "equipItems",
            "offset": 0,
            "slot": "9",
            "type": "t_mapping(t_uint256,t_array(t_uint256)10_storage)"
          }
        ],
        "numberOfBytes": "320"
      },
      "t_struct(DelegateEOA)14036_storage": {
        "encoding": "inplace",
        "label": "struct DelegateEOA",
        "members": [
          {
            "astId": 14029,
            "contract": "contracts/elementa/adminFacet.sol:adminFacet",
            "label": "userIndex",
            "offset": 0,
            "slot": "0",
            "type": "t_uint256"
          },
          {
            "astId": 14031,
            "contract": "contracts/elementa/adminFacet.sol:adminFacet",
            "label": "userId",
            "offset": 0,
            "slot": "1",
            "type": "t_string_storage"
          },
          {
            "astId": 14033,
            "contract": "contracts/elementa/adminFacet.sol:adminFacet",
            "label": "connectAddress",
            "offset": 0,
            "slot": "2",
            "type": "t_address"
          },
          {
            "astId": 14035,
            "contract": "contracts/elementa/adminFacet.sol:adminFacet",
            "label": "isOwnNFT",
            "offset": 20,
            "slot": "2",
            "type": "t_bool"
          }
        ],
        "numberOfBytes": "96"
      },
      "t_struct(ElementaItem)14078_storage": {
        "encoding": "inplace",
        "label": "struct ElementaItem",
        "members": [
          {
            "astId": 14071,
            "contract": "contracts/elementa/adminFacet.sol:adminFacet",
            "label": "equipmentType",
            "offset": 0,
            "slot": "0",
            "type": "t_enum(EquipmentType)14142"
          },
          {
            "astId": 14073,
            "contract": "contracts/elementa/adminFacet.sol:adminFacet",
            "label": "itemId",
            "offset": 0,
            "slot": "1",
            "type": "t_uint256"
          },
          {
            "astId": 14075,
            "contract": "contracts/elementa/adminFacet.sol:adminFacet",
            "label": "name",
            "offset": 0,
            "slot": "2",
            "type": "t_string_storage"
          },
          {
            "astId": 14077,
            "contract": "contracts/elementa/adminFacet.sol:adminFacet",
            "label": "svgUri",
            "offset": 0,
            "slot": "3",
            "type": "t_bytes_storage"
          }
        ],
        "numberOfBytes": "128"
      },
      "t_struct(ElementaNFT)14068_storage": {
        "encoding": "inplace",
        "label": "struct ElementaNFT",
        "members": [
          {
            "astId": 14047,
            "contract": "contracts/elementa/adminFacet.sol:adminFacet",
            "label": "ownerAddress",
            "offset": 0,
            "slot": "0",
            "type": "t_address"
          },
          {
            "astId": 14049,
            "contract": "contracts/elementa/adminFacet.sol:adminFacet",
            "label": "delegateAddress",
            "offset": 0,
            "slot": "1",
            "type": "t_address"
          },
          {
            "astId": 14051,
            "contract": "contracts/elementa/adminFacet.sol:adminFacet",
            "label": "nickName",
            "offset": 0,
            "slot": "2",
            "type": "t_string_storage"
          },
          {
            "astId": 14053,
            "contract": "contracts/elementa/adminFacet.sol:adminFacet",
            "label": "grade",
            "offset": 0,
            "slot": "3",
            "type": "t_uint256"
          },
          {
            "astId": 14055,
            "contract": "contracts/elementa/adminFacet.sol:adminFacet",
            "label": "level",
            "offset": 0,
            "slot": "4",
            "type": "t_uint256"
          },
          {
            "astId": 14057,
            "contract": "contracts/elementa/adminFacet.sol:adminFacet",
            "label": "exp",
            "offset": 0,
            "slot": "5",
            "type": "t_uint256"
          },
          {
            "astId": 14059,
            "contract": "contracts/elementa/adminFacet.sol:adminFacet",
            "label": "heartMax",
            "offset": 0,
            "slot": "6",
            "type": "t_uint256"
          },
          {
            "astId": 14061,
            "contract": "contracts/elementa/adminFacet.sol:adminFacet",
            "label": "heartPoint",
            "offset": 0,
            "slot": "7",
            "type": "t_uint256"
          },
          {
            "astId": 14063,
            "contract": "contracts/elementa/adminFacet.sol:adminFacet",
            "label": "plusHeartPoint",
            "offset": 0,
            "slot": "8",
            "type": "t_uint256"
          },
          {
            "astId": 14065,
            "contract": "contracts/elementa/adminFacet.sol:adminFacet",
            "label": "updateHeartTime",
            "offset": 0,
            "slot": "9",
            "type": "t_uint256"
          },
          {
            "astId": 14067,
            "contract": "contracts/elementa/adminFacet.sol:adminFacet",
            "label": "elementaPoint",
            "offset": 0,
            "slot": "10",
            "type": "t_uint256"
          }
        ],
        "numberOfBytes": "352"
      },
      "t_struct(User)14027_storage": {
        "encoding": "inplace",
        "label": "struct User",
        "members": [
          {
            "astId": 14013,
            "contract": "contracts/elementa/adminFacet.sol:adminFacet",
            "label": "userId",
            "offset": 0,
            "slot": "0",
            "type": "t_string_storage"
          },
          {
            "astId": 14015,
            "contract": "contracts/elementa/adminFacet.sol:adminFacet",
            "label": "nftId",
            "offset": 0,
            "slot": "1",
            "type": "t_uint256"
          },
          {
            "astId": 14017,
            "contract": "contracts/elementa/adminFacet.sol:adminFacet",
            "label": "reciveAddress",
            "offset": 0,
            "slot": "2",
            "type": "t_address"
          },
          {
            "astId": 14019,
            "contract": "contracts/elementa/adminFacet.sol:adminFacet",
            "label": "delegateEOA",
            "offset": 0,
            "slot": "3",
            "type": "t_address"
          },
          {
            "astId": 14022,
            "contract": "contracts/elementa/adminFacet.sol:adminFacet",
            "label": "userType",
            "offset": 20,
            "slot": "3",
            "type": "t_enum(UserType)14148"
          },
          {
            "astId": 14024,
            "contract": "contracts/elementa/adminFacet.sol:adminFacet",
            "label": "refferalId",
            "offset": 0,
            "slot": "4",
            "type": "t_string_storage"
          },
          {
            "astId": 14026,
            "contract": "contracts/elementa/adminFacet.sol:adminFacet",
            "label": "refferalCount",
            "offset": 0,
            "slot": "5",
            "type": "t_uint256"
          }
        ],
        "numberOfBytes": "192"
      },
      "t_struct(levelInfo)14045_storage": {
        "encoding": "inplace",
        "label": "struct levelInfo",
        "members": [
          {
            "astId": 14038,
            "contract": "contracts/elementa/adminFacet.sol:adminFacet",
            "label": "level",
            "offset": 0,
            "slot": "0",
            "type": "t_uint256"
          },
          {
            "astId": 14040,
            "contract": "contracts/elementa/adminFacet.sol:adminFacet",
            "label": "requireExp",
            "offset": 0,
            "slot": "1",
            "type": "t_uint256"
          },
          {
            "astId": 14042,
            "contract": "contracts/elementa/adminFacet.sol:adminFacet",
            "label": "levelUserCount",
            "offset": 0,
            "slot": "2",
            "type": "t_uint256"
          },
          {
            "astId": 14044,
            "contract": "contracts/elementa/adminFacet.sol:adminFacet",
            "label": "heartMax",
            "offset": 0,
            "slot": "3",
            "type": "t_uint256"
          }
        ],
        "numberOfBytes": "128"
      },
      "t_uint256": {
        "encoding": "inplace",
        "label": "uint256",
        "numberOfBytes": "32"
      }
    }
  }
}