{
  "address": "0xF0D09DF03c9f96451F816D5dcdD71b59c800c165",
  "abi": [
    {
      "inputs": [
        {
          "internalType": "string",
          "name": "_name",
          "type": "string"
        }
      ],
      "name": "getContract",
      "outputs": [
        {
          "internalType": "address",
          "name": "",
          "type": "address"
        }
      ],
      "stateMutability": "view",
      "type": "function"
    },
    {
      "inputs": [
        {
          "internalType": "string",
          "name": "_name",
          "type": "string"
        },
        {
          "internalType": "address",
          "name": "_address",
          "type": "address"
        }
      ],
      "name": "setContract",
      "outputs": [],
      "stateMutability": "nonpayable",
      "type": "function"
    }
  ],
  "transactionHash": "0x91e4acd4393788e168fa73f209dad9fdb7775f82eed4d423dfd7d9ef5e0aed8a",
  "args": [],
  "numDeployments": 1,
  "solcInputHash": "517156bacbea551907f3b75b5d95efec",
  "bytecode": "0x608060405234801561001057600080fd5b50610330806100206000396000f3fe608060405234801561001057600080fd5b50600436106100365760003560e01c8063358177731461003b5780633f0ed0df1461006a575b600080fd5b61004e610049366004610230565b61007f565b6040516001600160a01b03909116815260200160405180910390f35b61007d61007836600461026d565b6100b2565b005b6000806000018260405161009391906102cb565b908152604051908190036020019020546001600160a01b031692915050565b6100ba610100565b8060008001836040516100cd91906102cb565b90815260405190819003602001902080546001600160a01b03929092166001600160a01b03199092169190911790555050565b7fc8fcad8db84d3cc18b4c41d551ea0ee66dd599cde068d998e57d5e09332c131c600401546001600160a01b0316331461018b5760405162461bcd60e51b815260206004820152602260248201527f4c69624469616d6f6e643a204d75737420626520636f6e7472616374206f776e60448201526132b960f11b606482015260840160405180910390fd5b565b634e487b7160e01b600052604160045260246000fd5b600082601f8301126101b457600080fd5b813567ffffffffffffffff808211156101cf576101cf61018d565b604051601f8301601f19908116603f011681019082821181831017156101f7576101f761018d565b8160405283815286602085880101111561021057600080fd5b836020870160208301376000602085830101528094505050505092915050565b60006020828403121561024257600080fd5b813567ffffffffffffffff81111561025957600080fd5b610265848285016101a3565b949350505050565b6000806040838503121561028057600080fd5b823567ffffffffffffffff81111561029757600080fd5b6102a3858286016101a3565b92505060208301356001600160a01b03811681146102c057600080fd5b809150509250929050565b6000825160005b818110156102ec57602081860181015185830152016102d2565b50600092019182525091905056fea26469706673582212200cfd7fab13384457ed3090fbc576b328add51e9a6efbce32f431902f433de8d764736f6c63430008180033",
  "devdoc": {
    "kind": "dev",
    "methods": {},
    "version": 1
  },
  "userdoc": {
    "kind": "user",
    "methods": {},
    "version": 1
  },
  "storageLayout": {
    "storage": [
      {
        "astId": 2861,
        "contract": "contracts/elementa/adminFacet.sol:adminFacet",
        "label": "s",
        "offset": 0,
        "slot": "0",
        "type": "t_struct(AppStorage)2852_storage"
      }
    ],
    "types": {
      "t_address": {
        "encoding": "inplace",
        "label": "address",
        "numberOfBytes": "20"
      },
      "t_mapping(t_string_memory_ptr,t_address)": {
        "encoding": "mapping",
        "key": "t_string_memory_ptr",
        "label": "mapping(string => address)",
        "numberOfBytes": "32",
        "value": "t_address"
      },
      "t_string_memory_ptr": {
        "encoding": "bytes",
        "label": "string",
        "numberOfBytes": "32"
      },
      "t_struct(AppStorage)2852_storage": {
        "encoding": "inplace",
        "label": "struct AppStorage",
        "members": [
          {
            "astId": 2851,
            "contract": "contracts/elementa/adminFacet.sol:adminFacet",
            "label": "contracts",
            "offset": 0,
            "slot": "0",
            "type": "t_mapping(t_string_memory_ptr,t_address)"
          }
        ],
        "numberOfBytes": "32"
      }
    }
  }
}