{
  "address": "0xb1D89C86EcA41673E8341d3bc7394207e3642053",
  "abi": [
    {
      "inputs": [
        {
          "internalType": "uint256",
          "name": "_tokenId",
          "type": "uint256"
        }
      ],
      "name": "_generateSVG",
      "outputs": [
        {
          "internalType": "string",
          "name": "",
          "type": "string"
        }
      ],
      "stateMutability": "view",
      "type": "function"
    },
    {
      "inputs": [
        {
          "internalType": "uint256",
          "name": "_tokenId",
          "type": "uint256"
        }
      ],
      "name": "_updateUri",
      "outputs": [],
      "stateMutability": "nonpayable",
      "type": "function"
    },
    {
      "inputs": [
        {
          "internalType": "uint256",
          "name": "_tokenId",
          "type": "uint256"
        }
      ],
      "name": "nft_getUri",
      "outputs": [
        {
          "internalType": "string",
          "name": "",
          "type": "string"
        }
      ],
      "stateMutability": "view",
      "type": "function"
    }
  ],
  "transactionHash": "0x96f1815919b5204a93a46af64a9a88123bd05e92401ae67e496df0cfe92bb218",
  "args": [],
  "numDeployments": 24,
  "solcInputHash": "536b33a5c209701efe0e7b0224551ba7",
  "bytecode": "0x6080806040523461001657612961908161001c8239f35b600080fdfe60406080815260048036101561001457600080fd5b600091823560e01c8063906ef65214610116578063a0154fa2146100e35763a78f804d1461004157600080fd5b8291346100df5760203660031901126100df578151621b999d60ea1b81526003810184905260239020546001600160a01b0316803b156100da5783906024845180968193630ad4782960e31b83528635878401525af180156100d0576100a5578380f35b67ffffffffffffffff83116100bd5750523880808380f35b634e487b7160e01b845260419052602483fd5b82513d86823e3d90fd5b505050fd5b5050fd5b508234610113576020366003190112610113575061010461010f923561089f565b90519182918261066e565b0390f35b80fd5b508234610113576020928360031936011261064757803591610137836123e4565b6101409061085b565b84519061014c8261069a565b838252636e616d6560e01b878301526101649161246c565b9284516101708161069a565b600b81526a3232b9b1b934b83a34b7b760a91b8782015285516101928161069a565b601f81527f5465737420456c656d656e746120644e46542c20666f722074657374696e6700888201526101c49161246c565b6101cd8261089f565b6101d6906126c7565b948787516101e38161069a565b600681526518985cd94d8d60d21b9788838301528951916102038361069a565b600d83526c1a5b5859d94bdcdd99cade1b5b609a1b84840152610225926127b3565b9388516102318161069a565b600580825264696d61676560d81b848301529561024d9161246c565b9481875280835289888189200154610264906123e4565b9181516102708161069a565b8181526413195d995b60da1b86820152825161028b8161069a565b600a81526974726169745f7479706560b01b9182888301526102ac9161246c565b83516102b78161069a565b8381526476616c756560d81b9586898301526102d29161246c565b8451946102de8661069a565b600c86526b3137b7b9ba2fb73ab6b132b960a11b89870152516103008161069a565b600c81526b646973706c61795f7479706560a01b95868a8301526103239161246c565b9061032c6124e0565b9261033684612528565b5261034083612528565b5061034a8361254b565b526103548261254b565b5061035e8261255b565b526103688161255b565b506103729061257b565b948a528186528c8a2060070154610388906123e4565b908d8051906103968261069a565b600b82526a1219585c9d08141bda5b9d60aa1b8983015251916103b88361069a565b600a8352888301526103c99161246c565b938d51926103d68461069a565b8352868301526103e59161246c565b908b516103f18161069a565b6006815265373ab6b132b960d11b868201528c519161040f8361069a565b600c8352868301526104209161246c565b906104296124e0565b9261043384612528565b5261043d83612528565b506104478361254b565b526104518261254b565b5061045b8261255b565b526104658161255b565b5061046f9061257b565b89519161047b836106cc565b60028352875b8b8110610638575061053f936104e184610519946022946104a46104ff98612528565b526104ae82612528565b506104b88261254b565b526104c28161254b565b508d51906104cf8261069a565b60018252600b60fa1b8483015261287c565b8c519482605b60f81b8794850152825192839160218601910161064b565b8101605d60f81b6021820152036002810184520182610704565b88516105248161069a565b600a8152696174747269627574657360b01b8b82015261246c565b9387519560a0870187811067ffffffffffffffff82111761062557895286525b6080811061061657509361010495936105d5936105d09361010f9a9761058485612528565b5261058e84612528565b506105988461254b565b526105a28361254b565b506105ac8361255b565b526105b68261255b565b506105c08261256b565b526105ca8161256b565b5061257b565b6126c7565b918451916105e28361069a565b60068352818301526f30b8383634b1b0ba34b7b717b539b7b760811b85519161060a8361069a565b601083528201526127b3565b60608682018a0152880161055f565b634e487b7160e01b835260418252602483fd5b60608482018601528401610481565b5080fd5b60005b83811061065e5750506000910152565b818101518382015260200161064e565b6040916020825261068e815180928160208601526020868601910161064b565b601f01601f1916010190565b6040810190811067ffffffffffffffff8211176106b657604052565b634e487b7160e01b600052604160045260246000fd5b6060810190811067ffffffffffffffff8211176106b657604052565b6020810190811067ffffffffffffffff8211176106b657604052565b90601f8019910116810190811067ffffffffffffffff8211176106b657604052565b9194936107a1936040519687936020956107488151809289808a01910161064b565b850161075c8251809389808501910161064b565b0161076f8251809388808501910161064b565b016107828251809387808501910161064b565b016107958251809386808501910161064b565b01038085520183610704565b565b60206107a19193929360405194816107c4879351809286808701910161064b565b82016107958251809386808501910161064b565b906107a19294936040519586926020946107fa8151809288808901910161064b565b840161076f8251809388808501910161064b565b92936107a1949695919296604051978894602096610834815180928a808b01910161064b565b8601610848825180938a808501910161064b565b0161075c8251809389808501910161064b565b906107a1602d60405180946c456c656d656e74614e4654202360981b602083015261088f815180926020868601910161064b565b810103600d810185520183610704565b90604051906108ad8261069a565b60078252660ecd2caee84def60cb1b60208301526109576024604051936108d38561069a565b600b85526a030203020323530203235360ac1b6020860152604051948161090487935180926020808701910161064b565b603d60f81b838201602081810192909252601160f91b6021820152835193610932928592602201910161064b565b61011160f51b9083019091016022810191909152819003600481019091520183610704565b6117d46113e4610c00610be160405161096f8161069a565b60028152611a5960f21b6020820152610a016024604051926109908461069a565b60078452666f75746c696e6560c81b602085015260405193816109bd86935180926020808701910161064b565b8201603d60f81b6020820152601160f91b60218201526109e782518093602060228501910161064b565b0161011160f51b6022820152036004810184520182610704565b610ad3604051610a108161069a565b6002815261783160f01b6020820152610a59602460405192610a318461069a565b6002845261302560f01b602085015260405193816109bd86935180926020808701910161064b565b610aed6024604051610a6a8161069a565b6002815261793160f01b6020820152604051610a858161069a565b60028152602081019061302560f01b82526040519683610aaf89955180926020808901910161064b565b840191603d60f81b6020840152601160f91b6021840152518093602284019061064b565b0161011160f51b6022820152036004810185520183610704565b60405192610afa8461069a565b60028452613c1960f11b6020850152610b89602460405195610b1b8761069a565b60048752633130302560e01b60208801526040519681610b4589935180926020808701910161064b565b8201603d60f81b6020820152601160f91b6021820152610b6f82518093602060228501910161064b565b0161011160f51b6022820152036004810187520185610704565b610bfb6024604051610b9a8161069a565b60028152613c9960f11b6020820152604051610bb58161069a565b600481526020810190633130302560e01b82526040519983610aaf8c955180926020808901910161064b565b0161011160f51b6022820152036004810188520186610704565b610726565b6113de610d106109e7610c636024604051610c1a8161069a565b60068152651bd9999cd95d60d21b6020820152604051610c398161069a565b60028152602081019061302560f01b82526040519583610aaf88955180926020808901910161064b565b60405190610c708261069a565b60058252647374796c6560d81b6020830152610d0b602460405193610c94856106cc565b602185527f73746f702d636f6c6f723a236666303063633b73746f702d6f7061636974793a6020860152603160f81b60408601526040519481610ce187935180926020808701910161064b565b8201603d60f81b6020820152601160f91b6021820152610ad382518093602060228501910161064b565b6107a3565b61100d6026610ebb604051610d248161069a565b600d81526c6174747269627574654e616d6560981b6020820152610d80602460405192610d508461069a565b600a84526939ba37b816b1b7b637b960b11b602085015260405193816109bd86935180926020808701910161064b565b6109e7610df86024604051610d948161069a565b600681526576616c75657360d01b6020820152604051610db38161069a565b6017815260208101907f236666303063633b233333333366663b2366663030636300000000000000000082526040519583610aaf88955180926020808901910161064b565b60405190610e058261069a565b6003825262323ab960e91b6020830152610e4f602460405193610e278561069a565b6002855261327360f01b60208601526040519481610ce187935180926020808701910161064b565b60405192610e5c8461069a565b600b84526a1c995c19585d10dbdd5b9d60aa1b6020850152610eb6602460405195610e868761069a565b600a875269696e646566696e69746560b01b60208801526040519681610b4589935180926020808701910161064b565b6107d8565b92610f476024604051610ecd8161069a565b6007815266616e696d61746560c81b6020820152604051968791600f60fa1b6020840152610f0581518092602060218701910161064b565b600160fd1b60218285010152610f27825180936020602285880101910161064b565b61179f60f11b602283838601010152820101036004810187520185610704565b604051610f538161069a565b6004815263073746f760e41b6020820152604051948592600f60fa1b60208501528251610f8781602187016020870161064b565b8401600160fd1b6021820152610fa782518093602060228501910161064b565b601f60f91b60228383010152610fc9835180946020602386860101910161064b565b613c2f60f01b602384848401010152610ff08451809560206025878787010101910161064b565b010101601f60f91b60258201526006828203018252030182610704565b6110ea610aaf60405161101f8161069a565b60068152651bd9999cd95d60d21b602082015261106e6024604051926110448461069a565b60048452633130302560e01b602085015260405193816109bd86935180926020808701910161064b565b610d0b602460405161107f8161069a565b6005815260208101647374796c6560d81b815260405161109e816106cc565b60218152610ad360208201927f73746f702d636f6c6f723a233333333366663b73746f702d6f7061636974793a8452603160f81b6040840152604051988995518092602088019061064b565b90610d0b60266112a2610aaf6040516111028161069a565b600d81526c6174747269627574654e616d6560981b602082015261112e602460405192610d508461069a565b60405161113a8161069a565b600681526576616c75657360d01b60208201526111a260246040519261115f8461069a565b601784527f233333333366663b236666303063633b23333333336666000000000000000000602085015260405193816109bd86935180926020808701910161064b565b604051916111af8361069a565b6003835262323ab960e91b602084015261123d6024604051946111d18661069a565b6002865261327360f01b602087015260405195816111f988935180926020808701910161064b565b8201603d60f81b6020820152601160f91b602182015261122382518093602060228501910161064b565b0161011160f51b6022820152036004810186520184610704565b610eb6602460405161124e8161069a565b600b8152602081016a1c995c19585d10dbdd5b9d60aa1b81526040516112738161069a565b600a8152610b6f602082019269696e646566696e69746560b01b84526040519a8b95518092602088019061064b565b9361132660246040516112b48161069a565b6007815266616e696d61746560c81b6020820152604051978891600f60fa1b60208401526112ec81518092602060218701910161064b565b8201600160fd1b602182015261130c82518093602060228501910161064b565b0161179f60f11b6022820152036004810188520186610704565b6040516113328161069a565b6004815263073746f760e41b6020820152604051958692600f60fa1b6020850152825161136681602187016020870161064b565b8401600160fd1b602182015261138682518093602060228501910161064b565b01601f60f91b60228201526113a582518093602060238501910161064b565b01613c2f60f01b60238201526113c582518093602060258501910161064b565b01601f60f91b6025820152036006810185520183610704565b90612320565b6117ce611579610aaf6040516113f98161069a565b60028152611a5960f21b602082015261144a60246040519261141a8461069a565b600a845269189858dad9dc9bdd5b9960b21b602085015260405193816109bd86935180926020808701910161064b565b6040516114568161069a565b6002815261783160f01b6020820152611477602460405192610a318461069a565b604051906114848261069a565b60028252613c1960f11b60208301526114cd6024604051936114a58561069a565b6002855261302560f01b60208601526040519481610ce187935180926020808701910161064b565b604051926114da8461069a565b6002845261793160f01b60208501526115236024604051956114fb8761069a565b6002875261302560f01b60208801526040519681610b4589935180926020808701910161064b565b610bfb60246040516115348161069a565b6002815260208101613c9960f11b81526040516115508161069a565b60048152610be16020820192633130302560e01b84526040519b8c95518092602088019061064b565b6113de611613610aaf60405161158e8161069a565b60068152651bd9999cd95d60d21b60208201526115b3602460405192610a318461069a565b610d0b60246040516115c48161069a565b600a8152602081016939ba37b816b1b7b637b960b11b81526040516115e88161069a565b60068152610ad360208201926579656c6c6f7760d01b8452604051988995518092602088019061064b565b6116e26026604051926116258461069a565b6004845263073746f760e41b602085015260405193611643856106e8565b60008552604051948592600f60fa1b6020850152825161166a81602187016020870161064b565b8401600160fd1b602182015261168a82518093602060228501910161064b565b01601f60f91b60228201526116a982518093602060238501910161064b565b01613c2f60f01b60238201526116c982518093602060258501910161064b565b01601f60f91b6025820152036006810184520182610704565b611776610aaf6040516116f48161069a565b60068152651bd9999cd95d60d21b60208201526117196024604051926110448461069a565b610d0b602460405161172a8161069a565b600a8152602081016939ba37b816b1b7b637b960b11b815260405161174e8161069a565b60038152610ad36020820192621c995960ea1b8452604051988995518092602088019061064b565b90610d0b6026604051936117898561069a565b6004855263073746f760e41b6020860152604051946117a7866106e8565b60008652604051958692600f60fa1b6020850152825161136681602187016020870161064b565b906107a3565b916118a360266040516117e68161069a565b60048152636465667360e01b602082015260405190611804826106e8565b60008252604051968792600f60fa1b6020850152825161182b81602187016020870161064b565b8401600160fd1b602182015261184b82518093602060228501910161064b565b01601f60f91b602282015261186a82518093602060238501910161064b565b01613c2f60f01b602382015261188a82518093602060258501910161064b565b01601f60f91b6025820152036006810186520184610704565b604051926118b08461069a565b60058452640eed2c8e8d60db1b60208501526118d4602460405195610b1b8761069a565b604051946118e18661069a565b60068652651a195a59da1d60d21b60208701526119746024604051976119068961069a565b60048952633130302560e01b60208a015260405198816119308b935180926020808701910161064b565b8201603d60f81b6020820152601160f91b602182015261195a82518093602060228501910161064b565b0161011160f51b6022820152036004810189520187610704565b6119c16119db60266040516119888161069a565b600a81526020810169189858dad9dc9bdd5b9960b21b81526040519485926475726c282360d81b6020850152518092602585019061064b565b8101602960f81b6025820152036006810184520182610704565b604051966119e88861069a565b6004885263199a5b1b60e21b60208901526040519160005b6004811061230b5750611aa493949596979850602883611a5d92603d60f81b6024830152601160f91b6025830152611a4281518092602060268601910161064b565b810161011160f51b6026820152036008810185520183610704565b611abe6026604051611a6e8161069a565b6007815260208101666f75746c696e6560c81b81526040519687926475726c282360d81b6020850152518092602585019061064b565b8101602960f81b6025820152036006810186520184610704565b60405197611acb8961069a565b60068952657374726f6b6560d01b60208a01526040519360005b600681106122f657506122ca979899509361222b9593611bae93610be193611b4f602a8560269c9a603d60f81b8e830152601160f91b6027830152611b3481518092602060288601910161064b565b810161011160f51b602882015203600a810187520185610704565b610bfb6024604051611b608161069a565b600c81526b0e6e8e4ded6ca5aeed2c8e8d60a31b6020820152604051611b858161069a565b600181526020810190603760f81b82526040519983610aaf8c955180926020808901910161064b565b611c038560405192611bbf846106e8565b60008452604051611bcf8161069a565b60048152631c9958dd60e21b6020820152604051948592600f60fa1b6020850152825161166a81602187016020870161064b565b611e4c611e35604051611c158161069a565b60018152600f60fb1b6020820152611c5d602460405192611c358461069a565b6002845261352560f01b602085015260405193816109bd86935180926020808701910161064b565b6109e7611cb66024604051611c718161069a565b60018152607960f81b6020820152604051611c8b8161069a565b6003815260208101906238352560e81b82526040519583610aaf88955180926020808901910161064b565b604051611cc28161069a565b600b81526a666f6e742d66616d696c7960a81b6020820152611d17602460405192611cec8461069a565b6005845264105c9a585b60da1b602085015260405193816109bd86935180926020808701910161064b565b60405190611d248261069a565b6009825268666f6e742d73697a6560b81b6020830152611d74602460405193611d4c8561069a565b6002855261313560f01b60208601526040519481610ce187935180926020808701910161064b565b60405192611d818461069a565b6004845263199a5b1b60e21b6020850152611dce602460405195611da48761069a565b60048752630233030360e41b60208801526040519681610b4589935180926020808701910161064b565b60405194611ddb8661069a565b600b86526a3a32bc3a16b0b731b437b960a91b6020870152611e30602460405197611e058961069a565b60058952641cdd185c9d60da1b60208a015260405198816119308b935180926020808701910161064b565b61080e565b611e46611e41856123e4565b61085b565b90612423565b906122256120b061205361195a604051611e658161069a565b60018152600f60fb1b6020820152611e85602460405192611c358461069a565b604051611e918161069a565b60018152607960f81b6020820152611eda602460405192611eb18461069a565b600384526239302560e81b602085015260405193816109bd86935180926020808701910161064b565b604051611ee68161069a565b600b81526a666f6e742d66616d696c7960a81b6020820152611f10602460405192611cec8461069a565b60405191611f1d8361069a565b6009835268666f6e742d73697a6560b81b6020840152611f6d602460405194611f458661069a565b6002865261031360f41b602087015260405195816111f988935180926020808701910161064b565b60405193611f7a8561069a565b6004855263199a5b1b60e21b6020860152611ff1602460405196611f9d8861069a565b60048852630233030360e41b60208901526040519781611fc78a935180926020808701910161064b565b8201603d60f81b6020820152601160f91b6021820152610be182518093602060228501910161064b565b611e3060246040516120028161069a565b600b81526a3a32bc3a16b0b731b437b960a91b60208201526040516120268161069a565b600581526020810190641cdd185c9d60da1b82526040519a83610aaf8d955180926020808901910161064b565b85600052600560205261206d6004604060002001546123e4565b906120ab602760405180946602632bb32b61d160cd1b602083015261209b815180926020868601910161064b565b8101036007810185520183610704565b612423565b936121c86040516120c08161069a565b60018152600f60fb1b60208201526120e0602460405192611c358461069a565b6040516120ec8161069a565b60018152607960f81b602082015261213560246040519261210c8461069a565b600384526239352560e81b602085015260405193816109bd86935180926020808701910161064b565b6040516121418161069a565b600b81526a666f6e742d66616d696c7960a81b602082015261216b602460405192611cec8461069a565b604051906121788261069a565b6009825268666f6e742d73697a6560b81b6020830152611d746024604051936121a08561069a565b6002855261031360f41b60208601526040519481610ce187935180926020808701910161064b565b9060005260056020526121e26007604060002001546123e4565b906120ab602c60405180946b0131198991c189a981d903c160a51b6020830152612215815180926020868601910161064b565b810103600c810185520183610704565b93610726565b9261228b604360405180937f786d6c6e733d22687474703a2f2f7777772e77332e6f72672f323030302f737660208301526203391160ed1b604083015261227b815180926020868601910161064b565b8101036023810184520182610704565b6040516122978161069a565b600381526273766760e81b6020820152604051948592600f60fa1b6020850152825161166a81602187016020870161064b565b6122f36020604051836122e6829551809285808601910161064b565b8101038084520182610704565b90565b80602080928d01015182828901015201611ae5565b80602080928c01015182828701015201611a00565b60266122f3916123cf936040516123368161069a565b600e815260208101906d1b1a5b99585c91dc98591a595b9d60921b8252604051968794600f60fa1b6020870152825161237381602189018761064b565b8601600160fd1b602182015261239382518093602060228501910161064b565b0193601f60f91b948560228201526123b582518093602060238501910161064b565b0191613c2f60f01b6023840152518093602584019061064b565b01906025820152036006810184520182610704565b90604051608081019260a0820160405260008452925b6000190192600a9060308282060185530492836123fa57809350608091030191601f1901918252565b60266122f3916123cf936040516124398161069a565b600481526020810190631d195e1d60e21b8252604051968794600f60fa1b6020870152825161237381602189018761064b565b602561248361247d6122f3936125e0565b936125e0565b604051938491601160f91b918260208501526124a981518092602060218801910161064b565b830162111d1160e91b60218201526124cb82518093602060248501910161064b565b01906024820152036005810184520182610704565b604051906080820182811067ffffffffffffffff8211176106b65760405260038252819060005b606080821015612521579060209182828701015201612507565b5050909150565b8051156125355760200190565b634e487b7160e01b600052603260045260246000fd5b8051600110156125355760400190565b8051600210156125355760600190565b8051600310156125355760800190565b60405161259e9161258b8261069a565b60018252600b60fa1b602083015261287c565b6122f360226040518093607b60f81b60208301526125c681518092602060218601910161064b565b8101607d60f81b6021820152036002810184520182610704565b908151820160208060405101937b5c75303030303031323334353637383961626364656662746e0066726015525b8281036126315750505060008252602060405192601f1984820301845201604052565b6001949192948091019182519160ff831692858410156126955761370082851b161561267157506008600293605c845301519082015301935b919061260e565b905060069250600f90818160041c1651601d531651601e536019518152019361266a565b50916b10000000000000040000000083821b16156126be57600292605c8353820153019361266a565b8153019361266a565b906060918051806126d6575050565b9092506003926002906003600284010460021b92604051957f4142434445464748494a4b4c4d4e4f505152535455565758595a616263646566601f52603f936106707f6768696a6b6c6d6e6f707172737475767778797a303132333435363738392d5f18603f5260208801918689019560048260208901975b0194855183808260121c16519160009283538181600c1c1651600153818160061c165188531651855351815201938685101561278f57600490839061274f565b5050505091506040600093016040526003613d3d60f01b9106600204820352528252565b81516122f3926026929115612865576127f96021604051836127df82955180926020808601910161064b565b8101600b60fa1b6020820152036001810184520182610704565b935b604051948592643230ba309d60d91b602085015261282381518092602060258801910161064b565b8301603b60f81b6025820152612842825180936020888501910161064b565b01612856825180936020878501910161064b565b01036006810184520182610704565b50604051612872816106e8565b60008152936127fb565b908151156129165761288d82612528565b51916001918291825b6128a2575b5050505090565b805184101561291157828094956129096020808960051b860101519260405193816128d6869351809286808701910161064b565b82018851906128ea82868301878d0161064b565b016128fd8251809386808501910161064b565b01038084520182610704565b950193612896565b61289b565b5050604051612924816106e8565b600081529056fea26469706673582212208ca9aa542eb6bbd33b4578c0273fc5268c0d770509b3197513fb2dbe8e7d6d6364736f6c63430008180033",
  "devdoc": {
    "kind": "dev",
    "methods": {},
    "version": 1
  },
  "userdoc": {
    "kind": "user",
    "methods": {},
    "version": 1
  },
  "storageLayout": {
    "storage": [
      {
        "astId": 13648,
        "contract": "contracts/elementa/nftFacet.sol:nftFacet",
        "label": "s",
        "offset": 0,
        "slot": "0",
        "type": "t_struct(AppStorage)13602_storage"
      }
    ],
    "types": {
      "t_address": {
        "encoding": "inplace",
        "label": "address",
        "numberOfBytes": "20"
      },
      "t_bool": {
        "encoding": "inplace",
        "label": "bool",
        "numberOfBytes": "1"
      },
      "t_bytes_storage": {
        "encoding": "bytes",
        "label": "bytes",
        "numberOfBytes": "32"
      },
      "t_enum(EquipmentType)13613": {
        "encoding": "inplace",
        "label": "enum EquipmentType",
        "numberOfBytes": "1"
      },
      "t_enum(UserType)13619": {
        "encoding": "inplace",
        "label": "enum UserType",
        "numberOfBytes": "1"
      },
      "t_mapping(t_address,t_bool)": {
        "encoding": "mapping",
        "key": "t_address",
        "label": "mapping(address => bool)",
        "numberOfBytes": "32",
        "value": "t_bool"
      },
      "t_mapping(t_address,t_struct(DelegateEOA)13517_storage)": {
        "encoding": "mapping",
        "key": "t_address",
        "label": "mapping(address => struct DelegateEOA)",
        "numberOfBytes": "32",
        "value": "t_struct(DelegateEOA)13517_storage"
      },
      "t_mapping(t_enum(EquipmentType)13613,t_mapping(t_uint256,t_struct(ElementaItem)13559_storage))": {
        "encoding": "mapping",
        "key": "t_enum(EquipmentType)13613",
        "label": "mapping(enum EquipmentType => mapping(uint256 => struct ElementaItem))",
        "numberOfBytes": "32",
        "value": "t_mapping(t_uint256,t_struct(ElementaItem)13559_storage)"
      },
      "t_mapping(t_string_memory_ptr,t_address)": {
        "encoding": "mapping",
        "key": "t_string_memory_ptr",
        "label": "mapping(string => address)",
        "numberOfBytes": "32",
        "value": "t_address"
      },
      "t_mapping(t_string_memory_ptr,t_struct(User)13508_storage)": {
        "encoding": "mapping",
        "key": "t_string_memory_ptr",
        "label": "mapping(string => struct User)",
        "numberOfBytes": "32",
        "value": "t_struct(User)13508_storage"
      },
      "t_mapping(t_string_memory_ptr,t_uint256)": {
        "encoding": "mapping",
        "key": "t_string_memory_ptr",
        "label": "mapping(string => uint256)",
        "numberOfBytes": "32",
        "value": "t_uint256"
      },
      "t_mapping(t_uint256,t_struct(ElementaItem)13559_storage)": {
        "encoding": "mapping",
        "key": "t_uint256",
        "label": "mapping(uint256 => struct ElementaItem)",
        "numberOfBytes": "32",
        "value": "t_struct(ElementaItem)13559_storage"
      },
      "t_mapping(t_uint256,t_struct(ElementaNFT)13549_storage)": {
        "encoding": "mapping",
        "key": "t_uint256",
        "label": "mapping(uint256 => struct ElementaNFT)",
        "numberOfBytes": "32",
        "value": "t_struct(ElementaNFT)13549_storage"
      },
      "t_mapping(t_uint256,t_struct(levelInfo)13526_storage)": {
        "encoding": "mapping",
        "key": "t_uint256",
        "label": "mapping(uint256 => struct levelInfo)",
        "numberOfBytes": "32",
        "value": "t_struct(levelInfo)13526_storage"
      },
      "t_string_memory_ptr": {
        "encoding": "bytes",
        "label": "string",
        "numberOfBytes": "32"
      },
      "t_string_storage": {
        "encoding": "bytes",
        "label": "string",
        "numberOfBytes": "32"
      },
      "t_struct(AppStorage)13602_storage": {
        "encoding": "inplace",
        "label": "struct AppStorage",
        "members": [
          {
            "astId": 13563,
            "contract": "contracts/elementa/nftFacet.sol:nftFacet",
            "label": "contracts",
            "offset": 0,
            "slot": "0",
            "type": "t_mapping(t_string_memory_ptr,t_address)"
          },
          {
            "astId": 13568,
            "contract": "contracts/elementa/nftFacet.sol:nftFacet",
            "label": "users",
            "offset": 0,
            "slot": "1",
            "type": "t_mapping(t_string_memory_ptr,t_struct(User)13508_storage)"
          },
          {
            "astId": 13570,
            "contract": "contracts/elementa/nftFacet.sol:nftFacet",
            "label": "globalUserIndex",
            "offset": 0,
            "slot": "2",
            "type": "t_uint256"
          },
          {
            "astId": 13574,
            "contract": "contracts/elementa/nftFacet.sol:nftFacet",
            "label": "userIndex",
            "offset": 0,
            "slot": "3",
            "type": "t_mapping(t_string_memory_ptr,t_uint256)"
          },
          {
            "astId": 13579,
            "contract": "contracts/elementa/nftFacet.sol:nftFacet",
            "label": "delegateEOAs",
            "offset": 0,
            "slot": "4",
            "type": "t_mapping(t_address,t_struct(DelegateEOA)13517_storage)"
          },
          {
            "astId": 13584,
            "contract": "contracts/elementa/nftFacet.sol:nftFacet",
            "label": "elementaNFTs",
            "offset": 0,
            "slot": "5",
            "type": "t_mapping(t_uint256,t_struct(ElementaNFT)13549_storage)"
          },
          {
            "astId": 13589,
            "contract": "contracts/elementa/nftFacet.sol:nftFacet",
            "label": "levelInfos",
            "offset": 0,
            "slot": "6",
            "type": "t_mapping(t_uint256,t_struct(levelInfo)13526_storage)"
          },
          {
            "astId": 13593,
            "contract": "contracts/elementa/nftFacet.sol:nftFacet",
            "label": "isDelegateEOA",
            "offset": 0,
            "slot": "7",
            "type": "t_mapping(t_address,t_bool)"
          },
          {
            "astId": 13601,
            "contract": "contracts/elementa/nftFacet.sol:nftFacet",
            "label": "elementaItems",
            "offset": 0,
            "slot": "8",
            "type": "t_mapping(t_enum(EquipmentType)13613,t_mapping(t_uint256,t_struct(ElementaItem)13559_storage))"
          }
        ],
        "numberOfBytes": "288"
      },
      "t_struct(DelegateEOA)13517_storage": {
        "encoding": "inplace",
        "label": "struct DelegateEOA",
        "members": [
          {
            "astId": 13510,
            "contract": "contracts/elementa/nftFacet.sol:nftFacet",
            "label": "userIndex",
            "offset": 0,
            "slot": "0",
            "type": "t_uint256"
          },
          {
            "astId": 13512,
            "contract": "contracts/elementa/nftFacet.sol:nftFacet",
            "label": "userId",
            "offset": 0,
            "slot": "1",
            "type": "t_string_storage"
          },
          {
            "astId": 13514,
            "contract": "contracts/elementa/nftFacet.sol:nftFacet",
            "label": "connectAddress",
            "offset": 0,
            "slot": "2",
            "type": "t_address"
          },
          {
            "astId": 13516,
            "contract": "contracts/elementa/nftFacet.sol:nftFacet",
            "label": "isOwnNFT",
            "offset": 20,
            "slot": "2",
            "type": "t_bool"
          }
        ],
        "numberOfBytes": "96"
      },
      "t_struct(ElementaItem)13559_storage": {
        "encoding": "inplace",
        "label": "struct ElementaItem",
        "members": [
          {
            "astId": 13552,
            "contract": "contracts/elementa/nftFacet.sol:nftFacet",
            "label": "equipmentType",
            "offset": 0,
            "slot": "0",
            "type": "t_enum(EquipmentType)13613"
          },
          {
            "astId": 13554,
            "contract": "contracts/elementa/nftFacet.sol:nftFacet",
            "label": "itemId",
            "offset": 0,
            "slot": "1",
            "type": "t_uint256"
          },
          {
            "astId": 13556,
            "contract": "contracts/elementa/nftFacet.sol:nftFacet",
            "label": "name",
            "offset": 0,
            "slot": "2",
            "type": "t_string_storage"
          },
          {
            "astId": 13558,
            "contract": "contracts/elementa/nftFacet.sol:nftFacet",
            "label": "svgUri",
            "offset": 0,
            "slot": "3",
            "type": "t_bytes_storage"
          }
        ],
        "numberOfBytes": "128"
      },
      "t_struct(ElementaNFT)13549_storage": {
        "encoding": "inplace",
        "label": "struct ElementaNFT",
        "members": [
          {
            "astId": 13528,
            "contract": "contracts/elementa/nftFacet.sol:nftFacet",
            "label": "ownerAddress",
            "offset": 0,
            "slot": "0",
            "type": "t_address"
          },
          {
            "astId": 13530,
            "contract": "contracts/elementa/nftFacet.sol:nftFacet",
            "label": "delegateAddress",
            "offset": 0,
            "slot": "1",
            "type": "t_address"
          },
          {
            "astId": 13532,
            "contract": "contracts/elementa/nftFacet.sol:nftFacet",
            "label": "nickName",
            "offset": 0,
            "slot": "2",
            "type": "t_string_storage"
          },
          {
            "astId": 13534,
            "contract": "contracts/elementa/nftFacet.sol:nftFacet",
            "label": "grade",
            "offset": 0,
            "slot": "3",
            "type": "t_uint256"
          },
          {
            "astId": 13536,
            "contract": "contracts/elementa/nftFacet.sol:nftFacet",
            "label": "level",
            "offset": 0,
            "slot": "4",
            "type": "t_uint256"
          },
          {
            "astId": 13538,
            "contract": "contracts/elementa/nftFacet.sol:nftFacet",
            "label": "exp",
            "offset": 0,
            "slot": "5",
            "type": "t_uint256"
          },
          {
            "astId": 13540,
            "contract": "contracts/elementa/nftFacet.sol:nftFacet",
            "label": "heartMax",
            "offset": 0,
            "slot": "6",
            "type": "t_uint256"
          },
          {
            "astId": 13542,
            "contract": "contracts/elementa/nftFacet.sol:nftFacet",
            "label": "heartPoint",
            "offset": 0,
            "slot": "7",
            "type": "t_uint256"
          },
          {
            "astId": 13544,
            "contract": "contracts/elementa/nftFacet.sol:nftFacet",
            "label": "plusHeartPoint",
            "offset": 0,
            "slot": "8",
            "type": "t_uint256"
          },
          {
            "astId": 13546,
            "contract": "contracts/elementa/nftFacet.sol:nftFacet",
            "label": "updateHeartTime",
            "offset": 0,
            "slot": "9",
            "type": "t_uint256"
          },
          {
            "astId": 13548,
            "contract": "contracts/elementa/nftFacet.sol:nftFacet",
            "label": "elementaPoint",
            "offset": 0,
            "slot": "10",
            "type": "t_uint256"
          }
        ],
        "numberOfBytes": "352"
      },
      "t_struct(User)13508_storage": {
        "encoding": "inplace",
        "label": "struct User",
        "members": [
          {
            "astId": 13494,
            "contract": "contracts/elementa/nftFacet.sol:nftFacet",
            "label": "userId",
            "offset": 0,
            "slot": "0",
            "type": "t_string_storage"
          },
          {
            "astId": 13496,
            "contract": "contracts/elementa/nftFacet.sol:nftFacet",
            "label": "nftId",
            "offset": 0,
            "slot": "1",
            "type": "t_uint256"
          },
          {
            "astId": 13498,
            "contract": "contracts/elementa/nftFacet.sol:nftFacet",
            "label": "reciveAddress",
            "offset": 0,
            "slot": "2",
            "type": "t_address"
          },
          {
            "astId": 13500,
            "contract": "contracts/elementa/nftFacet.sol:nftFacet",
            "label": "delegateEOA",
            "offset": 0,
            "slot": "3",
            "type": "t_address"
          },
          {
            "astId": 13503,
            "contract": "contracts/elementa/nftFacet.sol:nftFacet",
            "label": "userType",
            "offset": 20,
            "slot": "3",
            "type": "t_enum(UserType)13619"
          },
          {
            "astId": 13505,
            "contract": "contracts/elementa/nftFacet.sol:nftFacet",
            "label": "refferalId",
            "offset": 0,
            "slot": "4",
            "type": "t_string_storage"
          },
          {
            "astId": 13507,
            "contract": "contracts/elementa/nftFacet.sol:nftFacet",
            "label": "refferalCount",
            "offset": 0,
            "slot": "5",
            "type": "t_uint256"
          }
        ],
        "numberOfBytes": "192"
      },
      "t_struct(levelInfo)13526_storage": {
        "encoding": "inplace",
        "label": "struct levelInfo",
        "members": [
          {
            "astId": 13519,
            "contract": "contracts/elementa/nftFacet.sol:nftFacet",
            "label": "level",
            "offset": 0,
            "slot": "0",
            "type": "t_uint256"
          },
          {
            "astId": 13521,
            "contract": "contracts/elementa/nftFacet.sol:nftFacet",
            "label": "requireExp",
            "offset": 0,
            "slot": "1",
            "type": "t_uint256"
          },
          {
            "astId": 13523,
            "contract": "contracts/elementa/nftFacet.sol:nftFacet",
            "label": "levelUserCount",
            "offset": 0,
            "slot": "2",
            "type": "t_uint256"
          },
          {
            "astId": 13525,
            "contract": "contracts/elementa/nftFacet.sol:nftFacet",
            "label": "heartMax",
            "offset": 0,
            "slot": "3",
            "type": "t_uint256"
          }
        ],
        "numberOfBytes": "128"
      },
      "t_uint256": {
        "encoding": "inplace",
        "label": "uint256",
        "numberOfBytes": "32"
      }
    }
  }
}