{
  "address": "0x8586550E328E2258De6528ad1fF86F562665FB03",
  "abi": [
    {
      "inputs": [
        {
          "internalType": "uint256",
          "name": "_tokenId",
          "type": "uint256"
        }
      ],
      "name": "_generateSVG",
      "outputs": [
        {
          "internalType": "string",
          "name": "",
          "type": "string"
        }
      ],
      "stateMutability": "view",
      "type": "function"
    },
    {
      "inputs": [
        {
          "internalType": "uint256",
          "name": "_tokenId",
          "type": "uint256"
        }
      ],
      "name": "_updateUri",
      "outputs": [],
      "stateMutability": "nonpayable",
      "type": "function"
    },
    {
      "inputs": [
        {
          "internalType": "uint256",
          "name": "_tokenId",
          "type": "uint256"
        }
      ],
      "name": "nft_getUri",
      "outputs": [
        {
          "internalType": "string",
          "name": "",
          "type": "string"
        }
      ],
      "stateMutability": "view",
      "type": "function"
    }
  ],
  "transactionHash": "0x5d64de06da9a29c85989952ef8da31366596fb801473328faaa4d75474cce73b",
  "args": [],
  "numDeployments": 48,
  "solcInputHash": "ecdff02722cf66381bc34736c65c0dc7",
  "bytecode": "0x608080604052346100165761354c908161001c8239f35b600080fdfe60406080815260048036101561001457600080fd5b600091823560e01c8063906ef65214610116578063a0154fa2146100e35763a78f804d1461004157600080fd5b8291346100df5760203660031901126100df578151621b999d60ea1b81526003810184905260239020546001600160a01b0316803b156100da5783906024845180968193630ad4782960e31b83528635878401525af180156100d0576100a5578380f35b67ffffffffffffffff83116100bd5750523880808380f35b634e487b7160e01b845260419052602483fd5b82513d86823e3d90fd5b505050fd5b5050fd5b508234610113576020366003190112610113575061010461010f9235610644565b9051918291826103cc565b0390f35b80fd5b508234610113576020928360031936011261037f5780359261016161014261013d8661302c565b6105d6565b825161014d816103f8565b848152636e616d6560e01b888201526130b4565b926101d26101cd6101c78451610176816103f8565b600b81526a3232b9b1b934b83a34b7b760a91b8a820152855190610199826103f8565b601f82527f5465737420456c656d656e746120644e46542c20666f722074657374696e67008b8301526130b4565b96610644565b613252565b906102436102228451936101e5856103f8565b600685526518985cd94d8d60d21b94858b8201528651610204816103f8565b600d81526c1a5b5859d94bdcdd99cade1b5b609a1b8c82015261333e565b845161022d816103f8565b6005815264696d61676560d81b8a8201526130b4565b90835194608086019086821067ffffffffffffffff83111761036c57508452600385525b60608082101561027e578582018901528701610267565b50506102ec6101049461032b9261010f988a969861029b84613128565b526102a583613128565b506102af8361314b565b526102b98261314b565b506102c38261315b565b526102cd8161315b565b508651906102da826103f8565b60018252600b60fa1b86830152613407565b6101cd602287518093607b60f81b88830152610311815180928a6021860191016103a9565b8101607d60f81b602182015203600281018452018261047f565b91845191610338836103f8565b60068352818301526f30b8383634b1b0ba34b7b717b539b7b760811b855191610360836103f8565b6010835282015261333e565b634e487b7160e01b835260419052602482fd5b5080fd5b60005b6004811061039957505060046000910152565b8181015183820152602001610386565b60005b8381106103bc5750506000910152565b81810151838201526020016103ac565b604091602082526103ec81518092816020860152602086860191016103a9565b601f01601f1916010190565b6040810190811067ffffffffffffffff82111761041457604052565b634e487b7160e01b600052604160045260246000fd5b6060810190811067ffffffffffffffff82111761041457604052565b6020810190811067ffffffffffffffff82111761041457604052565b610160810190811067ffffffffffffffff82111761041457604052565b90601f8019910116810190811067ffffffffffffffff82111761041457604052565b91949361051c936040519687936020956104c38151809289808a0191016103a9565b85016104d7825180938980850191016103a9565b016104ea825180938880850191016103a9565b016104fd825180938780850191016103a9565b01610510825180938680850191016103a9565b0103808552018361047f565b565b602061051c91939293604051948161053f87935180928680870191016103a9565b8201610510825180938680850191016103a9565b9061051c929493604051958692602094610575815180928880890191016103a9565b84016104ea825180938880850191016103a9565b929361051c9496959192966040519788946020966105af815180928a808b0191016103a9565b86016105c3825180938a80850191016103a9565b016104d7825180938980850191016103a9565b9061051c602d60405180946c456c656d656e74614e4654202360981b602083015261060a81518092602086860191016103a9565b810103600d81018552018361047f565b9061051c60206040518461063782965180928580860191016103a9565b810103808552018361047f565b604051610650816103f8565b60078152660ecd2caee84def60cb1b60208201526106fa602460405192610676846103f8565b600b84526a030203020323530203235360ac1b602085015260405193816106a78693518092602080870191016103a9565b603d60f81b838201602081810192909252601160f91b60218201528351936106d592859260220191016103a9565b61011160f51b908301909101602281019190915281900360048101909152018261047f565b6115736111836109a3610984604051610712816103f8565b60028152611a5960f21b60208201526107a4602460405192610733846103f8565b60078452666f75746c696e6560c81b602085015260405193816107608693518092602080870191016103a9565b8201603d60f81b6020820152601160f91b602182015261078a8251809360206022850191016103a9565b0161011160f51b602282015203600481018452018261047f565b6108766040516107b3816103f8565b6002815261783160f01b60208201526107fc6024604051926107d4846103f8565b6002845261302560f01b602085015260405193816107608693518092602080870191016103a9565b610890602460405161080d816103f8565b6002815261793160f01b6020820152604051610828816103f8565b60028152602081019061302560f01b825260405196836108528995518092602080890191016103a9565b840191603d60f81b6020840152601160f91b602184015251809360228401906103a9565b0161011160f51b602282015203600481018552018361047f565b6040519261089d846103f8565b60028452613c1960f11b602085015261092c6024604051956108be876103f8565b60048752633130302560e01b602088015260405196816108e88993518092602080870191016103a9565b8201603d60f81b6020820152601160f91b60218201526109128251809360206022850191016103a9565b0161011160f51b602282015203600481018752018561047f565b61099e602460405161093d816103f8565b60028152613c9960f11b6020820152604051610958816103f8565b600481526020810190633130302560e01b825260405199836108528c95518092602080890191016103a9565b0161011160f51b602282015203600481018852018661047f565b6104a1565b61117d610ab361078a610a0660246040516109bd816103f8565b60068152651bd9999cd95d60d21b60208201526040516109dc816103f8565b60028152602081019061302560f01b825260405195836108528895518092602080890191016103a9565b60405190610a13826103f8565b60058252647374796c6560d81b6020830152610aae602460405193610a378561042a565b602185527f73746f702d636f6c6f723a236666303063633b73746f702d6f7061636974793a6020860152603160f81b60408601526040519481610a848793518092602080870191016103a9565b8201603d60f81b6020820152601160f91b60218201526108768251809360206022850191016103a9565b61051e565b610dac6026610c5a604051610ac7816103f8565b600d81526c6174747269627574654e616d6560981b6020820152610b23602460405192610af3846103f8565b600a84526939ba37b816b1b7b637b960b11b602085015260405193816107608693518092602080870191016103a9565b604051610b2f816103f8565b600681526576616c75657360d01b6020820152610b97602460405192610b54846103f8565b601784527f236666303063633b233333333366663b23666630306363000000000000000000602085015260405193816107608693518092602080870191016103a9565b60405190610ba4826103f8565b6003825262323ab960e91b6020830152610bee602460405193610bc6856103f8565b6002855261327360f01b60208601526040519481610a848793518092602080870191016103a9565b60405192610bfb846103f8565b600b84526a1c995c19585d10dbdd5b9d60aa1b6020850152610c55602460405195610c25876103f8565b600a875269696e646566696e69746560b01b602088015260405196816108e88993518092602080870191016103a9565b610553565b92610ce66024604051610c6c816103f8565b6007815266616e696d61746560c81b6020820152604051968791600f60fa1b6020840152610ca48151809260206021870191016103a9565b600160fd1b60218285010152610cc682518093602060228588010191016103a9565b61179f60f11b60228383860101015282010103600481018752018561047f565b604051610cf2816103f8565b6004815263073746f760e41b6020820152604051948592600f60fa1b60208501528251610d268160218701602087016103a9565b8401600160fd1b6021820152610d468251809360206022850191016103a9565b601f60f91b60228383010152610d6883518094602060238686010191016103a9565b613c2f60f01b602384848401010152610d8f845180956020602587878701010191016103a9565b010101601f60f91b6025820152600682820301825203018261047f565b610e89610852604051610dbe816103f8565b60068152651bd9999cd95d60d21b6020820152610e0d602460405192610de3846103f8565b60048452633130302560e01b602085015260405193816107608693518092602080870191016103a9565b610aae6024604051610e1e816103f8565b6005815260208101647374796c6560d81b8152604051610e3d8161042a565b6021815261087660208201927f73746f702d636f6c6f723a233333333366663b73746f702d6f7061636974793a8452603160f81b604084015260405198899551809260208801906103a9565b90610aae6026611041610852604051610ea1816103f8565b600d81526c6174747269627574654e616d6560981b6020820152610ecd602460405192610af3846103f8565b604051610ed9816103f8565b600681526576616c75657360d01b6020820152610f41602460405192610efe846103f8565b601784527f233333333366663b236666303063633b23333333336666000000000000000000602085015260405193816107608693518092602080870191016103a9565b60405191610f4e836103f8565b6003835262323ab960e91b6020840152610fdc602460405194610f70866103f8565b6002865261327360f01b60208701526040519581610f988893518092602080870191016103a9565b8201603d60f81b6020820152601160f91b6021820152610fc28251809360206022850191016103a9565b0161011160f51b602282015203600481018652018461047f565b610c556024604051610fed816103f8565b600b8152602081016a1c995c19585d10dbdd5b9d60aa1b8152604051611012816103f8565b600a8152610912602082019269696e646566696e69746560b01b84526040519a8b9551809260208801906103a9565b936110c56024604051611053816103f8565b6007815266616e696d61746560c81b6020820152604051978891600f60fa1b602084015261108b8151809260206021870191016103a9565b8201600160fd1b60218201526110ab8251809360206022850191016103a9565b0161179f60f11b602282015203600481018852018661047f565b6040516110d1816103f8565b6004815263073746f760e41b6020820152604051958692600f60fa1b602085015282516111058160218701602087016103a9565b8401600160fd1b60218201526111258251809360206022850191016103a9565b01601f60f91b60228201526111448251809360206023850191016103a9565b01613c2f60f01b60238201526111648251809360206025850191016103a9565b01601f60f91b602582015203600681018552018361047f565b90612bee565b61156d611318610852604051611198816103f8565b60028152611a5960f21b60208201526111e96024604051926111b9846103f8565b600a845269189858dad9dc9bdd5b9960b21b602085015260405193816107608693518092602080870191016103a9565b6040516111f5816103f8565b6002815261783160f01b60208201526112166024604051926107d4846103f8565b60405190611223826103f8565b60028252613c1960f11b602083015261126c602460405193611244856103f8565b6002855261302560f01b60208601526040519481610a848793518092602080870191016103a9565b60405192611279846103f8565b6002845261793160f01b60208501526112c260246040519561129a876103f8565b6002875261302560f01b602088015260405196816108e88993518092602080870191016103a9565b61099e60246040516112d3816103f8565b6002815260208101613c9960f11b81526040516112ef816103f8565b600481526109846020820192633130302560e01b84526040519b8c9551809260208801906103a9565b61117d6113b261085260405161132d816103f8565b60068152651bd9999cd95d60d21b60208201526113526024604051926107d4846103f8565b610aae6024604051611363816103f8565b600a8152602081016939ba37b816b1b7b637b960b11b8152604051611387816103f8565b6006815261087660208201926579656c6c6f7760d01b845260405198899551809260208801906103a9565b6114816026604051926113c4846103f8565b6004845263073746f760e41b6020850152604051936113e285610446565b60008552604051948592600f60fa1b602085015282516114098160218701602087016103a9565b8401600160fd1b60218201526114298251809360206022850191016103a9565b01601f60f91b60228201526114488251809360206023850191016103a9565b01613c2f60f01b60238201526114688251809360206025850191016103a9565b01601f60f91b602582015203600681018452018261047f565b611515610852604051611493816103f8565b60068152651bd9999cd95d60d21b60208201526114b8602460405192610de3846103f8565b610aae60246040516114c9816103f8565b600a8152602081016939ba37b816b1b7b637b960b11b81526040516114ed816103f8565b600381526108766020820192621c995960ea1b845260405198899551809260208801906103a9565b90610aae602660405193611528856103f8565b6004855263073746f760e41b60208601526040519461154686610446565b60008652604051958692600f60fa1b602085015282516111058160218701602087016103a9565b9061051e565b6115c96026604051611584816103f8565b60048152636465667360e01b6020820152604051906115a282610446565b60008252604051948592600f60fa1b602085015282516114098160218701602087016103a9565b6117816116f76040516115db816103f8565b60058152640eed2c8e8d60db1b60208201526115ff602460405192610de3846103f8565b6040519061160c826103f8565b60068252651a195a59da1d60d21b602083015261165b602460405193611631856103f8565b60048552633130302560e01b60208601526040519481610a848793518092602080870191016103a9565b61173a60286116ad6116c76026604051611674816103f8565b600a81526020810169189858dad9dc9bdd5b9960b21b81526040519485926475726c282360d81b602085015251809260258501906103a9565b8101602960f81b602582015203600681018452018261047f565b604051906116d4826103f8565b6004825263199a5b1b60e21b602083015260405196879260208085019101610383565b603d60f81b6024830152601160f91b602583015261171f8151809260206026860191016103a9565b810161011160f51b602682015203600881018652018461047f565b61179b602660405161174b816103f8565b6007815260208101666f75746c696e6560c81b81526040519788926475726c282360d81b602085015251809260258501906103a9565b8101602960f81b602582015203600681018752018561047f565b604051936117a8856103f8565b60068552657374726f6b6560d01b60208601526040519460005b60068110612bd9575050916109849391611820602a878096603d60f81b602661187f9b0152601160f91b60278301526118058151809260206028860191016103a9565b810161011160f51b602882015203600a81018752018561047f565b61099e6024604051611831816103f8565b600c81526b0e6e8e4ded6ca5aeed2c8e8d60a31b6020820152604051611856816103f8565b600181526020810190603760f81b825260405199836108528c95518092602080890191016103a9565b6118d560266040519261189184610446565b600084526040516118a1816103f8565b60048152631c9958dd60e21b6020820152604051948592600f60fa1b602085015282516114098160218701602087016103a9565b604051906118e2826103f8565b60098252687472616e73666f726d60b81b602083015261194560246040519361190a856103f8565b60158552747472616e736c6174652836322e352c2035352e352960581b60208601526040519481610a848793518092602080870191016103a9565b60405192611952846103f8565b60168452755f636861724f75746c696e655f7841305f696d61676560501b60208501526040518061040081011067ffffffffffffffff610400830111176104145780610400611e2792016040526103de81526000805160206134f783398151915260208201526000805160206134d783398151915260408201526000805160206134b783398151915260608201527f414368306c45515652346e4f32624d572f5451425341763551675554584a694c60808201527f4a35596946546c347849774944497773374b774c2f49304e2f41796c7278433960a08201527f696755736475444f3243474c6f686a323142516b4931417a334c4e6b36612b7460c08201527f353776714433545646734f5866667666664f4f5a38484a4559326e52664e373860e08201527f362f6e77773066315031346c57616e57743272487238364f77516746636633676101008201527f4a77635843704b6d4a4836384a5673756d386d437a48544a626a736f4e7449336101208201527f3530646c6765623775475676754757686475342b7268622b42765a35382b66726101408201527f3379764f6566337741774d6d7165715951714e794c2b53594653514635766d6d6101608201527f59366d4e5345454d71543562694d686b2f503370665273504e7574335a2b56596101808201527f42325051436a6d68413663584677795367664d737148355967487776644e41526101a08201527f61597a5135514c323654356268326246574874614d416a43565543544e4777436101c08201526101e0957f4c735632475344716e6a45756770485736373862464f43334d4a6d3937355759878301527f726f6258593450662f596573347357355366725553592f34466131666b6d6c6a6102008301527f4c554a5777792b7575595a5173473850586e39612f3950502f79513752784e356102208301527f6a4e446c3045424f3764487a35362b654c4a6c57427a61716847776c315459426102408301527f327a624d466f3777476e333437463236776951624c7a56625471684e38736f526102608301527f414a576c46514a555345564453495373696d38304b7a3830316d32554a45684d6102808301527f6a4b6b7562366e7757694e63457943674c5a6446374544734a574630597036646102a08301527f48355a46454962794f32554735314a456a68456f6849687854536f456e5874446102c08301527f434e684f73697a5a6e55564d4b67763858747464684b534e4e427436464a73526102e08301527f3445757451466e7831774359424c41467743344249416c774334424d416c41436103008301527f344263416d41537741694a565366434b5641312f5a30576e49506630355358476103208301527f72767373376f36594341684652534971596449704751696f69752f42667045446103408301527f73495563386955796951456b2b6f78534b686a3553512b6b325270632f597a566103608301527f6c646b4e796a494c342f49587932324b514243556f49614b3547532b395341656103808301527f585a5162704f614e55646b793138454263563272746254642b42436d776970446103a08301527f6e71572f3869474d546453327a39337559324e684853313674416a754d3444766103c08301527f41485577543633344e4c78376b41414141415355564f524b35435949493d00006103e0830152612cb2565b93604051611e34816103f8565b60128152715f63686172416d725f7841305f696d61676560701b602082015260405190818381011067ffffffffffffffff8484011117610414576120579282016040526101ae82526000805160206134f783398151915260208301526000805160206134d783398151915260408301526000805160206134b783398151915260608301527f414135456c45515652346e4f3357735133434d424346345575575343514b4d3460808301527f5662786d4159614c49414c4a415a61436d67675949435561576e514b49494a5860a08301527f57554845327967473169677636766a2b2f30376d78464241414141414141414160c08301527f414141414141414141414141417762536133616e4b727366734949593364514360e08301527f672b512f454f34526532776263487278444b58526d6b69524165395456782f586101008301527f627931794845414c7844474c596874734f6c6367346a3243624575424a4454646101208301527f394242416c68626d59686a6f6c57327a6d454a48562b683737477453666e454c6101408301527f5254625a744f524554573230496b6b6362314c412f503161626f5245546170686101608301527f5656665939612f5869756c69617a74636d746d737a65393666625974514765696101808301527f6133722f35487159745248774141344f3939414b54434f3865534141386541416101a08301526d414141456c46546b5375516d434360901b6101c0830152612cb2565b956121cb604051612067816103f8565b600e81526d5f6c65675f7841305f696d61676560901b60208201526040519061208f82610462565b61012682526000805160206134f783398151915260208301526000805160206134d783398151915260408301526000805160206134b783398151915260608301527f414166556c45515652346e4f3355735133434d42414630422b6d6f4d73576a4f60808301527f306c3072454658626141426b73426845696b32494430586d6672644b6537346960a08301527f63414141414141414141414141414141414141504250686c364478755070756e60c08301527f786635765062325674713933426f3266785a6d55724b564a4b384c6c72562f3260e08301527f56746131325055483161727466793156654f38477363495232444d586e4d67626101008301527f584232446f55756273422b624d666e66327357696b41414141415355564f524b6101208301526535435949493d60d01b610140830152612cb2565b9261233c6040516121db816103f8565b600f81526e5f657965735f7841305f696d61676560881b60208201526040519061220482610462565b61012282526000805160206134f783398151915260208301526000805160206134d783398151915260408301526000805160206134b783398151915260608301527f4141656b6c45515652346e4f3355735133434d4242413059415977684746455560808301527f4f594b76744c6245484843696b7355356b474155706b52796e6571363635663660a08301527f34384441414141414141414144517936466e50495a5536767834336c6666617460c08301527f585a58417970784a424b6c664e632f6d3939796e6c2b4e32717a39567550725960e08301527f5066584d2f54706e744c6e486f66754979335854522b385363414141414141416101008301527f4141514663766d544d76595378732b624d41414141415355564f524b3543594961012083015261493d60f01b610140830152612cb2565b946040519861234a8a6103f8565b60108a526f5f6d6f7574685f7841305f696d61676560801b60208b0152604051998a61010081011067ffffffffffffffff6101008d0111176104145761248d612bd199602699612b32996124cb95612bd69f808e97610100612487930160405260de82526000805160206134f783398151915260208301526000805160206134d783398151915260408301526000805160206134b783398151915260608301527f414153456c45515652346e4f33506f51334149414145514c6f466a693236763260808301527f594c4846754152574249436b33496e587a7a2f7945414141414141414141414160a08301527f4333532f46744b2f6c4f7a2b6e433065787771666e585451414141414141414160c08301527f42663666746a42747261417038744141414141456c46546b5375516d4343000060e0830152612cb2565b936104a1565b9260405161249a816103f8565b60018152606760f81b6020820152604051948592600f60fa1b602085015282516114098160218701602087016103a9565b6127536127416040516124dd816103f8565b60018152600f60fb1b60208201526125256024604051926124fd846103f8565b6002845261352560f01b602085015260405193816107608693518092602080870191016103a9565b61078a61257e6024604051612539816103f8565b60018152607960f81b6020820152604051612553816103f8565b6003815260208101906238352560e81b825260405195836108528895518092602080890191016103a9565b60405161258a816103f8565b600b81526a666f6e742d66616d696c7960a81b60208201526125df6024604051926125b4846103f8565b6005845264105c9a585b60da1b602085015260405193816107608693518092602080870191016103a9565b604051906125ec826103f8565b6009825268666f6e742d73697a6560b81b602083015261263c602460405193612614856103f8565b6002855261313560f01b60208601526040519481610a848793518092602080870191016103a9565b60405192612649846103f8565b6004845263199a5b1b60e21b602085015261269660246040519561266c876103f8565b60048752630233030360e41b602088015260405196816108e88993518092602080870191016103a9565b604051946126a3866103f8565b600b86526a3a32bc3a16b0b731b437b960a91b602087015261273c6024604051976126cd896103f8565b60058952641cdd185c9d60da1b60208a015260405198816126f88b93518092602080870191016103a9565b8201603d60f81b6020820152601160f91b60218201526127228251809360206022850191016103a9565b0161011160f51b602282015203600481018952018761047f565b610589565b61274d61013d8661302c565b9061306b565b91612b2c6129b761295a61272260405161276c816103f8565b60018152600f60fb1b602082015261278c6024604051926124fd846103f8565b604051612798816103f8565b60018152607960f81b60208201526127e16024604051926127b8846103f8565b600384526239302560e81b602085015260405193816107608693518092602080870191016103a9565b6040516127ed816103f8565b600b81526a666f6e742d66616d696c7960a81b60208201526128176024604051926125b4846103f8565b60405191612824836103f8565b6009835268666f6e742d73697a6560b81b602084015261287460246040519461284c866103f8565b6002865261031360f41b60208701526040519581610f988893518092602080870191016103a9565b60405193612881856103f8565b6004855263199a5b1b60e21b60208601526128f86024604051966128a4886103f8565b60048852630233030360e41b602089015260405197816128ce8a93518092602080870191016103a9565b8201603d60f81b6020820152601160f91b60218201526109848251809360206022850191016103a9565b61273c6024604051612909816103f8565b600b81526a3a32bc3a16b0b731b437b960a91b602082015260405161292d816103f8565b600581526020810190641cdd185c9d60da1b82526040519a836108528d95518092602080890191016103a9565b86600052600560205261297460046040600020015461302c565b906129b2602760405180946602632bb32b61d160cd1b60208301526129a281518092602086860191016103a9565b810103600781018552018361047f565b61306b565b94612acf6040516129c7816103f8565b60018152600f60fb1b60208201526129e76024604051926124fd846103f8565b6040516129f3816103f8565b60018152607960f81b6020820152612a3c602460405192612a13846103f8565b600384526239352560e81b602085015260405193816107608693518092602080870191016103a9565b604051612a48816103f8565b600b81526a666f6e742d66616d696c7960a81b6020820152612a726024604051926125b4846103f8565b60405190612a7f826103f8565b6009825268666f6e742d73697a6560b81b602083015261263c602460405193612aa7856103f8565b6002855261031360f41b60208601526040519481610a848793518092602080870191016103a9565b906000526005602052612ae960076040600020015461302c565b906129b2602c60405180946b0131198991c189a981d903c160a51b6020830152612b1c81518092602086860191016103a9565b810103600c81018552018361047f565b94610589565b92612b92604360405180937f786d6c6e733d22687474703a2f2f7777772e77332e6f72672f323030302f737660208301526203391160ed1b6040830152612b8281518092602086860191016103a9565b810103602381018452018261047f565b604051612b9e816103f8565b600381526273766760e81b6020820152604051948592600f60fa1b602085015282516114098160218701602087016103a9565b61061a565b90565b80602080928401015182828a010152016117c2565b6026612bd691612c9d93604051612c04816103f8565b600e815260208101906d1b1a5b99585c91dc98591a595b9d60921b8252604051968794600f60fa1b60208701528251612c418160218901876103a9565b8601600160fd1b6021820152612c618251809360206022850191016103a9565b0193601f60f91b94856022820152612c838251809360206023850191016103a9565b0191613c2f60f01b602384015251809360258401906103a9565b0190602582015203600681018452018261047f565b6040918251612cc0816103f8565b60029260028252602093611a5960f21b858401528551928560005b838110613018575050505084603d60f81b936022948086860152601160f91b90816023870152602494805190818a888a01920191612d18926103a9565b86018661011160f51b91828882015203600681018852602601612d3b908861047f565b845193612d47856103f8565b6005855289850193640eed2c8e8d60db1b855287875196612d67886103f8565b600388528b8d808a016235302560e81b9a8b8252898d519b8c96519081868901612d90926103a9565b8601938401528660218401525180938301612daa926103a9565b01858d8201520360048101875201612dc2908661047f565b878751612dce816103f8565b600681528b8d80830199651a195a59da1d60d21b8b528b51612def816103f8565b60038152828101918252898d519c8d96519081868901612e0e926103a9565b8601938401528660218401525180938301612e28926103a9565b01858d8201520360048101885201612e40908761047f565b878751612e4c816103f8565b600981528b8d8083019a687472616e73666f726d60b81b8c528051612e70816103f8565b601381528983820192727472616e736c617465282d2e3034202e30382960681b8452519d8e96519081868901612ea5926103a9565b8601938401528660218401525180938301612ebf926103a9565b01858d8201520360048101895201612ed7908861047f565b8a8c51612ee3816103f8565b60048152019363343932b360e11b85528c519889958d8701612f0491610383565b8501526025840152805190818b60268601920191612f21926103a9565b820190602682015203600881018552602801612f3d908561047f565b612f46946104a1565b918351612f52816103f8565b600581528181019164696d61676560d81b8352855195612f7187610446565b6000875251958695828701600f60fa1b90528351806021890190612f9591886103a9565b870160218101600160fd1b90528151918285898401920191612fb6926103a9565b0190601f60f91b80968301528051809360238401920191612fd6926103a9565b019060238201613c2f60f01b905251918260258301612ff4926103a9565b019060258201520360068101825260260161300f908261047f565b612bd69061061a565b818184010151828288010152018690612cdb565b90604051608081019260a0820160405260008452925b6000190192600a90603082820601855304928361304257809350608091030191601f1901918252565b6026612bd691612c9d93604051613081816103f8565b600481526020810190631d195e1d60e21b8252604051968794600f60fa1b60208701528251612c418160218901876103a9565b60256130cb6130c5612bd69361316b565b9361316b565b604051938491601160f91b918260208501526130f18151809260206021880191016103a9565b830162111d1160e91b60218201526131138251809360206024850191016103a9565b0190602482015203600581018452018261047f565b8051156131355760200190565b634e487b7160e01b600052603260045260246000fd5b8051600110156131355760400190565b8051600210156131355760600190565b908151820160208060405101937b5c75303030303031323334353637383961626364656662746e0066726015525b8281036131bc5750505060008252602060405192601f1984820301845201604052565b6001949192948091019182519160ff831692858410156132205761370082851b16156131fc57506008600293605c845301519082015301935b9190613199565b905060069250600f90818160041c1651601d531651601e53601951815201936131f5565b50916b10000000000000040000000083821b161561324957600292605c835382015301936131f5565b815301936131f5565b90606091805180613261575050565b9092506003926002906003600284010460021b92604051957f4142434445464748494a4b4c4d4e4f505152535455565758595a616263646566601f52603f936106707f6768696a6b6c6d6e6f707172737475767778797a303132333435363738392d5f18603f5260208801918689019560048260208901975b0194855183808260121c16519160009283538181600c1c1651600153818160061c165188531651855351815201938685101561331a5760049083906132da565b5050505091506040600093016040526003613d3d60f01b9106600204820352528252565b8151612bd69260269291156133f05761338460216040518361336a8295518092602080860191016103a9565b8101600b60fa1b602082015203600181018452018261047f565b935b604051948592643230ba309d60d91b60208501526133ae8151809260206025880191016103a9565b8301603b60f81b60258201526133cd82518093602088850191016103a9565b016133e182518093602087850191016103a9565b0103600681018452018261047f565b506040516133fd81610446565b6000815293613386565b908151156134a15761341882613128565b51916001918291825b61342d575b5050505090565b805184101561349c57828094956134946020808960051b8601015192604051938161346186935180928680870191016103a9565b820188519061347582868301878d016103a9565b01613488825180938680850191016103a9565b0103808452018261047f565b950193613421565b613426565b50506040516134af81610446565b600081529056fe6c46414141414358424957584d41414173534141414c456748533358373841416f414141414e53556845556741414145454141414242434159414141434f3938646174613a696d6167652f706e673b6261736536342c6956424f5277304b4767a2646970667358221220551a9963c98f65c19adfe3cd8823bbe68a1d3576b48368ce6f257820da7f743f64736f6c63430008180033",
  "devdoc": {
    "kind": "dev",
    "methods": {},
    "version": 1
  },
  "userdoc": {
    "kind": "user",
    "methods": {},
    "version": 1
  },
  "storageLayout": {
    "storage": [
      {
        "astId": 13695,
        "contract": "contracts/elementa/nftFacet.sol:nftFacet",
        "label": "s",
        "offset": 0,
        "slot": "0",
        "type": "t_struct(AppStorage)13649_storage"
      }
    ],
    "types": {
      "t_address": {
        "encoding": "inplace",
        "label": "address",
        "numberOfBytes": "20"
      },
      "t_array(t_uint256)10_storage": {
        "base": "t_uint256",
        "encoding": "inplace",
        "label": "uint256[10]",
        "numberOfBytes": "320"
      },
      "t_bool": {
        "encoding": "inplace",
        "label": "bool",
        "numberOfBytes": "1"
      },
      "t_bytes_storage": {
        "encoding": "bytes",
        "label": "bytes",
        "numberOfBytes": "32"
      },
      "t_enum(EquipmentType)13660": {
        "encoding": "inplace",
        "label": "enum EquipmentType",
        "numberOfBytes": "1"
      },
      "t_enum(UserType)13666": {
        "encoding": "inplace",
        "label": "enum UserType",
        "numberOfBytes": "1"
      },
      "t_mapping(t_address,t_bool)": {
        "encoding": "mapping",
        "key": "t_address",
        "label": "mapping(address => bool)",
        "numberOfBytes": "32",
        "value": "t_bool"
      },
      "t_mapping(t_address,t_struct(DelegateEOA)13561_storage)": {
        "encoding": "mapping",
        "key": "t_address",
        "label": "mapping(address => struct DelegateEOA)",
        "numberOfBytes": "32",
        "value": "t_struct(DelegateEOA)13561_storage"
      },
      "t_mapping(t_string_memory_ptr,t_address)": {
        "encoding": "mapping",
        "key": "t_string_memory_ptr",
        "label": "mapping(string => address)",
        "numberOfBytes": "32",
        "value": "t_address"
      },
      "t_mapping(t_string_memory_ptr,t_struct(User)13552_storage)": {
        "encoding": "mapping",
        "key": "t_string_memory_ptr",
        "label": "mapping(string => struct User)",
        "numberOfBytes": "32",
        "value": "t_struct(User)13552_storage"
      },
      "t_mapping(t_string_memory_ptr,t_uint256)": {
        "encoding": "mapping",
        "key": "t_string_memory_ptr",
        "label": "mapping(string => uint256)",
        "numberOfBytes": "32",
        "value": "t_uint256"
      },
      "t_mapping(t_uint256,t_array(t_uint256)10_storage)": {
        "encoding": "mapping",
        "key": "t_uint256",
        "label": "mapping(uint256 => uint256[10])",
        "numberOfBytes": "32",
        "value": "t_array(t_uint256)10_storage"
      },
      "t_mapping(t_uint256,t_struct(ElementaItem)13603_storage)": {
        "encoding": "mapping",
        "key": "t_uint256",
        "label": "mapping(uint256 => struct ElementaItem)",
        "numberOfBytes": "32",
        "value": "t_struct(ElementaItem)13603_storage"
      },
      "t_mapping(t_uint256,t_struct(ElementaNFT)13593_storage)": {
        "encoding": "mapping",
        "key": "t_uint256",
        "label": "mapping(uint256 => struct ElementaNFT)",
        "numberOfBytes": "32",
        "value": "t_struct(ElementaNFT)13593_storage"
      },
      "t_mapping(t_uint256,t_struct(levelInfo)13570_storage)": {
        "encoding": "mapping",
        "key": "t_uint256",
        "label": "mapping(uint256 => struct levelInfo)",
        "numberOfBytes": "32",
        "value": "t_struct(levelInfo)13570_storage"
      },
      "t_string_memory_ptr": {
        "encoding": "bytes",
        "label": "string",
        "numberOfBytes": "32"
      },
      "t_string_storage": {
        "encoding": "bytes",
        "label": "string",
        "numberOfBytes": "32"
      },
      "t_struct(AppStorage)13649_storage": {
        "encoding": "inplace",
        "label": "struct AppStorage",
        "members": [
          {
            "astId": 13607,
            "contract": "contracts/elementa/nftFacet.sol:nftFacet",
            "label": "contracts",
            "offset": 0,
            "slot": "0",
            "type": "t_mapping(t_string_memory_ptr,t_address)"
          },
          {
            "astId": 13612,
            "contract": "contracts/elementa/nftFacet.sol:nftFacet",
            "label": "users",
            "offset": 0,
            "slot": "1",
            "type": "t_mapping(t_string_memory_ptr,t_struct(User)13552_storage)"
          },
          {
            "astId": 13614,
            "contract": "contracts/elementa/nftFacet.sol:nftFacet",
            "label": "globalUserIndex",
            "offset": 0,
            "slot": "2",
            "type": "t_uint256"
          },
          {
            "astId": 13618,
            "contract": "contracts/elementa/nftFacet.sol:nftFacet",
            "label": "userIndex",
            "offset": 0,
            "slot": "3",
            "type": "t_mapping(t_string_memory_ptr,t_uint256)"
          },
          {
            "astId": 13623,
            "contract": "contracts/elementa/nftFacet.sol:nftFacet",
            "label": "delegateEOAs",
            "offset": 0,
            "slot": "4",
            "type": "t_mapping(t_address,t_struct(DelegateEOA)13561_storage)"
          },
          {
            "astId": 13628,
            "contract": "contracts/elementa/nftFacet.sol:nftFacet",
            "label": "elementaNFTs",
            "offset": 0,
            "slot": "5",
            "type": "t_mapping(t_uint256,t_struct(ElementaNFT)13593_storage)"
          },
          {
            "astId": 13633,
            "contract": "contracts/elementa/nftFacet.sol:nftFacet",
            "label": "levelInfos",
            "offset": 0,
            "slot": "6",
            "type": "t_mapping(t_uint256,t_struct(levelInfo)13570_storage)"
          },
          {
            "astId": 13637,
            "contract": "contracts/elementa/nftFacet.sol:nftFacet",
            "label": "isDelegateEOA",
            "offset": 0,
            "slot": "7",
            "type": "t_mapping(t_address,t_bool)"
          },
          {
            "astId": 13642,
            "contract": "contracts/elementa/nftFacet.sol:nftFacet",
            "label": "elementaItems",
            "offset": 0,
            "slot": "8",
            "type": "t_mapping(t_uint256,t_struct(ElementaItem)13603_storage)"
          },
          {
            "astId": 13648,
            "contract": "contracts/elementa/nftFacet.sol:nftFacet",
            "label": "equipItems",
            "offset": 0,
            "slot": "9",
            "type": "t_mapping(t_uint256,t_array(t_uint256)10_storage)"
          }
        ],
        "numberOfBytes": "320"
      },
      "t_struct(DelegateEOA)13561_storage": {
        "encoding": "inplace",
        "label": "struct DelegateEOA",
        "members": [
          {
            "astId": 13554,
            "contract": "contracts/elementa/nftFacet.sol:nftFacet",
            "label": "userIndex",
            "offset": 0,
            "slot": "0",
            "type": "t_uint256"
          },
          {
            "astId": 13556,
            "contract": "contracts/elementa/nftFacet.sol:nftFacet",
            "label": "userId",
            "offset": 0,
            "slot": "1",
            "type": "t_string_storage"
          },
          {
            "astId": 13558,
            "contract": "contracts/elementa/nftFacet.sol:nftFacet",
            "label": "connectAddress",
            "offset": 0,
            "slot": "2",
            "type": "t_address"
          },
          {
            "astId": 13560,
            "contract": "contracts/elementa/nftFacet.sol:nftFacet",
            "label": "isOwnNFT",
            "offset": 20,
            "slot": "2",
            "type": "t_bool"
          }
        ],
        "numberOfBytes": "96"
      },
      "t_struct(ElementaItem)13603_storage": {
        "encoding": "inplace",
        "label": "struct ElementaItem",
        "members": [
          {
            "astId": 13596,
            "contract": "contracts/elementa/nftFacet.sol:nftFacet",
            "label": "equipmentType",
            "offset": 0,
            "slot": "0",
            "type": "t_enum(EquipmentType)13660"
          },
          {
            "astId": 13598,
            "contract": "contracts/elementa/nftFacet.sol:nftFacet",
            "label": "itemId",
            "offset": 0,
            "slot": "1",
            "type": "t_uint256"
          },
          {
            "astId": 13600,
            "contract": "contracts/elementa/nftFacet.sol:nftFacet",
            "label": "name",
            "offset": 0,
            "slot": "2",
            "type": "t_string_storage"
          },
          {
            "astId": 13602,
            "contract": "contracts/elementa/nftFacet.sol:nftFacet",
            "label": "svgUri",
            "offset": 0,
            "slot": "3",
            "type": "t_bytes_storage"
          }
        ],
        "numberOfBytes": "128"
      },
      "t_struct(ElementaNFT)13593_storage": {
        "encoding": "inplace",
        "label": "struct ElementaNFT",
        "members": [
          {
            "astId": 13572,
            "contract": "contracts/elementa/nftFacet.sol:nftFacet",
            "label": "ownerAddress",
            "offset": 0,
            "slot": "0",
            "type": "t_address"
          },
          {
            "astId": 13574,
            "contract": "contracts/elementa/nftFacet.sol:nftFacet",
            "label": "delegateAddress",
            "offset": 0,
            "slot": "1",
            "type": "t_address"
          },
          {
            "astId": 13576,
            "contract": "contracts/elementa/nftFacet.sol:nftFacet",
            "label": "nickName",
            "offset": 0,
            "slot": "2",
            "type": "t_string_storage"
          },
          {
            "astId": 13578,
            "contract": "contracts/elementa/nftFacet.sol:nftFacet",
            "label": "grade",
            "offset": 0,
            "slot": "3",
            "type": "t_uint256"
          },
          {
            "astId": 13580,
            "contract": "contracts/elementa/nftFacet.sol:nftFacet",
            "label": "level",
            "offset": 0,
            "slot": "4",
            "type": "t_uint256"
          },
          {
            "astId": 13582,
            "contract": "contracts/elementa/nftFacet.sol:nftFacet",
            "label": "exp",
            "offset": 0,
            "slot": "5",
            "type": "t_uint256"
          },
          {
            "astId": 13584,
            "contract": "contracts/elementa/nftFacet.sol:nftFacet",
            "label": "heartMax",
            "offset": 0,
            "slot": "6",
            "type": "t_uint256"
          },
          {
            "astId": 13586,
            "contract": "contracts/elementa/nftFacet.sol:nftFacet",
            "label": "heartPoint",
            "offset": 0,
            "slot": "7",
            "type": "t_uint256"
          },
          {
            "astId": 13588,
            "contract": "contracts/elementa/nftFacet.sol:nftFacet",
            "label": "plusHeartPoint",
            "offset": 0,
            "slot": "8",
            "type": "t_uint256"
          },
          {
            "astId": 13590,
            "contract": "contracts/elementa/nftFacet.sol:nftFacet",
            "label": "updateHeartTime",
            "offset": 0,
            "slot": "9",
            "type": "t_uint256"
          },
          {
            "astId": 13592,
            "contract": "contracts/elementa/nftFacet.sol:nftFacet",
            "label": "elementaPoint",
            "offset": 0,
            "slot": "10",
            "type": "t_uint256"
          }
        ],
        "numberOfBytes": "352"
      },
      "t_struct(User)13552_storage": {
        "encoding": "inplace",
        "label": "struct User",
        "members": [
          {
            "astId": 13538,
            "contract": "contracts/elementa/nftFacet.sol:nftFacet",
            "label": "userId",
            "offset": 0,
            "slot": "0",
            "type": "t_string_storage"
          },
          {
            "astId": 13540,
            "contract": "contracts/elementa/nftFacet.sol:nftFacet",
            "label": "nftId",
            "offset": 0,
            "slot": "1",
            "type": "t_uint256"
          },
          {
            "astId": 13542,
            "contract": "contracts/elementa/nftFacet.sol:nftFacet",
            "label": "reciveAddress",
            "offset": 0,
            "slot": "2",
            "type": "t_address"
          },
          {
            "astId": 13544,
            "contract": "contracts/elementa/nftFacet.sol:nftFacet",
            "label": "delegateEOA",
            "offset": 0,
            "slot": "3",
            "type": "t_address"
          },
          {
            "astId": 13547,
            "contract": "contracts/elementa/nftFacet.sol:nftFacet",
            "label": "userType",
            "offset": 20,
            "slot": "3",
            "type": "t_enum(UserType)13666"
          },
          {
            "astId": 13549,
            "contract": "contracts/elementa/nftFacet.sol:nftFacet",
            "label": "refferalId",
            "offset": 0,
            "slot": "4",
            "type": "t_string_storage"
          },
          {
            "astId": 13551,
            "contract": "contracts/elementa/nftFacet.sol:nftFacet",
            "label": "refferalCount",
            "offset": 0,
            "slot": "5",
            "type": "t_uint256"
          }
        ],
        "numberOfBytes": "192"
      },
      "t_struct(levelInfo)13570_storage": {
        "encoding": "inplace",
        "label": "struct levelInfo",
        "members": [
          {
            "astId": 13563,
            "contract": "contracts/elementa/nftFacet.sol:nftFacet",
            "label": "level",
            "offset": 0,
            "slot": "0",
            "type": "t_uint256"
          },
          {
            "astId": 13565,
            "contract": "contracts/elementa/nftFacet.sol:nftFacet",
            "label": "requireExp",
            "offset": 0,
            "slot": "1",
            "type": "t_uint256"
          },
          {
            "astId": 13567,
            "contract": "contracts/elementa/nftFacet.sol:nftFacet",
            "label": "levelUserCount",
            "offset": 0,
            "slot": "2",
            "type": "t_uint256"
          },
          {
            "astId": 13569,
            "contract": "contracts/elementa/nftFacet.sol:nftFacet",
            "label": "heartMax",
            "offset": 0,
            "slot": "3",
            "type": "t_uint256"
          }
        ],
        "numberOfBytes": "128"
      },
      "t_uint256": {
        "encoding": "inplace",
        "label": "uint256",
        "numberOfBytes": "32"
      }
    }
  }
}