{
	"contracts/shared/utils/oraklVRF.sol": {
		"VRFConsumer": {
			"abi": [
				{
					"inputs": [
						{
							"internalType": "address",
							"name": "coordinator",
							"type": "address"
						},
						{
							"internalType": "address",
							"name": "_diamond",
							"type": "address"
						}
					],
					"stateMutability": "nonpayable",
					"type": "constructor"
				},
				{
					"inputs": [
						{
							"internalType": "address",
							"name": "have",
							"type": "address"
						},
						{
							"internalType": "address",
							"name": "want",
							"type": "address"
						}
					],
					"name": "OnlyCoordinatorCanFulfill",
					"type": "error"
				},
				{
					"inputs": [
						{
							"internalType": "bytes32",
							"name": "keyHash",
							"type": "bytes32"
						},
						{
							"internalType": "uint64",
							"name": "accId",
							"type": "uint64"
						},
						{
							"internalType": "uint32",
							"name": "callbackGasLimit",
							"type": "uint32"
						},
						{
							"internalType": "uint32",
							"name": "numWords",
							"type": "uint32"
						}
					],
					"name": "VRFCall",
					"outputs": [
						{
							"internalType": "uint256[]",
							"name": "",
							"type": "uint256[]"
						}
					],
					"stateMutability": "nonpayable",
					"type": "function"
				},
				{
					"inputs": [],
					"name": "diamondContract",
					"outputs": [
						{
							"internalType": "address",
							"name": "",
							"type": "address"
						}
					],
					"stateMutability": "view",
					"type": "function"
				},
				{
					"inputs": [
						{
							"internalType": "address",
							"name": "_diamondAddress",
							"type": "address"
						}
					],
					"name": "editDiamond",
					"outputs": [],
					"stateMutability": "nonpayable",
					"type": "function"
				},
				{
					"inputs": [
						{
							"internalType": "uint256",
							"name": "requestId",
							"type": "uint256"
						},
						{
							"internalType": "uint256[]",
							"name": "randomWords",
							"type": "uint256[]"
						}
					],
					"name": "rawFulfillRandomWords",
					"outputs": [],
					"stateMutability": "nonpayable",
					"type": "function"
				},
				{
					"inputs": [
						{
							"internalType": "bytes32",
							"name": "keyHash",
							"type": "bytes32"
						},
						{
							"internalType": "uint64",
							"name": "accId",
							"type": "uint64"
						},
						{
							"internalType": "uint32",
							"name": "callbackGasLimit",
							"type": "uint32"
						},
						{
							"internalType": "uint32",
							"name": "numWords",
							"type": "uint32"
						}
					],
					"name": "requestRandomWords",
					"outputs": [
						{
							"internalType": "uint256",
							"name": "requestId",
							"type": "uint256"
						}
					],
					"stateMutability": "nonpayable",
					"type": "function"
				},
				{
					"inputs": [],
					"name": "sOwner",
					"outputs": [
						{
							"internalType": "address",
							"name": "",
							"type": "address"
						}
					],
					"stateMutability": "view",
					"type": "function"
				},
				{
					"inputs": [
						{
							"internalType": "uint256",
							"name": "",
							"type": "uint256"
						}
					],
					"name": "sRandomWords",
					"outputs": [
						{
							"internalType": "uint256",
							"name": "",
							"type": "uint256"
						}
					],
					"stateMutability": "view",
					"type": "function"
				},
				{
					"stateMutability": "payable",
					"type": "receive"
				}
			],
			"devdoc": {
				"kind": "dev",
				"methods": {
					"rawFulfillRandomWords(uint256,uint256[])": {
						"params": {
							"randomWords": "the VRF output expanded to the requested number of words",
							"requestId": "The Id initially returned by requestRandomWords"
						}
					}
				},
				"version": 1
			},
			"evm": {
				"assembly": "    /* \"contracts/shared/utils/oraklVRF.sol\":244:1937  contract VRFConsumer is VRFConsumerBase {... */\n  mstore(0x40, 0xa0)\n    /* \"contracts/shared/utils/oraklVRF.sol\":635:861  constructor(... */\n  callvalue\n  dup1\n  iszero\n  tag_1\n  jumpi\n  revert(0x00, 0x00)\ntag_1:\n  pop\n  mload(0x40)\n  sub(codesize, bytecodeSize)\n  dup1\n  bytecodeSize\n  dup4\n  codecopy\n  dup2\n  dup2\n  add\n  0x40\n  mstore\n  dup2\n  add\n  swap1\n  tag_2\n  swap2\n  swap1\n  tag_3\n  jump\t// in\ntag_2:\n    /* \"contracts/shared/utils/oraklVRF.sol\":724:735  coordinator */\n  dup2\n    /* \"@bisonai/orakl-contracts/v0.1/src/VRFConsumerBase.sol\":5680:5695  _vrfCoordinator */\n  dup1\n    /* \"@bisonai/orakl-contracts/v0.1/src/VRFConsumerBase.sol\":5663:5695  vrfCoordinator = _vrfCoordinator */\n  0xffffffffffffffffffffffffffffffffffffffff\n  and\n  0x80\n  dup2\n  0xffffffffffffffffffffffffffffffffffffffff\n  and\n  dup2\n  mstore\n  pop\n  pop\n    /* \"@bisonai/orakl-contracts/v0.1/src/VRFConsumerBase.sol\":5616:5702  constructor(address _vrfCoordinator) {... */\n  pop\n    /* \"contracts/shared/utils/oraklVRF.sol\":756:766  msg.sender */\n  caller\n    /* \"contracts/shared/utils/oraklVRF.sol\":747:753  sOwner */\n  0x02\n  0x00\n    /* \"contracts/shared/utils/oraklVRF.sol\":747:766  sOwner = msg.sender */\n  0x0100\n  exp\n  dup2\n  sload\n  dup2\n  0xffffffffffffffffffffffffffffffffffffffff\n  mul\n  not\n  and\n  swap1\n  dup4\n  0xffffffffffffffffffffffffffffffffffffffff\n  and\n  mul\n  or\n  swap1\n  sstore\n  pop\n    /* \"contracts/shared/utils/oraklVRF.sol\":806:817  coordinator */\n  dup2\n    /* \"contracts/shared/utils/oraklVRF.sol\":776:787  COORDINATOR */\n  0x03\n  0x00\n    /* \"contracts/shared/utils/oraklVRF.sol\":776:818  COORDINATOR = IVRFCoordinator(coordinator) */\n  0x0100\n  exp\n  dup2\n  sload\n  dup2\n  0xffffffffffffffffffffffffffffffffffffffff\n  mul\n  not\n  and\n  swap1\n  dup4\n  0xffffffffffffffffffffffffffffffffffffffff\n  and\n  mul\n  or\n  swap1\n  sstore\n  pop\n    /* \"contracts/shared/utils/oraklVRF.sol\":846:854  _diamond */\n  dup1\n    /* \"contracts/shared/utils/oraklVRF.sol\":828:843  diamondContract */\n  0x01\n  0x00\n    /* \"contracts/shared/utils/oraklVRF.sol\":828:854  diamondContract = _diamond */\n  0x0100\n  exp\n  dup2\n  sload\n  dup2\n  0xffffffffffffffffffffffffffffffffffffffff\n  mul\n  not\n  and\n  swap1\n  dup4\n  0xffffffffffffffffffffffffffffffffffffffff\n  and\n  mul\n  or\n  swap1\n  sstore\n  pop\n    /* \"contracts/shared/utils/oraklVRF.sol\":635:861  constructor(... */\n  pop\n  pop\n    /* \"contracts/shared/utils/oraklVRF.sol\":244:1937  contract VRFConsumer is VRFConsumerBase {... */\n  jump(tag_8)\n    /* \"#utility.yul\":88:205   */\ntag_10:\n    /* \"#utility.yul\":197:198   */\n  0x00\n    /* \"#utility.yul\":194:195   */\n  0x00\n    /* \"#utility.yul\":187:199   */\n  revert\n    /* \"#utility.yul\":334:460   */\ntag_12:\n    /* \"#utility.yul\":371:378   */\n  0x00\n    /* \"#utility.yul\":411:453   */\n  0xffffffffffffffffffffffffffffffffffffffff\n    /* \"#utility.yul\":404:409   */\n  dup3\n    /* \"#utility.yul\":400:454   */\n  and\n    /* \"#utility.yul\":389:454   */\n  swap1\n  pop\n    /* \"#utility.yul\":334:460   */\n  swap2\n  swap1\n  pop\n  jump\t// out\n    /* \"#utility.yul\":466:562   */\ntag_13:\n    /* \"#utility.yul\":503:510   */\n  0x00\n    /* \"#utility.yul\":532:556   */\n  tag_22\n    /* \"#utility.yul\":550:555   */\n  dup3\n    /* \"#utility.yul\":532:556   */\n  tag_12\n  jump\t// in\ntag_22:\n    /* \"#utility.yul\":521:556   */\n  swap1\n  pop\n    /* \"#utility.yul\":466:562   */\n  swap2\n  swap1\n  pop\n  jump\t// out\n    /* \"#utility.yul\":568:690   */\ntag_14:\n    /* \"#utility.yul\":641:665   */\n  tag_24\n    /* \"#utility.yul\":659:664   */\n  dup2\n    /* \"#utility.yul\":641:665   */\n  tag_13\n  jump\t// in\ntag_24:\n    /* \"#utility.yul\":634:639   */\n  dup2\n    /* \"#utility.yul\":631:666   */\n  eq\n    /* \"#utility.yul\":621:684   */\n  tag_25\n  jumpi\n    /* \"#utility.yul\":680:681   */\n  0x00\n    /* \"#utility.yul\":677:678   */\n  0x00\n    /* \"#utility.yul\":670:682   */\n  revert\n    /* \"#utility.yul\":621:684   */\ntag_25:\n    /* \"#utility.yul\":568:690   */\n  pop\n  jump\t// out\n    /* \"#utility.yul\":696:839   */\ntag_15:\n    /* \"#utility.yul\":753:758   */\n  0x00\n    /* \"#utility.yul\":784:790   */\n  dup2\n    /* \"#utility.yul\":778:791   */\n  mload\n    /* \"#utility.yul\":769:791   */\n  swap1\n  pop\n    /* \"#utility.yul\":800:833   */\n  tag_27\n    /* \"#utility.yul\":827:832   */\n  dup2\n    /* \"#utility.yul\":800:833   */\n  tag_14\n  jump\t// in\ntag_27:\n    /* \"#utility.yul\":696:839   */\n  swap3\n  swap2\n  pop\n  pop\n  jump\t// out\n    /* \"#utility.yul\":845:1352   */\ntag_3:\n    /* \"#utility.yul\":924:930   */\n  0x00\n    /* \"#utility.yul\":932:938   */\n  0x00\n    /* \"#utility.yul\":981:983   */\n  0x40\n    /* \"#utility.yul\":969:978   */\n  dup4\n    /* \"#utility.yul\":960:967   */\n  dup6\n    /* \"#utility.yul\":956:979   */\n  sub\n    /* \"#utility.yul\":952:984   */\n  slt\n    /* \"#utility.yul\":949:1068   */\n  iszero\n  tag_29\n  jumpi\n    /* \"#utility.yul\":987:1066   */\n  tag_30\n  tag_10\n  jump\t// in\ntag_30:\n    /* \"#utility.yul\":949:1068   */\ntag_29:\n    /* \"#utility.yul\":1107:1108   */\n  0x00\n    /* \"#utility.yul\":1132:1196   */\n  tag_31\n    /* \"#utility.yul\":1188:1195   */\n  dup6\n    /* \"#utility.yul\":1179:1185   */\n  dup3\n    /* \"#utility.yul\":1168:1177   */\n  dup7\n    /* \"#utility.yul\":1164:1186   */\n  add\n    /* \"#utility.yul\":1132:1196   */\n  tag_15\n  jump\t// in\ntag_31:\n    /* \"#utility.yul\":1122:1196   */\n  swap3\n  pop\n    /* \"#utility.yul\":1078:1206   */\n  pop\n    /* \"#utility.yul\":1245:1247   */\n  0x20\n    /* \"#utility.yul\":1271:1335   */\n  tag_32\n    /* \"#utility.yul\":1327:1334   */\n  dup6\n    /* \"#utility.yul\":1318:1324   */\n  dup3\n    /* \"#utility.yul\":1307:1316   */\n  dup7\n    /* \"#utility.yul\":1303:1325   */\n  add\n    /* \"#utility.yul\":1271:1335   */\n  tag_15\n  jump\t// in\ntag_32:\n    /* \"#utility.yul\":1261:1335   */\n  swap2\n  pop\n    /* \"#utility.yul\":1216:1345   */\n  pop\n    /* \"#utility.yul\":845:1352   */\n  swap3\n  pop\n  swap3\n  swap1\n  pop\n  jump\t// out\n    /* \"contracts/shared/utils/oraklVRF.sol\":244:1937  contract VRFConsumer is VRFConsumerBase {... */\ntag_8:\n  mload(0x80)\n  codecopy(0x00, dataOffset(sub_0), dataSize(sub_0))\n  0x00\n  assignImmutable(\"0x1a192fabce13988b84994d4296e6cdc418d55e2f1d7f942188d4040b94fc57ac\")\n  return(0x00, dataSize(sub_0))\nstop\n\nsub_0: assembly {\n        /* \"contracts/shared/utils/oraklVRF.sol\":244:1937  contract VRFConsumer is VRFConsumerBase {... */\n      mstore(0x40, 0x80)\n      jumpi(tag_1, lt(calldatasize, 0x04))\n      shr(0xe0, calldataload(0x00))\n      dup1\n      0x6a76dd76\n      gt\n      tag_10\n      jumpi\n      dup1\n      0x6a76dd76\n      eq\n      tag_6\n      jumpi\n      dup1\n      0x7007bf8b\n      eq\n      tag_7\n      jumpi\n      dup1\n      0xd73e3f3e\n      eq\n      tag_8\n      jumpi\n      dup1\n      0xf5df3fd4\n      eq\n      tag_9\n      jumpi\n      jump(tag_2)\n    tag_10:\n      dup1\n      0x162b3762\n      eq\n      tag_3\n      jumpi\n      dup1\n      0x1fe543e3\n      eq\n      tag_4\n      jumpi\n      dup1\n      0x2f34077b\n      eq\n      tag_5\n      jumpi\n      jump(tag_2)\n    tag_1:\n      jumpi(tag_2, calldatasize)\n      stop\n    tag_2:\n      revert(0x00, 0x00)\n        /* \"contracts/shared/utils/oraklVRF.sol\":966:1079  function editDiamond(address _diamondAddress) public onlyOwner {... */\n    tag_3:\n      callvalue\n      dup1\n      iszero\n      tag_13\n      jumpi\n      revert(0x00, 0x00)\n    tag_13:\n      pop\n      tag_14\n      0x04\n      dup1\n      calldatasize\n      sub\n      dup2\n      add\n      swap1\n      tag_15\n      swap2\n      swap1\n      tag_16\n      jump\t// in\n    tag_15:\n      tag_17\n      jump\t// in\n    tag_14:\n      stop\n        /* \"@bisonai/orakl-contracts/v0.1/src/VRFConsumerBase.sol\":6929:7205  function rawFulfillRandomWords(uint256 requestId, uint256[] memory randomWords) external {... */\n    tag_4:\n      callvalue\n      dup1\n      iszero\n      tag_18\n      jumpi\n      revert(0x00, 0x00)\n    tag_18:\n      pop\n      tag_19\n      0x04\n      dup1\n      calldatasize\n      sub\n      dup2\n      add\n      swap1\n      tag_20\n      swap2\n      swap1\n      tag_21\n      jump\t// in\n    tag_20:\n      tag_22\n      jump\t// in\n    tag_19:\n      stop\n        /* \"contracts/shared/utils/oraklVRF.sol\":1085:1430  function requestRandomWords(... */\n    tag_5:\n      callvalue\n      dup1\n      iszero\n      tag_23\n      jumpi\n      revert(0x00, 0x00)\n    tag_23:\n      pop\n      tag_24\n      0x04\n      dup1\n      calldatasize\n      sub\n      dup2\n      add\n      swap1\n      tag_25\n      swap2\n      swap1\n      tag_26\n      jump\t// in\n    tag_25:\n      tag_27\n      jump\t// in\n    tag_24:\n      mload(0x40)\n      tag_28\n      swap2\n      swap1\n      tag_29\n      jump\t// in\n    tag_28:\n      mload(0x40)\n      dup1\n      swap2\n      sub\n      swap1\n      return\n        /* \"contracts/shared/utils/oraklVRF.sol\":373:403  address public diamondContract */\n    tag_6:\n      callvalue\n      dup1\n      iszero\n      tag_30\n      jumpi\n      revert(0x00, 0x00)\n    tag_30:\n      pop\n      tag_31\n      tag_32\n      jump\t// in\n    tag_31:\n      mload(0x40)\n      tag_33\n      swap2\n      swap1\n      tag_34\n      jump\t// in\n    tag_33:\n      mload(0x40)\n      dup1\n      swap2\n      sub\n      swap1\n      return\n        /* \"contracts/shared/utils/oraklVRF.sol\":1658:1935  function VRFCall(... */\n    tag_7:\n      callvalue\n      dup1\n      iszero\n      tag_35\n      jumpi\n      revert(0x00, 0x00)\n    tag_35:\n      pop\n      tag_36\n      0x04\n      dup1\n      calldatasize\n      sub\n      dup2\n      add\n      swap1\n      tag_37\n      swap2\n      swap1\n      tag_26\n      jump\t// in\n    tag_37:\n      tag_38\n      jump\t// in\n    tag_36:\n      mload(0x40)\n      tag_39\n      swap2\n      swap1\n      tag_40\n      jump\t// in\n    tag_39:\n      mload(0x40)\n      dup1\n      swap2\n      sub\n      swap1\n      return\n        /* \"contracts/shared/utils/oraklVRF.sol\":409:430  address public sOwner */\n    tag_8:\n      callvalue\n      dup1\n      iszero\n      tag_41\n      jumpi\n      revert(0x00, 0x00)\n    tag_41:\n      pop\n      tag_42\n      tag_43\n      jump\t// in\n    tag_42:\n      mload(0x40)\n      tag_44\n      swap2\n      swap1\n      tag_34\n      jump\t// in\n    tag_44:\n      mload(0x40)\n      dup1\n      swap2\n      sub\n      swap1\n      return\n        /* \"contracts/shared/utils/oraklVRF.sol\":290:319  uint256[] public sRandomWords */\n    tag_9:\n      callvalue\n      dup1\n      iszero\n      tag_45\n      jumpi\n      revert(0x00, 0x00)\n    tag_45:\n      pop\n      tag_46\n      0x04\n      dup1\n      calldatasize\n      sub\n      dup2\n      add\n      swap1\n      tag_47\n      swap2\n      swap1\n      tag_48\n      jump\t// in\n    tag_47:\n      tag_49\n      jump\t// in\n    tag_46:\n      mload(0x40)\n      tag_50\n      swap2\n      swap1\n      tag_29\n      jump\t// in\n    tag_50:\n      mload(0x40)\n      dup1\n      swap2\n      sub\n      swap1\n      return\n        /* \"contracts/shared/utils/oraklVRF.sol\":966:1079  function editDiamond(address _diamondAddress) public onlyOwner {... */\n    tag_17:\n        /* \"contracts/shared/utils/oraklVRF.sol\":537:543  sOwner */\n      0x02\n      0x00\n      swap1\n      sload\n      swap1\n      0x0100\n      exp\n      swap1\n      div\n      0xffffffffffffffffffffffffffffffffffffffff\n      and\n        /* \"contracts/shared/utils/oraklVRF.sol\":523:543  msg.sender == sOwner */\n      0xffffffffffffffffffffffffffffffffffffffff\n      and\n        /* \"contracts/shared/utils/oraklVRF.sol\":523:533  msg.sender */\n      caller\n        /* \"contracts/shared/utils/oraklVRF.sol\":523:543  msg.sender == sOwner */\n      0xffffffffffffffffffffffffffffffffffffffff\n      and\n      eq\n        /* \"contracts/shared/utils/oraklVRF.sol\":523:576  msg.sender == sOwner || msg.sender == diamondContract */\n      dup1\n      tag_52\n      jumpi\n      pop\n        /* \"contracts/shared/utils/oraklVRF.sol\":561:576  diamondContract */\n      0x01\n      0x00\n      swap1\n      sload\n      swap1\n      0x0100\n      exp\n      swap1\n      div\n      0xffffffffffffffffffffffffffffffffffffffff\n      and\n        /* \"contracts/shared/utils/oraklVRF.sol\":547:576  msg.sender == diamondContract */\n      0xffffffffffffffffffffffffffffffffffffffff\n      and\n        /* \"contracts/shared/utils/oraklVRF.sol\":547:557  msg.sender */\n      caller\n        /* \"contracts/shared/utils/oraklVRF.sol\":547:576  msg.sender == diamondContract */\n      0xffffffffffffffffffffffffffffffffffffffff\n      and\n      eq\n        /* \"contracts/shared/utils/oraklVRF.sol\":523:576  msg.sender == sOwner || msg.sender == diamondContract */\n    tag_52:\n        /* \"contracts/shared/utils/oraklVRF.sol\":502:611  require(... */\n      tag_53\n      jumpi\n      mload(0x40)\n      0x08c379a000000000000000000000000000000000000000000000000000000000\n      dup2\n      mstore\n      0x04\n      add\n      tag_54\n      swap1\n      tag_55\n      jump\t// in\n    tag_54:\n      mload(0x40)\n      dup1\n      swap2\n      sub\n      swap1\n      revert\n    tag_53:\n        /* \"contracts/shared/utils/oraklVRF.sol\":1057:1072  _diamondAddress */\n      dup1\n        /* \"contracts/shared/utils/oraklVRF.sol\":1039:1054  diamondContract */\n      0x01\n      0x00\n        /* \"contracts/shared/utils/oraklVRF.sol\":1039:1072  diamondContract = _diamondAddress */\n      0x0100\n      exp\n      dup2\n      sload\n      dup2\n      0xffffffffffffffffffffffffffffffffffffffff\n      mul\n      not\n      and\n      swap1\n      dup4\n      0xffffffffffffffffffffffffffffffffffffffff\n      and\n      mul\n      or\n      swap1\n      sstore\n      pop\n        /* \"contracts/shared/utils/oraklVRF.sol\":966:1079  function editDiamond(address _diamondAddress) public onlyOwner {... */\n      pop\n      jump\t// out\n        /* \"@bisonai/orakl-contracts/v0.1/src/VRFConsumerBase.sol\":6929:7205  function rawFulfillRandomWords(uint256 requestId, uint256[] memory randomWords) external {... */\n    tag_22:\n        /* \"@bisonai/orakl-contracts/v0.1/src/VRFConsumerBase.sol\":7046:7060  vrfCoordinator */\n      immutable(\"0x1a192fabce13988b84994d4296e6cdc418d55e2f1d7f942188d4040b94fc57ac\")\n        /* \"@bisonai/orakl-contracts/v0.1/src/VRFConsumerBase.sol\":7032:7060  msg.sender != vrfCoordinator */\n      0xffffffffffffffffffffffffffffffffffffffff\n      and\n        /* \"@bisonai/orakl-contracts/v0.1/src/VRFConsumerBase.sol\":7032:7042  msg.sender */\n      caller\n        /* \"@bisonai/orakl-contracts/v0.1/src/VRFConsumerBase.sol\":7032:7060  msg.sender != vrfCoordinator */\n      0xffffffffffffffffffffffffffffffffffffffff\n      and\n      eq\n        /* \"@bisonai/orakl-contracts/v0.1/src/VRFConsumerBase.sol\":7028:7147  if (msg.sender != vrfCoordinator) {... */\n      tag_58\n      jumpi\n        /* \"@bisonai/orakl-contracts/v0.1/src/VRFConsumerBase.sol\":7109:7119  msg.sender */\n      caller\n        /* \"@bisonai/orakl-contracts/v0.1/src/VRFConsumerBase.sol\":7121:7135  vrfCoordinator */\n      immutable(\"0x1a192fabce13988b84994d4296e6cdc418d55e2f1d7f942188d4040b94fc57ac\")\n        /* \"@bisonai/orakl-contracts/v0.1/src/VRFConsumerBase.sol\":7083:7136  OnlyCoordinatorCanFulfill(msg.sender, vrfCoordinator) */\n      mload(0x40)\n      0x1cf993f400000000000000000000000000000000000000000000000000000000\n      dup2\n      mstore\n      0x04\n      add\n      tag_59\n      swap3\n      swap2\n      swap1\n      tag_60\n      jump\t// in\n    tag_59:\n      mload(0x40)\n      dup1\n      swap2\n      sub\n      swap1\n      revert\n        /* \"@bisonai/orakl-contracts/v0.1/src/VRFConsumerBase.sol\":7028:7147  if (msg.sender != vrfCoordinator) {... */\n    tag_58:\n        /* \"@bisonai/orakl-contracts/v0.1/src/VRFConsumerBase.sol\":7156:7198  fulfillRandomWords(requestId, randomWords) */\n      tag_61\n        /* \"@bisonai/orakl-contracts/v0.1/src/VRFConsumerBase.sol\":7175:7184  requestId */\n      dup3\n        /* \"@bisonai/orakl-contracts/v0.1/src/VRFConsumerBase.sol\":7186:7197  randomWords */\n      dup3\n        /* \"@bisonai/orakl-contracts/v0.1/src/VRFConsumerBase.sol\":7156:7174  fulfillRandomWords */\n      tag_62\n        /* \"@bisonai/orakl-contracts/v0.1/src/VRFConsumerBase.sol\":7156:7198  fulfillRandomWords(requestId, randomWords) */\n      jump\t// in\n    tag_61:\n        /* \"@bisonai/orakl-contracts/v0.1/src/VRFConsumerBase.sol\":6929:7205  function rawFulfillRandomWords(uint256 requestId, uint256[] memory randomWords) external {... */\n      pop\n      pop\n      jump\t// out\n        /* \"contracts/shared/utils/oraklVRF.sol\":1085:1430  function requestRandomWords(... */\n    tag_27:\n        /* \"contracts/shared/utils/oraklVRF.sol\":1250:1267  uint256 requestId */\n      0x00\n        /* \"contracts/shared/utils/oraklVRF.sol\":537:543  sOwner */\n      0x02\n      0x00\n      swap1\n      sload\n      swap1\n      0x0100\n      exp\n      swap1\n      div\n      0xffffffffffffffffffffffffffffffffffffffff\n      and\n        /* \"contracts/shared/utils/oraklVRF.sol\":523:543  msg.sender == sOwner */\n      0xffffffffffffffffffffffffffffffffffffffff\n      and\n        /* \"contracts/shared/utils/oraklVRF.sol\":523:533  msg.sender */\n      caller\n        /* \"contracts/shared/utils/oraklVRF.sol\":523:543  msg.sender == sOwner */\n      0xffffffffffffffffffffffffffffffffffffffff\n      and\n      eq\n        /* \"contracts/shared/utils/oraklVRF.sol\":523:576  msg.sender == sOwner || msg.sender == diamondContract */\n      dup1\n      tag_64\n      jumpi\n      pop\n        /* \"contracts/shared/utils/oraklVRF.sol\":561:576  diamondContract */\n      0x01\n      0x00\n      swap1\n      sload\n      swap1\n      0x0100\n      exp\n      swap1\n      div\n      0xffffffffffffffffffffffffffffffffffffffff\n      and\n        /* \"contracts/shared/utils/oraklVRF.sol\":547:576  msg.sender == diamondContract */\n      0xffffffffffffffffffffffffffffffffffffffff\n      and\n        /* \"contracts/shared/utils/oraklVRF.sol\":547:557  msg.sender */\n      caller\n        /* \"contracts/shared/utils/oraklVRF.sol\":547:576  msg.sender == diamondContract */\n      0xffffffffffffffffffffffffffffffffffffffff\n      and\n      eq\n        /* \"contracts/shared/utils/oraklVRF.sol\":523:576  msg.sender == sOwner || msg.sender == diamondContract */\n    tag_64:\n        /* \"contracts/shared/utils/oraklVRF.sol\":502:611  require(... */\n      tag_65\n      jumpi\n      mload(0x40)\n      0x08c379a000000000000000000000000000000000000000000000000000000000\n      dup2\n      mstore\n      0x04\n      add\n      tag_66\n      swap1\n      tag_55\n      jump\t// in\n    tag_66:\n      mload(0x40)\n      dup1\n      swap2\n      sub\n      swap1\n      revert\n    tag_65:\n        /* \"contracts/shared/utils/oraklVRF.sol\":1291:1302  COORDINATOR */\n      0x03\n      0x00\n      swap1\n      sload\n      swap1\n      0x0100\n      exp\n      swap1\n      div\n      0xffffffffffffffffffffffffffffffffffffffff\n      and\n        /* \"contracts/shared/utils/oraklVRF.sol\":1291:1321  COORDINATOR.requestRandomWords */\n      0xffffffffffffffffffffffffffffffffffffffff\n      and\n      0x2f34077b\n        /* \"contracts/shared/utils/oraklVRF.sol\":1335:1342  keyHash */\n      dup7\n        /* \"contracts/shared/utils/oraklVRF.sol\":1356:1361  accId */\n      dup7\n        /* \"contracts/shared/utils/oraklVRF.sol\":1375:1391  callbackGasLimit */\n      dup7\n        /* \"contracts/shared/utils/oraklVRF.sol\":1405:1413  numWords */\n      dup7\n        /* \"contracts/shared/utils/oraklVRF.sol\":1291:1423  COORDINATOR.requestRandomWords(... */\n      mload(0x40)\n      dup6\n      0xffffffff\n      and\n      0xe0\n      shl\n      dup2\n      mstore\n      0x04\n      add\n      tag_68\n      swap5\n      swap4\n      swap3\n      swap2\n      swap1\n      tag_69\n      jump\t// in\n    tag_68:\n      0x20\n      mload(0x40)\n      dup1\n      dup4\n      sub\n      dup2\n      0x00\n      dup8\n      gas\n      call\n      iszero\n      dup1\n      iszero\n      tag_71\n      jumpi\n      returndatacopy(0x00, 0x00, returndatasize)\n      revert(0x00, returndatasize)\n    tag_71:\n      pop\n      pop\n      pop\n      pop\n      mload(0x40)\n      returndatasize\n      not(0x1f)\n      0x1f\n      dup3\n      add\n      and\n      dup3\n      add\n      dup1\n      0x40\n      mstore\n      pop\n      dup2\n      add\n      swap1\n      tag_72\n      swap2\n      swap1\n      tag_73\n      jump\t// in\n    tag_72:\n        /* \"contracts/shared/utils/oraklVRF.sol\":1279:1423  requestId = COORDINATOR.requestRandomWords(... */\n      swap1\n      pop\n        /* \"contracts/shared/utils/oraklVRF.sol\":1085:1430  function requestRandomWords(... */\n      swap5\n      swap4\n      pop\n      pop\n      pop\n      pop\n      jump\t// out\n        /* \"contracts/shared/utils/oraklVRF.sol\":373:403  address public diamondContract */\n    tag_32:\n      0x01\n      0x00\n      swap1\n      sload\n      swap1\n      0x0100\n      exp\n      swap1\n      div\n      0xffffffffffffffffffffffffffffffffffffffff\n      and\n      dup2\n      jump\t// out\n        /* \"contracts/shared/utils/oraklVRF.sol\":1658:1935  function VRFCall(... */\n    tag_38:\n        /* \"contracts/shared/utils/oraklVRF.sol\":1812:1825  uint[] memory */\n      0x60\n        /* \"contracts/shared/utils/oraklVRF.sol\":537:543  sOwner */\n      0x02\n      0x00\n      swap1\n      sload\n      swap1\n      0x0100\n      exp\n      swap1\n      div\n      0xffffffffffffffffffffffffffffffffffffffff\n      and\n        /* \"contracts/shared/utils/oraklVRF.sol\":523:543  msg.sender == sOwner */\n      0xffffffffffffffffffffffffffffffffffffffff\n      and\n        /* \"contracts/shared/utils/oraklVRF.sol\":523:533  msg.sender */\n      caller\n        /* \"contracts/shared/utils/oraklVRF.sol\":523:543  msg.sender == sOwner */\n      0xffffffffffffffffffffffffffffffffffffffff\n      and\n      eq\n        /* \"contracts/shared/utils/oraklVRF.sol\":523:576  msg.sender == sOwner || msg.sender == diamondContract */\n      dup1\n      tag_75\n      jumpi\n      pop\n        /* \"contracts/shared/utils/oraklVRF.sol\":561:576  diamondContract */\n      0x01\n      0x00\n      swap1\n      sload\n      swap1\n      0x0100\n      exp\n      swap1\n      div\n      0xffffffffffffffffffffffffffffffffffffffff\n      and\n        /* \"contracts/shared/utils/oraklVRF.sol\":547:576  msg.sender == diamondContract */\n      0xffffffffffffffffffffffffffffffffffffffff\n      and\n        /* \"contracts/shared/utils/oraklVRF.sol\":547:557  msg.sender */\n      caller\n        /* \"contracts/shared/utils/oraklVRF.sol\":547:576  msg.sender == diamondContract */\n      0xffffffffffffffffffffffffffffffffffffffff\n      and\n      eq\n        /* \"contracts/shared/utils/oraklVRF.sol\":523:576  msg.sender == sOwner || msg.sender == diamondContract */\n    tag_75:\n        /* \"contracts/shared/utils/oraklVRF.sol\":502:611  require(... */\n      tag_76\n      jumpi\n      mload(0x40)\n      0x08c379a000000000000000000000000000000000000000000000000000000000\n      dup2\n      mstore\n      0x04\n      add\n      tag_77\n      swap1\n      tag_55\n      jump\t// in\n    tag_77:\n      mload(0x40)\n      dup1\n      swap2\n      sub\n      swap1\n      revert\n    tag_76:\n        /* \"contracts/shared/utils/oraklVRF.sol\":1837:1899  requestRandomWords(keyHash, accId, callbackGasLimit, numWords) */\n      tag_79\n        /* \"contracts/shared/utils/oraklVRF.sol\":1856:1863  keyHash */\n      dup6\n        /* \"contracts/shared/utils/oraklVRF.sol\":1865:1870  accId */\n      dup6\n        /* \"contracts/shared/utils/oraklVRF.sol\":1872:1888  callbackGasLimit */\n      dup6\n        /* \"contracts/shared/utils/oraklVRF.sol\":1890:1898  numWords */\n      dup6\n        /* \"contracts/shared/utils/oraklVRF.sol\":1837:1855  requestRandomWords */\n      tag_27\n        /* \"contracts/shared/utils/oraklVRF.sol\":1837:1899  requestRandomWords(keyHash, accId, callbackGasLimit, numWords) */\n      jump\t// in\n    tag_79:\n      pop\n        /* \"contracts/shared/utils/oraklVRF.sol\":1916:1928  sRandomWords */\n      0x00\n        /* \"contracts/shared/utils/oraklVRF.sol\":1909:1928  return sRandomWords */\n      dup1\n      sload\n      dup1\n      0x20\n      mul\n      0x20\n      add\n      mload(0x40)\n      swap1\n      dup2\n      add\n      0x40\n      mstore\n      dup1\n      swap3\n      swap2\n      swap1\n      dup2\n      dup2\n      mstore\n      0x20\n      add\n      dup3\n      dup1\n      sload\n      dup1\n      iszero\n      tag_80\n      jumpi\n      0x20\n      mul\n      dup3\n      add\n      swap2\n      swap1\n      0x00\n      mstore\n      keccak256(0x00, 0x20)\n      swap1\n    tag_81:\n      dup2\n      sload\n      dup2\n      mstore\n      0x20\n      add\n      swap1\n      0x01\n      add\n      swap1\n      dup1\n      dup4\n      gt\n      tag_81\n      jumpi\n    tag_80:\n      pop\n      pop\n      pop\n      pop\n      pop\n      swap1\n      pop\n        /* \"contracts/shared/utils/oraklVRF.sol\":1658:1935  function VRFCall(... */\n      swap5\n      swap4\n      pop\n      pop\n      pop\n      pop\n      jump\t// out\n        /* \"contracts/shared/utils/oraklVRF.sol\":409:430  address public sOwner */\n    tag_43:\n      0x02\n      0x00\n      swap1\n      sload\n      swap1\n      0x0100\n      exp\n      swap1\n      div\n      0xffffffffffffffffffffffffffffffffffffffff\n      and\n      dup2\n      jump\t// out\n        /* \"contracts/shared/utils/oraklVRF.sol\":290:319  uint256[] public sRandomWords */\n    tag_49:\n      0x00\n      dup2\n      dup2\n      sload\n      dup2\n      lt\n      tag_82\n      jumpi\n      0x00\n      dup1\n      revert\n    tag_82:\n      swap1\n      0x00\n      mstore\n      keccak256(0x00, 0x20)\n      add\n      0x00\n      swap2\n      pop\n      swap1\n      pop\n      sload\n      dup2\n      jump\t// out\n        /* \"contracts/shared/utils/oraklVRF.sol\":1436:1652  function fulfillRandomWords(... */\n    tag_62:\n        /* \"contracts/shared/utils/oraklVRF.sol\":1633:1644  randomWords */\n      dup1\n        /* \"contracts/shared/utils/oraklVRF.sol\":1618:1630  sRandomWords */\n      0x00\n        /* \"contracts/shared/utils/oraklVRF.sol\":1618:1644  sRandomWords = randomWords */\n      swap1\n      dup1\n      mload\n      swap1\n      0x20\n      add\n      swap1\n      tag_85\n      swap3\n      swap2\n      swap1\n      tag_86\n      jump\t// in\n    tag_85:\n      pop\n        /* \"contracts/shared/utils/oraklVRF.sol\":1436:1652  function fulfillRandomWords(... */\n      pop\n      pop\n      jump\t// out\n    tag_86:\n      dup3\n      dup1\n      sload\n      dup3\n      dup3\n      sstore\n      swap1\n      0x00\n      mstore\n      keccak256(0x00, 0x20)\n      swap1\n      dup2\n      add\n      swap3\n      dup3\n      iszero\n      tag_87\n      jumpi\n      swap2\n      0x20\n      mul\n      dup3\n      add\n    tag_88:\n      dup3\n      dup2\n      gt\n      iszero\n      tag_89\n      jumpi\n      dup3\n      mload\n      dup3\n      sstore\n      swap2\n      0x20\n      add\n      swap2\n      swap1\n      0x01\n      add\n      swap1\n      jump(tag_88)\n    tag_89:\n    tag_87:\n      pop\n      swap1\n      pop\n      tag_90\n      swap2\n      swap1\n      tag_91\n      jump\t// in\n    tag_90:\n      pop\n      swap1\n      jump\t// out\n    tag_91:\n    tag_92:\n      dup1\n      dup3\n      gt\n      iszero\n      tag_93\n      jumpi\n      0x00\n      dup2\n      0x00\n      swap1\n      sstore\n      pop\n      0x01\n      add\n      jump(tag_92)\n    tag_93:\n      pop\n      swap1\n      jump\t// out\n        /* \"#utility.yul\":7:82   */\n    tag_94:\n        /* \"#utility.yul\":40:46   */\n      0x00\n        /* \"#utility.yul\":73:75   */\n      0x40\n        /* \"#utility.yul\":67:76   */\n      mload\n        /* \"#utility.yul\":57:76   */\n      swap1\n      pop\n        /* \"#utility.yul\":7:82   */\n      swap1\n      jump\t// out\n        /* \"#utility.yul\":88:205   */\n    tag_95:\n        /* \"#utility.yul\":197:198   */\n      0x00\n        /* \"#utility.yul\":194:195   */\n      0x00\n        /* \"#utility.yul\":187:199   */\n      revert\n        /* \"#utility.yul\":211:328   */\n    tag_96:\n        /* \"#utility.yul\":320:321   */\n      0x00\n        /* \"#utility.yul\":317:318   */\n      0x00\n        /* \"#utility.yul\":310:322   */\n      revert\n        /* \"#utility.yul\":334:460   */\n    tag_97:\n        /* \"#utility.yul\":371:378   */\n      0x00\n        /* \"#utility.yul\":411:453   */\n      0xffffffffffffffffffffffffffffffffffffffff\n        /* \"#utility.yul\":404:409   */\n      dup3\n        /* \"#utility.yul\":400:454   */\n      and\n        /* \"#utility.yul\":389:454   */\n      swap1\n      pop\n        /* \"#utility.yul\":334:460   */\n      swap2\n      swap1\n      pop\n      jump\t// out\n        /* \"#utility.yul\":466:562   */\n    tag_98:\n        /* \"#utility.yul\":503:510   */\n      0x00\n        /* \"#utility.yul\":532:556   */\n      tag_144\n        /* \"#utility.yul\":550:555   */\n      dup3\n        /* \"#utility.yul\":532:556   */\n      tag_97\n      jump\t// in\n    tag_144:\n        /* \"#utility.yul\":521:556   */\n      swap1\n      pop\n        /* \"#utility.yul\":466:562   */\n      swap2\n      swap1\n      pop\n      jump\t// out\n        /* \"#utility.yul\":568:690   */\n    tag_99:\n        /* \"#utility.yul\":641:665   */\n      tag_146\n        /* \"#utility.yul\":659:664   */\n      dup2\n        /* \"#utility.yul\":641:665   */\n      tag_98\n      jump\t// in\n    tag_146:\n        /* \"#utility.yul\":634:639   */\n      dup2\n        /* \"#utility.yul\":631:666   */\n      eq\n        /* \"#utility.yul\":621:684   */\n      tag_147\n      jumpi\n        /* \"#utility.yul\":680:681   */\n      0x00\n        /* \"#utility.yul\":677:678   */\n      0x00\n        /* \"#utility.yul\":670:682   */\n      revert\n        /* \"#utility.yul\":621:684   */\n    tag_147:\n        /* \"#utility.yul\":568:690   */\n      pop\n      jump\t// out\n        /* \"#utility.yul\":696:835   */\n    tag_100:\n        /* \"#utility.yul\":742:747   */\n      0x00\n        /* \"#utility.yul\":780:786   */\n      dup2\n        /* \"#utility.yul\":767:787   */\n      calldataload\n        /* \"#utility.yul\":758:787   */\n      swap1\n      pop\n        /* \"#utility.yul\":796:829   */\n      tag_149\n        /* \"#utility.yul\":823:828   */\n      dup2\n        /* \"#utility.yul\":796:829   */\n      tag_99\n      jump\t// in\n    tag_149:\n        /* \"#utility.yul\":696:835   */\n      swap3\n      swap2\n      pop\n      pop\n      jump\t// out\n        /* \"#utility.yul\":841:1170   */\n    tag_16:\n        /* \"#utility.yul\":900:906   */\n      0x00\n        /* \"#utility.yul\":949:951   */\n      0x20\n        /* \"#utility.yul\":937:946   */\n      dup3\n        /* \"#utility.yul\":928:935   */\n      dup5\n        /* \"#utility.yul\":924:947   */\n      sub\n        /* \"#utility.yul\":920:952   */\n      slt\n        /* \"#utility.yul\":917:1036   */\n      iszero\n      tag_151\n      jumpi\n        /* \"#utility.yul\":955:1034   */\n      tag_152\n      tag_95\n      jump\t// in\n    tag_152:\n        /* \"#utility.yul\":917:1036   */\n    tag_151:\n        /* \"#utility.yul\":1075:1076   */\n      0x00\n        /* \"#utility.yul\":1100:1153   */\n      tag_153\n        /* \"#utility.yul\":1145:1152   */\n      dup5\n        /* \"#utility.yul\":1136:1142   */\n      dup3\n        /* \"#utility.yul\":1125:1134   */\n      dup6\n        /* \"#utility.yul\":1121:1143   */\n      add\n        /* \"#utility.yul\":1100:1153   */\n      tag_100\n      jump\t// in\n    tag_153:\n        /* \"#utility.yul\":1090:1153   */\n      swap2\n      pop\n        /* \"#utility.yul\":1046:1163   */\n      pop\n        /* \"#utility.yul\":841:1170   */\n      swap3\n      swap2\n      pop\n      pop\n      jump\t// out\n        /* \"#utility.yul\":1176:1253   */\n    tag_101:\n        /* \"#utility.yul\":1213:1220   */\n      0x00\n        /* \"#utility.yul\":1242:1247   */\n      dup2\n        /* \"#utility.yul\":1231:1247   */\n      swap1\n      pop\n        /* \"#utility.yul\":1176:1253   */\n      swap2\n      swap1\n      pop\n      jump\t// out\n        /* \"#utility.yul\":1259:1381   */\n    tag_102:\n        /* \"#utility.yul\":1332:1356   */\n      tag_156\n        /* \"#utility.yul\":1350:1355   */\n      dup2\n        /* \"#utility.yul\":1332:1356   */\n      tag_101\n      jump\t// in\n    tag_156:\n        /* \"#utility.yul\":1325:1330   */\n      dup2\n        /* \"#utility.yul\":1322:1357   */\n      eq\n        /* \"#utility.yul\":1312:1375   */\n      tag_157\n      jumpi\n        /* \"#utility.yul\":1371:1372   */\n      0x00\n        /* \"#utility.yul\":1368:1369   */\n      0x00\n        /* \"#utility.yul\":1361:1373   */\n      revert\n        /* \"#utility.yul\":1312:1375   */\n    tag_157:\n        /* \"#utility.yul\":1259:1381   */\n      pop\n      jump\t// out\n        /* \"#utility.yul\":1387:1526   */\n    tag_103:\n        /* \"#utility.yul\":1433:1438   */\n      0x00\n        /* \"#utility.yul\":1471:1477   */\n      dup2\n        /* \"#utility.yul\":1458:1478   */\n      calldataload\n        /* \"#utility.yul\":1449:1478   */\n      swap1\n      pop\n        /* \"#utility.yul\":1487:1520   */\n      tag_159\n        /* \"#utility.yul\":1514:1519   */\n      dup2\n        /* \"#utility.yul\":1487:1520   */\n      tag_102\n      jump\t// in\n    tag_159:\n        /* \"#utility.yul\":1387:1526   */\n      swap3\n      swap2\n      pop\n      pop\n      jump\t// out\n        /* \"#utility.yul\":1532:1649   */\n    tag_104:\n        /* \"#utility.yul\":1641:1642   */\n      0x00\n        /* \"#utility.yul\":1638:1639   */\n      0x00\n        /* \"#utility.yul\":1631:1643   */\n      revert\n        /* \"#utility.yul\":1655:1757   */\n    tag_105:\n        /* \"#utility.yul\":1696:1702   */\n      0x00\n        /* \"#utility.yul\":1747:1749   */\n      0x1f\n        /* \"#utility.yul\":1743:1750   */\n      not\n        /* \"#utility.yul\":1738:1740   */\n      0x1f\n        /* \"#utility.yul\":1731:1736   */\n      dup4\n        /* \"#utility.yul\":1727:1741   */\n      add\n        /* \"#utility.yul\":1723:1751   */\n      and\n        /* \"#utility.yul\":1713:1751   */\n      swap1\n      pop\n        /* \"#utility.yul\":1655:1757   */\n      swap2\n      swap1\n      pop\n      jump\t// out\n        /* \"#utility.yul\":1763:1943   */\n    tag_106:\n        /* \"#utility.yul\":1811:1888   */\n      0x4e487b7100000000000000000000000000000000000000000000000000000000\n        /* \"#utility.yul\":1808:1809   */\n      0x00\n        /* \"#utility.yul\":1801:1889   */\n      mstore\n        /* \"#utility.yul\":1908:1912   */\n      0x41\n        /* \"#utility.yul\":1905:1906   */\n      0x04\n        /* \"#utility.yul\":1898:1913   */\n      mstore\n        /* \"#utility.yul\":1932:1936   */\n      0x24\n        /* \"#utility.yul\":1929:1930   */\n      0x00\n        /* \"#utility.yul\":1922:1937   */\n      revert\n        /* \"#utility.yul\":1949:2230   */\n    tag_107:\n        /* \"#utility.yul\":2032:2059   */\n      tag_164\n        /* \"#utility.yul\":2054:2058   */\n      dup3\n        /* \"#utility.yul\":2032:2059   */\n      tag_105\n      jump\t// in\n    tag_164:\n        /* \"#utility.yul\":2024:2030   */\n      dup2\n        /* \"#utility.yul\":2020:2060   */\n      add\n        /* \"#utility.yul\":2162:2168   */\n      dup2\n        /* \"#utility.yul\":2150:2160   */\n      dup2\n        /* \"#utility.yul\":2147:2169   */\n      lt\n        /* \"#utility.yul\":2126:2144   */\n      0xffffffffffffffff\n        /* \"#utility.yul\":2114:2124   */\n      dup3\n        /* \"#utility.yul\":2111:2145   */\n      gt\n        /* \"#utility.yul\":2108:2170   */\n      or\n        /* \"#utility.yul\":2105:2193   */\n      iszero\n      tag_165\n      jumpi\n        /* \"#utility.yul\":2173:2191   */\n      tag_166\n      tag_106\n      jump\t// in\n    tag_166:\n        /* \"#utility.yul\":2105:2193   */\n    tag_165:\n        /* \"#utility.yul\":2213:2223   */\n      dup1\n        /* \"#utility.yul\":2209:2211   */\n      0x40\n        /* \"#utility.yul\":2202:2224   */\n      mstore\n        /* \"#utility.yul\":1992:2230   */\n      pop\n        /* \"#utility.yul\":1949:2230   */\n      pop\n      pop\n      jump\t// out\n        /* \"#utility.yul\":2236:2365   */\n    tag_108:\n        /* \"#utility.yul\":2270:2276   */\n      0x00\n        /* \"#utility.yul\":2297:2317   */\n      tag_168\n      tag_94\n      jump\t// in\n    tag_168:\n        /* \"#utility.yul\":2287:2317   */\n      swap1\n      pop\n        /* \"#utility.yul\":2326:2359   */\n      tag_169\n        /* \"#utility.yul\":2354:2358   */\n      dup3\n        /* \"#utility.yul\":2346:2352   */\n      dup3\n        /* \"#utility.yul\":2326:2359   */\n      tag_107\n      jump\t// in\n    tag_169:\n        /* \"#utility.yul\":2236:2365   */\n      swap2\n      swap1\n      pop\n      jump\t// out\n        /* \"#utility.yul\":2371:2682   */\n    tag_109:\n        /* \"#utility.yul\":2448:2452   */\n      0x00\n        /* \"#utility.yul\":2538:2556   */\n      0xffffffffffffffff\n        /* \"#utility.yul\":2530:2536   */\n      dup3\n        /* \"#utility.yul\":2527:2557   */\n      gt\n        /* \"#utility.yul\":2524:2580   */\n      iszero\n      tag_171\n      jumpi\n        /* \"#utility.yul\":2560:2578   */\n      tag_172\n      tag_106\n      jump\t// in\n    tag_172:\n        /* \"#utility.yul\":2524:2580   */\n    tag_171:\n        /* \"#utility.yul\":2610:2614   */\n      0x20\n        /* \"#utility.yul\":2602:2608   */\n      dup3\n        /* \"#utility.yul\":2598:2615   */\n      mul\n        /* \"#utility.yul\":2590:2615   */\n      swap1\n      pop\n        /* \"#utility.yul\":2670:2674   */\n      0x20\n        /* \"#utility.yul\":2664:2668   */\n      dup2\n        /* \"#utility.yul\":2660:2675   */\n      add\n        /* \"#utility.yul\":2652:2675   */\n      swap1\n      pop\n        /* \"#utility.yul\":2371:2682   */\n      swap2\n      swap1\n      pop\n      jump\t// out\n        /* \"#utility.yul\":2688:2805   */\n    tag_110:\n        /* \"#utility.yul\":2797:2798   */\n      0x00\n        /* \"#utility.yul\":2794:2795   */\n      0x00\n        /* \"#utility.yul\":2787:2799   */\n      revert\n        /* \"#utility.yul\":2828:3538   */\n    tag_111:\n        /* \"#utility.yul\":2924:2929   */\n      0x00\n        /* \"#utility.yul\":2949:3030   */\n      tag_175\n        /* \"#utility.yul\":2965:3029   */\n      tag_176\n        /* \"#utility.yul\":3022:3028   */\n      dup5\n        /* \"#utility.yul\":2965:3029   */\n      tag_109\n      jump\t// in\n    tag_176:\n        /* \"#utility.yul\":2949:3030   */\n      tag_108\n      jump\t// in\n    tag_175:\n        /* \"#utility.yul\":2940:3030   */\n      swap1\n      pop\n        /* \"#utility.yul\":3050:3055   */\n      dup1\n        /* \"#utility.yul\":3079:3085   */\n      dup4\n        /* \"#utility.yul\":3072:3077   */\n      dup3\n        /* \"#utility.yul\":3065:3086   */\n      mstore\n        /* \"#utility.yul\":3113:3117   */\n      0x20\n        /* \"#utility.yul\":3106:3111   */\n      dup3\n        /* \"#utility.yul\":3102:3118   */\n      add\n        /* \"#utility.yul\":3095:3118   */\n      swap1\n      pop\n        /* \"#utility.yul\":3166:3170   */\n      0x20\n        /* \"#utility.yul\":3158:3164   */\n      dup5\n        /* \"#utility.yul\":3154:3171   */\n      mul\n        /* \"#utility.yul\":3146:3152   */\n      dup4\n        /* \"#utility.yul\":3142:3172   */\n      add\n        /* \"#utility.yul\":3195:3198   */\n      dup6\n        /* \"#utility.yul\":3187:3193   */\n      dup2\n        /* \"#utility.yul\":3184:3199   */\n      gt\n        /* \"#utility.yul\":3181:3303   */\n      iszero\n      tag_177\n      jumpi\n        /* \"#utility.yul\":3214:3293   */\n      tag_178\n      tag_110\n      jump\t// in\n    tag_178:\n        /* \"#utility.yul\":3181:3303   */\n    tag_177:\n        /* \"#utility.yul\":3329:3335   */\n      dup4\n        /* \"#utility.yul\":3312:3532   */\n    tag_179:\n        /* \"#utility.yul\":3346:3352   */\n      dup2\n        /* \"#utility.yul\":3341:3344   */\n      dup2\n        /* \"#utility.yul\":3338:3353   */\n      lt\n        /* \"#utility.yul\":3312:3532   */\n      iszero\n      tag_181\n      jumpi\n        /* \"#utility.yul\":3421:3424   */\n      dup1\n        /* \"#utility.yul\":3450:3487   */\n      tag_182\n        /* \"#utility.yul\":3483:3486   */\n      dup9\n        /* \"#utility.yul\":3471:3481   */\n      dup3\n        /* \"#utility.yul\":3450:3487   */\n      tag_103\n      jump\t// in\n    tag_182:\n        /* \"#utility.yul\":3445:3448   */\n      dup5\n        /* \"#utility.yul\":3438:3488   */\n      mstore\n        /* \"#utility.yul\":3517:3521   */\n      0x20\n        /* \"#utility.yul\":3512:3515   */\n      dup5\n        /* \"#utility.yul\":3508:3522   */\n      add\n        /* \"#utility.yul\":3501:3522   */\n      swap4\n      pop\n        /* \"#utility.yul\":3388:3532   */\n      pop\n        /* \"#utility.yul\":3372:3376   */\n      0x20\n        /* \"#utility.yul\":3367:3370   */\n      dup2\n        /* \"#utility.yul\":3363:3377   */\n      add\n        /* \"#utility.yul\":3356:3377   */\n      swap1\n      pop\n        /* \"#utility.yul\":3312:3532   */\n      jump(tag_179)\n    tag_181:\n        /* \"#utility.yul\":3316:3337   */\n      pop\n        /* \"#utility.yul\":2930:3538   */\n      pop\n      pop\n        /* \"#utility.yul\":2828:3538   */\n      swap4\n      swap3\n      pop\n      pop\n      pop\n      jump\t// out\n        /* \"#utility.yul\":3561:3931   */\n    tag_112:\n        /* \"#utility.yul\":3632:3637   */\n      0x00\n        /* \"#utility.yul\":3681:3684   */\n      dup3\n        /* \"#utility.yul\":3674:3678   */\n      0x1f\n        /* \"#utility.yul\":3666:3672   */\n      dup4\n        /* \"#utility.yul\":3662:3679   */\n      add\n        /* \"#utility.yul\":3658:3685   */\n      slt\n        /* \"#utility.yul\":3648:3770   */\n      tag_184\n      jumpi\n        /* \"#utility.yul\":3689:3768   */\n      tag_185\n      tag_104\n      jump\t// in\n    tag_185:\n        /* \"#utility.yul\":3648:3770   */\n    tag_184:\n        /* \"#utility.yul\":3806:3812   */\n      dup2\n        /* \"#utility.yul\":3793:3813   */\n      calldataload\n        /* \"#utility.yul\":3831:3925   */\n      tag_186\n        /* \"#utility.yul\":3921:3924   */\n      dup5\n        /* \"#utility.yul\":3913:3919   */\n      dup3\n        /* \"#utility.yul\":3906:3910   */\n      0x20\n        /* \"#utility.yul\":3898:3904   */\n      dup7\n        /* \"#utility.yul\":3894:3911   */\n      add\n        /* \"#utility.yul\":3831:3925   */\n      tag_111\n      jump\t// in\n    tag_186:\n        /* \"#utility.yul\":3822:3925   */\n      swap2\n      pop\n        /* \"#utility.yul\":3638:3931   */\n      pop\n        /* \"#utility.yul\":3561:3931   */\n      swap3\n      swap2\n      pop\n      pop\n      jump\t// out\n        /* \"#utility.yul\":3937:4621   */\n    tag_21:\n        /* \"#utility.yul\":4030:4036   */\n      0x00\n        /* \"#utility.yul\":4038:4044   */\n      0x00\n        /* \"#utility.yul\":4087:4089   */\n      0x40\n        /* \"#utility.yul\":4075:4084   */\n      dup4\n        /* \"#utility.yul\":4066:4073   */\n      dup6\n        /* \"#utility.yul\":4062:4085   */\n      sub\n        /* \"#utility.yul\":4058:4090   */\n      slt\n        /* \"#utility.yul\":4055:4174   */\n      iszero\n      tag_188\n      jumpi\n        /* \"#utility.yul\":4093:4172   */\n      tag_189\n      tag_95\n      jump\t// in\n    tag_189:\n        /* \"#utility.yul\":4055:4174   */\n    tag_188:\n        /* \"#utility.yul\":4213:4214   */\n      0x00\n        /* \"#utility.yul\":4238:4291   */\n      tag_190\n        /* \"#utility.yul\":4283:4290   */\n      dup6\n        /* \"#utility.yul\":4274:4280   */\n      dup3\n        /* \"#utility.yul\":4263:4272   */\n      dup7\n        /* \"#utility.yul\":4259:4281   */\n      add\n        /* \"#utility.yul\":4238:4291   */\n      tag_103\n      jump\t// in\n    tag_190:\n        /* \"#utility.yul\":4228:4291   */\n      swap3\n      pop\n        /* \"#utility.yul\":4184:4301   */\n      pop\n        /* \"#utility.yul\":4368:4370   */\n      0x20\n        /* \"#utility.yul\":4357:4366   */\n      dup4\n        /* \"#utility.yul\":4353:4371   */\n      add\n        /* \"#utility.yul\":4340:4372   */\n      calldataload\n        /* \"#utility.yul\":4399:4417   */\n      0xffffffffffffffff\n        /* \"#utility.yul\":4391:4397   */\n      dup2\n        /* \"#utility.yul\":4388:4418   */\n      gt\n        /* \"#utility.yul\":4385:4502   */\n      iszero\n      tag_191\n      jumpi\n        /* \"#utility.yul\":4421:4500   */\n      tag_192\n      tag_96\n      jump\t// in\n    tag_192:\n        /* \"#utility.yul\":4385:4502   */\n    tag_191:\n        /* \"#utility.yul\":4526:4604   */\n      tag_193\n        /* \"#utility.yul\":4596:4603   */\n      dup6\n        /* \"#utility.yul\":4587:4593   */\n      dup3\n        /* \"#utility.yul\":4576:4585   */\n      dup7\n        /* \"#utility.yul\":4572:4594   */\n      add\n        /* \"#utility.yul\":4526:4604   */\n      tag_112\n      jump\t// in\n    tag_193:\n        /* \"#utility.yul\":4516:4604   */\n      swap2\n      pop\n        /* \"#utility.yul\":4311:4614   */\n      pop\n        /* \"#utility.yul\":3937:4621   */\n      swap3\n      pop\n      swap3\n      swap1\n      pop\n      jump\t// out\n        /* \"#utility.yul\":4627:4704   */\n    tag_113:\n        /* \"#utility.yul\":4664:4671   */\n      0x00\n        /* \"#utility.yul\":4693:4698   */\n      dup2\n        /* \"#utility.yul\":4682:4698   */\n      swap1\n      pop\n        /* \"#utility.yul\":4627:4704   */\n      swap2\n      swap1\n      pop\n      jump\t// out\n        /* \"#utility.yul\":4710:4832   */\n    tag_114:\n        /* \"#utility.yul\":4783:4807   */\n      tag_196\n        /* \"#utility.yul\":4801:4806   */\n      dup2\n        /* \"#utility.yul\":4783:4807   */\n      tag_113\n      jump\t// in\n    tag_196:\n        /* \"#utility.yul\":4776:4781   */\n      dup2\n        /* \"#utility.yul\":4773:4808   */\n      eq\n        /* \"#utility.yul\":4763:4826   */\n      tag_197\n      jumpi\n        /* \"#utility.yul\":4822:4823   */\n      0x00\n        /* \"#utility.yul\":4819:4820   */\n      0x00\n        /* \"#utility.yul\":4812:4824   */\n      revert\n        /* \"#utility.yul\":4763:4826   */\n    tag_197:\n        /* \"#utility.yul\":4710:4832   */\n      pop\n      jump\t// out\n        /* \"#utility.yul\":4838:4977   */\n    tag_115:\n        /* \"#utility.yul\":4884:4889   */\n      0x00\n        /* \"#utility.yul\":4922:4928   */\n      dup2\n        /* \"#utility.yul\":4909:4929   */\n      calldataload\n        /* \"#utility.yul\":4900:4929   */\n      swap1\n      pop\n        /* \"#utility.yul\":4938:4971   */\n      tag_199\n        /* \"#utility.yul\":4965:4970   */\n      dup2\n        /* \"#utility.yul\":4938:4971   */\n      tag_114\n      jump\t// in\n    tag_199:\n        /* \"#utility.yul\":4838:4977   */\n      swap3\n      swap2\n      pop\n      pop\n      jump\t// out\n        /* \"#utility.yul\":4983:5084   */\n    tag_116:\n        /* \"#utility.yul\":5019:5026   */\n      0x00\n        /* \"#utility.yul\":5059:5077   */\n      0xffffffffffffffff\n        /* \"#utility.yul\":5052:5057   */\n      dup3\n        /* \"#utility.yul\":5048:5078   */\n      and\n        /* \"#utility.yul\":5037:5078   */\n      swap1\n      pop\n        /* \"#utility.yul\":4983:5084   */\n      swap2\n      swap1\n      pop\n      jump\t// out\n        /* \"#utility.yul\":5090:5210   */\n    tag_117:\n        /* \"#utility.yul\":5162:5185   */\n      tag_202\n        /* \"#utility.yul\":5179:5184   */\n      dup2\n        /* \"#utility.yul\":5162:5185   */\n      tag_116\n      jump\t// in\n    tag_202:\n        /* \"#utility.yul\":5155:5160   */\n      dup2\n        /* \"#utility.yul\":5152:5186   */\n      eq\n        /* \"#utility.yul\":5142:5204   */\n      tag_203\n      jumpi\n        /* \"#utility.yul\":5200:5201   */\n      0x00\n        /* \"#utility.yul\":5197:5198   */\n      0x00\n        /* \"#utility.yul\":5190:5202   */\n      revert\n        /* \"#utility.yul\":5142:5204   */\n    tag_203:\n        /* \"#utility.yul\":5090:5210   */\n      pop\n      jump\t// out\n        /* \"#utility.yul\":5216:5353   */\n    tag_118:\n        /* \"#utility.yul\":5261:5266   */\n      0x00\n        /* \"#utility.yul\":5299:5305   */\n      dup2\n        /* \"#utility.yul\":5286:5306   */\n      calldataload\n        /* \"#utility.yul\":5277:5306   */\n      swap1\n      pop\n        /* \"#utility.yul\":5315:5347   */\n      tag_205\n        /* \"#utility.yul\":5341:5346   */\n      dup2\n        /* \"#utility.yul\":5315:5347   */\n      tag_117\n      jump\t// in\n    tag_205:\n        /* \"#utility.yul\":5216:5353   */\n      swap3\n      swap2\n      pop\n      pop\n      jump\t// out\n        /* \"#utility.yul\":5359:5452   */\n    tag_119:\n        /* \"#utility.yul\":5395:5402   */\n      0x00\n        /* \"#utility.yul\":5435:5445   */\n      0xffffffff\n        /* \"#utility.yul\":5428:5433   */\n      dup3\n        /* \"#utility.yul\":5424:5446   */\n      and\n        /* \"#utility.yul\":5413:5446   */\n      swap1\n      pop\n        /* \"#utility.yul\":5359:5452   */\n      swap2\n      swap1\n      pop\n      jump\t// out\n        /* \"#utility.yul\":5458:5578   */\n    tag_120:\n        /* \"#utility.yul\":5530:5553   */\n      tag_208\n        /* \"#utility.yul\":5547:5552   */\n      dup2\n        /* \"#utility.yul\":5530:5553   */\n      tag_119\n      jump\t// in\n    tag_208:\n        /* \"#utility.yul\":5523:5528   */\n      dup2\n        /* \"#utility.yul\":5520:5554   */\n      eq\n        /* \"#utility.yul\":5510:5572   */\n      tag_209\n      jumpi\n        /* \"#utility.yul\":5568:5569   */\n      0x00\n        /* \"#utility.yul\":5565:5566   */\n      0x00\n        /* \"#utility.yul\":5558:5570   */\n      revert\n        /* \"#utility.yul\":5510:5572   */\n    tag_209:\n        /* \"#utility.yul\":5458:5578   */\n      pop\n      jump\t// out\n        /* \"#utility.yul\":5584:5721   */\n    tag_121:\n        /* \"#utility.yul\":5629:5634   */\n      0x00\n        /* \"#utility.yul\":5667:5673   */\n      dup2\n        /* \"#utility.yul\":5654:5674   */\n      calldataload\n        /* \"#utility.yul\":5645:5674   */\n      swap1\n      pop\n        /* \"#utility.yul\":5683:5715   */\n      tag_211\n        /* \"#utility.yul\":5709:5714   */\n      dup2\n        /* \"#utility.yul\":5683:5715   */\n      tag_120\n      jump\t// in\n    tag_211:\n        /* \"#utility.yul\":5584:5721   */\n      swap3\n      swap2\n      pop\n      pop\n      jump\t// out\n        /* \"#utility.yul\":5727:6486   */\n    tag_26:\n        /* \"#utility.yul\":5810:5816   */\n      0x00\n        /* \"#utility.yul\":5818:5824   */\n      0x00\n        /* \"#utility.yul\":5826:5832   */\n      0x00\n        /* \"#utility.yul\":5834:5840   */\n      0x00\n        /* \"#utility.yul\":5883:5886   */\n      0x80\n        /* \"#utility.yul\":5871:5880   */\n      dup6\n        /* \"#utility.yul\":5862:5869   */\n      dup8\n        /* \"#utility.yul\":5858:5881   */\n      sub\n        /* \"#utility.yul\":5854:5887   */\n      slt\n        /* \"#utility.yul\":5851:5971   */\n      iszero\n      tag_213\n      jumpi\n        /* \"#utility.yul\":5890:5969   */\n      tag_214\n      tag_95\n      jump\t// in\n    tag_214:\n        /* \"#utility.yul\":5851:5971   */\n    tag_213:\n        /* \"#utility.yul\":6010:6011   */\n      0x00\n        /* \"#utility.yul\":6035:6088   */\n      tag_215\n        /* \"#utility.yul\":6080:6087   */\n      dup8\n        /* \"#utility.yul\":6071:6077   */\n      dup3\n        /* \"#utility.yul\":6060:6069   */\n      dup9\n        /* \"#utility.yul\":6056:6078   */\n      add\n        /* \"#utility.yul\":6035:6088   */\n      tag_115\n      jump\t// in\n    tag_215:\n        /* \"#utility.yul\":6025:6088   */\n      swap5\n      pop\n        /* \"#utility.yul\":5981:6098   */\n      pop\n        /* \"#utility.yul\":6137:6139   */\n      0x20\n        /* \"#utility.yul\":6163:6215   */\n      tag_216\n        /* \"#utility.yul\":6207:6214   */\n      dup8\n        /* \"#utility.yul\":6198:6204   */\n      dup3\n        /* \"#utility.yul\":6187:6196   */\n      dup9\n        /* \"#utility.yul\":6183:6205   */\n      add\n        /* \"#utility.yul\":6163:6215   */\n      tag_118\n      jump\t// in\n    tag_216:\n        /* \"#utility.yul\":6153:6215   */\n      swap4\n      pop\n        /* \"#utility.yul\":6108:6225   */\n      pop\n        /* \"#utility.yul\":6264:6266   */\n      0x40\n        /* \"#utility.yul\":6290:6342   */\n      tag_217\n        /* \"#utility.yul\":6334:6341   */\n      dup8\n        /* \"#utility.yul\":6325:6331   */\n      dup3\n        /* \"#utility.yul\":6314:6323   */\n      dup9\n        /* \"#utility.yul\":6310:6332   */\n      add\n        /* \"#utility.yul\":6290:6342   */\n      tag_121\n      jump\t// in\n    tag_217:\n        /* \"#utility.yul\":6280:6342   */\n      swap3\n      pop\n        /* \"#utility.yul\":6235:6352   */\n      pop\n        /* \"#utility.yul\":6391:6393   */\n      0x60\n        /* \"#utility.yul\":6417:6469   */\n      tag_218\n        /* \"#utility.yul\":6461:6468   */\n      dup8\n        /* \"#utility.yul\":6452:6458   */\n      dup3\n        /* \"#utility.yul\":6441:6450   */\n      dup9\n        /* \"#utility.yul\":6437:6459   */\n      add\n        /* \"#utility.yul\":6417:6469   */\n      tag_121\n      jump\t// in\n    tag_218:\n        /* \"#utility.yul\":6407:6469   */\n      swap2\n      pop\n        /* \"#utility.yul\":6362:6479   */\n      pop\n        /* \"#utility.yul\":5727:6486   */\n      swap3\n      swap6\n      swap2\n      swap5\n      pop\n      swap3\n      pop\n      jump\t// out\n        /* \"#utility.yul\":6492:6610   */\n    tag_122:\n        /* \"#utility.yul\":6579:6603   */\n      tag_220\n        /* \"#utility.yul\":6597:6602   */\n      dup2\n        /* \"#utility.yul\":6579:6603   */\n      tag_101\n      jump\t// in\n    tag_220:\n        /* \"#utility.yul\":6574:6577   */\n      dup3\n        /* \"#utility.yul\":6567:6604   */\n      mstore\n        /* \"#utility.yul\":6492:6610   */\n      pop\n      pop\n      jump\t// out\n        /* \"#utility.yul\":6616:6838   */\n    tag_29:\n        /* \"#utility.yul\":6709:6713   */\n      0x00\n        /* \"#utility.yul\":6747:6749   */\n      0x20\n        /* \"#utility.yul\":6736:6745   */\n      dup3\n        /* \"#utility.yul\":6732:6750   */\n      add\n        /* \"#utility.yul\":6724:6750   */\n      swap1\n      pop\n        /* \"#utility.yul\":6760:6831   */\n      tag_222\n        /* \"#utility.yul\":6828:6829   */\n      0x00\n        /* \"#utility.yul\":6817:6826   */\n      dup4\n        /* \"#utility.yul\":6813:6830   */\n      add\n        /* \"#utility.yul\":6804:6810   */\n      dup5\n        /* \"#utility.yul\":6760:6831   */\n      tag_122\n      jump\t// in\n    tag_222:\n        /* \"#utility.yul\":6616:6838   */\n      swap3\n      swap2\n      pop\n      pop\n      jump\t// out\n        /* \"#utility.yul\":6844:6962   */\n    tag_123:\n        /* \"#utility.yul\":6931:6955   */\n      tag_224\n        /* \"#utility.yul\":6949:6954   */\n      dup2\n        /* \"#utility.yul\":6931:6955   */\n      tag_98\n      jump\t// in\n    tag_224:\n        /* \"#utility.yul\":6926:6929   */\n      dup3\n        /* \"#utility.yul\":6919:6956   */\n      mstore\n        /* \"#utility.yul\":6844:6962   */\n      pop\n      pop\n      jump\t// out\n        /* \"#utility.yul\":6968:7190   */\n    tag_34:\n        /* \"#utility.yul\":7061:7065   */\n      0x00\n        /* \"#utility.yul\":7099:7101   */\n      0x20\n        /* \"#utility.yul\":7088:7097   */\n      dup3\n        /* \"#utility.yul\":7084:7102   */\n      add\n        /* \"#utility.yul\":7076:7102   */\n      swap1\n      pop\n        /* \"#utility.yul\":7112:7183   */\n      tag_226\n        /* \"#utility.yul\":7180:7181   */\n      0x00\n        /* \"#utility.yul\":7169:7178   */\n      dup4\n        /* \"#utility.yul\":7165:7182   */\n      add\n        /* \"#utility.yul\":7156:7162   */\n      dup5\n        /* \"#utility.yul\":7112:7183   */\n      tag_123\n      jump\t// in\n    tag_226:\n        /* \"#utility.yul\":6968:7190   */\n      swap3\n      swap2\n      pop\n      pop\n      jump\t// out\n        /* \"#utility.yul\":7196:7310   */\n    tag_124:\n        /* \"#utility.yul\":7263:7269   */\n      0x00\n        /* \"#utility.yul\":7297:7302   */\n      dup2\n        /* \"#utility.yul\":7291:7303   */\n      mload\n        /* \"#utility.yul\":7281:7303   */\n      swap1\n      pop\n        /* \"#utility.yul\":7196:7310   */\n      swap2\n      swap1\n      pop\n      jump\t// out\n        /* \"#utility.yul\":7316:7500   */\n    tag_125:\n        /* \"#utility.yul\":7415:7426   */\n      0x00\n        /* \"#utility.yul\":7449:7455   */\n      dup3\n        /* \"#utility.yul\":7444:7447   */\n      dup3\n        /* \"#utility.yul\":7437:7456   */\n      mstore\n        /* \"#utility.yul\":7489:7493   */\n      0x20\n        /* \"#utility.yul\":7484:7487   */\n      dup3\n        /* \"#utility.yul\":7480:7494   */\n      add\n        /* \"#utility.yul\":7465:7494   */\n      swap1\n      pop\n        /* \"#utility.yul\":7316:7500   */\n      swap3\n      swap2\n      pop\n      pop\n      jump\t// out\n        /* \"#utility.yul\":7506:7638   */\n    tag_126:\n        /* \"#utility.yul\":7573:7577   */\n      0x00\n        /* \"#utility.yul\":7596:7599   */\n      dup2\n        /* \"#utility.yul\":7588:7599   */\n      swap1\n      pop\n        /* \"#utility.yul\":7626:7630   */\n      0x20\n        /* \"#utility.yul\":7621:7624   */\n      dup3\n        /* \"#utility.yul\":7617:7631   */\n      add\n        /* \"#utility.yul\":7609:7631   */\n      swap1\n      pop\n        /* \"#utility.yul\":7506:7638   */\n      swap2\n      swap1\n      pop\n      jump\t// out\n        /* \"#utility.yul\":7644:7752   */\n    tag_127:\n        /* \"#utility.yul\":7721:7745   */\n      tag_231\n        /* \"#utility.yul\":7739:7744   */\n      dup2\n        /* \"#utility.yul\":7721:7745   */\n      tag_101\n      jump\t// in\n    tag_231:\n        /* \"#utility.yul\":7716:7719   */\n      dup3\n        /* \"#utility.yul\":7709:7746   */\n      mstore\n        /* \"#utility.yul\":7644:7752   */\n      pop\n      pop\n      jump\t// out\n        /* \"#utility.yul\":7758:7937   */\n    tag_128:\n        /* \"#utility.yul\":7827:7837   */\n      0x00\n        /* \"#utility.yul\":7848:7894   */\n      tag_233\n        /* \"#utility.yul\":7890:7893   */\n      dup4\n        /* \"#utility.yul\":7882:7888   */\n      dup4\n        /* \"#utility.yul\":7848:7894   */\n      tag_127\n      jump\t// in\n    tag_233:\n        /* \"#utility.yul\":7926:7930   */\n      0x20\n        /* \"#utility.yul\":7921:7924   */\n      dup4\n        /* \"#utility.yul\":7917:7931   */\n      add\n        /* \"#utility.yul\":7903:7931   */\n      swap1\n      pop\n        /* \"#utility.yul\":7758:7937   */\n      swap3\n      swap2\n      pop\n      pop\n      jump\t// out\n        /* \"#utility.yul\":7943:8056   */\n    tag_129:\n        /* \"#utility.yul\":8013:8017   */\n      0x00\n        /* \"#utility.yul\":8045:8049   */\n      0x20\n        /* \"#utility.yul\":8040:8043   */\n      dup3\n        /* \"#utility.yul\":8036:8050   */\n      add\n        /* \"#utility.yul\":8028:8050   */\n      swap1\n      pop\n        /* \"#utility.yul\":7943:8056   */\n      swap2\n      swap1\n      pop\n      jump\t// out\n        /* \"#utility.yul\":8092:8824   */\n    tag_130:\n        /* \"#utility.yul\":8211:8214   */\n      0x00\n        /* \"#utility.yul\":8240:8294   */\n      tag_236\n        /* \"#utility.yul\":8288:8293   */\n      dup3\n        /* \"#utility.yul\":8240:8294   */\n      tag_124\n      jump\t// in\n    tag_236:\n        /* \"#utility.yul\":8310:8396   */\n      tag_237\n        /* \"#utility.yul\":8389:8395   */\n      dup2\n        /* \"#utility.yul\":8384:8387   */\n      dup6\n        /* \"#utility.yul\":8310:8396   */\n      tag_125\n      jump\t// in\n    tag_237:\n        /* \"#utility.yul\":8303:8396   */\n      swap4\n      pop\n        /* \"#utility.yul\":8420:8476   */\n      tag_238\n        /* \"#utility.yul\":8470:8475   */\n      dup4\n        /* \"#utility.yul\":8420:8476   */\n      tag_126\n      jump\t// in\n    tag_238:\n        /* \"#utility.yul\":8499:8506   */\n      dup1\n        /* \"#utility.yul\":8530:8531   */\n      0x00\n        /* \"#utility.yul\":8515:8799   */\n    tag_239:\n        /* \"#utility.yul\":8540:8546   */\n      dup4\n        /* \"#utility.yul\":8537:8538   */\n      dup2\n        /* \"#utility.yul\":8534:8547   */\n      lt\n        /* \"#utility.yul\":8515:8799   */\n      iszero\n      tag_241\n      jumpi\n        /* \"#utility.yul\":8616:8622   */\n      dup2\n        /* \"#utility.yul\":8610:8623   */\n      mload\n        /* \"#utility.yul\":8643:8706   */\n      tag_242\n        /* \"#utility.yul\":8702:8705   */\n      dup9\n        /* \"#utility.yul\":8687:8700   */\n      dup3\n        /* \"#utility.yul\":8643:8706   */\n      tag_128\n      jump\t// in\n    tag_242:\n        /* \"#utility.yul\":8636:8706   */\n      swap8\n      pop\n        /* \"#utility.yul\":8729:8789   */\n      tag_243\n        /* \"#utility.yul\":8782:8788   */\n      dup4\n        /* \"#utility.yul\":8729:8789   */\n      tag_129\n      jump\t// in\n    tag_243:\n        /* \"#utility.yul\":8719:8789   */\n      swap3\n      pop\n        /* \"#utility.yul\":8575:8799   */\n      pop\n        /* \"#utility.yul\":8562:8563   */\n      0x01\n        /* \"#utility.yul\":8559:8560   */\n      dup2\n        /* \"#utility.yul\":8555:8564   */\n      add\n        /* \"#utility.yul\":8550:8564   */\n      swap1\n      pop\n        /* \"#utility.yul\":8515:8799   */\n      jump(tag_239)\n    tag_241:\n        /* \"#utility.yul\":8519:8533   */\n      pop\n        /* \"#utility.yul\":8815:8818   */\n      dup6\n        /* \"#utility.yul\":8808:8818   */\n      swap4\n      pop\n        /* \"#utility.yul\":8216:8824   */\n      pop\n      pop\n      pop\n        /* \"#utility.yul\":8092:8824   */\n      swap3\n      swap2\n      pop\n      pop\n      jump\t// out\n        /* \"#utility.yul\":8830:9203   */\n    tag_40:\n        /* \"#utility.yul\":8973:8977   */\n      0x00\n        /* \"#utility.yul\":9011:9013   */\n      0x20\n        /* \"#utility.yul\":9000:9009   */\n      dup3\n        /* \"#utility.yul\":8996:9014   */\n      add\n        /* \"#utility.yul\":8988:9014   */\n      swap1\n      pop\n        /* \"#utility.yul\":9060:9069   */\n      dup2\n        /* \"#utility.yul\":9054:9058   */\n      dup2\n        /* \"#utility.yul\":9050:9070   */\n      sub\n        /* \"#utility.yul\":9046:9047   */\n      0x00\n        /* \"#utility.yul\":9035:9044   */\n      dup4\n        /* \"#utility.yul\":9031:9048   */\n      add\n        /* \"#utility.yul\":9024:9071   */\n      mstore\n        /* \"#utility.yul\":9088:9196   */\n      tag_245\n        /* \"#utility.yul\":9191:9195   */\n      dup2\n        /* \"#utility.yul\":9182:9188   */\n      dup5\n        /* \"#utility.yul\":9088:9196   */\n      tag_130\n      jump\t// in\n    tag_245:\n        /* \"#utility.yul\":9080:9196   */\n      swap1\n      pop\n        /* \"#utility.yul\":8830:9203   */\n      swap3\n      swap2\n      pop\n      pop\n      jump\t// out\n        /* \"#utility.yul\":9209:9538   */\n    tag_48:\n        /* \"#utility.yul\":9268:9274   */\n      0x00\n        /* \"#utility.yul\":9317:9319   */\n      0x20\n        /* \"#utility.yul\":9305:9314   */\n      dup3\n        /* \"#utility.yul\":9296:9303   */\n      dup5\n        /* \"#utility.yul\":9292:9315   */\n      sub\n        /* \"#utility.yul\":9288:9320   */\n      slt\n        /* \"#utility.yul\":9285:9404   */\n      iszero\n      tag_247\n      jumpi\n        /* \"#utility.yul\":9323:9402   */\n      tag_248\n      tag_95\n      jump\t// in\n    tag_248:\n        /* \"#utility.yul\":9285:9404   */\n    tag_247:\n        /* \"#utility.yul\":9443:9444   */\n      0x00\n        /* \"#utility.yul\":9468:9521   */\n      tag_249\n        /* \"#utility.yul\":9513:9520   */\n      dup5\n        /* \"#utility.yul\":9504:9510   */\n      dup3\n        /* \"#utility.yul\":9493:9502   */\n      dup6\n        /* \"#utility.yul\":9489:9511   */\n      add\n        /* \"#utility.yul\":9468:9521   */\n      tag_103\n      jump\t// in\n    tag_249:\n        /* \"#utility.yul\":9458:9521   */\n      swap2\n      pop\n        /* \"#utility.yul\":9414:9531   */\n      pop\n        /* \"#utility.yul\":9209:9538   */\n      swap3\n      swap2\n      pop\n      pop\n      jump\t// out\n        /* \"#utility.yul\":9544:9713   */\n    tag_131:\n        /* \"#utility.yul\":9628:9639   */\n      0x00\n        /* \"#utility.yul\":9662:9668   */\n      dup3\n        /* \"#utility.yul\":9657:9660   */\n      dup3\n        /* \"#utility.yul\":9650:9669   */\n      mstore\n        /* \"#utility.yul\":9702:9706   */\n      0x20\n        /* \"#utility.yul\":9697:9700   */\n      dup3\n        /* \"#utility.yul\":9693:9707   */\n      add\n        /* \"#utility.yul\":9678:9707   */\n      swap1\n      pop\n        /* \"#utility.yul\":9544:9713   */\n      swap3\n      swap2\n      pop\n      pop\n      jump\t// out\n        /* \"#utility.yul\":9719:9878   */\n    tag_132:\n        /* \"#utility.yul\":9859:9870   */\n      0x6e6f74206f776e65720000000000000000000000000000000000000000000000\n        /* \"#utility.yul\":9855:9856   */\n      0x00\n        /* \"#utility.yul\":9847:9853   */\n      dup3\n        /* \"#utility.yul\":9843:9857   */\n      add\n        /* \"#utility.yul\":9836:9871   */\n      mstore\n        /* \"#utility.yul\":9719:9878   */\n      pop\n      jump\t// out\n        /* \"#utility.yul\":9884:10249   */\n    tag_133:\n        /* \"#utility.yul\":10026:10029   */\n      0x00\n        /* \"#utility.yul\":10047:10113   */\n      tag_253\n        /* \"#utility.yul\":10111:10112   */\n      0x09\n        /* \"#utility.yul\":10106:10109   */\n      dup4\n        /* \"#utility.yul\":10047:10113   */\n      tag_131\n      jump\t// in\n    tag_253:\n        /* \"#utility.yul\":10040:10113   */\n      swap2\n      pop\n        /* \"#utility.yul\":10122:10215   */\n      tag_254\n        /* \"#utility.yul\":10211:10214   */\n      dup3\n        /* \"#utility.yul\":10122:10215   */\n      tag_132\n      jump\t// in\n    tag_254:\n        /* \"#utility.yul\":10240:10242   */\n      0x20\n        /* \"#utility.yul\":10235:10238   */\n      dup3\n        /* \"#utility.yul\":10231:10243   */\n      add\n        /* \"#utility.yul\":10224:10243   */\n      swap1\n      pop\n        /* \"#utility.yul\":9884:10249   */\n      swap2\n      swap1\n      pop\n      jump\t// out\n        /* \"#utility.yul\":10255:10674   */\n    tag_55:\n        /* \"#utility.yul\":10421:10425   */\n      0x00\n        /* \"#utility.yul\":10459:10461   */\n      0x20\n        /* \"#utility.yul\":10448:10457   */\n      dup3\n        /* \"#utility.yul\":10444:10462   */\n      add\n        /* \"#utility.yul\":10436:10462   */\n      swap1\n      pop\n        /* \"#utility.yul\":10508:10517   */\n      dup2\n        /* \"#utility.yul\":10502:10506   */\n      dup2\n        /* \"#utility.yul\":10498:10518   */\n      sub\n        /* \"#utility.yul\":10494:10495   */\n      0x00\n        /* \"#utility.yul\":10483:10492   */\n      dup4\n        /* \"#utility.yul\":10479:10496   */\n      add\n        /* \"#utility.yul\":10472:10519   */\n      mstore\n        /* \"#utility.yul\":10536:10667   */\n      tag_256\n        /* \"#utility.yul\":10662:10666   */\n      dup2\n        /* \"#utility.yul\":10536:10667   */\n      tag_133\n      jump\t// in\n    tag_256:\n        /* \"#utility.yul\":10528:10667   */\n      swap1\n      pop\n        /* \"#utility.yul\":10255:10674   */\n      swap2\n      swap1\n      pop\n      jump\t// out\n        /* \"#utility.yul\":10680:11012   */\n    tag_60:\n        /* \"#utility.yul\":10801:10805   */\n      0x00\n        /* \"#utility.yul\":10839:10841   */\n      0x40\n        /* \"#utility.yul\":10828:10837   */\n      dup3\n        /* \"#utility.yul\":10824:10842   */\n      add\n        /* \"#utility.yul\":10816:10842   */\n      swap1\n      pop\n        /* \"#utility.yul\":10852:10923   */\n      tag_258\n        /* \"#utility.yul\":10920:10921   */\n      0x00\n        /* \"#utility.yul\":10909:10918   */\n      dup4\n        /* \"#utility.yul\":10905:10922   */\n      add\n        /* \"#utility.yul\":10896:10902   */\n      dup6\n        /* \"#utility.yul\":10852:10923   */\n      tag_123\n      jump\t// in\n    tag_258:\n        /* \"#utility.yul\":10933:11005   */\n      tag_259\n        /* \"#utility.yul\":11001:11003   */\n      0x20\n        /* \"#utility.yul\":10990:10999   */\n      dup4\n        /* \"#utility.yul\":10986:11004   */\n      add\n        /* \"#utility.yul\":10977:10983   */\n      dup5\n        /* \"#utility.yul\":10933:11005   */\n      tag_123\n      jump\t// in\n    tag_259:\n        /* \"#utility.yul\":10680:11012   */\n      swap4\n      swap3\n      pop\n      pop\n      pop\n      jump\t// out\n        /* \"#utility.yul\":11018:11136   */\n    tag_134:\n        /* \"#utility.yul\":11105:11129   */\n      tag_261\n        /* \"#utility.yul\":11123:11128   */\n      dup2\n        /* \"#utility.yul\":11105:11129   */\n      tag_113\n      jump\t// in\n    tag_261:\n        /* \"#utility.yul\":11100:11103   */\n      dup3\n        /* \"#utility.yul\":11093:11130   */\n      mstore\n        /* \"#utility.yul\":11018:11136   */\n      pop\n      pop\n      jump\t// out\n        /* \"#utility.yul\":11142:11257   */\n    tag_135:\n        /* \"#utility.yul\":11227:11250   */\n      tag_263\n        /* \"#utility.yul\":11244:11249   */\n      dup2\n        /* \"#utility.yul\":11227:11250   */\n      tag_116\n      jump\t// in\n    tag_263:\n        /* \"#utility.yul\":11222:11225   */\n      dup3\n        /* \"#utility.yul\":11215:11251   */\n      mstore\n        /* \"#utility.yul\":11142:11257   */\n      pop\n      pop\n      jump\t// out\n        /* \"#utility.yul\":11263:11378   */\n    tag_136:\n        /* \"#utility.yul\":11348:11371   */\n      tag_265\n        /* \"#utility.yul\":11365:11370   */\n      dup2\n        /* \"#utility.yul\":11348:11371   */\n      tag_119\n      jump\t// in\n    tag_265:\n        /* \"#utility.yul\":11343:11346   */\n      dup3\n        /* \"#utility.yul\":11336:11372   */\n      mstore\n        /* \"#utility.yul\":11263:11378   */\n      pop\n      pop\n      jump\t// out\n        /* \"#utility.yul\":11384:11925   */\n    tag_69:\n        /* \"#utility.yul\":11555:11559   */\n      0x00\n        /* \"#utility.yul\":11593:11596   */\n      0x80\n        /* \"#utility.yul\":11582:11591   */\n      dup3\n        /* \"#utility.yul\":11578:11597   */\n      add\n        /* \"#utility.yul\":11570:11597   */\n      swap1\n      pop\n        /* \"#utility.yul\":11607:11678   */\n      tag_267\n        /* \"#utility.yul\":11675:11676   */\n      0x00\n        /* \"#utility.yul\":11664:11673   */\n      dup4\n        /* \"#utility.yul\":11660:11677   */\n      add\n        /* \"#utility.yul\":11651:11657   */\n      dup8\n        /* \"#utility.yul\":11607:11678   */\n      tag_134\n      jump\t// in\n    tag_267:\n        /* \"#utility.yul\":11688:11758   */\n      tag_268\n        /* \"#utility.yul\":11754:11756   */\n      0x20\n        /* \"#utility.yul\":11743:11752   */\n      dup4\n        /* \"#utility.yul\":11739:11757   */\n      add\n        /* \"#utility.yul\":11730:11736   */\n      dup7\n        /* \"#utility.yul\":11688:11758   */\n      tag_135\n      jump\t// in\n    tag_268:\n        /* \"#utility.yul\":11768:11838   */\n      tag_269\n        /* \"#utility.yul\":11834:11836   */\n      0x40\n        /* \"#utility.yul\":11823:11832   */\n      dup4\n        /* \"#utility.yul\":11819:11837   */\n      add\n        /* \"#utility.yul\":11810:11816   */\n      dup6\n        /* \"#utility.yul\":11768:11838   */\n      tag_136\n      jump\t// in\n    tag_269:\n        /* \"#utility.yul\":11848:11918   */\n      tag_270\n        /* \"#utility.yul\":11914:11916   */\n      0x60\n        /* \"#utility.yul\":11903:11912   */\n      dup4\n        /* \"#utility.yul\":11899:11917   */\n      add\n        /* \"#utility.yul\":11890:11896   */\n      dup5\n        /* \"#utility.yul\":11848:11918   */\n      tag_136\n      jump\t// in\n    tag_270:\n        /* \"#utility.yul\":11384:11925   */\n      swap6\n      swap5\n      pop\n      pop\n      pop\n      pop\n      pop\n      jump\t// out\n        /* \"#utility.yul\":11931:12074   */\n    tag_137:\n        /* \"#utility.yul\":11988:11993   */\n      0x00\n        /* \"#utility.yul\":12019:12025   */\n      dup2\n        /* \"#utility.yul\":12013:12026   */\n      mload\n        /* \"#utility.yul\":12004:12026   */\n      swap1\n      pop\n        /* \"#utility.yul\":12035:12068   */\n      tag_272\n        /* \"#utility.yul\":12062:12067   */\n      dup2\n        /* \"#utility.yul\":12035:12068   */\n      tag_102\n      jump\t// in\n    tag_272:\n        /* \"#utility.yul\":11931:12074   */\n      swap3\n      swap2\n      pop\n      pop\n      jump\t// out\n        /* \"#utility.yul\":12080:12431   */\n    tag_73:\n        /* \"#utility.yul\":12150:12156   */\n      0x00\n        /* \"#utility.yul\":12199:12201   */\n      0x20\n        /* \"#utility.yul\":12187:12196   */\n      dup3\n        /* \"#utility.yul\":12178:12185   */\n      dup5\n        /* \"#utility.yul\":12174:12197   */\n      sub\n        /* \"#utility.yul\":12170:12202   */\n      slt\n        /* \"#utility.yul\":12167:12286   */\n      iszero\n      tag_274\n      jumpi\n        /* \"#utility.yul\":12205:12284   */\n      tag_275\n      tag_95\n      jump\t// in\n    tag_275:\n        /* \"#utility.yul\":12167:12286   */\n    tag_274:\n        /* \"#utility.yul\":12325:12326   */\n      0x00\n        /* \"#utility.yul\":12350:12414   */\n      tag_276\n        /* \"#utility.yul\":12406:12413   */\n      dup5\n        /* \"#utility.yul\":12397:12403   */\n      dup3\n        /* \"#utility.yul\":12386:12395   */\n      dup6\n        /* \"#utility.yul\":12382:12404   */\n      add\n        /* \"#utility.yul\":12350:12414   */\n      tag_137\n      jump\t// in\n    tag_276:\n        /* \"#utility.yul\":12340:12414   */\n      swap2\n      pop\n        /* \"#utility.yul\":12296:12424   */\n      pop\n        /* \"#utility.yul\":12080:12431   */\n      swap3\n      swap2\n      pop\n      pop\n      jump\t// out\n\n    auxdata: 0xa26469706673582212201b7948d4ea8e0dbce7f9499bf4f019d4463f2d101795f5aa1c907f57a4bac52f64736f6c634300081b0033\n}\n",
				"bytecode": {
					"linkReferences": {},
					"object": "60a060405234801561000f575f5ffd5b50604051610fc5380380610fc58339818101604052810190610031919061018c565b818073ffffffffffffffffffffffffffffffffffffffff1660808173ffffffffffffffffffffffffffffffffffffffff1681525050503360025f6101000a81548173ffffffffffffffffffffffffffffffffffffffff021916908373ffffffffffffffffffffffffffffffffffffffff1602179055508160035f6101000a81548173ffffffffffffffffffffffffffffffffffffffff021916908373ffffffffffffffffffffffffffffffffffffffff1602179055508060015f6101000a81548173ffffffffffffffffffffffffffffffffffffffff021916908373ffffffffffffffffffffffffffffffffffffffff16021790555050506101ca565b5f5ffd5b5f73ffffffffffffffffffffffffffffffffffffffff82169050919050565b5f61015b82610132565b9050919050565b61016b81610151565b8114610175575f5ffd5b50565b5f8151905061018681610162565b92915050565b5f5f604083850312156101a2576101a161012e565b5b5f6101af85828601610178565b92505060206101c085828601610178565b9150509250929050565b608051610ddc6101e95f395f818161030101526103550152610ddc5ff3fe608060405260043610610073575f3560e01c80636a76dd761161004d5780636a76dd761461010a5780637007bf8b14610134578063d73e3f3e14610170578063f5df3fd41461019a5761007a565b8063162b37621461007e5780631fe543e3146100a65780632f34077b146100ce5761007a565b3661007a57005b5f5ffd5b348015610089575f5ffd5b506100a4600480360381019061009f91906107f1565b6101d6565b005b3480156100b1575f5ffd5b506100cc60048036038101906100c7919061099f565b6102ff565b005b3480156100d9575f5ffd5b506100f460048036038101906100ef9190610aa2565b6103bf565b6040516101019190610b15565b60405180910390f35b348015610115575f5ffd5b5061011e610550565b60405161012b9190610b3d565b60405180910390f35b34801561013f575f5ffd5b5061015a60048036038101906101559190610aa2565b610575565b6040516101679190610c0d565b60405180910390f35b34801561017b575f5ffd5b506101846106c2565b6040516101919190610b3d565b60405180910390f35b3480156101a5575f5ffd5b506101c060048036038101906101bb9190610c2d565b6106e7565b6040516101cd9190610b15565b60405180910390f35b60025f9054906101000a900473ffffffffffffffffffffffffffffffffffffffff1673ffffffffffffffffffffffffffffffffffffffff163373ffffffffffffffffffffffffffffffffffffffff16148061027d575060015f9054906101000a900473ffffffffffffffffffffffffffffffffffffffff1673ffffffffffffffffffffffffffffffffffffffff163373ffffffffffffffffffffffffffffffffffffffff16145b6102bc576040517f08c379a00000000000000000000000000000000000000000000000000000000081526004016102b390610cb2565b60405180910390fd5b8060015f6101000a81548173ffffffffffffffffffffffffffffffffffffffff021916908373ffffffffffffffffffffffffffffffffffffffff16021790555050565b7f000000000000000000000000000000000000000000000000000000000000000073ffffffffffffffffffffffffffffffffffffffff163373ffffffffffffffffffffffffffffffffffffffff16146103b157337f00000000000000000000000000000000000000000000000000000000000000006040517f1cf993f40000000000000000000000000000000000000000000000000000000081526004016103a8929190610cd0565b60405180910390fd5b6103bb8282610706565b5050565b5f60025f9054906101000a900473ffffffffffffffffffffffffffffffffffffffff1673ffffffffffffffffffffffffffffffffffffffff163373ffffffffffffffffffffffffffffffffffffffff161480610467575060015f9054906101000a900473ffffffffffffffffffffffffffffffffffffffff1673ffffffffffffffffffffffffffffffffffffffff163373ffffffffffffffffffffffffffffffffffffffff16145b6104a6576040517f08c379a000000000000000000000000000000000000000000000000000000000815260040161049d90610cb2565b60405180910390fd5b60035f9054906101000a900473ffffffffffffffffffffffffffffffffffffffff1673ffffffffffffffffffffffffffffffffffffffff16632f34077b868686866040518563ffffffff1660e01b81526004016105069493929190610d24565b6020604051808303815f875af1158015610522573d5f5f3e3d5ffd5b505050506040513d601f19601f820116820180604052508101906105469190610d7b565b9050949350505050565b60015f9054906101000a900473ffffffffffffffffffffffffffffffffffffffff1681565b606060025f9054906101000a900473ffffffffffffffffffffffffffffffffffffffff1673ffffffffffffffffffffffffffffffffffffffff163373ffffffffffffffffffffffffffffffffffffffff16148061061e575060015f9054906101000a900473ffffffffffffffffffffffffffffffffffffffff1673ffffffffffffffffffffffffffffffffffffffff163373ffffffffffffffffffffffffffffffffffffffff16145b61065d576040517f08c379a000000000000000000000000000000000000000000000000000000000815260040161065490610cb2565b60405180910390fd5b610669858585856103bf565b505f8054806020026020016040519081016040528092919081815260200182805480156106b357602002820191905f5260205f20905b81548152602001906001019080831161069f575b50505050509050949350505050565b60025f9054906101000a900473ffffffffffffffffffffffffffffffffffffffff1681565b5f81815481106106f5575f80fd5b905f5260205f20015f915090505481565b805f908051906020019061071b929190610720565b505050565b828054828255905f5260205f2090810192821561075a579160200282015b8281111561075957825182559160200191906001019061073e565b5b509050610767919061076b565b5090565b5b80821115610782575f815f90555060010161076c565b5090565b5f604051905090565b5f5ffd5b5f5ffd5b5f73ffffffffffffffffffffffffffffffffffffffff82169050919050565b5f6107c082610797565b9050919050565b6107d0816107b6565b81146107da575f5ffd5b50565b5f813590506107eb816107c7565b92915050565b5f602082840312156108065761080561078f565b5b5f610813848285016107dd565b91505092915050565b5f819050919050565b61082e8161081c565b8114610838575f5ffd5b50565b5f8135905061084981610825565b92915050565b5f5ffd5b5f601f19601f8301169050919050565b7f4e487b71000000000000000000000000000000000000000000000000000000005f52604160045260245ffd5b61089982610853565b810181811067ffffffffffffffff821117156108b8576108b7610863565b5b80604052505050565b5f6108ca610786565b90506108d68282610890565b919050565b5f67ffffffffffffffff8211156108f5576108f4610863565b5b602082029050602081019050919050565b5f5ffd5b5f61091c610917846108db565b6108c1565b9050808382526020820190506020840283018581111561093f5761093e610906565b5b835b818110156109685780610954888261083b565b845260208401935050602081019050610941565b5050509392505050565b5f82601f8301126109865761098561084f565b5b813561099684826020860161090a565b91505092915050565b5f5f604083850312156109b5576109b461078f565b5b5f6109c28582860161083b565b925050602083013567ffffffffffffffff8111156109e3576109e2610793565b5b6109ef85828601610972565b9150509250929050565b5f819050919050565b610a0b816109f9565b8114610a15575f5ffd5b50565b5f81359050610a2681610a02565b92915050565b5f67ffffffffffffffff82169050919050565b610a4881610a2c565b8114610a52575f5ffd5b50565b5f81359050610a6381610a3f565b92915050565b5f63ffffffff82169050919050565b610a8181610a69565b8114610a8b575f5ffd5b50565b5f81359050610a9c81610a78565b92915050565b5f5f5f5f60808587031215610aba57610ab961078f565b5b5f610ac787828801610a18565b9450506020610ad887828801610a55565b9350506040610ae987828801610a8e565b9250506060610afa87828801610a8e565b91505092959194509250565b610b0f8161081c565b82525050565b5f602082019050610b285f830184610b06565b92915050565b610b37816107b6565b82525050565b5f602082019050610b505f830184610b2e565b92915050565b5f81519050919050565b5f82825260208201905092915050565b5f819050602082019050919050565b610b888161081c565b82525050565b5f610b998383610b7f565b60208301905092915050565b5f602082019050919050565b5f610bbb82610b56565b610bc58185610b60565b9350610bd083610b70565b805f5b83811015610c00578151610be78882610b8e565b9750610bf283610ba5565b925050600181019050610bd3565b5085935050505092915050565b5f6020820190508181035f830152610c258184610bb1565b905092915050565b5f60208284031215610c4257610c4161078f565b5b5f610c4f8482850161083b565b91505092915050565b5f82825260208201905092915050565b7f6e6f74206f776e657200000000000000000000000000000000000000000000005f82015250565b5f610c9c600983610c58565b9150610ca782610c68565b602082019050919050565b5f6020820190508181035f830152610cc981610c90565b9050919050565b5f604082019050610ce35f830185610b2e565b610cf06020830184610b2e565b9392505050565b610d00816109f9565b82525050565b610d0f81610a2c565b82525050565b610d1e81610a69565b82525050565b5f608082019050610d375f830187610cf7565b610d446020830186610d06565b610d516040830185610d15565b610d5e6060830184610d15565b95945050505050565b5f81519050610d7581610825565b92915050565b5f60208284031215610d9057610d8f61078f565b5b5f610d9d84828501610d67565b9150509291505056fea26469706673582212201b7948d4ea8e0dbce7f9499bf4f019d4463f2d101795f5aa1c907f57a4bac52f64736f6c634300081b0033",
					"opcodes": "PUSH1 0xA0 PUSH1 0x40 MSTORE CALLVALUE DUP1 ISZERO PUSH2 0xF JUMPI PUSH0 PUSH0 REVERT JUMPDEST POP PUSH1 0x40 MLOAD PUSH2 0xFC5 CODESIZE SUB DUP1 PUSH2 0xFC5 DUP4 CODECOPY DUP2 DUP2 ADD PUSH1 0x40 MSTORE DUP2 ADD SWAP1 PUSH2 0x31 SWAP2 SWAP1 PUSH2 0x18C JUMP JUMPDEST DUP2 DUP1 PUSH20 0xFFFFFFFFFFFFFFFFFFFFFFFFFFFFFFFFFFFFFFFF AND PUSH1 0x80 DUP2 PUSH20 0xFFFFFFFFFFFFFFFFFFFFFFFFFFFFFFFFFFFFFFFF AND DUP2 MSTORE POP POP POP CALLER PUSH1 0x2 PUSH0 PUSH2 0x100 EXP DUP2 SLOAD DUP2 PUSH20 0xFFFFFFFFFFFFFFFFFFFFFFFFFFFFFFFFFFFFFFFF MUL NOT AND SWAP1 DUP4 PUSH20 0xFFFFFFFFFFFFFFFFFFFFFFFFFFFFFFFFFFFFFFFF AND MUL OR SWAP1 SSTORE POP DUP2 PUSH1 0x3 PUSH0 PUSH2 0x100 EXP DUP2 SLOAD DUP2 PUSH20 0xFFFFFFFFFFFFFFFFFFFFFFFFFFFFFFFFFFFFFFFF MUL NOT AND SWAP1 DUP4 PUSH20 0xFFFFFFFFFFFFFFFFFFFFFFFFFFFFFFFFFFFFFFFF AND MUL OR SWAP1 SSTORE POP DUP1 PUSH1 0x1 PUSH0 PUSH2 0x100 EXP DUP2 SLOAD DUP2 PUSH20 0xFFFFFFFFFFFFFFFFFFFFFFFFFFFFFFFFFFFFFFFF MUL NOT AND SWAP1 DUP4 PUSH20 0xFFFFFFFFFFFFFFFFFFFFFFFFFFFFFFFFFFFFFFFF AND MUL OR SWAP1 SSTORE POP POP POP PUSH2 0x1CA JUMP JUMPDEST PUSH0 PUSH0 REVERT JUMPDEST PUSH0 PUSH20 0xFFFFFFFFFFFFFFFFFFFFFFFFFFFFFFFFFFFFFFFF DUP3 AND SWAP1 POP SWAP2 SWAP1 POP JUMP JUMPDEST PUSH0 PUSH2 0x15B DUP3 PUSH2 0x132 JUMP JUMPDEST SWAP1 POP SWAP2 SWAP1 POP JUMP JUMPDEST PUSH2 0x16B DUP2 PUSH2 0x151 JUMP JUMPDEST DUP2 EQ PUSH2 0x175 JUMPI PUSH0 PUSH0 REVERT JUMPDEST POP JUMP JUMPDEST PUSH0 DUP2 MLOAD SWAP1 POP PUSH2 0x186 DUP2 PUSH2 0x162 JUMP JUMPDEST SWAP3 SWAP2 POP POP JUMP JUMPDEST PUSH0 PUSH0 PUSH1 0x40 DUP4 DUP6 SUB SLT ISZERO PUSH2 0x1A2 JUMPI PUSH2 0x1A1 PUSH2 0x12E JUMP JUMPDEST JUMPDEST PUSH0 PUSH2 0x1AF DUP6 DUP3 DUP7 ADD PUSH2 0x178 JUMP JUMPDEST SWAP3 POP POP PUSH1 0x20 PUSH2 0x1C0 DUP6 DUP3 DUP7 ADD PUSH2 0x178 JUMP JUMPDEST SWAP2 POP POP SWAP3 POP SWAP3 SWAP1 POP JUMP JUMPDEST PUSH1 0x80 MLOAD PUSH2 0xDDC PUSH2 0x1E9 PUSH0 CODECOPY PUSH0 DUP2 DUP2 PUSH2 0x301 ADD MSTORE PUSH2 0x355 ADD MSTORE PUSH2 0xDDC PUSH0 RETURN INVALID PUSH1 0x80 PUSH1 0x40 MSTORE PUSH1 0x4 CALLDATASIZE LT PUSH2 0x73 JUMPI PUSH0 CALLDATALOAD PUSH1 0xE0 SHR DUP1 PUSH4 0x6A76DD76 GT PUSH2 0x4D JUMPI DUP1 PUSH4 0x6A76DD76 EQ PUSH2 0x10A JUMPI DUP1 PUSH4 0x7007BF8B EQ PUSH2 0x134 JUMPI DUP1 PUSH4 0xD73E3F3E EQ PUSH2 0x170 JUMPI DUP1 PUSH4 0xF5DF3FD4 EQ PUSH2 0x19A JUMPI PUSH2 0x7A JUMP JUMPDEST DUP1 PUSH4 0x162B3762 EQ PUSH2 0x7E JUMPI DUP1 PUSH4 0x1FE543E3 EQ PUSH2 0xA6 JUMPI DUP1 PUSH4 0x2F34077B EQ PUSH2 0xCE JUMPI PUSH2 0x7A JUMP JUMPDEST CALLDATASIZE PUSH2 0x7A JUMPI STOP JUMPDEST PUSH0 PUSH0 REVERT JUMPDEST CALLVALUE DUP1 ISZERO PUSH2 0x89 JUMPI PUSH0 PUSH0 REVERT JUMPDEST POP PUSH2 0xA4 PUSH1 0x4 DUP1 CALLDATASIZE SUB DUP2 ADD SWAP1 PUSH2 0x9F SWAP2 SWAP1 PUSH2 0x7F1 JUMP JUMPDEST PUSH2 0x1D6 JUMP JUMPDEST STOP JUMPDEST CALLVALUE DUP1 ISZERO PUSH2 0xB1 JUMPI PUSH0 PUSH0 REVERT JUMPDEST POP PUSH2 0xCC PUSH1 0x4 DUP1 CALLDATASIZE SUB DUP2 ADD SWAP1 PUSH2 0xC7 SWAP2 SWAP1 PUSH2 0x99F JUMP JUMPDEST PUSH2 0x2FF JUMP JUMPDEST STOP JUMPDEST CALLVALUE DUP1 ISZERO PUSH2 0xD9 JUMPI PUSH0 PUSH0 REVERT JUMPDEST POP PUSH2 0xF4 PUSH1 0x4 DUP1 CALLDATASIZE SUB DUP2 ADD SWAP1 PUSH2 0xEF SWAP2 SWAP1 PUSH2 0xAA2 JUMP JUMPDEST PUSH2 0x3BF JUMP JUMPDEST PUSH1 0x40 MLOAD PUSH2 0x101 SWAP2 SWAP1 PUSH2 0xB15 JUMP JUMPDEST PUSH1 0x40 MLOAD DUP1 SWAP2 SUB SWAP1 RETURN JUMPDEST CALLVALUE DUP1 ISZERO PUSH2 0x115 JUMPI PUSH0 PUSH0 REVERT JUMPDEST POP PUSH2 0x11E PUSH2 0x550 JUMP JUMPDEST PUSH1 0x40 MLOAD PUSH2 0x12B SWAP2 SWAP1 PUSH2 0xB3D JUMP JUMPDEST PUSH1 0x40 MLOAD DUP1 SWAP2 SUB SWAP1 RETURN JUMPDEST CALLVALUE DUP1 ISZERO PUSH2 0x13F JUMPI PUSH0 PUSH0 REVERT JUMPDEST POP PUSH2 0x15A PUSH1 0x4 DUP1 CALLDATASIZE SUB DUP2 ADD SWAP1 PUSH2 0x155 SWAP2 SWAP1 PUSH2 0xAA2 JUMP JUMPDEST PUSH2 0x575 JUMP JUMPDEST PUSH1 0x40 MLOAD PUSH2 0x167 SWAP2 SWAP1 PUSH2 0xC0D JUMP JUMPDEST PUSH1 0x40 MLOAD DUP1 SWAP2 SUB SWAP1 RETURN JUMPDEST CALLVALUE DUP1 ISZERO PUSH2 0x17B JUMPI PUSH0 PUSH0 REVERT JUMPDEST POP PUSH2 0x184 PUSH2 0x6C2 JUMP JUMPDEST PUSH1 0x40 MLOAD PUSH2 0x191 SWAP2 SWAP1 PUSH2 0xB3D JUMP JUMPDEST PUSH1 0x40 MLOAD DUP1 SWAP2 SUB SWAP1 RETURN JUMPDEST CALLVALUE DUP1 ISZERO PUSH2 0x1A5 JUMPI PUSH0 PUSH0 REVERT JUMPDEST POP PUSH2 0x1C0 PUSH1 0x4 DUP1 CALLDATASIZE SUB DUP2 ADD SWAP1 PUSH2 0x1BB SWAP2 SWAP1 PUSH2 0xC2D JUMP JUMPDEST PUSH2 0x6E7 JUMP JUMPDEST PUSH1 0x40 MLOAD PUSH2 0x1CD SWAP2 SWAP1 PUSH2 0xB15 JUMP JUMPDEST PUSH1 0x40 MLOAD DUP1 SWAP2 SUB SWAP1 RETURN JUMPDEST PUSH1 0x2 PUSH0 SWAP1 SLOAD SWAP1 PUSH2 0x100 EXP SWAP1 DIV PUSH20 0xFFFFFFFFFFFFFFFFFFFFFFFFFFFFFFFFFFFFFFFF AND PUSH20 0xFFFFFFFFFFFFFFFFFFFFFFFFFFFFFFFFFFFFFFFF AND CALLER PUSH20 0xFFFFFFFFFFFFFFFFFFFFFFFFFFFFFFFFFFFFFFFF AND EQ DUP1 PUSH2 0x27D JUMPI POP PUSH1 0x1 PUSH0 SWAP1 SLOAD SWAP1 PUSH2 0x100 EXP SWAP1 DIV PUSH20 0xFFFFFFFFFFFFFFFFFFFFFFFFFFFFFFFFFFFFFFFF AND PUSH20 0xFFFFFFFFFFFFFFFFFFFFFFFFFFFFFFFFFFFFFFFF AND CALLER PUSH20 0xFFFFFFFFFFFFFFFFFFFFFFFFFFFFFFFFFFFFFFFF AND EQ JUMPDEST PUSH2 0x2BC JUMPI PUSH1 0x40 MLOAD PUSH32 0x8C379A000000000000000000000000000000000000000000000000000000000 DUP2 MSTORE PUSH1 0x4 ADD PUSH2 0x2B3 SWAP1 PUSH2 0xCB2 JUMP JUMPDEST PUSH1 0x40 MLOAD DUP1 SWAP2 SUB SWAP1 REVERT JUMPDEST DUP1 PUSH1 0x1 PUSH0 PUSH2 0x100 EXP DUP2 SLOAD DUP2 PUSH20 0xFFFFFFFFFFFFFFFFFFFFFFFFFFFFFFFFFFFFFFFF MUL NOT AND SWAP1 DUP4 PUSH20 0xFFFFFFFFFFFFFFFFFFFFFFFFFFFFFFFFFFFFFFFF AND MUL OR SWAP1 SSTORE POP POP JUMP JUMPDEST PUSH32 0x0 PUSH20 0xFFFFFFFFFFFFFFFFFFFFFFFFFFFFFFFFFFFFFFFF AND CALLER PUSH20 0xFFFFFFFFFFFFFFFFFFFFFFFFFFFFFFFFFFFFFFFF AND EQ PUSH2 0x3B1 JUMPI CALLER PUSH32 0x0 PUSH1 0x40 MLOAD PUSH32 0x1CF993F400000000000000000000000000000000000000000000000000000000 DUP2 MSTORE PUSH1 0x4 ADD PUSH2 0x3A8 SWAP3 SWAP2 SWAP1 PUSH2 0xCD0 JUMP JUMPDEST PUSH1 0x40 MLOAD DUP1 SWAP2 SUB SWAP1 REVERT JUMPDEST PUSH2 0x3BB DUP3 DUP3 PUSH2 0x706 JUMP JUMPDEST POP POP JUMP JUMPDEST PUSH0 PUSH1 0x2 PUSH0 SWAP1 SLOAD SWAP1 PUSH2 0x100 EXP SWAP1 DIV PUSH20 0xFFFFFFFFFFFFFFFFFFFFFFFFFFFFFFFFFFFFFFFF AND PUSH20 0xFFFFFFFFFFFFFFFFFFFFFFFFFFFFFFFFFFFFFFFF AND CALLER PUSH20 0xFFFFFFFFFFFFFFFFFFFFFFFFFFFFFFFFFFFFFFFF AND EQ DUP1 PUSH2 0x467 JUMPI POP PUSH1 0x1 PUSH0 SWAP1 SLOAD SWAP1 PUSH2 0x100 EXP SWAP1 DIV PUSH20 0xFFFFFFFFFFFFFFFFFFFFFFFFFFFFFFFFFFFFFFFF AND PUSH20 0xFFFFFFFFFFFFFFFFFFFFFFFFFFFFFFFFFFFFFFFF AND CALLER PUSH20 0xFFFFFFFFFFFFFFFFFFFFFFFFFFFFFFFFFFFFFFFF AND EQ JUMPDEST PUSH2 0x4A6 JUMPI PUSH1 0x40 MLOAD PUSH32 0x8C379A000000000000000000000000000000000000000000000000000000000 DUP2 MSTORE PUSH1 0x4 ADD PUSH2 0x49D SWAP1 PUSH2 0xCB2 JUMP JUMPDEST PUSH1 0x40 MLOAD DUP1 SWAP2 SUB SWAP1 REVERT JUMPDEST PUSH1 0x3 PUSH0 SWAP1 SLOAD SWAP1 PUSH2 0x100 EXP SWAP1 DIV PUSH20 0xFFFFFFFFFFFFFFFFFFFFFFFFFFFFFFFFFFFFFFFF AND PUSH20 0xFFFFFFFFFFFFFFFFFFFFFFFFFFFFFFFFFFFFFFFF AND PUSH4 0x2F34077B DUP7 DUP7 DUP7 DUP7 PUSH1 0x40 MLOAD DUP6 PUSH4 0xFFFFFFFF AND PUSH1 0xE0 SHL DUP2 MSTORE PUSH1 0x4 ADD PUSH2 0x506 SWAP5 SWAP4 SWAP3 SWAP2 SWAP1 PUSH2 0xD24 JUMP JUMPDEST PUSH1 0x20 PUSH1 0x40 MLOAD DUP1 DUP4 SUB DUP2 PUSH0 DUP8 GAS CALL ISZERO DUP1 ISZERO PUSH2 0x522 JUMPI RETURNDATASIZE PUSH0 PUSH0 RETURNDATACOPY RETURNDATASIZE PUSH0 REVERT JUMPDEST POP POP POP POP PUSH1 0x40 MLOAD RETURNDATASIZE PUSH1 0x1F NOT PUSH1 0x1F DUP3 ADD AND DUP3 ADD DUP1 PUSH1 0x40 MSTORE POP DUP2 ADD SWAP1 PUSH2 0x546 SWAP2 SWAP1 PUSH2 0xD7B JUMP JUMPDEST SWAP1 POP SWAP5 SWAP4 POP POP POP POP JUMP JUMPDEST PUSH1 0x1 PUSH0 SWAP1 SLOAD SWAP1 PUSH2 0x100 EXP SWAP1 DIV PUSH20 0xFFFFFFFFFFFFFFFFFFFFFFFFFFFFFFFFFFFFFFFF AND DUP2 JUMP JUMPDEST PUSH1 0x60 PUSH1 0x2 PUSH0 SWAP1 SLOAD SWAP1 PUSH2 0x100 EXP SWAP1 DIV PUSH20 0xFFFFFFFFFFFFFFFFFFFFFFFFFFFFFFFFFFFFFFFF AND PUSH20 0xFFFFFFFFFFFFFFFFFFFFFFFFFFFFFFFFFFFFFFFF AND CALLER PUSH20 0xFFFFFFFFFFFFFFFFFFFFFFFFFFFFFFFFFFFFFFFF AND EQ DUP1 PUSH2 0x61E JUMPI POP PUSH1 0x1 PUSH0 SWAP1 SLOAD SWAP1 PUSH2 0x100 EXP SWAP1 DIV PUSH20 0xFFFFFFFFFFFFFFFFFFFFFFFFFFFFFFFFFFFFFFFF AND PUSH20 0xFFFFFFFFFFFFFFFFFFFFFFFFFFFFFFFFFFFFFFFF AND CALLER PUSH20 0xFFFFFFFFFFFFFFFFFFFFFFFFFFFFFFFFFFFFFFFF AND EQ JUMPDEST PUSH2 0x65D JUMPI PUSH1 0x40 MLOAD PUSH32 0x8C379A000000000000000000000000000000000000000000000000000000000 DUP2 MSTORE PUSH1 0x4 ADD PUSH2 0x654 SWAP1 PUSH2 0xCB2 JUMP JUMPDEST PUSH1 0x40 MLOAD DUP1 SWAP2 SUB SWAP1 REVERT JUMPDEST PUSH2 0x669 DUP6 DUP6 DUP6 DUP6 PUSH2 0x3BF JUMP JUMPDEST POP PUSH0 DUP1 SLOAD DUP1 PUSH1 0x20 MUL PUSH1 0x20 ADD PUSH1 0x40 MLOAD SWAP1 DUP2 ADD PUSH1 0x40 MSTORE DUP1 SWAP3 SWAP2 SWAP1 DUP2 DUP2 MSTORE PUSH1 0x20 ADD DUP3 DUP1 SLOAD DUP1 ISZERO PUSH2 0x6B3 JUMPI PUSH1 0x20 MUL DUP3 ADD SWAP2 SWAP1 PUSH0 MSTORE PUSH1 0x20 PUSH0 KECCAK256 SWAP1 JUMPDEST DUP2 SLOAD DUP2 MSTORE PUSH1 0x20 ADD SWAP1 PUSH1 0x1 ADD SWAP1 DUP1 DUP4 GT PUSH2 0x69F JUMPI JUMPDEST POP POP POP POP POP SWAP1 POP SWAP5 SWAP4 POP POP POP POP JUMP JUMPDEST PUSH1 0x2 PUSH0 SWAP1 SLOAD SWAP1 PUSH2 0x100 EXP SWAP1 DIV PUSH20 0xFFFFFFFFFFFFFFFFFFFFFFFFFFFFFFFFFFFFFFFF AND DUP2 JUMP JUMPDEST PUSH0 DUP2 DUP2 SLOAD DUP2 LT PUSH2 0x6F5 JUMPI PUSH0 DUP1 REVERT JUMPDEST SWAP1 PUSH0 MSTORE PUSH1 0x20 PUSH0 KECCAK256 ADD PUSH0 SWAP2 POP SWAP1 POP SLOAD DUP2 JUMP JUMPDEST DUP1 PUSH0 SWAP1 DUP1 MLOAD SWAP1 PUSH1 0x20 ADD SWAP1 PUSH2 0x71B SWAP3 SWAP2 SWAP1 PUSH2 0x720 JUMP JUMPDEST POP POP POP JUMP JUMPDEST DUP3 DUP1 SLOAD DUP3 DUP3 SSTORE SWAP1 PUSH0 MSTORE PUSH1 0x20 PUSH0 KECCAK256 SWAP1 DUP2 ADD SWAP3 DUP3 ISZERO PUSH2 0x75A JUMPI SWAP2 PUSH1 0x20 MUL DUP3 ADD JUMPDEST DUP3 DUP2 GT ISZERO PUSH2 0x759 JUMPI DUP3 MLOAD DUP3 SSTORE SWAP2 PUSH1 0x20 ADD SWAP2 SWAP1 PUSH1 0x1 ADD SWAP1 PUSH2 0x73E JUMP JUMPDEST JUMPDEST POP SWAP1 POP PUSH2 0x767 SWAP2 SWAP1 PUSH2 0x76B JUMP JUMPDEST POP SWAP1 JUMP JUMPDEST JUMPDEST DUP1 DUP3 GT ISZERO PUSH2 0x782 JUMPI PUSH0 DUP2 PUSH0 SWAP1 SSTORE POP PUSH1 0x1 ADD PUSH2 0x76C JUMP JUMPDEST POP SWAP1 JUMP JUMPDEST PUSH0 PUSH1 0x40 MLOAD SWAP1 POP SWAP1 JUMP JUMPDEST PUSH0 PUSH0 REVERT JUMPDEST PUSH0 PUSH0 REVERT JUMPDEST PUSH0 PUSH20 0xFFFFFFFFFFFFFFFFFFFFFFFFFFFFFFFFFFFFFFFF DUP3 AND SWAP1 POP SWAP2 SWAP1 POP JUMP JUMPDEST PUSH0 PUSH2 0x7C0 DUP3 PUSH2 0x797 JUMP JUMPDEST SWAP1 POP SWAP2 SWAP1 POP JUMP JUMPDEST PUSH2 0x7D0 DUP2 PUSH2 0x7B6 JUMP JUMPDEST DUP2 EQ PUSH2 0x7DA JUMPI PUSH0 PUSH0 REVERT JUMPDEST POP JUMP JUMPDEST PUSH0 DUP2 CALLDATALOAD SWAP1 POP PUSH2 0x7EB DUP2 PUSH2 0x7C7 JUMP JUMPDEST SWAP3 SWAP2 POP POP JUMP JUMPDEST PUSH0 PUSH1 0x20 DUP3 DUP5 SUB SLT ISZERO PUSH2 0x806 JUMPI PUSH2 0x805 PUSH2 0x78F JUMP JUMPDEST JUMPDEST PUSH0 PUSH2 0x813 DUP5 DUP3 DUP6 ADD PUSH2 0x7DD JUMP JUMPDEST SWAP2 POP POP SWAP3 SWAP2 POP POP JUMP JUMPDEST PUSH0 DUP2 SWAP1 POP SWAP2 SWAP1 POP JUMP JUMPDEST PUSH2 0x82E DUP2 PUSH2 0x81C JUMP JUMPDEST DUP2 EQ PUSH2 0x838 JUMPI PUSH0 PUSH0 REVERT JUMPDEST POP JUMP JUMPDEST PUSH0 DUP2 CALLDATALOAD SWAP1 POP PUSH2 0x849 DUP2 PUSH2 0x825 JUMP JUMPDEST SWAP3 SWAP2 POP POP JUMP JUMPDEST PUSH0 PUSH0 REVERT JUMPDEST PUSH0 PUSH1 0x1F NOT PUSH1 0x1F DUP4 ADD AND SWAP1 POP SWAP2 SWAP1 POP JUMP JUMPDEST PUSH32 0x4E487B7100000000000000000000000000000000000000000000000000000000 PUSH0 MSTORE PUSH1 0x41 PUSH1 0x4 MSTORE PUSH1 0x24 PUSH0 REVERT JUMPDEST PUSH2 0x899 DUP3 PUSH2 0x853 JUMP JUMPDEST DUP2 ADD DUP2 DUP2 LT PUSH8 0xFFFFFFFFFFFFFFFF DUP3 GT OR ISZERO PUSH2 0x8B8 JUMPI PUSH2 0x8B7 PUSH2 0x863 JUMP JUMPDEST JUMPDEST DUP1 PUSH1 0x40 MSTORE POP POP POP JUMP JUMPDEST PUSH0 PUSH2 0x8CA PUSH2 0x786 JUMP JUMPDEST SWAP1 POP PUSH2 0x8D6 DUP3 DUP3 PUSH2 0x890 JUMP JUMPDEST SWAP2 SWAP1 POP JUMP JUMPDEST PUSH0 PUSH8 0xFFFFFFFFFFFFFFFF DUP3 GT ISZERO PUSH2 0x8F5 JUMPI PUSH2 0x8F4 PUSH2 0x863 JUMP JUMPDEST JUMPDEST PUSH1 0x20 DUP3 MUL SWAP1 POP PUSH1 0x20 DUP2 ADD SWAP1 POP SWAP2 SWAP1 POP JUMP JUMPDEST PUSH0 PUSH0 REVERT JUMPDEST PUSH0 PUSH2 0x91C PUSH2 0x917 DUP5 PUSH2 0x8DB JUMP JUMPDEST PUSH2 0x8C1 JUMP JUMPDEST SWAP1 POP DUP1 DUP4 DUP3 MSTORE PUSH1 0x20 DUP3 ADD SWAP1 POP PUSH1 0x20 DUP5 MUL DUP4 ADD DUP6 DUP2 GT ISZERO PUSH2 0x93F JUMPI PUSH2 0x93E PUSH2 0x906 JUMP JUMPDEST JUMPDEST DUP4 JUMPDEST DUP2 DUP2 LT ISZERO PUSH2 0x968 JUMPI DUP1 PUSH2 0x954 DUP9 DUP3 PUSH2 0x83B JUMP JUMPDEST DUP5 MSTORE PUSH1 0x20 DUP5 ADD SWAP4 POP POP PUSH1 0x20 DUP2 ADD SWAP1 POP PUSH2 0x941 JUMP JUMPDEST POP POP POP SWAP4 SWAP3 POP POP POP JUMP JUMPDEST PUSH0 DUP3 PUSH1 0x1F DUP4 ADD SLT PUSH2 0x986 JUMPI PUSH2 0x985 PUSH2 0x84F JUMP JUMPDEST JUMPDEST DUP2 CALLDATALOAD PUSH2 0x996 DUP5 DUP3 PUSH1 0x20 DUP7 ADD PUSH2 0x90A JUMP JUMPDEST SWAP2 POP POP SWAP3 SWAP2 POP POP JUMP JUMPDEST PUSH0 PUSH0 PUSH1 0x40 DUP4 DUP6 SUB SLT ISZERO PUSH2 0x9B5 JUMPI PUSH2 0x9B4 PUSH2 0x78F JUMP JUMPDEST JUMPDEST PUSH0 PUSH2 0x9C2 DUP6 DUP3 DUP7 ADD PUSH2 0x83B JUMP JUMPDEST SWAP3 POP POP PUSH1 0x20 DUP4 ADD CALLDATALOAD PUSH8 0xFFFFFFFFFFFFFFFF DUP2 GT ISZERO PUSH2 0x9E3 JUMPI PUSH2 0x9E2 PUSH2 0x793 JUMP JUMPDEST JUMPDEST PUSH2 0x9EF DUP6 DUP3 DUP7 ADD PUSH2 0x972 JUMP JUMPDEST SWAP2 POP POP SWAP3 POP SWAP3 SWAP1 POP JUMP JUMPDEST PUSH0 DUP2 SWAP1 POP SWAP2 SWAP1 POP JUMP JUMPDEST PUSH2 0xA0B DUP2 PUSH2 0x9F9 JUMP JUMPDEST DUP2 EQ PUSH2 0xA15 JUMPI PUSH0 PUSH0 REVERT JUMPDEST POP JUMP JUMPDEST PUSH0 DUP2 CALLDATALOAD SWAP1 POP PUSH2 0xA26 DUP2 PUSH2 0xA02 JUMP JUMPDEST SWAP3 SWAP2 POP POP JUMP JUMPDEST PUSH0 PUSH8 0xFFFFFFFFFFFFFFFF DUP3 AND SWAP1 POP SWAP2 SWAP1 POP JUMP JUMPDEST PUSH2 0xA48 DUP2 PUSH2 0xA2C JUMP JUMPDEST DUP2 EQ PUSH2 0xA52 JUMPI PUSH0 PUSH0 REVERT JUMPDEST POP JUMP JUMPDEST PUSH0 DUP2 CALLDATALOAD SWAP1 POP PUSH2 0xA63 DUP2 PUSH2 0xA3F JUMP JUMPDEST SWAP3 SWAP2 POP POP JUMP JUMPDEST PUSH0 PUSH4 0xFFFFFFFF DUP3 AND SWAP1 POP SWAP2 SWAP1 POP JUMP JUMPDEST PUSH2 0xA81 DUP2 PUSH2 0xA69 JUMP JUMPDEST DUP2 EQ PUSH2 0xA8B JUMPI PUSH0 PUSH0 REVERT JUMPDEST POP JUMP JUMPDEST PUSH0 DUP2 CALLDATALOAD SWAP1 POP PUSH2 0xA9C DUP2 PUSH2 0xA78 JUMP JUMPDEST SWAP3 SWAP2 POP POP JUMP JUMPDEST PUSH0 PUSH0 PUSH0 PUSH0 PUSH1 0x80 DUP6 DUP8 SUB SLT ISZERO PUSH2 0xABA JUMPI PUSH2 0xAB9 PUSH2 0x78F JUMP JUMPDEST JUMPDEST PUSH0 PUSH2 0xAC7 DUP8 DUP3 DUP9 ADD PUSH2 0xA18 JUMP JUMPDEST SWAP5 POP POP PUSH1 0x20 PUSH2 0xAD8 DUP8 DUP3 DUP9 ADD PUSH2 0xA55 JUMP JUMPDEST SWAP4 POP POP PUSH1 0x40 PUSH2 0xAE9 DUP8 DUP3 DUP9 ADD PUSH2 0xA8E JUMP JUMPDEST SWAP3 POP POP PUSH1 0x60 PUSH2 0xAFA DUP8 DUP3 DUP9 ADD PUSH2 0xA8E JUMP JUMPDEST SWAP2 POP POP SWAP3 SWAP6 SWAP2 SWAP5 POP SWAP3 POP JUMP JUMPDEST PUSH2 0xB0F DUP2 PUSH2 0x81C JUMP JUMPDEST DUP3 MSTORE POP POP JUMP JUMPDEST PUSH0 PUSH1 0x20 DUP3 ADD SWAP1 POP PUSH2 0xB28 PUSH0 DUP4 ADD DUP5 PUSH2 0xB06 JUMP JUMPDEST SWAP3 SWAP2 POP POP JUMP JUMPDEST PUSH2 0xB37 DUP2 PUSH2 0x7B6 JUMP JUMPDEST DUP3 MSTORE POP POP JUMP JUMPDEST PUSH0 PUSH1 0x20 DUP3 ADD SWAP1 POP PUSH2 0xB50 PUSH0 DUP4 ADD DUP5 PUSH2 0xB2E JUMP JUMPDEST SWAP3 SWAP2 POP POP JUMP JUMPDEST PUSH0 DUP2 MLOAD SWAP1 POP SWAP2 SWAP1 POP JUMP JUMPDEST PUSH0 DUP3 DUP3 MSTORE PUSH1 0x20 DUP3 ADD SWAP1 POP SWAP3 SWAP2 POP POP JUMP JUMPDEST PUSH0 DUP2 SWAP1 POP PUSH1 0x20 DUP3 ADD SWAP1 POP SWAP2 SWAP1 POP JUMP JUMPDEST PUSH2 0xB88 DUP2 PUSH2 0x81C JUMP JUMPDEST DUP3 MSTORE POP POP JUMP JUMPDEST PUSH0 PUSH2 0xB99 DUP4 DUP4 PUSH2 0xB7F JUMP JUMPDEST PUSH1 0x20 DUP4 ADD SWAP1 POP SWAP3 SWAP2 POP POP JUMP JUMPDEST PUSH0 PUSH1 0x20 DUP3 ADD SWAP1 POP SWAP2 SWAP1 POP JUMP JUMPDEST PUSH0 PUSH2 0xBBB DUP3 PUSH2 0xB56 JUMP JUMPDEST PUSH2 0xBC5 DUP2 DUP6 PUSH2 0xB60 JUMP JUMPDEST SWAP4 POP PUSH2 0xBD0 DUP4 PUSH2 0xB70 JUMP JUMPDEST DUP1 PUSH0 JUMPDEST DUP4 DUP2 LT ISZERO PUSH2 0xC00 JUMPI DUP2 MLOAD PUSH2 0xBE7 DUP9 DUP3 PUSH2 0xB8E JUMP JUMPDEST SWAP8 POP PUSH2 0xBF2 DUP4 PUSH2 0xBA5 JUMP JUMPDEST SWAP3 POP POP PUSH1 0x1 DUP2 ADD SWAP1 POP PUSH2 0xBD3 JUMP JUMPDEST POP DUP6 SWAP4 POP POP POP POP SWAP3 SWAP2 POP POP JUMP JUMPDEST PUSH0 PUSH1 0x20 DUP3 ADD SWAP1 POP DUP2 DUP2 SUB PUSH0 DUP4 ADD MSTORE PUSH2 0xC25 DUP2 DUP5 PUSH2 0xBB1 JUMP JUMPDEST SWAP1 POP SWAP3 SWAP2 POP POP JUMP JUMPDEST PUSH0 PUSH1 0x20 DUP3 DUP5 SUB SLT ISZERO PUSH2 0xC42 JUMPI PUSH2 0xC41 PUSH2 0x78F JUMP JUMPDEST JUMPDEST PUSH0 PUSH2 0xC4F DUP5 DUP3 DUP6 ADD PUSH2 0x83B JUMP JUMPDEST SWAP2 POP POP SWAP3 SWAP2 POP POP JUMP JUMPDEST PUSH0 DUP3 DUP3 MSTORE PUSH1 0x20 DUP3 ADD SWAP1 POP SWAP3 SWAP2 POP POP JUMP JUMPDEST PUSH32 0x6E6F74206F776E65720000000000000000000000000000000000000000000000 PUSH0 DUP3 ADD MSTORE POP JUMP JUMPDEST PUSH0 PUSH2 0xC9C PUSH1 0x9 DUP4 PUSH2 0xC58 JUMP JUMPDEST SWAP2 POP PUSH2 0xCA7 DUP3 PUSH2 0xC68 JUMP JUMPDEST PUSH1 0x20 DUP3 ADD SWAP1 POP SWAP2 SWAP1 POP JUMP JUMPDEST PUSH0 PUSH1 0x20 DUP3 ADD SWAP1 POP DUP2 DUP2 SUB PUSH0 DUP4 ADD MSTORE PUSH2 0xCC9 DUP2 PUSH2 0xC90 JUMP JUMPDEST SWAP1 POP SWAP2 SWAP1 POP JUMP JUMPDEST PUSH0 PUSH1 0x40 DUP3 ADD SWAP1 POP PUSH2 0xCE3 PUSH0 DUP4 ADD DUP6 PUSH2 0xB2E JUMP JUMPDEST PUSH2 0xCF0 PUSH1 0x20 DUP4 ADD DUP5 PUSH2 0xB2E JUMP JUMPDEST SWAP4 SWAP3 POP POP POP JUMP JUMPDEST PUSH2 0xD00 DUP2 PUSH2 0x9F9 JUMP JUMPDEST DUP3 MSTORE POP POP JUMP JUMPDEST PUSH2 0xD0F DUP2 PUSH2 0xA2C JUMP JUMPDEST DUP3 MSTORE POP POP JUMP JUMPDEST PUSH2 0xD1E DUP2 PUSH2 0xA69 JUMP JUMPDEST DUP3 MSTORE POP POP JUMP JUMPDEST PUSH0 PUSH1 0x80 DUP3 ADD SWAP1 POP PUSH2 0xD37 PUSH0 DUP4 ADD DUP8 PUSH2 0xCF7 JUMP JUMPDEST PUSH2 0xD44 PUSH1 0x20 DUP4 ADD DUP7 PUSH2 0xD06 JUMP JUMPDEST PUSH2 0xD51 PUSH1 0x40 DUP4 ADD DUP6 PUSH2 0xD15 JUMP JUMPDEST PUSH2 0xD5E PUSH1 0x60 DUP4 ADD DUP5 PUSH2 0xD15 JUMP JUMPDEST SWAP6 SWAP5 POP POP POP POP POP JUMP JUMPDEST PUSH0 DUP2 MLOAD SWAP1 POP PUSH2 0xD75 DUP2 PUSH2 0x825 JUMP JUMPDEST SWAP3 SWAP2 POP POP JUMP JUMPDEST PUSH0 PUSH1 0x20 DUP3 DUP5 SUB SLT ISZERO PUSH2 0xD90 JUMPI PUSH2 0xD8F PUSH2 0x78F JUMP JUMPDEST JUMPDEST PUSH0 PUSH2 0xD9D DUP5 DUP3 DUP6 ADD PUSH2 0xD67 JUMP JUMPDEST SWAP2 POP POP SWAP3 SWAP2 POP POP JUMP INVALID LOG2 PUSH5 0x6970667358 0x22 SLT KECCAK256 SHL PUSH26 0x48D4EA8E0DBCE7F9499BF4F019D4463F2D101795F5AA1C907F57 LOG4 0xBA 0xC5 0x2F PUSH5 0x736F6C6343 STOP ADDMOD SHL STOP CALLER "
				},
				"gasEstimates": {
					"creation": {
						"codeDepositCost": "709600",
						"executionCost": "infinite",
						"totalCost": "infinite"
					},
					"external": {
						"VRFCall(bytes32,uint64,uint32,uint32)": "infinite",
						"diamondContract()": "2508",
						"editDiamond(address)": "29059",
						"rawFulfillRandomWords(uint256,uint256[])": "infinite",
						"requestRandomWords(bytes32,uint64,uint32,uint32)": "infinite",
						"sOwner()": "2552",
						"sRandomWords(uint256)": "infinite"
					},
					"internal": {
						"fulfillRandomWords(uint256,uint256[] memory)": "infinite"
					}
				},
				"methodIdentifiers": {
					"VRFCall(bytes32,uint64,uint32,uint32)": "7007bf8b",
					"diamondContract()": "6a76dd76",
					"editDiamond(address)": "162b3762",
					"rawFulfillRandomWords(uint256,uint256[])": "1fe543e3",
					"requestRandomWords(bytes32,uint64,uint32,uint32)": "2f34077b",
					"sOwner()": "d73e3f3e",
					"sRandomWords(uint256)": "f5df3fd4"
				}
			},
			"storageLayout": {
				"storage": [
					{
						"astId": 205,
						"contract": "contracts/shared/utils/oraklVRF.sol:VRFConsumer",
						"label": "sRandomWords",
						"offset": 0,
						"slot": "0",
						"type": "t_array(t_uint256)dyn_storage"
					},
					{
						"astId": 207,
						"contract": "contracts/shared/utils/oraklVRF.sol:VRFConsumer",
						"label": "diamondContract",
						"offset": 0,
						"slot": "1",
						"type": "t_address"
					},
					{
						"astId": 209,
						"contract": "contracts/shared/utils/oraklVRF.sol:VRFConsumer",
						"label": "sOwner",
						"offset": 0,
						"slot": "2",
						"type": "t_address"
					},
					{
						"astId": 212,
						"contract": "contracts/shared/utils/oraklVRF.sol:VRFConsumer",
						"label": "COORDINATOR",
						"offset": 0,
						"slot": "3",
						"type": "t_contract(IVRFCoordinator)143"
					}
				],
				"types": {
					"t_address": {
						"encoding": "inplace",
						"label": "address",
						"numberOfBytes": "20"
					},
					"t_array(t_uint256)dyn_storage": {
						"base": "t_uint256",
						"encoding": "dynamic_array",
						"label": "uint256[]",
						"numberOfBytes": "32"
					},
					"t_contract(IVRFCoordinator)143": {
						"encoding": "inplace",
						"label": "contract IVRFCoordinator",
						"numberOfBytes": "20"
					},
					"t_uint256": {
						"encoding": "inplace",
						"label": "uint256",
						"numberOfBytes": "32"
					}
				}
			},
			"userdoc": {
				"kind": "user",
				"methods": {
					"rawFulfillRandomWords(uint256,uint256[])": {
						"notice": "rawFulfillRandomWords is called by VRFCoordinator when itreceives a valid VRF proof. rawFulfillRandomWords then callsfulfillRandomWords, after validating the origin of the call"
					}
				},
				"version": 1
			}
		}
	}
}