{
	"contracts/shared/utils/oraklContract.sol": {
		"VRFConsumer": {
			"abi": [
				{
					"inputs": [
						{
							"internalType": "address",
							"name": "coordinator",
							"type": "address"
						},
						{
							"internalType": "address",
							"name": "_diamond",
							"type": "address"
						}
					],
					"stateMutability": "nonpayable",
					"type": "constructor"
				},
				{
					"inputs": [
						{
							"internalType": "address",
							"name": "have",
							"type": "address"
						},
						{
							"internalType": "address",
							"name": "want",
							"type": "address"
						}
					],
					"name": "OnlyCoordinatorCanFulfill",
					"type": "error"
				},
				{
					"inputs": [
						{
							"internalType": "bytes32",
							"name": "keyHash",
							"type": "bytes32"
						},
						{
							"internalType": "uint64",
							"name": "accId",
							"type": "uint64"
						},
						{
							"internalType": "uint32",
							"name": "callbackGasLimit",
							"type": "uint32"
						},
						{
							"internalType": "uint32",
							"name": "numWords",
							"type": "uint32"
						}
					],
					"name": "VRFCall",
					"outputs": [],
					"stateMutability": "nonpayable",
					"type": "function"
				},
				{
					"inputs": [
						{
							"internalType": "uint256",
							"name": "_min",
							"type": "uint256"
						},
						{
							"internalType": "uint256",
							"name": "_max",
							"type": "uint256"
						}
					],
					"name": "getLastRandomWords",
					"outputs": [
						{
							"internalType": "uint256[]",
							"name": "",
							"type": "uint256[]"
						}
					],
					"stateMutability": "view",
					"type": "function"
				},
				{
					"inputs": [
						{
							"internalType": "uint256",
							"name": "requestId",
							"type": "uint256"
						},
						{
							"internalType": "uint256[]",
							"name": "randomWords",
							"type": "uint256[]"
						}
					],
					"name": "rawFulfillRandomWords",
					"outputs": [],
					"stateMutability": "nonpayable",
					"type": "function"
				},
				{
					"inputs": [
						{
							"internalType": "bytes32",
							"name": "keyHash",
							"type": "bytes32"
						},
						{
							"internalType": "uint64",
							"name": "accId",
							"type": "uint64"
						},
						{
							"internalType": "uint32",
							"name": "callbackGasLimit",
							"type": "uint32"
						},
						{
							"internalType": "uint32",
							"name": "numWords",
							"type": "uint32"
						}
					],
					"name": "requestRandomWords",
					"outputs": [
						{
							"internalType": "uint256",
							"name": "requestId",
							"type": "uint256"
						}
					],
					"stateMutability": "nonpayable",
					"type": "function"
				},
				{
					"inputs": [
						{
							"internalType": "uint256",
							"name": "",
							"type": "uint256"
						}
					],
					"name": "sRandomWords",
					"outputs": [
						{
							"internalType": "uint256",
							"name": "",
							"type": "uint256"
						}
					],
					"stateMutability": "view",
					"type": "function"
				},
				{
					"stateMutability": "payable",
					"type": "receive"
				}
			],
			"devdoc": {
				"kind": "dev",
				"methods": {
					"rawFulfillRandomWords(uint256,uint256[])": {
						"params": {
							"randomWords": "the VRF output expanded to the requested number of words",
							"requestId": "The Id initially returned by requestRandomWords"
						}
					}
				},
				"version": 1
			},
			"evm": {
				"assembly": "    /* \"contracts/shared/utils/oraklContract.sol\":244:2026  contract VRFConsumer is VRFConsumerBase {... */\n  mstore(0x40, 0xa0)\n    /* \"contracts/shared/utils/oraklContract.sol\":589:815  constructor(... */\n  callvalue\n  dup1\n  iszero\n  tag_1\n  jumpi\n  0x00\n  dup1\n  revert\ntag_1:\n  pop\n  mload(0x40)\n  sub(codesize, bytecodeSize)\n  dup1\n  bytecodeSize\n  dup4\n  codecopy\n  dup2\n  dup2\n  add\n  0x40\n  mstore\n  dup2\n  add\n  swap1\n  tag_2\n  swap2\n  swap1\n  tag_3\n  jump\t// in\ntag_2:\n    /* \"contracts/shared/utils/oraklContract.sol\":678:689  coordinator */\n  dup2\n    /* \"@bisonai/orakl-contracts/v0.1/src/VRFConsumerBase.sol\":5680:5695  _vrfCoordinator */\n  dup1\n    /* \"@bisonai/orakl-contracts/v0.1/src/VRFConsumerBase.sol\":5663:5695  vrfCoordinator = _vrfCoordinator */\n  0xffffffffffffffffffffffffffffffffffffffff\n  and\n  0x80\n  dup2\n  0xffffffffffffffffffffffffffffffffffffffff\n  and\n  dup2\n  mstore\n  pop\n  pop\n    /* \"@bisonai/orakl-contracts/v0.1/src/VRFConsumerBase.sol\":5616:5702  constructor(address _vrfCoordinator) {... */\n  pop\n    /* \"contracts/shared/utils/oraklContract.sol\":710:720  msg.sender */\n  caller\n    /* \"contracts/shared/utils/oraklContract.sol\":701:707  sOwner */\n  0x02\n  0x00\n    /* \"contracts/shared/utils/oraklContract.sol\":701:720  sOwner = msg.sender */\n  0x0100\n  exp\n  dup2\n  sload\n  dup2\n  0xffffffffffffffffffffffffffffffffffffffff\n  mul\n  not\n  and\n  swap1\n  dup4\n  0xffffffffffffffffffffffffffffffffffffffff\n  and\n  mul\n  or\n  swap1\n  sstore\n  pop\n    /* \"contracts/shared/utils/oraklContract.sol\":760:771  coordinator */\n  dup2\n    /* \"contracts/shared/utils/oraklContract.sol\":730:741  COORDINATOR */\n  0x03\n  0x00\n    /* \"contracts/shared/utils/oraklContract.sol\":730:772  COORDINATOR = IVRFCoordinator(coordinator) */\n  0x0100\n  exp\n  dup2\n  sload\n  dup2\n  0xffffffffffffffffffffffffffffffffffffffff\n  mul\n  not\n  and\n  swap1\n  dup4\n  0xffffffffffffffffffffffffffffffffffffffff\n  and\n  mul\n  or\n  swap1\n  sstore\n  pop\n    /* \"contracts/shared/utils/oraklContract.sol\":800:808  _diamond */\n  dup1\n    /* \"contracts/shared/utils/oraklContract.sol\":782:797  diamondContract */\n  0x01\n  0x00\n    /* \"contracts/shared/utils/oraklContract.sol\":782:808  diamondContract = _diamond */\n  0x0100\n  exp\n  dup2\n  sload\n  dup2\n  0xffffffffffffffffffffffffffffffffffffffff\n  mul\n  not\n  and\n  swap1\n  dup4\n  0xffffffffffffffffffffffffffffffffffffffff\n  and\n  mul\n  or\n  swap1\n  sstore\n  pop\n    /* \"contracts/shared/utils/oraklContract.sol\":589:815  constructor(... */\n  pop\n  pop\n    /* \"contracts/shared/utils/oraklContract.sol\":244:2026  contract VRFConsumer is VRFConsumerBase {... */\n  jump(tag_8)\n    /* \"#utility.yul\":88:205   */\ntag_10:\n    /* \"#utility.yul\":197:198   */\n  0x00\n    /* \"#utility.yul\":194:195   */\n  dup1\n    /* \"#utility.yul\":187:199   */\n  revert\n    /* \"#utility.yul\":334:460   */\ntag_12:\n    /* \"#utility.yul\":371:378   */\n  0x00\n    /* \"#utility.yul\":411:453   */\n  0xffffffffffffffffffffffffffffffffffffffff\n    /* \"#utility.yul\":404:409   */\n  dup3\n    /* \"#utility.yul\":400:454   */\n  and\n    /* \"#utility.yul\":389:454   */\n  swap1\n  pop\n    /* \"#utility.yul\":334:460   */\n  swap2\n  swap1\n  pop\n  jump\t// out\n    /* \"#utility.yul\":466:562   */\ntag_13:\n    /* \"#utility.yul\":503:510   */\n  0x00\n    /* \"#utility.yul\":532:556   */\n  tag_22\n    /* \"#utility.yul\":550:555   */\n  dup3\n    /* \"#utility.yul\":532:556   */\n  tag_12\n  jump\t// in\ntag_22:\n    /* \"#utility.yul\":521:556   */\n  swap1\n  pop\n    /* \"#utility.yul\":466:562   */\n  swap2\n  swap1\n  pop\n  jump\t// out\n    /* \"#utility.yul\":568:690   */\ntag_14:\n    /* \"#utility.yul\":641:665   */\n  tag_24\n    /* \"#utility.yul\":659:664   */\n  dup2\n    /* \"#utility.yul\":641:665   */\n  tag_13\n  jump\t// in\ntag_24:\n    /* \"#utility.yul\":634:639   */\n  dup2\n    /* \"#utility.yul\":631:666   */\n  eq\n    /* \"#utility.yul\":621:684   */\n  tag_25\n  jumpi\n    /* \"#utility.yul\":680:681   */\n  0x00\n    /* \"#utility.yul\":677:678   */\n  dup1\n    /* \"#utility.yul\":670:682   */\n  revert\n    /* \"#utility.yul\":621:684   */\ntag_25:\n    /* \"#utility.yul\":568:690   */\n  pop\n  jump\t// out\n    /* \"#utility.yul\":696:839   */\ntag_15:\n    /* \"#utility.yul\":753:758   */\n  0x00\n    /* \"#utility.yul\":784:790   */\n  dup2\n    /* \"#utility.yul\":778:791   */\n  mload\n    /* \"#utility.yul\":769:791   */\n  swap1\n  pop\n    /* \"#utility.yul\":800:833   */\n  tag_27\n    /* \"#utility.yul\":827:832   */\n  dup2\n    /* \"#utility.yul\":800:833   */\n  tag_14\n  jump\t// in\ntag_27:\n    /* \"#utility.yul\":696:839   */\n  swap3\n  swap2\n  pop\n  pop\n  jump\t// out\n    /* \"#utility.yul\":845:1352   */\ntag_3:\n    /* \"#utility.yul\":924:930   */\n  0x00\n    /* \"#utility.yul\":932:938   */\n  dup1\n    /* \"#utility.yul\":981:983   */\n  0x40\n    /* \"#utility.yul\":969:978   */\n  dup4\n    /* \"#utility.yul\":960:967   */\n  dup6\n    /* \"#utility.yul\":956:979   */\n  sub\n    /* \"#utility.yul\":952:984   */\n  slt\n    /* \"#utility.yul\":949:1068   */\n  iszero\n  tag_29\n  jumpi\n    /* \"#utility.yul\":987:1066   */\n  tag_30\n  tag_10\n  jump\t// in\ntag_30:\n    /* \"#utility.yul\":949:1068   */\ntag_29:\n    /* \"#utility.yul\":1107:1108   */\n  0x00\n    /* \"#utility.yul\":1132:1196   */\n  tag_31\n    /* \"#utility.yul\":1188:1195   */\n  dup6\n    /* \"#utility.yul\":1179:1185   */\n  dup3\n    /* \"#utility.yul\":1168:1177   */\n  dup7\n    /* \"#utility.yul\":1164:1186   */\n  add\n    /* \"#utility.yul\":1132:1196   */\n  tag_15\n  jump\t// in\ntag_31:\n    /* \"#utility.yul\":1122:1196   */\n  swap3\n  pop\n    /* \"#utility.yul\":1078:1206   */\n  pop\n    /* \"#utility.yul\":1245:1247   */\n  0x20\n    /* \"#utility.yul\":1271:1335   */\n  tag_32\n    /* \"#utility.yul\":1327:1334   */\n  dup6\n    /* \"#utility.yul\":1318:1324   */\n  dup3\n    /* \"#utility.yul\":1307:1316   */\n  dup7\n    /* \"#utility.yul\":1303:1325   */\n  add\n    /* \"#utility.yul\":1271:1335   */\n  tag_15\n  jump\t// in\ntag_32:\n    /* \"#utility.yul\":1261:1335   */\n  swap2\n  pop\n    /* \"#utility.yul\":1216:1345   */\n  pop\n    /* \"#utility.yul\":845:1352   */\n  swap3\n  pop\n  swap3\n  swap1\n  pop\n  jump\t// out\n    /* \"contracts/shared/utils/oraklContract.sol\":244:2026  contract VRFConsumer is VRFConsumerBase {... */\ntag_8:\n  mload(0x80)\n  codecopy(0x00, dataOffset(sub_0), dataSize(sub_0))\n  0x00\n  assignImmutable(\"0x1a192fabce13988b84994d4296e6cdc418d55e2f1d7f942188d4040b94fc57ac\")\n  return(0x00, dataSize(sub_0))\nstop\n\nsub_0: assembly {\n        /* \"contracts/shared/utils/oraklContract.sol\":244:2026  contract VRFConsumer is VRFConsumerBase {... */\n      mstore(0x40, 0x80)\n      jumpi(tag_1, lt(calldatasize, 0x04))\n      shr(0xe0, calldataload(0x00))\n      dup1\n      0x1fe543e3\n      eq\n      tag_3\n      jumpi\n      dup1\n      0x2f34077b\n      eq\n      tag_4\n      jumpi\n      dup1\n      0x7007bf8b\n      eq\n      tag_5\n      jumpi\n      dup1\n      0xd6bf2b77\n      eq\n      tag_6\n      jumpi\n      dup1\n      0xf5df3fd4\n      eq\n      tag_7\n      jumpi\n      jump(tag_2)\n    tag_1:\n      jumpi(tag_2, calldatasize)\n      stop\n    tag_2:\n      0x00\n      dup1\n      revert\n        /* \"@bisonai/orakl-contracts/v0.1/src/VRFConsumerBase.sol\":6929:7205  function rawFulfillRandomWords(uint256 requestId, uint256[] memory randomWords) external {... */\n    tag_3:\n      callvalue\n      dup1\n      iszero\n      tag_10\n      jumpi\n      0x00\n      dup1\n      revert\n    tag_10:\n      pop\n      tag_11\n      0x04\n      dup1\n      calldatasize\n      sub\n      dup2\n      add\n      swap1\n      tag_12\n      swap2\n      swap1\n      tag_13\n      jump\t// in\n    tag_12:\n      tag_14\n      jump\t// in\n    tag_11:\n      stop\n        /* \"contracts/shared/utils/oraklContract.sol\":920:1265  function requestRandomWords(... */\n    tag_4:\n      callvalue\n      dup1\n      iszero\n      tag_15\n      jumpi\n      0x00\n      dup1\n      revert\n    tag_15:\n      pop\n      tag_16\n      0x04\n      dup1\n      calldatasize\n      sub\n      dup2\n      add\n      swap1\n      tag_17\n      swap2\n      swap1\n      tag_18\n      jump\t// in\n    tag_17:\n      tag_19\n      jump\t// in\n    tag_16:\n      mload(0x40)\n      tag_20\n      swap2\n      swap1\n      tag_21\n      jump\t// in\n    tag_20:\n      mload(0x40)\n      dup1\n      swap2\n      sub\n      swap1\n      return\n        /* \"contracts/shared/utils/oraklContract.sol\":1443:1667  function VRFCall(... */\n    tag_5:\n      callvalue\n      dup1\n      iszero\n      tag_22\n      jumpi\n      0x00\n      dup1\n      revert\n    tag_22:\n      pop\n      tag_23\n      0x04\n      dup1\n      calldatasize\n      sub\n      dup2\n      add\n      swap1\n      tag_24\n      swap2\n      swap1\n      tag_18\n      jump\t// in\n    tag_24:\n      tag_25\n      jump\t// in\n    tag_23:\n      stop\n        /* \"contracts/shared/utils/oraklContract.sol\":1673:2024  function getLastRandomWords(... */\n    tag_6:\n      callvalue\n      dup1\n      iszero\n      tag_26\n      jumpi\n      0x00\n      dup1\n      revert\n    tag_26:\n      pop\n      tag_27\n      0x04\n      dup1\n      calldatasize\n      sub\n      dup2\n      add\n      swap1\n      tag_28\n      swap2\n      swap1\n      tag_29\n      jump\t// in\n    tag_28:\n      tag_30\n      jump\t// in\n    tag_27:\n      mload(0x40)\n      tag_31\n      swap2\n      swap1\n      tag_32\n      jump\t// in\n    tag_31:\n      mload(0x40)\n      dup1\n      swap2\n      sub\n      swap1\n      return\n        /* \"contracts/shared/utils/oraklContract.sol\":290:319  uint256[] public sRandomWords */\n    tag_7:\n      callvalue\n      dup1\n      iszero\n      tag_33\n      jumpi\n      0x00\n      dup1\n      revert\n    tag_33:\n      pop\n      tag_34\n      0x04\n      dup1\n      calldatasize\n      sub\n      dup2\n      add\n      swap1\n      tag_35\n      swap2\n      swap1\n      tag_36\n      jump\t// in\n    tag_35:\n      tag_37\n      jump\t// in\n    tag_34:\n      mload(0x40)\n      tag_38\n      swap2\n      swap1\n      tag_21\n      jump\t// in\n    tag_38:\n      mload(0x40)\n      dup1\n      swap2\n      sub\n      swap1\n      return\n        /* \"@bisonai/orakl-contracts/v0.1/src/VRFConsumerBase.sol\":6929:7205  function rawFulfillRandomWords(uint256 requestId, uint256[] memory randomWords) external {... */\n    tag_14:\n        /* \"@bisonai/orakl-contracts/v0.1/src/VRFConsumerBase.sol\":7046:7060  vrfCoordinator */\n      immutable(\"0x1a192fabce13988b84994d4296e6cdc418d55e2f1d7f942188d4040b94fc57ac\")\n        /* \"@bisonai/orakl-contracts/v0.1/src/VRFConsumerBase.sol\":7032:7060  msg.sender != vrfCoordinator */\n      0xffffffffffffffffffffffffffffffffffffffff\n      and\n        /* \"@bisonai/orakl-contracts/v0.1/src/VRFConsumerBase.sol\":7032:7042  msg.sender */\n      caller\n        /* \"@bisonai/orakl-contracts/v0.1/src/VRFConsumerBase.sol\":7032:7060  msg.sender != vrfCoordinator */\n      0xffffffffffffffffffffffffffffffffffffffff\n      and\n      eq\n        /* \"@bisonai/orakl-contracts/v0.1/src/VRFConsumerBase.sol\":7028:7147  if (msg.sender != vrfCoordinator) {... */\n      tag_40\n      jumpi\n        /* \"@bisonai/orakl-contracts/v0.1/src/VRFConsumerBase.sol\":7109:7119  msg.sender */\n      caller\n        /* \"@bisonai/orakl-contracts/v0.1/src/VRFConsumerBase.sol\":7121:7135  vrfCoordinator */\n      immutable(\"0x1a192fabce13988b84994d4296e6cdc418d55e2f1d7f942188d4040b94fc57ac\")\n        /* \"@bisonai/orakl-contracts/v0.1/src/VRFConsumerBase.sol\":7083:7136  OnlyCoordinatorCanFulfill(msg.sender, vrfCoordinator) */\n      mload(0x40)\n      0x1cf993f400000000000000000000000000000000000000000000000000000000\n      dup2\n      mstore\n      0x04\n      add\n      tag_41\n      swap3\n      swap2\n      swap1\n      tag_42\n      jump\t// in\n    tag_41:\n      mload(0x40)\n      dup1\n      swap2\n      sub\n      swap1\n      revert\n        /* \"@bisonai/orakl-contracts/v0.1/src/VRFConsumerBase.sol\":7028:7147  if (msg.sender != vrfCoordinator) {... */\n    tag_40:\n        /* \"@bisonai/orakl-contracts/v0.1/src/VRFConsumerBase.sol\":7156:7198  fulfillRandomWords(requestId, randomWords) */\n      tag_43\n        /* \"@bisonai/orakl-contracts/v0.1/src/VRFConsumerBase.sol\":7175:7184  requestId */\n      dup3\n        /* \"@bisonai/orakl-contracts/v0.1/src/VRFConsumerBase.sol\":7186:7197  randomWords */\n      dup3\n        /* \"@bisonai/orakl-contracts/v0.1/src/VRFConsumerBase.sol\":7156:7174  fulfillRandomWords */\n      tag_44\n        /* \"@bisonai/orakl-contracts/v0.1/src/VRFConsumerBase.sol\":7156:7198  fulfillRandomWords(requestId, randomWords) */\n      jump\t// in\n    tag_43:\n        /* \"@bisonai/orakl-contracts/v0.1/src/VRFConsumerBase.sol\":6929:7205  function rawFulfillRandomWords(uint256 requestId, uint256[] memory randomWords) external {... */\n      pop\n      pop\n      jump\t// out\n        /* \"contracts/shared/utils/oraklContract.sol\":920:1265  function requestRandomWords(... */\n    tag_19:\n        /* \"contracts/shared/utils/oraklContract.sol\":1085:1102  uint256 requestId */\n      0x00\n        /* \"contracts/shared/utils/oraklContract.sol\":491:497  sOwner */\n      0x02\n      0x00\n      swap1\n      sload\n      swap1\n      0x0100\n      exp\n      swap1\n      div\n      0xffffffffffffffffffffffffffffffffffffffff\n      and\n        /* \"contracts/shared/utils/oraklContract.sol\":477:497  msg.sender == sOwner */\n      0xffffffffffffffffffffffffffffffffffffffff\n      and\n        /* \"contracts/shared/utils/oraklContract.sol\":477:487  msg.sender */\n      caller\n        /* \"contracts/shared/utils/oraklContract.sol\":477:497  msg.sender == sOwner */\n      0xffffffffffffffffffffffffffffffffffffffff\n      and\n      eq\n        /* \"contracts/shared/utils/oraklContract.sol\":477:530  msg.sender == sOwner || msg.sender == diamondContract */\n      dup1\n      tag_46\n      jumpi\n      pop\n        /* \"contracts/shared/utils/oraklContract.sol\":515:530  diamondContract */\n      0x01\n      0x00\n      swap1\n      sload\n      swap1\n      0x0100\n      exp\n      swap1\n      div\n      0xffffffffffffffffffffffffffffffffffffffff\n      and\n        /* \"contracts/shared/utils/oraklContract.sol\":501:530  msg.sender == diamondContract */\n      0xffffffffffffffffffffffffffffffffffffffff\n      and\n        /* \"contracts/shared/utils/oraklContract.sol\":501:511  msg.sender */\n      caller\n        /* \"contracts/shared/utils/oraklContract.sol\":501:530  msg.sender == diamondContract */\n      0xffffffffffffffffffffffffffffffffffffffff\n      and\n      eq\n        /* \"contracts/shared/utils/oraklContract.sol\":477:530  msg.sender == sOwner || msg.sender == diamondContract */\n    tag_46:\n        /* \"contracts/shared/utils/oraklContract.sol\":456:565  require(... */\n      tag_47\n      jumpi\n      mload(0x40)\n      0x08c379a000000000000000000000000000000000000000000000000000000000\n      dup2\n      mstore\n      0x04\n      add\n      tag_48\n      swap1\n      tag_49\n      jump\t// in\n    tag_48:\n      mload(0x40)\n      dup1\n      swap2\n      sub\n      swap1\n      revert\n    tag_47:\n        /* \"contracts/shared/utils/oraklContract.sol\":1126:1137  COORDINATOR */\n      0x03\n      0x00\n      swap1\n      sload\n      swap1\n      0x0100\n      exp\n      swap1\n      div\n      0xffffffffffffffffffffffffffffffffffffffff\n      and\n        /* \"contracts/shared/utils/oraklContract.sol\":1126:1156  COORDINATOR.requestRandomWords */\n      0xffffffffffffffffffffffffffffffffffffffff\n      and\n      0x2f34077b\n        /* \"contracts/shared/utils/oraklContract.sol\":1170:1177  keyHash */\n      dup7\n        /* \"contracts/shared/utils/oraklContract.sol\":1191:1196  accId */\n      dup7\n        /* \"contracts/shared/utils/oraklContract.sol\":1210:1226  callbackGasLimit */\n      dup7\n        /* \"contracts/shared/utils/oraklContract.sol\":1240:1248  numWords */\n      dup7\n        /* \"contracts/shared/utils/oraklContract.sol\":1126:1258  COORDINATOR.requestRandomWords(... */\n      mload(0x40)\n      dup6\n      0xffffffff\n      and\n      0xe0\n      shl\n      dup2\n      mstore\n      0x04\n      add\n      tag_51\n      swap5\n      swap4\n      swap3\n      swap2\n      swap1\n      tag_52\n      jump\t// in\n    tag_51:\n      0x20\n      mload(0x40)\n      dup1\n      dup4\n      sub\n      dup2\n      0x00\n      dup8\n      gas\n      call\n      iszero\n      dup1\n      iszero\n      tag_54\n      jumpi\n      returndatasize\n      0x00\n      dup1\n      returndatacopy\n      revert(0x00, returndatasize)\n    tag_54:\n      pop\n      pop\n      pop\n      pop\n      mload(0x40)\n      returndatasize\n      not(0x1f)\n      0x1f\n      dup3\n      add\n      and\n      dup3\n      add\n      dup1\n      0x40\n      mstore\n      pop\n      dup2\n      add\n      swap1\n      tag_55\n      swap2\n      swap1\n      tag_56\n      jump\t// in\n    tag_55:\n        /* \"contracts/shared/utils/oraklContract.sol\":1114:1258  requestId = COORDINATOR.requestRandomWords(... */\n      swap1\n      pop\n        /* \"contracts/shared/utils/oraklContract.sol\":920:1265  function requestRandomWords(... */\n      swap5\n      swap4\n      pop\n      pop\n      pop\n      pop\n      jump\t// out\n        /* \"contracts/shared/utils/oraklContract.sol\":1443:1667  function VRFCall(... */\n    tag_25:\n        /* \"contracts/shared/utils/oraklContract.sol\":491:497  sOwner */\n      0x02\n      0x00\n      swap1\n      sload\n      swap1\n      0x0100\n      exp\n      swap1\n      div\n      0xffffffffffffffffffffffffffffffffffffffff\n      and\n        /* \"contracts/shared/utils/oraklContract.sol\":477:497  msg.sender == sOwner */\n      0xffffffffffffffffffffffffffffffffffffffff\n      and\n        /* \"contracts/shared/utils/oraklContract.sol\":477:487  msg.sender */\n      caller\n        /* \"contracts/shared/utils/oraklContract.sol\":477:497  msg.sender == sOwner */\n      0xffffffffffffffffffffffffffffffffffffffff\n      and\n      eq\n        /* \"contracts/shared/utils/oraklContract.sol\":477:530  msg.sender == sOwner || msg.sender == diamondContract */\n      dup1\n      tag_58\n      jumpi\n      pop\n        /* \"contracts/shared/utils/oraklContract.sol\":515:530  diamondContract */\n      0x01\n      0x00\n      swap1\n      sload\n      swap1\n      0x0100\n      exp\n      swap1\n      div\n      0xffffffffffffffffffffffffffffffffffffffff\n      and\n        /* \"contracts/shared/utils/oraklContract.sol\":501:530  msg.sender == diamondContract */\n      0xffffffffffffffffffffffffffffffffffffffff\n      and\n        /* \"contracts/shared/utils/oraklContract.sol\":501:511  msg.sender */\n      caller\n        /* \"contracts/shared/utils/oraklContract.sol\":501:530  msg.sender == diamondContract */\n      0xffffffffffffffffffffffffffffffffffffffff\n      and\n      eq\n        /* \"contracts/shared/utils/oraklContract.sol\":477:530  msg.sender == sOwner || msg.sender == diamondContract */\n    tag_58:\n        /* \"contracts/shared/utils/oraklContract.sol\":456:565  require(... */\n      tag_59\n      jumpi\n      mload(0x40)\n      0x08c379a000000000000000000000000000000000000000000000000000000000\n      dup2\n      mstore\n      0x04\n      add\n      tag_60\n      swap1\n      tag_49\n      jump\t// in\n    tag_60:\n      mload(0x40)\n      dup1\n      swap2\n      sub\n      swap1\n      revert\n    tag_59:\n        /* \"contracts/shared/utils/oraklContract.sol\":1598:1660  requestRandomWords(keyHash, accId, callbackGasLimit, numWords) */\n      tag_62\n        /* \"contracts/shared/utils/oraklContract.sol\":1617:1624  keyHash */\n      dup5\n        /* \"contracts/shared/utils/oraklContract.sol\":1626:1631  accId */\n      dup5\n        /* \"contracts/shared/utils/oraklContract.sol\":1633:1649  callbackGasLimit */\n      dup5\n        /* \"contracts/shared/utils/oraklContract.sol\":1651:1659  numWords */\n      dup5\n        /* \"contracts/shared/utils/oraklContract.sol\":1598:1616  requestRandomWords */\n      tag_19\n        /* \"contracts/shared/utils/oraklContract.sol\":1598:1660  requestRandomWords(keyHash, accId, callbackGasLimit, numWords) */\n      jump\t// in\n    tag_62:\n      pop\n        /* \"contracts/shared/utils/oraklContract.sol\":1443:1667  function VRFCall(... */\n      pop\n      pop\n      pop\n      pop\n      jump\t// out\n        /* \"contracts/shared/utils/oraklContract.sol\":1673:2024  function getLastRandomWords(... */\n    tag_30:\n        /* \"contracts/shared/utils/oraklContract.sol\":1766:1782  uint256[] memory */\n      0x60\n        /* \"contracts/shared/utils/oraklContract.sol\":1794:1822  uint256[] memory randomWords */\n      0x00\n        /* \"contracts/shared/utils/oraklContract.sol\":1839:1851  sRandomWords */\n      dup1\n        /* \"contracts/shared/utils/oraklContract.sol\":1839:1858  sRandomWords.length */\n      dup1\n      sload\n      swap1\n      pop\n        /* \"contracts/shared/utils/oraklContract.sol\":1825:1859  new uint256[](sRandomWords.length) */\n      0xffffffffffffffff\n      dup2\n      gt\n      iszero\n      tag_64\n      jumpi\n      tag_65\n      tag_66\n      jump\t// in\n    tag_65:\n    tag_64:\n      mload(0x40)\n      swap1\n      dup1\n      dup3\n      mstore\n      dup1\n      0x20\n      mul\n      0x20\n      add\n      dup3\n      add\n      0x40\n      mstore\n      dup1\n      iszero\n      tag_67\n      jumpi\n      dup2\n      0x20\n      add\n      0x20\n      dup3\n      mul\n      dup1\n      calldatasize\n      dup4\n      calldatacopy\n      dup1\n      dup3\n      add\n      swap2\n      pop\n      pop\n      swap1\n      pop\n    tag_67:\n      pop\n        /* \"contracts/shared/utils/oraklContract.sol\":1794:1859  uint256[] memory randomWords = new uint256[](sRandomWords.length) */\n      swap1\n      pop\n        /* \"contracts/shared/utils/oraklContract.sol\":1874:1880  uint i */\n      0x00\n        /* \"contracts/shared/utils/oraklContract.sol\":1869:1989  for (uint i = 0; i < sRandomWords.length; i++) {... */\n    tag_68:\n        /* \"contracts/shared/utils/oraklContract.sol\":1890:1902  sRandomWords */\n      0x00\n        /* \"contracts/shared/utils/oraklContract.sol\":1890:1909  sRandomWords.length */\n      dup1\n      sload\n      swap1\n      pop\n        /* \"contracts/shared/utils/oraklContract.sol\":1886:1887  i */\n      dup2\n        /* \"contracts/shared/utils/oraklContract.sol\":1886:1909  i < sRandomWords.length */\n      lt\n        /* \"contracts/shared/utils/oraklContract.sol\":1869:1989  for (uint i = 0; i < sRandomWords.length; i++) {... */\n      iszero\n      tag_69\n      jumpi\n        /* \"contracts/shared/utils/oraklContract.sol\":1974:1978  _min */\n      dup5\n        /* \"contracts/shared/utils/oraklContract.sol\":1966:1970  _max */\n      dup5\n        /* \"contracts/shared/utils/oraklContract.sol\":1948:1960  sRandomWords */\n      0x00\n        /* \"contracts/shared/utils/oraklContract.sol\":1961:1962  i */\n      dup4\n        /* \"contracts/shared/utils/oraklContract.sol\":1948:1963  sRandomWords[i] */\n      dup2\n      sload\n      dup2\n      lt\n      tag_71\n      jumpi\n      tag_72\n      tag_73\n      jump\t// in\n    tag_72:\n    tag_71:\n      swap1\n      0x00\n      mstore\n      keccak256(0x00, 0x20)\n      add\n      sload\n        /* \"contracts/shared/utils/oraklContract.sol\":1948:1970  sRandomWords[i] % _max */\n      tag_75\n      swap2\n      swap1\n      tag_76\n      jump\t// in\n    tag_75:\n        /* \"contracts/shared/utils/oraklContract.sol\":1947:1978  (sRandomWords[i] % _max) + _min */\n      tag_77\n      swap2\n      swap1\n      tag_78\n      jump\t// in\n    tag_77:\n        /* \"contracts/shared/utils/oraklContract.sol\":1930:1941  randomWords */\n      dup3\n        /* \"contracts/shared/utils/oraklContract.sol\":1942:1943  i */\n      dup3\n        /* \"contracts/shared/utils/oraklContract.sol\":1930:1944  randomWords[i] */\n      dup2\n      mload\n      dup2\n      lt\n      tag_79\n      jumpi\n      tag_80\n      tag_73\n      jump\t// in\n    tag_80:\n    tag_79:\n      0x20\n      mul\n      0x20\n      add\n      add\n        /* \"contracts/shared/utils/oraklContract.sol\":1930:1978  randomWords[i] = (sRandomWords[i] % _max) + _min */\n      dup2\n      dup2\n      mstore\n      pop\n      pop\n        /* \"contracts/shared/utils/oraklContract.sol\":1911:1914  i++ */\n      dup1\n      dup1\n      tag_81\n      swap1\n      tag_82\n      jump\t// in\n    tag_81:\n      swap2\n      pop\n      pop\n        /* \"contracts/shared/utils/oraklContract.sol\":1869:1989  for (uint i = 0; i < sRandomWords.length; i++) {... */\n      jump(tag_68)\n    tag_69:\n      pop\n        /* \"contracts/shared/utils/oraklContract.sol\":2006:2017  randomWords */\n      dup1\n        /* \"contracts/shared/utils/oraklContract.sol\":1999:2017  return randomWords */\n      swap2\n      pop\n      pop\n        /* \"contracts/shared/utils/oraklContract.sol\":1673:2024  function getLastRandomWords(... */\n      swap3\n      swap2\n      pop\n      pop\n      jump\t// out\n        /* \"contracts/shared/utils/oraklContract.sol\":290:319  uint256[] public sRandomWords */\n    tag_37:\n      0x00\n      dup2\n      dup2\n      sload\n      dup2\n      lt\n      tag_83\n      jumpi\n      0x00\n      dup1\n      revert\n    tag_83:\n      swap1\n      0x00\n      mstore\n      keccak256(0x00, 0x20)\n      add\n      0x00\n      swap2\n      pop\n      swap1\n      pop\n      sload\n      dup2\n      jump\t// out\n        /* \"contracts/shared/utils/oraklContract.sol\":1271:1437  function fulfillRandomWords(... */\n    tag_44:\n        /* \"contracts/shared/utils/oraklContract.sol\":1419:1430  randomWords */\n      dup1\n        /* \"contracts/shared/utils/oraklContract.sol\":1404:1416  sRandomWords */\n      0x00\n        /* \"contracts/shared/utils/oraklContract.sol\":1404:1430  sRandomWords = randomWords */\n      swap1\n      dup1\n      mload\n      swap1\n      0x20\n      add\n      swap1\n      tag_86\n      swap3\n      swap2\n      swap1\n      tag_87\n      jump\t// in\n    tag_86:\n      pop\n        /* \"contracts/shared/utils/oraklContract.sol\":1271:1437  function fulfillRandomWords(... */\n      pop\n      pop\n      jump\t// out\n    tag_87:\n      dup3\n      dup1\n      sload\n      dup3\n      dup3\n      sstore\n      swap1\n      0x00\n      mstore\n      keccak256(0x00, 0x20)\n      swap1\n      dup2\n      add\n      swap3\n      dup3\n      iszero\n      tag_88\n      jumpi\n      swap2\n      0x20\n      mul\n      dup3\n      add\n    tag_89:\n      dup3\n      dup2\n      gt\n      iszero\n      tag_90\n      jumpi\n      dup3\n      mload\n      dup3\n      sstore\n      swap2\n      0x20\n      add\n      swap2\n      swap1\n      0x01\n      add\n      swap1\n      jump(tag_89)\n    tag_90:\n    tag_88:\n      pop\n      swap1\n      pop\n      tag_91\n      swap2\n      swap1\n      tag_92\n      jump\t// in\n    tag_91:\n      pop\n      swap1\n      jump\t// out\n    tag_92:\n    tag_93:\n      dup1\n      dup3\n      gt\n      iszero\n      tag_94\n      jumpi\n      0x00\n      dup2\n      0x00\n      swap1\n      sstore\n      pop\n      0x01\n      add\n      jump(tag_93)\n    tag_94:\n      pop\n      swap1\n      jump\t// out\n        /* \"#utility.yul\":7:82   */\n    tag_95:\n        /* \"#utility.yul\":40:46   */\n      0x00\n        /* \"#utility.yul\":73:75   */\n      0x40\n        /* \"#utility.yul\":67:76   */\n      mload\n        /* \"#utility.yul\":57:76   */\n      swap1\n      pop\n        /* \"#utility.yul\":7:82   */\n      swap1\n      jump\t// out\n        /* \"#utility.yul\":88:205   */\n    tag_96:\n        /* \"#utility.yul\":197:198   */\n      0x00\n        /* \"#utility.yul\":194:195   */\n      dup1\n        /* \"#utility.yul\":187:199   */\n      revert\n        /* \"#utility.yul\":211:328   */\n    tag_97:\n        /* \"#utility.yul\":320:321   */\n      0x00\n        /* \"#utility.yul\":317:318   */\n      dup1\n        /* \"#utility.yul\":310:322   */\n      revert\n        /* \"#utility.yul\":334:411   */\n    tag_98:\n        /* \"#utility.yul\":371:378   */\n      0x00\n        /* \"#utility.yul\":400:405   */\n      dup2\n        /* \"#utility.yul\":389:405   */\n      swap1\n      pop\n        /* \"#utility.yul\":334:411   */\n      swap2\n      swap1\n      pop\n      jump\t// out\n        /* \"#utility.yul\":417:539   */\n    tag_99:\n        /* \"#utility.yul\":490:514   */\n      tag_144\n        /* \"#utility.yul\":508:513   */\n      dup2\n        /* \"#utility.yul\":490:514   */\n      tag_98\n      jump\t// in\n    tag_144:\n        /* \"#utility.yul\":483:488   */\n      dup2\n        /* \"#utility.yul\":480:515   */\n      eq\n        /* \"#utility.yul\":470:533   */\n      tag_145\n      jumpi\n        /* \"#utility.yul\":529:530   */\n      0x00\n        /* \"#utility.yul\":526:527   */\n      dup1\n        /* \"#utility.yul\":519:531   */\n      revert\n        /* \"#utility.yul\":470:533   */\n    tag_145:\n        /* \"#utility.yul\":417:539   */\n      pop\n      jump\t// out\n        /* \"#utility.yul\":545:684   */\n    tag_100:\n        /* \"#utility.yul\":591:596   */\n      0x00\n        /* \"#utility.yul\":629:635   */\n      dup2\n        /* \"#utility.yul\":616:636   */\n      calldataload\n        /* \"#utility.yul\":607:636   */\n      swap1\n      pop\n        /* \"#utility.yul\":645:678   */\n      tag_147\n        /* \"#utility.yul\":672:677   */\n      dup2\n        /* \"#utility.yul\":645:678   */\n      tag_99\n      jump\t// in\n    tag_147:\n        /* \"#utility.yul\":545:684   */\n      swap3\n      swap2\n      pop\n      pop\n      jump\t// out\n        /* \"#utility.yul\":690:807   */\n    tag_101:\n        /* \"#utility.yul\":799:800   */\n      0x00\n        /* \"#utility.yul\":796:797   */\n      dup1\n        /* \"#utility.yul\":789:801   */\n      revert\n        /* \"#utility.yul\":813:915   */\n    tag_102:\n        /* \"#utility.yul\":854:860   */\n      0x00\n        /* \"#utility.yul\":905:907   */\n      0x1f\n        /* \"#utility.yul\":901:908   */\n      not\n        /* \"#utility.yul\":896:898   */\n      0x1f\n        /* \"#utility.yul\":889:894   */\n      dup4\n        /* \"#utility.yul\":885:899   */\n      add\n        /* \"#utility.yul\":881:909   */\n      and\n        /* \"#utility.yul\":871:909   */\n      swap1\n      pop\n        /* \"#utility.yul\":813:915   */\n      swap2\n      swap1\n      pop\n      jump\t// out\n        /* \"#utility.yul\":921:1101   */\n    tag_66:\n        /* \"#utility.yul\":969:1046   */\n      0x4e487b7100000000000000000000000000000000000000000000000000000000\n        /* \"#utility.yul\":966:967   */\n      0x00\n        /* \"#utility.yul\":959:1047   */\n      mstore\n        /* \"#utility.yul\":1066:1070   */\n      0x41\n        /* \"#utility.yul\":1063:1064   */\n      0x04\n        /* \"#utility.yul\":1056:1071   */\n      mstore\n        /* \"#utility.yul\":1090:1094   */\n      0x24\n        /* \"#utility.yul\":1087:1088   */\n      0x00\n        /* \"#utility.yul\":1080:1095   */\n      revert\n        /* \"#utility.yul\":1107:1388   */\n    tag_103:\n        /* \"#utility.yul\":1190:1217   */\n      tag_152\n        /* \"#utility.yul\":1212:1216   */\n      dup3\n        /* \"#utility.yul\":1190:1217   */\n      tag_102\n      jump\t// in\n    tag_152:\n        /* \"#utility.yul\":1182:1188   */\n      dup2\n        /* \"#utility.yul\":1178:1218   */\n      add\n        /* \"#utility.yul\":1320:1326   */\n      dup2\n        /* \"#utility.yul\":1308:1318   */\n      dup2\n        /* \"#utility.yul\":1305:1327   */\n      lt\n        /* \"#utility.yul\":1284:1302   */\n      0xffffffffffffffff\n        /* \"#utility.yul\":1272:1282   */\n      dup3\n        /* \"#utility.yul\":1269:1303   */\n      gt\n        /* \"#utility.yul\":1266:1328   */\n      or\n        /* \"#utility.yul\":1263:1351   */\n      iszero\n      tag_153\n      jumpi\n        /* \"#utility.yul\":1331:1349   */\n      tag_154\n      tag_66\n      jump\t// in\n    tag_154:\n        /* \"#utility.yul\":1263:1351   */\n    tag_153:\n        /* \"#utility.yul\":1371:1381   */\n      dup1\n        /* \"#utility.yul\":1367:1369   */\n      0x40\n        /* \"#utility.yul\":1360:1382   */\n      mstore\n        /* \"#utility.yul\":1150:1388   */\n      pop\n        /* \"#utility.yul\":1107:1388   */\n      pop\n      pop\n      jump\t// out\n        /* \"#utility.yul\":1394:1523   */\n    tag_104:\n        /* \"#utility.yul\":1428:1434   */\n      0x00\n        /* \"#utility.yul\":1455:1475   */\n      tag_156\n      tag_95\n      jump\t// in\n    tag_156:\n        /* \"#utility.yul\":1445:1475   */\n      swap1\n      pop\n        /* \"#utility.yul\":1484:1517   */\n      tag_157\n        /* \"#utility.yul\":1512:1516   */\n      dup3\n        /* \"#utility.yul\":1504:1510   */\n      dup3\n        /* \"#utility.yul\":1484:1517   */\n      tag_103\n      jump\t// in\n    tag_157:\n        /* \"#utility.yul\":1394:1523   */\n      swap2\n      swap1\n      pop\n      jump\t// out\n        /* \"#utility.yul\":1529:1840   */\n    tag_105:\n        /* \"#utility.yul\":1606:1610   */\n      0x00\n        /* \"#utility.yul\":1696:1714   */\n      0xffffffffffffffff\n        /* \"#utility.yul\":1688:1694   */\n      dup3\n        /* \"#utility.yul\":1685:1715   */\n      gt\n        /* \"#utility.yul\":1682:1738   */\n      iszero\n      tag_159\n      jumpi\n        /* \"#utility.yul\":1718:1736   */\n      tag_160\n      tag_66\n      jump\t// in\n    tag_160:\n        /* \"#utility.yul\":1682:1738   */\n    tag_159:\n        /* \"#utility.yul\":1768:1772   */\n      0x20\n        /* \"#utility.yul\":1760:1766   */\n      dup3\n        /* \"#utility.yul\":1756:1773   */\n      mul\n        /* \"#utility.yul\":1748:1773   */\n      swap1\n      pop\n        /* \"#utility.yul\":1828:1832   */\n      0x20\n        /* \"#utility.yul\":1822:1826   */\n      dup2\n        /* \"#utility.yul\":1818:1833   */\n      add\n        /* \"#utility.yul\":1810:1833   */\n      swap1\n      pop\n        /* \"#utility.yul\":1529:1840   */\n      swap2\n      swap1\n      pop\n      jump\t// out\n        /* \"#utility.yul\":1846:1963   */\n    tag_106:\n        /* \"#utility.yul\":1955:1956   */\n      0x00\n        /* \"#utility.yul\":1952:1953   */\n      dup1\n        /* \"#utility.yul\":1945:1957   */\n      revert\n        /* \"#utility.yul\":1986:2696   */\n    tag_107:\n        /* \"#utility.yul\":2082:2087   */\n      0x00\n        /* \"#utility.yul\":2107:2188   */\n      tag_163\n        /* \"#utility.yul\":2123:2187   */\n      tag_164\n        /* \"#utility.yul\":2180:2186   */\n      dup5\n        /* \"#utility.yul\":2123:2187   */\n      tag_105\n      jump\t// in\n    tag_164:\n        /* \"#utility.yul\":2107:2188   */\n      tag_104\n      jump\t// in\n    tag_163:\n        /* \"#utility.yul\":2098:2188   */\n      swap1\n      pop\n        /* \"#utility.yul\":2208:2213   */\n      dup1\n        /* \"#utility.yul\":2237:2243   */\n      dup4\n        /* \"#utility.yul\":2230:2235   */\n      dup3\n        /* \"#utility.yul\":2223:2244   */\n      mstore\n        /* \"#utility.yul\":2271:2275   */\n      0x20\n        /* \"#utility.yul\":2264:2269   */\n      dup3\n        /* \"#utility.yul\":2260:2276   */\n      add\n        /* \"#utility.yul\":2253:2276   */\n      swap1\n      pop\n        /* \"#utility.yul\":2324:2328   */\n      0x20\n        /* \"#utility.yul\":2316:2322   */\n      dup5\n        /* \"#utility.yul\":2312:2329   */\n      mul\n        /* \"#utility.yul\":2304:2310   */\n      dup4\n        /* \"#utility.yul\":2300:2330   */\n      add\n        /* \"#utility.yul\":2353:2356   */\n      dup6\n        /* \"#utility.yul\":2345:2351   */\n      dup2\n        /* \"#utility.yul\":2342:2357   */\n      gt\n        /* \"#utility.yul\":2339:2461   */\n      iszero\n      tag_165\n      jumpi\n        /* \"#utility.yul\":2372:2451   */\n      tag_166\n      tag_106\n      jump\t// in\n    tag_166:\n        /* \"#utility.yul\":2339:2461   */\n    tag_165:\n        /* \"#utility.yul\":2487:2493   */\n      dup4\n        /* \"#utility.yul\":2470:2690   */\n    tag_167:\n        /* \"#utility.yul\":2504:2510   */\n      dup2\n        /* \"#utility.yul\":2499:2502   */\n      dup2\n        /* \"#utility.yul\":2496:2511   */\n      lt\n        /* \"#utility.yul\":2470:2690   */\n      iszero\n      tag_169\n      jumpi\n        /* \"#utility.yul\":2579:2582   */\n      dup1\n        /* \"#utility.yul\":2608:2645   */\n      tag_170\n        /* \"#utility.yul\":2641:2644   */\n      dup9\n        /* \"#utility.yul\":2629:2639   */\n      dup3\n        /* \"#utility.yul\":2608:2645   */\n      tag_100\n      jump\t// in\n    tag_170:\n        /* \"#utility.yul\":2603:2606   */\n      dup5\n        /* \"#utility.yul\":2596:2646   */\n      mstore\n        /* \"#utility.yul\":2675:2679   */\n      0x20\n        /* \"#utility.yul\":2670:2673   */\n      dup5\n        /* \"#utility.yul\":2666:2680   */\n      add\n        /* \"#utility.yul\":2659:2680   */\n      swap4\n      pop\n        /* \"#utility.yul\":2546:2690   */\n      pop\n        /* \"#utility.yul\":2530:2534   */\n      0x20\n        /* \"#utility.yul\":2525:2528   */\n      dup2\n        /* \"#utility.yul\":2521:2535   */\n      add\n        /* \"#utility.yul\":2514:2535   */\n      swap1\n      pop\n        /* \"#utility.yul\":2470:2690   */\n      jump(tag_167)\n    tag_169:\n        /* \"#utility.yul\":2474:2495   */\n      pop\n        /* \"#utility.yul\":2088:2696   */\n      pop\n      pop\n        /* \"#utility.yul\":1986:2696   */\n      swap4\n      swap3\n      pop\n      pop\n      pop\n      jump\t// out\n        /* \"#utility.yul\":2719:3089   */\n    tag_108:\n        /* \"#utility.yul\":2790:2795   */\n      0x00\n        /* \"#utility.yul\":2839:2842   */\n      dup3\n        /* \"#utility.yul\":2832:2836   */\n      0x1f\n        /* \"#utility.yul\":2824:2830   */\n      dup4\n        /* \"#utility.yul\":2820:2837   */\n      add\n        /* \"#utility.yul\":2816:2843   */\n      slt\n        /* \"#utility.yul\":2806:2928   */\n      tag_172\n      jumpi\n        /* \"#utility.yul\":2847:2926   */\n      tag_173\n      tag_101\n      jump\t// in\n    tag_173:\n        /* \"#utility.yul\":2806:2928   */\n    tag_172:\n        /* \"#utility.yul\":2964:2970   */\n      dup2\n        /* \"#utility.yul\":2951:2971   */\n      calldataload\n        /* \"#utility.yul\":2989:3083   */\n      tag_174\n        /* \"#utility.yul\":3079:3082   */\n      dup5\n        /* \"#utility.yul\":3071:3077   */\n      dup3\n        /* \"#utility.yul\":3064:3068   */\n      0x20\n        /* \"#utility.yul\":3056:3062   */\n      dup7\n        /* \"#utility.yul\":3052:3069   */\n      add\n        /* \"#utility.yul\":2989:3083   */\n      tag_107\n      jump\t// in\n    tag_174:\n        /* \"#utility.yul\":2980:3083   */\n      swap2\n      pop\n        /* \"#utility.yul\":2796:3089   */\n      pop\n        /* \"#utility.yul\":2719:3089   */\n      swap3\n      swap2\n      pop\n      pop\n      jump\t// out\n        /* \"#utility.yul\":3095:3779   */\n    tag_13:\n        /* \"#utility.yul\":3188:3194   */\n      0x00\n        /* \"#utility.yul\":3196:3202   */\n      dup1\n        /* \"#utility.yul\":3245:3247   */\n      0x40\n        /* \"#utility.yul\":3233:3242   */\n      dup4\n        /* \"#utility.yul\":3224:3231   */\n      dup6\n        /* \"#utility.yul\":3220:3243   */\n      sub\n        /* \"#utility.yul\":3216:3248   */\n      slt\n        /* \"#utility.yul\":3213:3332   */\n      iszero\n      tag_176\n      jumpi\n        /* \"#utility.yul\":3251:3330   */\n      tag_177\n      tag_96\n      jump\t// in\n    tag_177:\n        /* \"#utility.yul\":3213:3332   */\n    tag_176:\n        /* \"#utility.yul\":3371:3372   */\n      0x00\n        /* \"#utility.yul\":3396:3449   */\n      tag_178\n        /* \"#utility.yul\":3441:3448   */\n      dup6\n        /* \"#utility.yul\":3432:3438   */\n      dup3\n        /* \"#utility.yul\":3421:3430   */\n      dup7\n        /* \"#utility.yul\":3417:3439   */\n      add\n        /* \"#utility.yul\":3396:3449   */\n      tag_100\n      jump\t// in\n    tag_178:\n        /* \"#utility.yul\":3386:3449   */\n      swap3\n      pop\n        /* \"#utility.yul\":3342:3459   */\n      pop\n        /* \"#utility.yul\":3526:3528   */\n      0x20\n        /* \"#utility.yul\":3515:3524   */\n      dup4\n        /* \"#utility.yul\":3511:3529   */\n      add\n        /* \"#utility.yul\":3498:3530   */\n      calldataload\n        /* \"#utility.yul\":3557:3575   */\n      0xffffffffffffffff\n        /* \"#utility.yul\":3549:3555   */\n      dup2\n        /* \"#utility.yul\":3546:3576   */\n      gt\n        /* \"#utility.yul\":3543:3660   */\n      iszero\n      tag_179\n      jumpi\n        /* \"#utility.yul\":3579:3658   */\n      tag_180\n      tag_97\n      jump\t// in\n    tag_180:\n        /* \"#utility.yul\":3543:3660   */\n    tag_179:\n        /* \"#utility.yul\":3684:3762   */\n      tag_181\n        /* \"#utility.yul\":3754:3761   */\n      dup6\n        /* \"#utility.yul\":3745:3751   */\n      dup3\n        /* \"#utility.yul\":3734:3743   */\n      dup7\n        /* \"#utility.yul\":3730:3752   */\n      add\n        /* \"#utility.yul\":3684:3762   */\n      tag_108\n      jump\t// in\n    tag_181:\n        /* \"#utility.yul\":3674:3762   */\n      swap2\n      pop\n        /* \"#utility.yul\":3469:3772   */\n      pop\n        /* \"#utility.yul\":3095:3779   */\n      swap3\n      pop\n      swap3\n      swap1\n      pop\n      jump\t// out\n        /* \"#utility.yul\":3785:3862   */\n    tag_109:\n        /* \"#utility.yul\":3822:3829   */\n      0x00\n        /* \"#utility.yul\":3851:3856   */\n      dup2\n        /* \"#utility.yul\":3840:3856   */\n      swap1\n      pop\n        /* \"#utility.yul\":3785:3862   */\n      swap2\n      swap1\n      pop\n      jump\t// out\n        /* \"#utility.yul\":3868:3990   */\n    tag_110:\n        /* \"#utility.yul\":3941:3965   */\n      tag_184\n        /* \"#utility.yul\":3959:3964   */\n      dup2\n        /* \"#utility.yul\":3941:3965   */\n      tag_109\n      jump\t// in\n    tag_184:\n        /* \"#utility.yul\":3934:3939   */\n      dup2\n        /* \"#utility.yul\":3931:3966   */\n      eq\n        /* \"#utility.yul\":3921:3984   */\n      tag_185\n      jumpi\n        /* \"#utility.yul\":3980:3981   */\n      0x00\n        /* \"#utility.yul\":3977:3978   */\n      dup1\n        /* \"#utility.yul\":3970:3982   */\n      revert\n        /* \"#utility.yul\":3921:3984   */\n    tag_185:\n        /* \"#utility.yul\":3868:3990   */\n      pop\n      jump\t// out\n        /* \"#utility.yul\":3996:4135   */\n    tag_111:\n        /* \"#utility.yul\":4042:4047   */\n      0x00\n        /* \"#utility.yul\":4080:4086   */\n      dup2\n        /* \"#utility.yul\":4067:4087   */\n      calldataload\n        /* \"#utility.yul\":4058:4087   */\n      swap1\n      pop\n        /* \"#utility.yul\":4096:4129   */\n      tag_187\n        /* \"#utility.yul\":4123:4128   */\n      dup2\n        /* \"#utility.yul\":4096:4129   */\n      tag_110\n      jump\t// in\n    tag_187:\n        /* \"#utility.yul\":3996:4135   */\n      swap3\n      swap2\n      pop\n      pop\n      jump\t// out\n        /* \"#utility.yul\":4141:4242   */\n    tag_112:\n        /* \"#utility.yul\":4177:4184   */\n      0x00\n        /* \"#utility.yul\":4217:4235   */\n      0xffffffffffffffff\n        /* \"#utility.yul\":4210:4215   */\n      dup3\n        /* \"#utility.yul\":4206:4236   */\n      and\n        /* \"#utility.yul\":4195:4236   */\n      swap1\n      pop\n        /* \"#utility.yul\":4141:4242   */\n      swap2\n      swap1\n      pop\n      jump\t// out\n        /* \"#utility.yul\":4248:4368   */\n    tag_113:\n        /* \"#utility.yul\":4320:4343   */\n      tag_190\n        /* \"#utility.yul\":4337:4342   */\n      dup2\n        /* \"#utility.yul\":4320:4343   */\n      tag_112\n      jump\t// in\n    tag_190:\n        /* \"#utility.yul\":4313:4318   */\n      dup2\n        /* \"#utility.yul\":4310:4344   */\n      eq\n        /* \"#utility.yul\":4300:4362   */\n      tag_191\n      jumpi\n        /* \"#utility.yul\":4358:4359   */\n      0x00\n        /* \"#utility.yul\":4355:4356   */\n      dup1\n        /* \"#utility.yul\":4348:4360   */\n      revert\n        /* \"#utility.yul\":4300:4362   */\n    tag_191:\n        /* \"#utility.yul\":4248:4368   */\n      pop\n      jump\t// out\n        /* \"#utility.yul\":4374:4511   */\n    tag_114:\n        /* \"#utility.yul\":4419:4424   */\n      0x00\n        /* \"#utility.yul\":4457:4463   */\n      dup2\n        /* \"#utility.yul\":4444:4464   */\n      calldataload\n        /* \"#utility.yul\":4435:4464   */\n      swap1\n      pop\n        /* \"#utility.yul\":4473:4505   */\n      tag_193\n        /* \"#utility.yul\":4499:4504   */\n      dup2\n        /* \"#utility.yul\":4473:4505   */\n      tag_113\n      jump\t// in\n    tag_193:\n        /* \"#utility.yul\":4374:4511   */\n      swap3\n      swap2\n      pop\n      pop\n      jump\t// out\n        /* \"#utility.yul\":4517:4610   */\n    tag_115:\n        /* \"#utility.yul\":4553:4560   */\n      0x00\n        /* \"#utility.yul\":4593:4603   */\n      0xffffffff\n        /* \"#utility.yul\":4586:4591   */\n      dup3\n        /* \"#utility.yul\":4582:4604   */\n      and\n        /* \"#utility.yul\":4571:4604   */\n      swap1\n      pop\n        /* \"#utility.yul\":4517:4610   */\n      swap2\n      swap1\n      pop\n      jump\t// out\n        /* \"#utility.yul\":4616:4736   */\n    tag_116:\n        /* \"#utility.yul\":4688:4711   */\n      tag_196\n        /* \"#utility.yul\":4705:4710   */\n      dup2\n        /* \"#utility.yul\":4688:4711   */\n      tag_115\n      jump\t// in\n    tag_196:\n        /* \"#utility.yul\":4681:4686   */\n      dup2\n        /* \"#utility.yul\":4678:4712   */\n      eq\n        /* \"#utility.yul\":4668:4730   */\n      tag_197\n      jumpi\n        /* \"#utility.yul\":4726:4727   */\n      0x00\n        /* \"#utility.yul\":4723:4724   */\n      dup1\n        /* \"#utility.yul\":4716:4728   */\n      revert\n        /* \"#utility.yul\":4668:4730   */\n    tag_197:\n        /* \"#utility.yul\":4616:4736   */\n      pop\n      jump\t// out\n        /* \"#utility.yul\":4742:4879   */\n    tag_117:\n        /* \"#utility.yul\":4787:4792   */\n      0x00\n        /* \"#utility.yul\":4825:4831   */\n      dup2\n        /* \"#utility.yul\":4812:4832   */\n      calldataload\n        /* \"#utility.yul\":4803:4832   */\n      swap1\n      pop\n        /* \"#utility.yul\":4841:4873   */\n      tag_199\n        /* \"#utility.yul\":4867:4872   */\n      dup2\n        /* \"#utility.yul\":4841:4873   */\n      tag_116\n      jump\t// in\n    tag_199:\n        /* \"#utility.yul\":4742:4879   */\n      swap3\n      swap2\n      pop\n      pop\n      jump\t// out\n        /* \"#utility.yul\":4885:5644   */\n    tag_18:\n        /* \"#utility.yul\":4968:4974   */\n      0x00\n        /* \"#utility.yul\":4976:4982   */\n      dup1\n        /* \"#utility.yul\":4984:4990   */\n      0x00\n        /* \"#utility.yul\":4992:4998   */\n      dup1\n        /* \"#utility.yul\":5041:5044   */\n      0x80\n        /* \"#utility.yul\":5029:5038   */\n      dup6\n        /* \"#utility.yul\":5020:5027   */\n      dup8\n        /* \"#utility.yul\":5016:5039   */\n      sub\n        /* \"#utility.yul\":5012:5045   */\n      slt\n        /* \"#utility.yul\":5009:5129   */\n      iszero\n      tag_201\n      jumpi\n        /* \"#utility.yul\":5048:5127   */\n      tag_202\n      tag_96\n      jump\t// in\n    tag_202:\n        /* \"#utility.yul\":5009:5129   */\n    tag_201:\n        /* \"#utility.yul\":5168:5169   */\n      0x00\n        /* \"#utility.yul\":5193:5246   */\n      tag_203\n        /* \"#utility.yul\":5238:5245   */\n      dup8\n        /* \"#utility.yul\":5229:5235   */\n      dup3\n        /* \"#utility.yul\":5218:5227   */\n      dup9\n        /* \"#utility.yul\":5214:5236   */\n      add\n        /* \"#utility.yul\":5193:5246   */\n      tag_111\n      jump\t// in\n    tag_203:\n        /* \"#utility.yul\":5183:5246   */\n      swap5\n      pop\n        /* \"#utility.yul\":5139:5256   */\n      pop\n        /* \"#utility.yul\":5295:5297   */\n      0x20\n        /* \"#utility.yul\":5321:5373   */\n      tag_204\n        /* \"#utility.yul\":5365:5372   */\n      dup8\n        /* \"#utility.yul\":5356:5362   */\n      dup3\n        /* \"#utility.yul\":5345:5354   */\n      dup9\n        /* \"#utility.yul\":5341:5363   */\n      add\n        /* \"#utility.yul\":5321:5373   */\n      tag_114\n      jump\t// in\n    tag_204:\n        /* \"#utility.yul\":5311:5373   */\n      swap4\n      pop\n        /* \"#utility.yul\":5266:5383   */\n      pop\n        /* \"#utility.yul\":5422:5424   */\n      0x40\n        /* \"#utility.yul\":5448:5500   */\n      tag_205\n        /* \"#utility.yul\":5492:5499   */\n      dup8\n        /* \"#utility.yul\":5483:5489   */\n      dup3\n        /* \"#utility.yul\":5472:5481   */\n      dup9\n        /* \"#utility.yul\":5468:5490   */\n      add\n        /* \"#utility.yul\":5448:5500   */\n      tag_117\n      jump\t// in\n    tag_205:\n        /* \"#utility.yul\":5438:5500   */\n      swap3\n      pop\n        /* \"#utility.yul\":5393:5510   */\n      pop\n        /* \"#utility.yul\":5549:5551   */\n      0x60\n        /* \"#utility.yul\":5575:5627   */\n      tag_206\n        /* \"#utility.yul\":5619:5626   */\n      dup8\n        /* \"#utility.yul\":5610:5616   */\n      dup3\n        /* \"#utility.yul\":5599:5608   */\n      dup9\n        /* \"#utility.yul\":5595:5617   */\n      add\n        /* \"#utility.yul\":5575:5627   */\n      tag_117\n      jump\t// in\n    tag_206:\n        /* \"#utility.yul\":5565:5627   */\n      swap2\n      pop\n        /* \"#utility.yul\":5520:5637   */\n      pop\n        /* \"#utility.yul\":4885:5644   */\n      swap3\n      swap6\n      swap2\n      swap5\n      pop\n      swap3\n      pop\n      jump\t// out\n        /* \"#utility.yul\":5650:5768   */\n    tag_118:\n        /* \"#utility.yul\":5737:5761   */\n      tag_208\n        /* \"#utility.yul\":5755:5760   */\n      dup2\n        /* \"#utility.yul\":5737:5761   */\n      tag_98\n      jump\t// in\n    tag_208:\n        /* \"#utility.yul\":5732:5735   */\n      dup3\n        /* \"#utility.yul\":5725:5762   */\n      mstore\n        /* \"#utility.yul\":5650:5768   */\n      pop\n      pop\n      jump\t// out\n        /* \"#utility.yul\":5774:5996   */\n    tag_21:\n        /* \"#utility.yul\":5867:5871   */\n      0x00\n        /* \"#utility.yul\":5905:5907   */\n      0x20\n        /* \"#utility.yul\":5894:5903   */\n      dup3\n        /* \"#utility.yul\":5890:5908   */\n      add\n        /* \"#utility.yul\":5882:5908   */\n      swap1\n      pop\n        /* \"#utility.yul\":5918:5989   */\n      tag_210\n        /* \"#utility.yul\":5986:5987   */\n      0x00\n        /* \"#utility.yul\":5975:5984   */\n      dup4\n        /* \"#utility.yul\":5971:5988   */\n      add\n        /* \"#utility.yul\":5962:5968   */\n      dup5\n        /* \"#utility.yul\":5918:5989   */\n      tag_118\n      jump\t// in\n    tag_210:\n        /* \"#utility.yul\":5774:5996   */\n      swap3\n      swap2\n      pop\n      pop\n      jump\t// out\n        /* \"#utility.yul\":6002:6476   */\n    tag_29:\n        /* \"#utility.yul\":6070:6076   */\n      0x00\n        /* \"#utility.yul\":6078:6084   */\n      dup1\n        /* \"#utility.yul\":6127:6129   */\n      0x40\n        /* \"#utility.yul\":6115:6124   */\n      dup4\n        /* \"#utility.yul\":6106:6113   */\n      dup6\n        /* \"#utility.yul\":6102:6125   */\n      sub\n        /* \"#utility.yul\":6098:6130   */\n      slt\n        /* \"#utility.yul\":6095:6214   */\n      iszero\n      tag_212\n      jumpi\n        /* \"#utility.yul\":6133:6212   */\n      tag_213\n      tag_96\n      jump\t// in\n    tag_213:\n        /* \"#utility.yul\":6095:6214   */\n    tag_212:\n        /* \"#utility.yul\":6253:6254   */\n      0x00\n        /* \"#utility.yul\":6278:6331   */\n      tag_214\n        /* \"#utility.yul\":6323:6330   */\n      dup6\n        /* \"#utility.yul\":6314:6320   */\n      dup3\n        /* \"#utility.yul\":6303:6312   */\n      dup7\n        /* \"#utility.yul\":6299:6321   */\n      add\n        /* \"#utility.yul\":6278:6331   */\n      tag_100\n      jump\t// in\n    tag_214:\n        /* \"#utility.yul\":6268:6331   */\n      swap3\n      pop\n        /* \"#utility.yul\":6224:6341   */\n      pop\n        /* \"#utility.yul\":6380:6382   */\n      0x20\n        /* \"#utility.yul\":6406:6459   */\n      tag_215\n        /* \"#utility.yul\":6451:6458   */\n      dup6\n        /* \"#utility.yul\":6442:6448   */\n      dup3\n        /* \"#utility.yul\":6431:6440   */\n      dup7\n        /* \"#utility.yul\":6427:6449   */\n      add\n        /* \"#utility.yul\":6406:6459   */\n      tag_100\n      jump\t// in\n    tag_215:\n        /* \"#utility.yul\":6396:6459   */\n      swap2\n      pop\n        /* \"#utility.yul\":6351:6469   */\n      pop\n        /* \"#utility.yul\":6002:6476   */\n      swap3\n      pop\n      swap3\n      swap1\n      pop\n      jump\t// out\n        /* \"#utility.yul\":6482:6596   */\n    tag_119:\n        /* \"#utility.yul\":6549:6555   */\n      0x00\n        /* \"#utility.yul\":6583:6588   */\n      dup2\n        /* \"#utility.yul\":6577:6589   */\n      mload\n        /* \"#utility.yul\":6567:6589   */\n      swap1\n      pop\n        /* \"#utility.yul\":6482:6596   */\n      swap2\n      swap1\n      pop\n      jump\t// out\n        /* \"#utility.yul\":6602:6786   */\n    tag_120:\n        /* \"#utility.yul\":6701:6712   */\n      0x00\n        /* \"#utility.yul\":6735:6741   */\n      dup3\n        /* \"#utility.yul\":6730:6733   */\n      dup3\n        /* \"#utility.yul\":6723:6742   */\n      mstore\n        /* \"#utility.yul\":6775:6779   */\n      0x20\n        /* \"#utility.yul\":6770:6773   */\n      dup3\n        /* \"#utility.yul\":6766:6780   */\n      add\n        /* \"#utility.yul\":6751:6780   */\n      swap1\n      pop\n        /* \"#utility.yul\":6602:6786   */\n      swap3\n      swap2\n      pop\n      pop\n      jump\t// out\n        /* \"#utility.yul\":6792:6924   */\n    tag_121:\n        /* \"#utility.yul\":6859:6863   */\n      0x00\n        /* \"#utility.yul\":6882:6885   */\n      dup2\n        /* \"#utility.yul\":6874:6885   */\n      swap1\n      pop\n        /* \"#utility.yul\":6912:6916   */\n      0x20\n        /* \"#utility.yul\":6907:6910   */\n      dup3\n        /* \"#utility.yul\":6903:6917   */\n      add\n        /* \"#utility.yul\":6895:6917   */\n      swap1\n      pop\n        /* \"#utility.yul\":6792:6924   */\n      swap2\n      swap1\n      pop\n      jump\t// out\n        /* \"#utility.yul\":6930:7038   */\n    tag_122:\n        /* \"#utility.yul\":7007:7031   */\n      tag_220\n        /* \"#utility.yul\":7025:7030   */\n      dup2\n        /* \"#utility.yul\":7007:7031   */\n      tag_98\n      jump\t// in\n    tag_220:\n        /* \"#utility.yul\":7002:7005   */\n      dup3\n        /* \"#utility.yul\":6995:7032   */\n      mstore\n        /* \"#utility.yul\":6930:7038   */\n      pop\n      pop\n      jump\t// out\n        /* \"#utility.yul\":7044:7223   */\n    tag_123:\n        /* \"#utility.yul\":7113:7123   */\n      0x00\n        /* \"#utility.yul\":7134:7180   */\n      tag_222\n        /* \"#utility.yul\":7176:7179   */\n      dup4\n        /* \"#utility.yul\":7168:7174   */\n      dup4\n        /* \"#utility.yul\":7134:7180   */\n      tag_122\n      jump\t// in\n    tag_222:\n        /* \"#utility.yul\":7212:7216   */\n      0x20\n        /* \"#utility.yul\":7207:7210   */\n      dup4\n        /* \"#utility.yul\":7203:7217   */\n      add\n        /* \"#utility.yul\":7189:7217   */\n      swap1\n      pop\n        /* \"#utility.yul\":7044:7223   */\n      swap3\n      swap2\n      pop\n      pop\n      jump\t// out\n        /* \"#utility.yul\":7229:7342   */\n    tag_124:\n        /* \"#utility.yul\":7299:7303   */\n      0x00\n        /* \"#utility.yul\":7331:7335   */\n      0x20\n        /* \"#utility.yul\":7326:7329   */\n      dup3\n        /* \"#utility.yul\":7322:7336   */\n      add\n        /* \"#utility.yul\":7314:7336   */\n      swap1\n      pop\n        /* \"#utility.yul\":7229:7342   */\n      swap2\n      swap1\n      pop\n      jump\t// out\n        /* \"#utility.yul\":7378:8110   */\n    tag_125:\n        /* \"#utility.yul\":7497:7500   */\n      0x00\n        /* \"#utility.yul\":7526:7580   */\n      tag_225\n        /* \"#utility.yul\":7574:7579   */\n      dup3\n        /* \"#utility.yul\":7526:7580   */\n      tag_119\n      jump\t// in\n    tag_225:\n        /* \"#utility.yul\":7596:7682   */\n      tag_226\n        /* \"#utility.yul\":7675:7681   */\n      dup2\n        /* \"#utility.yul\":7670:7673   */\n      dup6\n        /* \"#utility.yul\":7596:7682   */\n      tag_120\n      jump\t// in\n    tag_226:\n        /* \"#utility.yul\":7589:7682   */\n      swap4\n      pop\n        /* \"#utility.yul\":7706:7762   */\n      tag_227\n        /* \"#utility.yul\":7756:7761   */\n      dup4\n        /* \"#utility.yul\":7706:7762   */\n      tag_121\n      jump\t// in\n    tag_227:\n        /* \"#utility.yul\":7785:7792   */\n      dup1\n        /* \"#utility.yul\":7816:7817   */\n      0x00\n        /* \"#utility.yul\":7801:8085   */\n    tag_228:\n        /* \"#utility.yul\":7826:7832   */\n      dup4\n        /* \"#utility.yul\":7823:7824   */\n      dup2\n        /* \"#utility.yul\":7820:7833   */\n      lt\n        /* \"#utility.yul\":7801:8085   */\n      iszero\n      tag_230\n      jumpi\n        /* \"#utility.yul\":7902:7908   */\n      dup2\n        /* \"#utility.yul\":7896:7909   */\n      mload\n        /* \"#utility.yul\":7929:7992   */\n      tag_231\n        /* \"#utility.yul\":7988:7991   */\n      dup9\n        /* \"#utility.yul\":7973:7986   */\n      dup3\n        /* \"#utility.yul\":7929:7992   */\n      tag_123\n      jump\t// in\n    tag_231:\n        /* \"#utility.yul\":7922:7992   */\n      swap8\n      pop\n        /* \"#utility.yul\":8015:8075   */\n      tag_232\n        /* \"#utility.yul\":8068:8074   */\n      dup4\n        /* \"#utility.yul\":8015:8075   */\n      tag_124\n      jump\t// in\n    tag_232:\n        /* \"#utility.yul\":8005:8075   */\n      swap3\n      pop\n        /* \"#utility.yul\":7861:8085   */\n      pop\n        /* \"#utility.yul\":7848:7849   */\n      0x01\n        /* \"#utility.yul\":7845:7846   */\n      dup2\n        /* \"#utility.yul\":7841:7850   */\n      add\n        /* \"#utility.yul\":7836:7850   */\n      swap1\n      pop\n        /* \"#utility.yul\":7801:8085   */\n      jump(tag_228)\n    tag_230:\n        /* \"#utility.yul\":7805:7819   */\n      pop\n        /* \"#utility.yul\":8101:8104   */\n      dup6\n        /* \"#utility.yul\":8094:8104   */\n      swap4\n      pop\n        /* \"#utility.yul\":7502:8110   */\n      pop\n      pop\n      pop\n        /* \"#utility.yul\":7378:8110   */\n      swap3\n      swap2\n      pop\n      pop\n      jump\t// out\n        /* \"#utility.yul\":8116:8489   */\n    tag_32:\n        /* \"#utility.yul\":8259:8263   */\n      0x00\n        /* \"#utility.yul\":8297:8299   */\n      0x20\n        /* \"#utility.yul\":8286:8295   */\n      dup3\n        /* \"#utility.yul\":8282:8300   */\n      add\n        /* \"#utility.yul\":8274:8300   */\n      swap1\n      pop\n        /* \"#utility.yul\":8346:8355   */\n      dup2\n        /* \"#utility.yul\":8340:8344   */\n      dup2\n        /* \"#utility.yul\":8336:8356   */\n      sub\n        /* \"#utility.yul\":8332:8333   */\n      0x00\n        /* \"#utility.yul\":8321:8330   */\n      dup4\n        /* \"#utility.yul\":8317:8334   */\n      add\n        /* \"#utility.yul\":8310:8357   */\n      mstore\n        /* \"#utility.yul\":8374:8482   */\n      tag_234\n        /* \"#utility.yul\":8477:8481   */\n      dup2\n        /* \"#utility.yul\":8468:8474   */\n      dup5\n        /* \"#utility.yul\":8374:8482   */\n      tag_125\n      jump\t// in\n    tag_234:\n        /* \"#utility.yul\":8366:8482   */\n      swap1\n      pop\n        /* \"#utility.yul\":8116:8489   */\n      swap3\n      swap2\n      pop\n      pop\n      jump\t// out\n        /* \"#utility.yul\":8495:8824   */\n    tag_36:\n        /* \"#utility.yul\":8554:8560   */\n      0x00\n        /* \"#utility.yul\":8603:8605   */\n      0x20\n        /* \"#utility.yul\":8591:8600   */\n      dup3\n        /* \"#utility.yul\":8582:8589   */\n      dup5\n        /* \"#utility.yul\":8578:8601   */\n      sub\n        /* \"#utility.yul\":8574:8606   */\n      slt\n        /* \"#utility.yul\":8571:8690   */\n      iszero\n      tag_236\n      jumpi\n        /* \"#utility.yul\":8609:8688   */\n      tag_237\n      tag_96\n      jump\t// in\n    tag_237:\n        /* \"#utility.yul\":8571:8690   */\n    tag_236:\n        /* \"#utility.yul\":8729:8730   */\n      0x00\n        /* \"#utility.yul\":8754:8807   */\n      tag_238\n        /* \"#utility.yul\":8799:8806   */\n      dup5\n        /* \"#utility.yul\":8790:8796   */\n      dup3\n        /* \"#utility.yul\":8779:8788   */\n      dup6\n        /* \"#utility.yul\":8775:8797   */\n      add\n        /* \"#utility.yul\":8754:8807   */\n      tag_100\n      jump\t// in\n    tag_238:\n        /* \"#utility.yul\":8744:8807   */\n      swap2\n      pop\n        /* \"#utility.yul\":8700:8817   */\n      pop\n        /* \"#utility.yul\":8495:8824   */\n      swap3\n      swap2\n      pop\n      pop\n      jump\t// out\n        /* \"#utility.yul\":8830:8956   */\n    tag_126:\n        /* \"#utility.yul\":8867:8874   */\n      0x00\n        /* \"#utility.yul\":8907:8949   */\n      0xffffffffffffffffffffffffffffffffffffffff\n        /* \"#utility.yul\":8900:8905   */\n      dup3\n        /* \"#utility.yul\":8896:8950   */\n      and\n        /* \"#utility.yul\":8885:8950   */\n      swap1\n      pop\n        /* \"#utility.yul\":8830:8956   */\n      swap2\n      swap1\n      pop\n      jump\t// out\n        /* \"#utility.yul\":8962:9058   */\n    tag_127:\n        /* \"#utility.yul\":8999:9006   */\n      0x00\n        /* \"#utility.yul\":9028:9052   */\n      tag_241\n        /* \"#utility.yul\":9046:9051   */\n      dup3\n        /* \"#utility.yul\":9028:9052   */\n      tag_126\n      jump\t// in\n    tag_241:\n        /* \"#utility.yul\":9017:9052   */\n      swap1\n      pop\n        /* \"#utility.yul\":8962:9058   */\n      swap2\n      swap1\n      pop\n      jump\t// out\n        /* \"#utility.yul\":9064:9182   */\n    tag_128:\n        /* \"#utility.yul\":9151:9175   */\n      tag_243\n        /* \"#utility.yul\":9169:9174   */\n      dup2\n        /* \"#utility.yul\":9151:9175   */\n      tag_127\n      jump\t// in\n    tag_243:\n        /* \"#utility.yul\":9146:9149   */\n      dup3\n        /* \"#utility.yul\":9139:9176   */\n      mstore\n        /* \"#utility.yul\":9064:9182   */\n      pop\n      pop\n      jump\t// out\n        /* \"#utility.yul\":9188:9520   */\n    tag_42:\n        /* \"#utility.yul\":9309:9313   */\n      0x00\n        /* \"#utility.yul\":9347:9349   */\n      0x40\n        /* \"#utility.yul\":9336:9345   */\n      dup3\n        /* \"#utility.yul\":9332:9350   */\n      add\n        /* \"#utility.yul\":9324:9350   */\n      swap1\n      pop\n        /* \"#utility.yul\":9360:9431   */\n      tag_245\n        /* \"#utility.yul\":9428:9429   */\n      0x00\n        /* \"#utility.yul\":9417:9426   */\n      dup4\n        /* \"#utility.yul\":9413:9430   */\n      add\n        /* \"#utility.yul\":9404:9410   */\n      dup6\n        /* \"#utility.yul\":9360:9431   */\n      tag_128\n      jump\t// in\n    tag_245:\n        /* \"#utility.yul\":9441:9513   */\n      tag_246\n        /* \"#utility.yul\":9509:9511   */\n      0x20\n        /* \"#utility.yul\":9498:9507   */\n      dup4\n        /* \"#utility.yul\":9494:9512   */\n      add\n        /* \"#utility.yul\":9485:9491   */\n      dup5\n        /* \"#utility.yul\":9441:9513   */\n      tag_128\n      jump\t// in\n    tag_246:\n        /* \"#utility.yul\":9188:9520   */\n      swap4\n      swap3\n      pop\n      pop\n      pop\n      jump\t// out\n        /* \"#utility.yul\":9526:9695   */\n    tag_129:\n        /* \"#utility.yul\":9610:9621   */\n      0x00\n        /* \"#utility.yul\":9644:9650   */\n      dup3\n        /* \"#utility.yul\":9639:9642   */\n      dup3\n        /* \"#utility.yul\":9632:9651   */\n      mstore\n        /* \"#utility.yul\":9684:9688   */\n      0x20\n        /* \"#utility.yul\":9679:9682   */\n      dup3\n        /* \"#utility.yul\":9675:9689   */\n      add\n        /* \"#utility.yul\":9660:9689   */\n      swap1\n      pop\n        /* \"#utility.yul\":9526:9695   */\n      swap3\n      swap2\n      pop\n      pop\n      jump\t// out\n        /* \"#utility.yul\":9701:9860   */\n    tag_130:\n        /* \"#utility.yul\":9841:9852   */\n      0x6e6f74206f776e65720000000000000000000000000000000000000000000000\n        /* \"#utility.yul\":9837:9838   */\n      0x00\n        /* \"#utility.yul\":9829:9835   */\n      dup3\n        /* \"#utility.yul\":9825:9839   */\n      add\n        /* \"#utility.yul\":9818:9853   */\n      mstore\n        /* \"#utility.yul\":9701:9860   */\n      pop\n      jump\t// out\n        /* \"#utility.yul\":9866:10231   */\n    tag_131:\n        /* \"#utility.yul\":10008:10011   */\n      0x00\n        /* \"#utility.yul\":10029:10095   */\n      tag_250\n        /* \"#utility.yul\":10093:10094   */\n      0x09\n        /* \"#utility.yul\":10088:10091   */\n      dup4\n        /* \"#utility.yul\":10029:10095   */\n      tag_129\n      jump\t// in\n    tag_250:\n        /* \"#utility.yul\":10022:10095   */\n      swap2\n      pop\n        /* \"#utility.yul\":10104:10197   */\n      tag_251\n        /* \"#utility.yul\":10193:10196   */\n      dup3\n        /* \"#utility.yul\":10104:10197   */\n      tag_130\n      jump\t// in\n    tag_251:\n        /* \"#utility.yul\":10222:10224   */\n      0x20\n        /* \"#utility.yul\":10217:10220   */\n      dup3\n        /* \"#utility.yul\":10213:10225   */\n      add\n        /* \"#utility.yul\":10206:10225   */\n      swap1\n      pop\n        /* \"#utility.yul\":9866:10231   */\n      swap2\n      swap1\n      pop\n      jump\t// out\n        /* \"#utility.yul\":10237:10656   */\n    tag_49:\n        /* \"#utility.yul\":10403:10407   */\n      0x00\n        /* \"#utility.yul\":10441:10443   */\n      0x20\n        /* \"#utility.yul\":10430:10439   */\n      dup3\n        /* \"#utility.yul\":10426:10444   */\n      add\n        /* \"#utility.yul\":10418:10444   */\n      swap1\n      pop\n        /* \"#utility.yul\":10490:10499   */\n      dup2\n        /* \"#utility.yul\":10484:10488   */\n      dup2\n        /* \"#utility.yul\":10480:10500   */\n      sub\n        /* \"#utility.yul\":10476:10477   */\n      0x00\n        /* \"#utility.yul\":10465:10474   */\n      dup4\n        /* \"#utility.yul\":10461:10478   */\n      add\n        /* \"#utility.yul\":10454:10501   */\n      mstore\n        /* \"#utility.yul\":10518:10649   */\n      tag_253\n        /* \"#utility.yul\":10644:10648   */\n      dup2\n        /* \"#utility.yul\":10518:10649   */\n      tag_131\n      jump\t// in\n    tag_253:\n        /* \"#utility.yul\":10510:10649   */\n      swap1\n      pop\n        /* \"#utility.yul\":10237:10656   */\n      swap2\n      swap1\n      pop\n      jump\t// out\n        /* \"#utility.yul\":10662:10780   */\n    tag_132:\n        /* \"#utility.yul\":10749:10773   */\n      tag_255\n        /* \"#utility.yul\":10767:10772   */\n      dup2\n        /* \"#utility.yul\":10749:10773   */\n      tag_109\n      jump\t// in\n    tag_255:\n        /* \"#utility.yul\":10744:10747   */\n      dup3\n        /* \"#utility.yul\":10737:10774   */\n      mstore\n        /* \"#utility.yul\":10662:10780   */\n      pop\n      pop\n      jump\t// out\n        /* \"#utility.yul\":10786:10901   */\n    tag_133:\n        /* \"#utility.yul\":10871:10894   */\n      tag_257\n        /* \"#utility.yul\":10888:10893   */\n      dup2\n        /* \"#utility.yul\":10871:10894   */\n      tag_112\n      jump\t// in\n    tag_257:\n        /* \"#utility.yul\":10866:10869   */\n      dup3\n        /* \"#utility.yul\":10859:10895   */\n      mstore\n        /* \"#utility.yul\":10786:10901   */\n      pop\n      pop\n      jump\t// out\n        /* \"#utility.yul\":10907:11022   */\n    tag_134:\n        /* \"#utility.yul\":10992:11015   */\n      tag_259\n        /* \"#utility.yul\":11009:11014   */\n      dup2\n        /* \"#utility.yul\":10992:11015   */\n      tag_115\n      jump\t// in\n    tag_259:\n        /* \"#utility.yul\":10987:10990   */\n      dup3\n        /* \"#utility.yul\":10980:11016   */\n      mstore\n        /* \"#utility.yul\":10907:11022   */\n      pop\n      pop\n      jump\t// out\n        /* \"#utility.yul\":11028:11569   */\n    tag_52:\n        /* \"#utility.yul\":11199:11203   */\n      0x00\n        /* \"#utility.yul\":11237:11240   */\n      0x80\n        /* \"#utility.yul\":11226:11235   */\n      dup3\n        /* \"#utility.yul\":11222:11241   */\n      add\n        /* \"#utility.yul\":11214:11241   */\n      swap1\n      pop\n        /* \"#utility.yul\":11251:11322   */\n      tag_261\n        /* \"#utility.yul\":11319:11320   */\n      0x00\n        /* \"#utility.yul\":11308:11317   */\n      dup4\n        /* \"#utility.yul\":11304:11321   */\n      add\n        /* \"#utility.yul\":11295:11301   */\n      dup8\n        /* \"#utility.yul\":11251:11322   */\n      tag_132\n      jump\t// in\n    tag_261:\n        /* \"#utility.yul\":11332:11402   */\n      tag_262\n        /* \"#utility.yul\":11398:11400   */\n      0x20\n        /* \"#utility.yul\":11387:11396   */\n      dup4\n        /* \"#utility.yul\":11383:11401   */\n      add\n        /* \"#utility.yul\":11374:11380   */\n      dup7\n        /* \"#utility.yul\":11332:11402   */\n      tag_133\n      jump\t// in\n    tag_262:\n        /* \"#utility.yul\":11412:11482   */\n      tag_263\n        /* \"#utility.yul\":11478:11480   */\n      0x40\n        /* \"#utility.yul\":11467:11476   */\n      dup4\n        /* \"#utility.yul\":11463:11481   */\n      add\n        /* \"#utility.yul\":11454:11460   */\n      dup6\n        /* \"#utility.yul\":11412:11482   */\n      tag_134\n      jump\t// in\n    tag_263:\n        /* \"#utility.yul\":11492:11562   */\n      tag_264\n        /* \"#utility.yul\":11558:11560   */\n      0x60\n        /* \"#utility.yul\":11547:11556   */\n      dup4\n        /* \"#utility.yul\":11543:11561   */\n      add\n        /* \"#utility.yul\":11534:11540   */\n      dup5\n        /* \"#utility.yul\":11492:11562   */\n      tag_134\n      jump\t// in\n    tag_264:\n        /* \"#utility.yul\":11028:11569   */\n      swap6\n      swap5\n      pop\n      pop\n      pop\n      pop\n      pop\n      jump\t// out\n        /* \"#utility.yul\":11575:11718   */\n    tag_135:\n        /* \"#utility.yul\":11632:11637   */\n      0x00\n        /* \"#utility.yul\":11663:11669   */\n      dup2\n        /* \"#utility.yul\":11657:11670   */\n      mload\n        /* \"#utility.yul\":11648:11670   */\n      swap1\n      pop\n        /* \"#utility.yul\":11679:11712   */\n      tag_266\n        /* \"#utility.yul\":11706:11711   */\n      dup2\n        /* \"#utility.yul\":11679:11712   */\n      tag_99\n      jump\t// in\n    tag_266:\n        /* \"#utility.yul\":11575:11718   */\n      swap3\n      swap2\n      pop\n      pop\n      jump\t// out\n        /* \"#utility.yul\":11724:12075   */\n    tag_56:\n        /* \"#utility.yul\":11794:11800   */\n      0x00\n        /* \"#utility.yul\":11843:11845   */\n      0x20\n        /* \"#utility.yul\":11831:11840   */\n      dup3\n        /* \"#utility.yul\":11822:11829   */\n      dup5\n        /* \"#utility.yul\":11818:11841   */\n      sub\n        /* \"#utility.yul\":11814:11846   */\n      slt\n        /* \"#utility.yul\":11811:11930   */\n      iszero\n      tag_268\n      jumpi\n        /* \"#utility.yul\":11849:11928   */\n      tag_269\n      tag_96\n      jump\t// in\n    tag_269:\n        /* \"#utility.yul\":11811:11930   */\n    tag_268:\n        /* \"#utility.yul\":11969:11970   */\n      0x00\n        /* \"#utility.yul\":11994:12058   */\n      tag_270\n        /* \"#utility.yul\":12050:12057   */\n      dup5\n        /* \"#utility.yul\":12041:12047   */\n      dup3\n        /* \"#utility.yul\":12030:12039   */\n      dup6\n        /* \"#utility.yul\":12026:12048   */\n      add\n        /* \"#utility.yul\":11994:12058   */\n      tag_135\n      jump\t// in\n    tag_270:\n        /* \"#utility.yul\":11984:12058   */\n      swap2\n      pop\n        /* \"#utility.yul\":11940:12068   */\n      pop\n        /* \"#utility.yul\":11724:12075   */\n      swap3\n      swap2\n      pop\n      pop\n      jump\t// out\n        /* \"#utility.yul\":12081:12261   */\n    tag_73:\n        /* \"#utility.yul\":12129:12206   */\n      0x4e487b7100000000000000000000000000000000000000000000000000000000\n        /* \"#utility.yul\":12126:12127   */\n      0x00\n        /* \"#utility.yul\":12119:12207   */\n      mstore\n        /* \"#utility.yul\":12226:12230   */\n      0x32\n        /* \"#utility.yul\":12223:12224   */\n      0x04\n        /* \"#utility.yul\":12216:12231   */\n      mstore\n        /* \"#utility.yul\":12250:12254   */\n      0x24\n        /* \"#utility.yul\":12247:12248   */\n      0x00\n        /* \"#utility.yul\":12240:12255   */\n      revert\n        /* \"#utility.yul\":12267:12447   */\n    tag_136:\n        /* \"#utility.yul\":12315:12392   */\n      0x4e487b7100000000000000000000000000000000000000000000000000000000\n        /* \"#utility.yul\":12312:12313   */\n      0x00\n        /* \"#utility.yul\":12305:12393   */\n      mstore\n        /* \"#utility.yul\":12412:12416   */\n      0x12\n        /* \"#utility.yul\":12409:12410   */\n      0x04\n        /* \"#utility.yul\":12402:12417   */\n      mstore\n        /* \"#utility.yul\":12436:12440   */\n      0x24\n        /* \"#utility.yul\":12433:12434   */\n      0x00\n        /* \"#utility.yul\":12426:12441   */\n      revert\n        /* \"#utility.yul\":12453:12629   */\n    tag_76:\n        /* \"#utility.yul\":12485:12486   */\n      0x00\n        /* \"#utility.yul\":12502:12522   */\n      tag_274\n        /* \"#utility.yul\":12520:12521   */\n      dup3\n        /* \"#utility.yul\":12502:12522   */\n      tag_98\n      jump\t// in\n    tag_274:\n        /* \"#utility.yul\":12497:12522   */\n      swap2\n      pop\n        /* \"#utility.yul\":12536:12556   */\n      tag_275\n        /* \"#utility.yul\":12554:12555   */\n      dup4\n        /* \"#utility.yul\":12536:12556   */\n      tag_98\n      jump\t// in\n    tag_275:\n        /* \"#utility.yul\":12531:12556   */\n      swap3\n      pop\n        /* \"#utility.yul\":12575:12576   */\n      dup3\n        /* \"#utility.yul\":12565:12600   */\n      tag_276\n      jumpi\n        /* \"#utility.yul\":12580:12598   */\n      tag_277\n      tag_136\n      jump\t// in\n    tag_277:\n        /* \"#utility.yul\":12565:12600   */\n    tag_276:\n        /* \"#utility.yul\":12621:12622   */\n      dup3\n        /* \"#utility.yul\":12618:12619   */\n      dup3\n        /* \"#utility.yul\":12614:12623   */\n      mod\n        /* \"#utility.yul\":12609:12623   */\n      swap1\n      pop\n        /* \"#utility.yul\":12453:12629   */\n      swap3\n      swap2\n      pop\n      pop\n      jump\t// out\n        /* \"#utility.yul\":12635:12815   */\n    tag_137:\n        /* \"#utility.yul\":12683:12760   */\n      0x4e487b7100000000000000000000000000000000000000000000000000000000\n        /* \"#utility.yul\":12680:12681   */\n      0x00\n        /* \"#utility.yul\":12673:12761   */\n      mstore\n        /* \"#utility.yul\":12780:12784   */\n      0x11\n        /* \"#utility.yul\":12777:12778   */\n      0x04\n        /* \"#utility.yul\":12770:12785   */\n      mstore\n        /* \"#utility.yul\":12804:12808   */\n      0x24\n        /* \"#utility.yul\":12801:12802   */\n      0x00\n        /* \"#utility.yul\":12794:12809   */\n      revert\n        /* \"#utility.yul\":12821:13012   */\n    tag_78:\n        /* \"#utility.yul\":12861:12864   */\n      0x00\n        /* \"#utility.yul\":12880:12900   */\n      tag_280\n        /* \"#utility.yul\":12898:12899   */\n      dup3\n        /* \"#utility.yul\":12880:12900   */\n      tag_98\n      jump\t// in\n    tag_280:\n        /* \"#utility.yul\":12875:12900   */\n      swap2\n      pop\n        /* \"#utility.yul\":12914:12934   */\n      tag_281\n        /* \"#utility.yul\":12932:12933   */\n      dup4\n        /* \"#utility.yul\":12914:12934   */\n      tag_98\n      jump\t// in\n    tag_281:\n        /* \"#utility.yul\":12909:12934   */\n      swap3\n      pop\n        /* \"#utility.yul\":12957:12958   */\n      dup3\n        /* \"#utility.yul\":12954:12955   */\n      dup3\n        /* \"#utility.yul\":12950:12959   */\n      add\n        /* \"#utility.yul\":12943:12959   */\n      swap1\n      pop\n        /* \"#utility.yul\":12978:12981   */\n      dup1\n        /* \"#utility.yul\":12975:12976   */\n      dup3\n        /* \"#utility.yul\":12972:12982   */\n      gt\n        /* \"#utility.yul\":12969:13005   */\n      iszero\n      tag_282\n      jumpi\n        /* \"#utility.yul\":12985:13003   */\n      tag_283\n      tag_137\n      jump\t// in\n    tag_283:\n        /* \"#utility.yul\":12969:13005   */\n    tag_282:\n        /* \"#utility.yul\":12821:13012   */\n      swap3\n      swap2\n      pop\n      pop\n      jump\t// out\n        /* \"#utility.yul\":13018:13251   */\n    tag_82:\n        /* \"#utility.yul\":13057:13060   */\n      0x00\n        /* \"#utility.yul\":13080:13104   */\n      tag_285\n        /* \"#utility.yul\":13098:13103   */\n      dup3\n        /* \"#utility.yul\":13080:13104   */\n      tag_98\n      jump\t// in\n    tag_285:\n        /* \"#utility.yul\":13071:13104   */\n      swap2\n      pop\n        /* \"#utility.yul\":13126:13192   */\n      0xffffffffffffffffffffffffffffffffffffffffffffffffffffffffffffffff\n        /* \"#utility.yul\":13119:13124   */\n      dup3\n        /* \"#utility.yul\":13116:13193   */\n      sub\n        /* \"#utility.yul\":13113:13216   */\n      tag_286\n      jumpi\n        /* \"#utility.yul\":13196:13214   */\n      tag_287\n      tag_137\n      jump\t// in\n    tag_287:\n        /* \"#utility.yul\":13113:13216   */\n    tag_286:\n        /* \"#utility.yul\":13243:13244   */\n      0x01\n        /* \"#utility.yul\":13236:13241   */\n      dup3\n        /* \"#utility.yul\":13232:13245   */\n      add\n        /* \"#utility.yul\":13225:13245   */\n      swap1\n      pop\n        /* \"#utility.yul\":13018:13251   */\n      swap2\n      swap1\n      pop\n      jump\t// out\n\n    auxdata: 0xa2646970667358221220c62978b91bd6da3fbfe79264fec82a252e9d1e22c83d89deaed8a116d133643c64736f6c63430008100033\n}\n",
				"bytecode": {
					"linkReferences": {},
					"object": "60a06040523480156200001157600080fd5b5060405162000fda38038062000fda8339818101604052810190620000379190620001a2565b818073ffffffffffffffffffffffffffffffffffffffff1660808173ffffffffffffffffffffffffffffffffffffffff16815250505033600260006101000a81548173ffffffffffffffffffffffffffffffffffffffff021916908373ffffffffffffffffffffffffffffffffffffffff16021790555081600360006101000a81548173ffffffffffffffffffffffffffffffffffffffff021916908373ffffffffffffffffffffffffffffffffffffffff16021790555080600160006101000a81548173ffffffffffffffffffffffffffffffffffffffff021916908373ffffffffffffffffffffffffffffffffffffffff1602179055505050620001e9565b600080fd5b600073ffffffffffffffffffffffffffffffffffffffff82169050919050565b60006200016a826200013d565b9050919050565b6200017c816200015d565b81146200018857600080fd5b50565b6000815190506200019c8162000171565b92915050565b60008060408385031215620001bc57620001bb62000138565b5b6000620001cc858286016200018b565b9250506020620001df858286016200018b565b9150509250929050565b608051610dce6200020c6000396000818161016501526101b90152610dce6000f3fe60806040526004361061004e5760003560e01c80631fe543e31461005a5780632f34077b146100835780637007bf8b146100c0578063d6bf2b77146100e9578063f5df3fd41461012657610055565b3661005557005b600080fd5b34801561006657600080fd5b50610081600480360381019061007c91906107d7565b610163565b005b34801561008f57600080fd5b506100aa60048036038101906100a591906108e5565b610223565b6040516100b7919061095b565b60405180910390f35b3480156100cc57600080fd5b506100e760048036038101906100e291906108e5565b6103bb565b005b3480156100f557600080fd5b50610110600480360381019061010b9190610976565b6104b6565b60405161011d9190610a74565b60405180910390f35b34801561013257600080fd5b5061014d60048036038101906101489190610a96565b61058b565b60405161015a919061095b565b60405180910390f35b7f000000000000000000000000000000000000000000000000000000000000000073ffffffffffffffffffffffffffffffffffffffff163373ffffffffffffffffffffffffffffffffffffffff161461021557337f00000000000000000000000000000000000000000000000000000000000000006040517f1cf993f400000000000000000000000000000000000000000000000000000000815260040161020c929190610b04565b60405180910390fd5b61021f82826105af565b5050565b6000600260009054906101000a900473ffffffffffffffffffffffffffffffffffffffff1673ffffffffffffffffffffffffffffffffffffffff163373ffffffffffffffffffffffffffffffffffffffff1614806102ce5750600160009054906101000a900473ffffffffffffffffffffffffffffffffffffffff1673ffffffffffffffffffffffffffffffffffffffff163373ffffffffffffffffffffffffffffffffffffffff16145b61030d576040517f08c379a000000000000000000000000000000000000000000000000000000000815260040161030490610b8a565b60405180910390fd5b600360009054906101000a900473ffffffffffffffffffffffffffffffffffffffff1673ffffffffffffffffffffffffffffffffffffffff16632f34077b868686866040518563ffffffff1660e01b815260040161036e9493929190610bd7565b6020604051808303816000875af115801561038d573d6000803e3d6000fd5b505050506040513d601f19601f820116820180604052508101906103b19190610c31565b9050949350505050565b600260009054906101000a900473ffffffffffffffffffffffffffffffffffffffff1673ffffffffffffffffffffffffffffffffffffffff163373ffffffffffffffffffffffffffffffffffffffff1614806104645750600160009054906101000a900473ffffffffffffffffffffffffffffffffffffffff1673ffffffffffffffffffffffffffffffffffffffff163373ffffffffffffffffffffffffffffffffffffffff16145b6104a3576040517f08c379a000000000000000000000000000000000000000000000000000000000815260040161049a90610b8a565b60405180910390fd5b6104af84848484610223565b5050505050565b60606000808054905067ffffffffffffffff8111156104d8576104d7610694565b5b6040519080825280602002602001820160405280156105065781602001602082028036833780820191505090505b50905060005b6000805490508110156105805784846000838154811061052f5761052e610c5e565b5b90600052602060002001546105449190610cbc565b61054e9190610d1c565b82828151811061056157610560610c5e565b5b602002602001018181525050808061057890610d50565b91505061050c565b508091505092915050565b6000818154811061059b57600080fd5b906000526020600020016000915090505481565b80600090805190602001906105c59291906105ca565b505050565b828054828255906000526020600020908101928215610606579160200282015b828111156106055782518255916020019190600101906105ea565b5b5090506106139190610617565b5090565b5b80821115610630576000816000905550600101610618565b5090565b6000604051905090565b600080fd5b600080fd5b6000819050919050565b61065b81610648565b811461066657600080fd5b50565b60008135905061067881610652565b92915050565b600080fd5b6000601f19601f8301169050919050565b7f4e487b7100000000000000000000000000000000000000000000000000000000600052604160045260246000fd5b6106cc82610683565b810181811067ffffffffffffffff821117156106eb576106ea610694565b5b80604052505050565b60006106fe610634565b905061070a82826106c3565b919050565b600067ffffffffffffffff82111561072a57610729610694565b5b602082029050602081019050919050565b600080fd5b600061075361074e8461070f565b6106f4565b905080838252602082019050602084028301858111156107765761077561073b565b5b835b8181101561079f578061078b8882610669565b845260208401935050602081019050610778565b5050509392505050565b600082601f8301126107be576107bd61067e565b5b81356107ce848260208601610740565b91505092915050565b600080604083850312156107ee576107ed61063e565b5b60006107fc85828601610669565b925050602083013567ffffffffffffffff81111561081d5761081c610643565b5b610829858286016107a9565b9150509250929050565b6000819050919050565b61084681610833565b811461085157600080fd5b50565b6000813590506108638161083d565b92915050565b600067ffffffffffffffff82169050919050565b61088681610869565b811461089157600080fd5b50565b6000813590506108a38161087d565b92915050565b600063ffffffff82169050919050565b6108c2816108a9565b81146108cd57600080fd5b50565b6000813590506108df816108b9565b92915050565b600080600080608085870312156108ff576108fe61063e565b5b600061090d87828801610854565b945050602061091e87828801610894565b935050604061092f878288016108d0565b9250506060610940878288016108d0565b91505092959194509250565b61095581610648565b82525050565b6000602082019050610970600083018461094c565b92915050565b6000806040838503121561098d5761098c61063e565b5b600061099b85828601610669565b92505060206109ac85828601610669565b9150509250929050565b600081519050919050565b600082825260208201905092915050565b6000819050602082019050919050565b6109eb81610648565b82525050565b60006109fd83836109e2565b60208301905092915050565b6000602082019050919050565b6000610a21826109b6565b610a2b81856109c1565b9350610a36836109d2565b8060005b83811015610a67578151610a4e88826109f1565b9750610a5983610a09565b925050600181019050610a3a565b5085935050505092915050565b60006020820190508181036000830152610a8e8184610a16565b905092915050565b600060208284031215610aac57610aab61063e565b5b6000610aba84828501610669565b91505092915050565b600073ffffffffffffffffffffffffffffffffffffffff82169050919050565b6000610aee82610ac3565b9050919050565b610afe81610ae3565b82525050565b6000604082019050610b196000830185610af5565b610b266020830184610af5565b9392505050565b600082825260208201905092915050565b7f6e6f74206f776e65720000000000000000000000000000000000000000000000600082015250565b6000610b74600983610b2d565b9150610b7f82610b3e565b602082019050919050565b60006020820190508181036000830152610ba381610b67565b9050919050565b610bb381610833565b82525050565b610bc281610869565b82525050565b610bd1816108a9565b82525050565b6000608082019050610bec6000830187610baa565b610bf96020830186610bb9565b610c066040830185610bc8565b610c136060830184610bc8565b95945050505050565b600081519050610c2b81610652565b92915050565b600060208284031215610c4757610c4661063e565b5b6000610c5584828501610c1c565b91505092915050565b7f4e487b7100000000000000000000000000000000000000000000000000000000600052603260045260246000fd5b7f4e487b7100000000000000000000000000000000000000000000000000000000600052601260045260246000fd5b6000610cc782610648565b9150610cd283610648565b925082610ce257610ce1610c8d565b5b828206905092915050565b7f4e487b7100000000000000000000000000000000000000000000000000000000600052601160045260246000fd5b6000610d2782610648565b9150610d3283610648565b9250828201905080821115610d4a57610d49610ced565b5b92915050565b6000610d5b82610648565b91507fffffffffffffffffffffffffffffffffffffffffffffffffffffffffffffffff8203610d8d57610d8c610ced565b5b60018201905091905056fea2646970667358221220c62978b91bd6da3fbfe79264fec82a252e9d1e22c83d89deaed8a116d133643c64736f6c63430008100033",
					"opcodes": "PUSH1 0xA0 PUSH1 0x40 MSTORE CALLVALUE DUP1 ISZERO PUSH3 0x11 JUMPI PUSH1 0x0 DUP1 REVERT JUMPDEST POP PUSH1 0x40 MLOAD PUSH3 0xFDA CODESIZE SUB DUP1 PUSH3 0xFDA DUP4 CODECOPY DUP2 DUP2 ADD PUSH1 0x40 MSTORE DUP2 ADD SWAP1 PUSH3 0x37 SWAP2 SWAP1 PUSH3 0x1A2 JUMP JUMPDEST DUP2 DUP1 PUSH20 0xFFFFFFFFFFFFFFFFFFFFFFFFFFFFFFFFFFFFFFFF AND PUSH1 0x80 DUP2 PUSH20 0xFFFFFFFFFFFFFFFFFFFFFFFFFFFFFFFFFFFFFFFF AND DUP2 MSTORE POP POP POP CALLER PUSH1 0x2 PUSH1 0x0 PUSH2 0x100 EXP DUP2 SLOAD DUP2 PUSH20 0xFFFFFFFFFFFFFFFFFFFFFFFFFFFFFFFFFFFFFFFF MUL NOT AND SWAP1 DUP4 PUSH20 0xFFFFFFFFFFFFFFFFFFFFFFFFFFFFFFFFFFFFFFFF AND MUL OR SWAP1 SSTORE POP DUP2 PUSH1 0x3 PUSH1 0x0 PUSH2 0x100 EXP DUP2 SLOAD DUP2 PUSH20 0xFFFFFFFFFFFFFFFFFFFFFFFFFFFFFFFFFFFFFFFF MUL NOT AND SWAP1 DUP4 PUSH20 0xFFFFFFFFFFFFFFFFFFFFFFFFFFFFFFFFFFFFFFFF AND MUL OR SWAP1 SSTORE POP DUP1 PUSH1 0x1 PUSH1 0x0 PUSH2 0x100 EXP DUP2 SLOAD DUP2 PUSH20 0xFFFFFFFFFFFFFFFFFFFFFFFFFFFFFFFFFFFFFFFF MUL NOT AND SWAP1 DUP4 PUSH20 0xFFFFFFFFFFFFFFFFFFFFFFFFFFFFFFFFFFFFFFFF AND MUL OR SWAP1 SSTORE POP POP POP PUSH3 0x1E9 JUMP JUMPDEST PUSH1 0x0 DUP1 REVERT JUMPDEST PUSH1 0x0 PUSH20 0xFFFFFFFFFFFFFFFFFFFFFFFFFFFFFFFFFFFFFFFF DUP3 AND SWAP1 POP SWAP2 SWAP1 POP JUMP JUMPDEST PUSH1 0x0 PUSH3 0x16A DUP3 PUSH3 0x13D JUMP JUMPDEST SWAP1 POP SWAP2 SWAP1 POP JUMP JUMPDEST PUSH3 0x17C DUP2 PUSH3 0x15D JUMP JUMPDEST DUP2 EQ PUSH3 0x188 JUMPI PUSH1 0x0 DUP1 REVERT JUMPDEST POP JUMP JUMPDEST PUSH1 0x0 DUP2 MLOAD SWAP1 POP PUSH3 0x19C DUP2 PUSH3 0x171 JUMP JUMPDEST SWAP3 SWAP2 POP POP JUMP JUMPDEST PUSH1 0x0 DUP1 PUSH1 0x40 DUP4 DUP6 SUB SLT ISZERO PUSH3 0x1BC JUMPI PUSH3 0x1BB PUSH3 0x138 JUMP JUMPDEST JUMPDEST PUSH1 0x0 PUSH3 0x1CC DUP6 DUP3 DUP7 ADD PUSH3 0x18B JUMP JUMPDEST SWAP3 POP POP PUSH1 0x20 PUSH3 0x1DF DUP6 DUP3 DUP7 ADD PUSH3 0x18B JUMP JUMPDEST SWAP2 POP POP SWAP3 POP SWAP3 SWAP1 POP JUMP JUMPDEST PUSH1 0x80 MLOAD PUSH2 0xDCE PUSH3 0x20C PUSH1 0x0 CODECOPY PUSH1 0x0 DUP2 DUP2 PUSH2 0x165 ADD MSTORE PUSH2 0x1B9 ADD MSTORE PUSH2 0xDCE PUSH1 0x0 RETURN INVALID PUSH1 0x80 PUSH1 0x40 MSTORE PUSH1 0x4 CALLDATASIZE LT PUSH2 0x4E JUMPI PUSH1 0x0 CALLDATALOAD PUSH1 0xE0 SHR DUP1 PUSH4 0x1FE543E3 EQ PUSH2 0x5A JUMPI DUP1 PUSH4 0x2F34077B EQ PUSH2 0x83 JUMPI DUP1 PUSH4 0x7007BF8B EQ PUSH2 0xC0 JUMPI DUP1 PUSH4 0xD6BF2B77 EQ PUSH2 0xE9 JUMPI DUP1 PUSH4 0xF5DF3FD4 EQ PUSH2 0x126 JUMPI PUSH2 0x55 JUMP JUMPDEST CALLDATASIZE PUSH2 0x55 JUMPI STOP JUMPDEST PUSH1 0x0 DUP1 REVERT JUMPDEST CALLVALUE DUP1 ISZERO PUSH2 0x66 JUMPI PUSH1 0x0 DUP1 REVERT JUMPDEST POP PUSH2 0x81 PUSH1 0x4 DUP1 CALLDATASIZE SUB DUP2 ADD SWAP1 PUSH2 0x7C SWAP2 SWAP1 PUSH2 0x7D7 JUMP JUMPDEST PUSH2 0x163 JUMP JUMPDEST STOP JUMPDEST CALLVALUE DUP1 ISZERO PUSH2 0x8F JUMPI PUSH1 0x0 DUP1 REVERT JUMPDEST POP PUSH2 0xAA PUSH1 0x4 DUP1 CALLDATASIZE SUB DUP2 ADD SWAP1 PUSH2 0xA5 SWAP2 SWAP1 PUSH2 0x8E5 JUMP JUMPDEST PUSH2 0x223 JUMP JUMPDEST PUSH1 0x40 MLOAD PUSH2 0xB7 SWAP2 SWAP1 PUSH2 0x95B JUMP JUMPDEST PUSH1 0x40 MLOAD DUP1 SWAP2 SUB SWAP1 RETURN JUMPDEST CALLVALUE DUP1 ISZERO PUSH2 0xCC JUMPI PUSH1 0x0 DUP1 REVERT JUMPDEST POP PUSH2 0xE7 PUSH1 0x4 DUP1 CALLDATASIZE SUB DUP2 ADD SWAP1 PUSH2 0xE2 SWAP2 SWAP1 PUSH2 0x8E5 JUMP JUMPDEST PUSH2 0x3BB JUMP JUMPDEST STOP JUMPDEST CALLVALUE DUP1 ISZERO PUSH2 0xF5 JUMPI PUSH1 0x0 DUP1 REVERT JUMPDEST POP PUSH2 0x110 PUSH1 0x4 DUP1 CALLDATASIZE SUB DUP2 ADD SWAP1 PUSH2 0x10B SWAP2 SWAP1 PUSH2 0x976 JUMP JUMPDEST PUSH2 0x4B6 JUMP JUMPDEST PUSH1 0x40 MLOAD PUSH2 0x11D SWAP2 SWAP1 PUSH2 0xA74 JUMP JUMPDEST PUSH1 0x40 MLOAD DUP1 SWAP2 SUB SWAP1 RETURN JUMPDEST CALLVALUE DUP1 ISZERO PUSH2 0x132 JUMPI PUSH1 0x0 DUP1 REVERT JUMPDEST POP PUSH2 0x14D PUSH1 0x4 DUP1 CALLDATASIZE SUB DUP2 ADD SWAP1 PUSH2 0x148 SWAP2 SWAP1 PUSH2 0xA96 JUMP JUMPDEST PUSH2 0x58B JUMP JUMPDEST PUSH1 0x40 MLOAD PUSH2 0x15A SWAP2 SWAP1 PUSH2 0x95B JUMP JUMPDEST PUSH1 0x40 MLOAD DUP1 SWAP2 SUB SWAP1 RETURN JUMPDEST PUSH32 0x0 PUSH20 0xFFFFFFFFFFFFFFFFFFFFFFFFFFFFFFFFFFFFFFFF AND CALLER PUSH20 0xFFFFFFFFFFFFFFFFFFFFFFFFFFFFFFFFFFFFFFFF AND EQ PUSH2 0x215 JUMPI CALLER PUSH32 0x0 PUSH1 0x40 MLOAD PUSH32 0x1CF993F400000000000000000000000000000000000000000000000000000000 DUP2 MSTORE PUSH1 0x4 ADD PUSH2 0x20C SWAP3 SWAP2 SWAP1 PUSH2 0xB04 JUMP JUMPDEST PUSH1 0x40 MLOAD DUP1 SWAP2 SUB SWAP1 REVERT JUMPDEST PUSH2 0x21F DUP3 DUP3 PUSH2 0x5AF JUMP JUMPDEST POP POP JUMP JUMPDEST PUSH1 0x0 PUSH1 0x2 PUSH1 0x0 SWAP1 SLOAD SWAP1 PUSH2 0x100 EXP SWAP1 DIV PUSH20 0xFFFFFFFFFFFFFFFFFFFFFFFFFFFFFFFFFFFFFFFF AND PUSH20 0xFFFFFFFFFFFFFFFFFFFFFFFFFFFFFFFFFFFFFFFF AND CALLER PUSH20 0xFFFFFFFFFFFFFFFFFFFFFFFFFFFFFFFFFFFFFFFF AND EQ DUP1 PUSH2 0x2CE JUMPI POP PUSH1 0x1 PUSH1 0x0 SWAP1 SLOAD SWAP1 PUSH2 0x100 EXP SWAP1 DIV PUSH20 0xFFFFFFFFFFFFFFFFFFFFFFFFFFFFFFFFFFFFFFFF AND PUSH20 0xFFFFFFFFFFFFFFFFFFFFFFFFFFFFFFFFFFFFFFFF AND CALLER PUSH20 0xFFFFFFFFFFFFFFFFFFFFFFFFFFFFFFFFFFFFFFFF AND EQ JUMPDEST PUSH2 0x30D JUMPI PUSH1 0x40 MLOAD PUSH32 0x8C379A000000000000000000000000000000000000000000000000000000000 DUP2 MSTORE PUSH1 0x4 ADD PUSH2 0x304 SWAP1 PUSH2 0xB8A JUMP JUMPDEST PUSH1 0x40 MLOAD DUP1 SWAP2 SUB SWAP1 REVERT JUMPDEST PUSH1 0x3 PUSH1 0x0 SWAP1 SLOAD SWAP1 PUSH2 0x100 EXP SWAP1 DIV PUSH20 0xFFFFFFFFFFFFFFFFFFFFFFFFFFFFFFFFFFFFFFFF AND PUSH20 0xFFFFFFFFFFFFFFFFFFFFFFFFFFFFFFFFFFFFFFFF AND PUSH4 0x2F34077B DUP7 DUP7 DUP7 DUP7 PUSH1 0x40 MLOAD DUP6 PUSH4 0xFFFFFFFF AND PUSH1 0xE0 SHL DUP2 MSTORE PUSH1 0x4 ADD PUSH2 0x36E SWAP5 SWAP4 SWAP3 SWAP2 SWAP1 PUSH2 0xBD7 JUMP JUMPDEST PUSH1 0x20 PUSH1 0x40 MLOAD DUP1 DUP4 SUB DUP2 PUSH1 0x0 DUP8 GAS CALL ISZERO DUP1 ISZERO PUSH2 0x38D JUMPI RETURNDATASIZE PUSH1 0x0 DUP1 RETURNDATACOPY RETURNDATASIZE PUSH1 0x0 REVERT JUMPDEST POP POP POP POP PUSH1 0x40 MLOAD RETURNDATASIZE PUSH1 0x1F NOT PUSH1 0x1F DUP3 ADD AND DUP3 ADD DUP1 PUSH1 0x40 MSTORE POP DUP2 ADD SWAP1 PUSH2 0x3B1 SWAP2 SWAP1 PUSH2 0xC31 JUMP JUMPDEST SWAP1 POP SWAP5 SWAP4 POP POP POP POP JUMP JUMPDEST PUSH1 0x2 PUSH1 0x0 SWAP1 SLOAD SWAP1 PUSH2 0x100 EXP SWAP1 DIV PUSH20 0xFFFFFFFFFFFFFFFFFFFFFFFFFFFFFFFFFFFFFFFF AND PUSH20 0xFFFFFFFFFFFFFFFFFFFFFFFFFFFFFFFFFFFFFFFF AND CALLER PUSH20 0xFFFFFFFFFFFFFFFFFFFFFFFFFFFFFFFFFFFFFFFF AND EQ DUP1 PUSH2 0x464 JUMPI POP PUSH1 0x1 PUSH1 0x0 SWAP1 SLOAD SWAP1 PUSH2 0x100 EXP SWAP1 DIV PUSH20 0xFFFFFFFFFFFFFFFFFFFFFFFFFFFFFFFFFFFFFFFF AND PUSH20 0xFFFFFFFFFFFFFFFFFFFFFFFFFFFFFFFFFFFFFFFF AND CALLER PUSH20 0xFFFFFFFFFFFFFFFFFFFFFFFFFFFFFFFFFFFFFFFF AND EQ JUMPDEST PUSH2 0x4A3 JUMPI PUSH1 0x40 MLOAD PUSH32 0x8C379A000000000000000000000000000000000000000000000000000000000 DUP2 MSTORE PUSH1 0x4 ADD PUSH2 0x49A SWAP1 PUSH2 0xB8A JUMP JUMPDEST PUSH1 0x40 MLOAD DUP1 SWAP2 SUB SWAP1 REVERT JUMPDEST PUSH2 0x4AF DUP5 DUP5 DUP5 DUP5 PUSH2 0x223 JUMP JUMPDEST POP POP POP POP POP JUMP JUMPDEST PUSH1 0x60 PUSH1 0x0 DUP1 DUP1 SLOAD SWAP1 POP PUSH8 0xFFFFFFFFFFFFFFFF DUP2 GT ISZERO PUSH2 0x4D8 JUMPI PUSH2 0x4D7 PUSH2 0x694 JUMP JUMPDEST JUMPDEST PUSH1 0x40 MLOAD SWAP1 DUP1 DUP3 MSTORE DUP1 PUSH1 0x20 MUL PUSH1 0x20 ADD DUP3 ADD PUSH1 0x40 MSTORE DUP1 ISZERO PUSH2 0x506 JUMPI DUP2 PUSH1 0x20 ADD PUSH1 0x20 DUP3 MUL DUP1 CALLDATASIZE DUP4 CALLDATACOPY DUP1 DUP3 ADD SWAP2 POP POP SWAP1 POP JUMPDEST POP SWAP1 POP PUSH1 0x0 JUMPDEST PUSH1 0x0 DUP1 SLOAD SWAP1 POP DUP2 LT ISZERO PUSH2 0x580 JUMPI DUP5 DUP5 PUSH1 0x0 DUP4 DUP2 SLOAD DUP2 LT PUSH2 0x52F JUMPI PUSH2 0x52E PUSH2 0xC5E JUMP JUMPDEST JUMPDEST SWAP1 PUSH1 0x0 MSTORE PUSH1 0x20 PUSH1 0x0 KECCAK256 ADD SLOAD PUSH2 0x544 SWAP2 SWAP1 PUSH2 0xCBC JUMP JUMPDEST PUSH2 0x54E SWAP2 SWAP1 PUSH2 0xD1C JUMP JUMPDEST DUP3 DUP3 DUP2 MLOAD DUP2 LT PUSH2 0x561 JUMPI PUSH2 0x560 PUSH2 0xC5E JUMP JUMPDEST JUMPDEST PUSH1 0x20 MUL PUSH1 0x20 ADD ADD DUP2 DUP2 MSTORE POP POP DUP1 DUP1 PUSH2 0x578 SWAP1 PUSH2 0xD50 JUMP JUMPDEST SWAP2 POP POP PUSH2 0x50C JUMP JUMPDEST POP DUP1 SWAP2 POP POP SWAP3 SWAP2 POP POP JUMP JUMPDEST PUSH1 0x0 DUP2 DUP2 SLOAD DUP2 LT PUSH2 0x59B JUMPI PUSH1 0x0 DUP1 REVERT JUMPDEST SWAP1 PUSH1 0x0 MSTORE PUSH1 0x20 PUSH1 0x0 KECCAK256 ADD PUSH1 0x0 SWAP2 POP SWAP1 POP SLOAD DUP2 JUMP JUMPDEST DUP1 PUSH1 0x0 SWAP1 DUP1 MLOAD SWAP1 PUSH1 0x20 ADD SWAP1 PUSH2 0x5C5 SWAP3 SWAP2 SWAP1 PUSH2 0x5CA JUMP JUMPDEST POP POP POP JUMP JUMPDEST DUP3 DUP1 SLOAD DUP3 DUP3 SSTORE SWAP1 PUSH1 0x0 MSTORE PUSH1 0x20 PUSH1 0x0 KECCAK256 SWAP1 DUP2 ADD SWAP3 DUP3 ISZERO PUSH2 0x606 JUMPI SWAP2 PUSH1 0x20 MUL DUP3 ADD JUMPDEST DUP3 DUP2 GT ISZERO PUSH2 0x605 JUMPI DUP3 MLOAD DUP3 SSTORE SWAP2 PUSH1 0x20 ADD SWAP2 SWAP1 PUSH1 0x1 ADD SWAP1 PUSH2 0x5EA JUMP JUMPDEST JUMPDEST POP SWAP1 POP PUSH2 0x613 SWAP2 SWAP1 PUSH2 0x617 JUMP JUMPDEST POP SWAP1 JUMP JUMPDEST JUMPDEST DUP1 DUP3 GT ISZERO PUSH2 0x630 JUMPI PUSH1 0x0 DUP2 PUSH1 0x0 SWAP1 SSTORE POP PUSH1 0x1 ADD PUSH2 0x618 JUMP JUMPDEST POP SWAP1 JUMP JUMPDEST PUSH1 0x0 PUSH1 0x40 MLOAD SWAP1 POP SWAP1 JUMP JUMPDEST PUSH1 0x0 DUP1 REVERT JUMPDEST PUSH1 0x0 DUP1 REVERT JUMPDEST PUSH1 0x0 DUP2 SWAP1 POP SWAP2 SWAP1 POP JUMP JUMPDEST PUSH2 0x65B DUP2 PUSH2 0x648 JUMP JUMPDEST DUP2 EQ PUSH2 0x666 JUMPI PUSH1 0x0 DUP1 REVERT JUMPDEST POP JUMP JUMPDEST PUSH1 0x0 DUP2 CALLDATALOAD SWAP1 POP PUSH2 0x678 DUP2 PUSH2 0x652 JUMP JUMPDEST SWAP3 SWAP2 POP POP JUMP JUMPDEST PUSH1 0x0 DUP1 REVERT JUMPDEST PUSH1 0x0 PUSH1 0x1F NOT PUSH1 0x1F DUP4 ADD AND SWAP1 POP SWAP2 SWAP1 POP JUMP JUMPDEST PUSH32 0x4E487B7100000000000000000000000000000000000000000000000000000000 PUSH1 0x0 MSTORE PUSH1 0x41 PUSH1 0x4 MSTORE PUSH1 0x24 PUSH1 0x0 REVERT JUMPDEST PUSH2 0x6CC DUP3 PUSH2 0x683 JUMP JUMPDEST DUP2 ADD DUP2 DUP2 LT PUSH8 0xFFFFFFFFFFFFFFFF DUP3 GT OR ISZERO PUSH2 0x6EB JUMPI PUSH2 0x6EA PUSH2 0x694 JUMP JUMPDEST JUMPDEST DUP1 PUSH1 0x40 MSTORE POP POP POP JUMP JUMPDEST PUSH1 0x0 PUSH2 0x6FE PUSH2 0x634 JUMP JUMPDEST SWAP1 POP PUSH2 0x70A DUP3 DUP3 PUSH2 0x6C3 JUMP JUMPDEST SWAP2 SWAP1 POP JUMP JUMPDEST PUSH1 0x0 PUSH8 0xFFFFFFFFFFFFFFFF DUP3 GT ISZERO PUSH2 0x72A JUMPI PUSH2 0x729 PUSH2 0x694 JUMP JUMPDEST JUMPDEST PUSH1 0x20 DUP3 MUL SWAP1 POP PUSH1 0x20 DUP2 ADD SWAP1 POP SWAP2 SWAP1 POP JUMP JUMPDEST PUSH1 0x0 DUP1 REVERT JUMPDEST PUSH1 0x0 PUSH2 0x753 PUSH2 0x74E DUP5 PUSH2 0x70F JUMP JUMPDEST PUSH2 0x6F4 JUMP JUMPDEST SWAP1 POP DUP1 DUP4 DUP3 MSTORE PUSH1 0x20 DUP3 ADD SWAP1 POP PUSH1 0x20 DUP5 MUL DUP4 ADD DUP6 DUP2 GT ISZERO PUSH2 0x776 JUMPI PUSH2 0x775 PUSH2 0x73B JUMP JUMPDEST JUMPDEST DUP4 JUMPDEST DUP2 DUP2 LT ISZERO PUSH2 0x79F JUMPI DUP1 PUSH2 0x78B DUP9 DUP3 PUSH2 0x669 JUMP JUMPDEST DUP5 MSTORE PUSH1 0x20 DUP5 ADD SWAP4 POP POP PUSH1 0x20 DUP2 ADD SWAP1 POP PUSH2 0x778 JUMP JUMPDEST POP POP POP SWAP4 SWAP3 POP POP POP JUMP JUMPDEST PUSH1 0x0 DUP3 PUSH1 0x1F DUP4 ADD SLT PUSH2 0x7BE JUMPI PUSH2 0x7BD PUSH2 0x67E JUMP JUMPDEST JUMPDEST DUP2 CALLDATALOAD PUSH2 0x7CE DUP5 DUP3 PUSH1 0x20 DUP7 ADD PUSH2 0x740 JUMP JUMPDEST SWAP2 POP POP SWAP3 SWAP2 POP POP JUMP JUMPDEST PUSH1 0x0 DUP1 PUSH1 0x40 DUP4 DUP6 SUB SLT ISZERO PUSH2 0x7EE JUMPI PUSH2 0x7ED PUSH2 0x63E JUMP JUMPDEST JUMPDEST PUSH1 0x0 PUSH2 0x7FC DUP6 DUP3 DUP7 ADD PUSH2 0x669 JUMP JUMPDEST SWAP3 POP POP PUSH1 0x20 DUP4 ADD CALLDATALOAD PUSH8 0xFFFFFFFFFFFFFFFF DUP2 GT ISZERO PUSH2 0x81D JUMPI PUSH2 0x81C PUSH2 0x643 JUMP JUMPDEST JUMPDEST PUSH2 0x829 DUP6 DUP3 DUP7 ADD PUSH2 0x7A9 JUMP JUMPDEST SWAP2 POP POP SWAP3 POP SWAP3 SWAP1 POP JUMP JUMPDEST PUSH1 0x0 DUP2 SWAP1 POP SWAP2 SWAP1 POP JUMP JUMPDEST PUSH2 0x846 DUP2 PUSH2 0x833 JUMP JUMPDEST DUP2 EQ PUSH2 0x851 JUMPI PUSH1 0x0 DUP1 REVERT JUMPDEST POP JUMP JUMPDEST PUSH1 0x0 DUP2 CALLDATALOAD SWAP1 POP PUSH2 0x863 DUP2 PUSH2 0x83D JUMP JUMPDEST SWAP3 SWAP2 POP POP JUMP JUMPDEST PUSH1 0x0 PUSH8 0xFFFFFFFFFFFFFFFF DUP3 AND SWAP1 POP SWAP2 SWAP1 POP JUMP JUMPDEST PUSH2 0x886 DUP2 PUSH2 0x869 JUMP JUMPDEST DUP2 EQ PUSH2 0x891 JUMPI PUSH1 0x0 DUP1 REVERT JUMPDEST POP JUMP JUMPDEST PUSH1 0x0 DUP2 CALLDATALOAD SWAP1 POP PUSH2 0x8A3 DUP2 PUSH2 0x87D JUMP JUMPDEST SWAP3 SWAP2 POP POP JUMP JUMPDEST PUSH1 0x0 PUSH4 0xFFFFFFFF DUP3 AND SWAP1 POP SWAP2 SWAP1 POP JUMP JUMPDEST PUSH2 0x8C2 DUP2 PUSH2 0x8A9 JUMP JUMPDEST DUP2 EQ PUSH2 0x8CD JUMPI PUSH1 0x0 DUP1 REVERT JUMPDEST POP JUMP JUMPDEST PUSH1 0x0 DUP2 CALLDATALOAD SWAP1 POP PUSH2 0x8DF DUP2 PUSH2 0x8B9 JUMP JUMPDEST SWAP3 SWAP2 POP POP JUMP JUMPDEST PUSH1 0x0 DUP1 PUSH1 0x0 DUP1 PUSH1 0x80 DUP6 DUP8 SUB SLT ISZERO PUSH2 0x8FF JUMPI PUSH2 0x8FE PUSH2 0x63E JUMP JUMPDEST JUMPDEST PUSH1 0x0 PUSH2 0x90D DUP8 DUP3 DUP9 ADD PUSH2 0x854 JUMP JUMPDEST SWAP5 POP POP PUSH1 0x20 PUSH2 0x91E DUP8 DUP3 DUP9 ADD PUSH2 0x894 JUMP JUMPDEST SWAP4 POP POP PUSH1 0x40 PUSH2 0x92F DUP8 DUP3 DUP9 ADD PUSH2 0x8D0 JUMP JUMPDEST SWAP3 POP POP PUSH1 0x60 PUSH2 0x940 DUP8 DUP3 DUP9 ADD PUSH2 0x8D0 JUMP JUMPDEST SWAP2 POP POP SWAP3 SWAP6 SWAP2 SWAP5 POP SWAP3 POP JUMP JUMPDEST PUSH2 0x955 DUP2 PUSH2 0x648 JUMP JUMPDEST DUP3 MSTORE POP POP JUMP JUMPDEST PUSH1 0x0 PUSH1 0x20 DUP3 ADD SWAP1 POP PUSH2 0x970 PUSH1 0x0 DUP4 ADD DUP5 PUSH2 0x94C JUMP JUMPDEST SWAP3 SWAP2 POP POP JUMP JUMPDEST PUSH1 0x0 DUP1 PUSH1 0x40 DUP4 DUP6 SUB SLT ISZERO PUSH2 0x98D JUMPI PUSH2 0x98C PUSH2 0x63E JUMP JUMPDEST JUMPDEST PUSH1 0x0 PUSH2 0x99B DUP6 DUP3 DUP7 ADD PUSH2 0x669 JUMP JUMPDEST SWAP3 POP POP PUSH1 0x20 PUSH2 0x9AC DUP6 DUP3 DUP7 ADD PUSH2 0x669 JUMP JUMPDEST SWAP2 POP POP SWAP3 POP SWAP3 SWAP1 POP JUMP JUMPDEST PUSH1 0x0 DUP2 MLOAD SWAP1 POP SWAP2 SWAP1 POP JUMP JUMPDEST PUSH1 0x0 DUP3 DUP3 MSTORE PUSH1 0x20 DUP3 ADD SWAP1 POP SWAP3 SWAP2 POP POP JUMP JUMPDEST PUSH1 0x0 DUP2 SWAP1 POP PUSH1 0x20 DUP3 ADD SWAP1 POP SWAP2 SWAP1 POP JUMP JUMPDEST PUSH2 0x9EB DUP2 PUSH2 0x648 JUMP JUMPDEST DUP3 MSTORE POP POP JUMP JUMPDEST PUSH1 0x0 PUSH2 0x9FD DUP4 DUP4 PUSH2 0x9E2 JUMP JUMPDEST PUSH1 0x20 DUP4 ADD SWAP1 POP SWAP3 SWAP2 POP POP JUMP JUMPDEST PUSH1 0x0 PUSH1 0x20 DUP3 ADD SWAP1 POP SWAP2 SWAP1 POP JUMP JUMPDEST PUSH1 0x0 PUSH2 0xA21 DUP3 PUSH2 0x9B6 JUMP JUMPDEST PUSH2 0xA2B DUP2 DUP6 PUSH2 0x9C1 JUMP JUMPDEST SWAP4 POP PUSH2 0xA36 DUP4 PUSH2 0x9D2 JUMP JUMPDEST DUP1 PUSH1 0x0 JUMPDEST DUP4 DUP2 LT ISZERO PUSH2 0xA67 JUMPI DUP2 MLOAD PUSH2 0xA4E DUP9 DUP3 PUSH2 0x9F1 JUMP JUMPDEST SWAP8 POP PUSH2 0xA59 DUP4 PUSH2 0xA09 JUMP JUMPDEST SWAP3 POP POP PUSH1 0x1 DUP2 ADD SWAP1 POP PUSH2 0xA3A JUMP JUMPDEST POP DUP6 SWAP4 POP POP POP POP SWAP3 SWAP2 POP POP JUMP JUMPDEST PUSH1 0x0 PUSH1 0x20 DUP3 ADD SWAP1 POP DUP2 DUP2 SUB PUSH1 0x0 DUP4 ADD MSTORE PUSH2 0xA8E DUP2 DUP5 PUSH2 0xA16 JUMP JUMPDEST SWAP1 POP SWAP3 SWAP2 POP POP JUMP JUMPDEST PUSH1 0x0 PUSH1 0x20 DUP3 DUP5 SUB SLT ISZERO PUSH2 0xAAC JUMPI PUSH2 0xAAB PUSH2 0x63E JUMP JUMPDEST JUMPDEST PUSH1 0x0 PUSH2 0xABA DUP5 DUP3 DUP6 ADD PUSH2 0x669 JUMP JUMPDEST SWAP2 POP POP SWAP3 SWAP2 POP POP JUMP JUMPDEST PUSH1 0x0 PUSH20 0xFFFFFFFFFFFFFFFFFFFFFFFFFFFFFFFFFFFFFFFF DUP3 AND SWAP1 POP SWAP2 SWAP1 POP JUMP JUMPDEST PUSH1 0x0 PUSH2 0xAEE DUP3 PUSH2 0xAC3 JUMP JUMPDEST SWAP1 POP SWAP2 SWAP1 POP JUMP JUMPDEST PUSH2 0xAFE DUP2 PUSH2 0xAE3 JUMP JUMPDEST DUP3 MSTORE POP POP JUMP JUMPDEST PUSH1 0x0 PUSH1 0x40 DUP3 ADD SWAP1 POP PUSH2 0xB19 PUSH1 0x0 DUP4 ADD DUP6 PUSH2 0xAF5 JUMP JUMPDEST PUSH2 0xB26 PUSH1 0x20 DUP4 ADD DUP5 PUSH2 0xAF5 JUMP JUMPDEST SWAP4 SWAP3 POP POP POP JUMP JUMPDEST PUSH1 0x0 DUP3 DUP3 MSTORE PUSH1 0x20 DUP3 ADD SWAP1 POP SWAP3 SWAP2 POP POP JUMP JUMPDEST PUSH32 0x6E6F74206F776E65720000000000000000000000000000000000000000000000 PUSH1 0x0 DUP3 ADD MSTORE POP JUMP JUMPDEST PUSH1 0x0 PUSH2 0xB74 PUSH1 0x9 DUP4 PUSH2 0xB2D JUMP JUMPDEST SWAP2 POP PUSH2 0xB7F DUP3 PUSH2 0xB3E JUMP JUMPDEST PUSH1 0x20 DUP3 ADD SWAP1 POP SWAP2 SWAP1 POP JUMP JUMPDEST PUSH1 0x0 PUSH1 0x20 DUP3 ADD SWAP1 POP DUP2 DUP2 SUB PUSH1 0x0 DUP4 ADD MSTORE PUSH2 0xBA3 DUP2 PUSH2 0xB67 JUMP JUMPDEST SWAP1 POP SWAP2 SWAP1 POP JUMP JUMPDEST PUSH2 0xBB3 DUP2 PUSH2 0x833 JUMP JUMPDEST DUP3 MSTORE POP POP JUMP JUMPDEST PUSH2 0xBC2 DUP2 PUSH2 0x869 JUMP JUMPDEST DUP3 MSTORE POP POP JUMP JUMPDEST PUSH2 0xBD1 DUP2 PUSH2 0x8A9 JUMP JUMPDEST DUP3 MSTORE POP POP JUMP JUMPDEST PUSH1 0x0 PUSH1 0x80 DUP3 ADD SWAP1 POP PUSH2 0xBEC PUSH1 0x0 DUP4 ADD DUP8 PUSH2 0xBAA JUMP JUMPDEST PUSH2 0xBF9 PUSH1 0x20 DUP4 ADD DUP7 PUSH2 0xBB9 JUMP JUMPDEST PUSH2 0xC06 PUSH1 0x40 DUP4 ADD DUP6 PUSH2 0xBC8 JUMP JUMPDEST PUSH2 0xC13 PUSH1 0x60 DUP4 ADD DUP5 PUSH2 0xBC8 JUMP JUMPDEST SWAP6 SWAP5 POP POP POP POP POP JUMP JUMPDEST PUSH1 0x0 DUP2 MLOAD SWAP1 POP PUSH2 0xC2B DUP2 PUSH2 0x652 JUMP JUMPDEST SWAP3 SWAP2 POP POP JUMP JUMPDEST PUSH1 0x0 PUSH1 0x20 DUP3 DUP5 SUB SLT ISZERO PUSH2 0xC47 JUMPI PUSH2 0xC46 PUSH2 0x63E JUMP JUMPDEST JUMPDEST PUSH1 0x0 PUSH2 0xC55 DUP5 DUP3 DUP6 ADD PUSH2 0xC1C JUMP JUMPDEST SWAP2 POP POP SWAP3 SWAP2 POP POP JUMP JUMPDEST PUSH32 0x4E487B7100000000000000000000000000000000000000000000000000000000 PUSH1 0x0 MSTORE PUSH1 0x32 PUSH1 0x4 MSTORE PUSH1 0x24 PUSH1 0x0 REVERT JUMPDEST PUSH32 0x4E487B7100000000000000000000000000000000000000000000000000000000 PUSH1 0x0 MSTORE PUSH1 0x12 PUSH1 0x4 MSTORE PUSH1 0x24 PUSH1 0x0 REVERT JUMPDEST PUSH1 0x0 PUSH2 0xCC7 DUP3 PUSH2 0x648 JUMP JUMPDEST SWAP2 POP PUSH2 0xCD2 DUP4 PUSH2 0x648 JUMP JUMPDEST SWAP3 POP DUP3 PUSH2 0xCE2 JUMPI PUSH2 0xCE1 PUSH2 0xC8D JUMP JUMPDEST JUMPDEST DUP3 DUP3 MOD SWAP1 POP SWAP3 SWAP2 POP POP JUMP JUMPDEST PUSH32 0x4E487B7100000000000000000000000000000000000000000000000000000000 PUSH1 0x0 MSTORE PUSH1 0x11 PUSH1 0x4 MSTORE PUSH1 0x24 PUSH1 0x0 REVERT JUMPDEST PUSH1 0x0 PUSH2 0xD27 DUP3 PUSH2 0x648 JUMP JUMPDEST SWAP2 POP PUSH2 0xD32 DUP4 PUSH2 0x648 JUMP JUMPDEST SWAP3 POP DUP3 DUP3 ADD SWAP1 POP DUP1 DUP3 GT ISZERO PUSH2 0xD4A JUMPI PUSH2 0xD49 PUSH2 0xCED JUMP JUMPDEST JUMPDEST SWAP3 SWAP2 POP POP JUMP JUMPDEST PUSH1 0x0 PUSH2 0xD5B DUP3 PUSH2 0x648 JUMP JUMPDEST SWAP2 POP PUSH32 0xFFFFFFFFFFFFFFFFFFFFFFFFFFFFFFFFFFFFFFFFFFFFFFFFFFFFFFFFFFFFFFFF DUP3 SUB PUSH2 0xD8D JUMPI PUSH2 0xD8C PUSH2 0xCED JUMP JUMPDEST JUMPDEST PUSH1 0x1 DUP3 ADD SWAP1 POP SWAP2 SWAP1 POP JUMP INVALID LOG2 PUSH5 0x6970667358 0x22 SLT KECCAK256 0xC6 0x29 PUSH25 0xB91BD6DA3FBFE79264FEC82A252E9D1E22C83D89DEAED8A116 0xD1 CALLER PUSH5 0x3C64736F6C PUSH4 0x43000810 STOP CALLER "
				},
				"gasEstimates": {
					"creation": {
						"codeDepositCost": "706800",
						"executionCost": "infinite",
						"totalCost": "infinite"
					},
					"external": {
						"VRFCall(bytes32,uint64,uint32,uint32)": "infinite",
						"getLastRandomWords(uint256,uint256)": "infinite",
						"rawFulfillRandomWords(uint256,uint256[])": "infinite",
						"requestRandomWords(bytes32,uint64,uint32,uint32)": "infinite",
						"sRandomWords(uint256)": "infinite"
					},
					"internal": {
						"fulfillRandomWords(uint256,uint256[] memory)": "infinite"
					}
				},
				"methodIdentifiers": {
					"VRFCall(bytes32,uint64,uint32,uint32)": "7007bf8b",
					"getLastRandomWords(uint256,uint256)": "d6bf2b77",
					"rawFulfillRandomWords(uint256,uint256[])": "1fe543e3",
					"requestRandomWords(bytes32,uint64,uint32,uint32)": "2f34077b",
					"sRandomWords(uint256)": "f5df3fd4"
				}
			},
			"storageLayout": {
				"storage": [
					{
						"astId": 205,
						"contract": "contracts/shared/utils/oraklContract.sol:VRFConsumer",
						"label": "sRandomWords",
						"offset": 0,
						"slot": "0",
						"type": "t_array(t_uint256)dyn_storage"
					},
					{
						"astId": 207,
						"contract": "contracts/shared/utils/oraklContract.sol:VRFConsumer",
						"label": "diamondContract",
						"offset": 0,
						"slot": "1",
						"type": "t_address"
					},
					{
						"astId": 209,
						"contract": "contracts/shared/utils/oraklContract.sol:VRFConsumer",
						"label": "sOwner",
						"offset": 0,
						"slot": "2",
						"type": "t_address"
					},
					{
						"astId": 212,
						"contract": "contracts/shared/utils/oraklContract.sol:VRFConsumer",
						"label": "COORDINATOR",
						"offset": 0,
						"slot": "3",
						"type": "t_contract(IVRFCoordinator)143"
					}
				],
				"types": {
					"t_address": {
						"encoding": "inplace",
						"label": "address",
						"numberOfBytes": "20"
					},
					"t_array(t_uint256)dyn_storage": {
						"base": "t_uint256",
						"encoding": "dynamic_array",
						"label": "uint256[]",
						"numberOfBytes": "32"
					},
					"t_contract(IVRFCoordinator)143": {
						"encoding": "inplace",
						"label": "contract IVRFCoordinator",
						"numberOfBytes": "20"
					},
					"t_uint256": {
						"encoding": "inplace",
						"label": "uint256",
						"numberOfBytes": "32"
					}
				}
			},
			"userdoc": {
				"kind": "user",
				"methods": {
					"rawFulfillRandomWords(uint256,uint256[])": {
						"notice": "rawFulfillRandomWords is called by VRFCoordinator when itreceives a valid VRF proof. rawFulfillRandomWords then callsfulfillRandomWords, after validating the origin of the call"
					}
				},
				"version": 1
			}
		}
	}
}